:020000041000EA
:10100000480500201910001000000000415E00108B
:1010100000040100000100001149124A124B00F0C7
:1010200018F8124880471249124A134B00F011F881
:101030001249134A134B00F00CF81349134A0020CD
:10104000521A02DD043A8850FCDC114880471148EE
:1010500080479B1A03DD043BC858D050FBDC704727
:10106000C0B400100C000020440100202911001021
:10107000F8B50010480500206006002010B70010E9
:10108000600600206006002060060020C80B0020DB
:10109000BDA700108D5E0010FEE700008022064B09
:1010A000520119890A4348211A818022585A120193
:1010B00002435A527047C04600000540FF21080015
:1010C000094A10B5136812681B0A1840194209D062
:1010D000114000020918054808F082F84000044B4E
:1010E000186010BD0348FAE700030140000024F433
:1010F000F83F00200048E801C0228021074B10B5CE
:101100005A62074A074BC905136013680B42FCD1AA
:10111000C322024B5A62FFF7D1FF10BD000001400D
:10112000000301400001F13F10B5FFF7B7FFFFF7E3
:10113000E3FF10BDC023034A9B0191880B439380BA
:101140007047C04600000540F8B580238026802502
:1011500004005B01C71876006D02200033689847D1
:10116000A84203D10134FF34BC42F6D1F8BDC046D9
:101170008222030010B5520008001900126890473F
:1011800010BDC046F8B50D000400170007F0F6FAD0
:101190002B7A002B2CD01A005E0801363602002F65
:1011A00007D02879296800282CD01A00200007F0E1
:1011B0005DFBEB79154A013B5B003343134381220E
:1011C000E3636B795200013B19060A436263AA7913
:1011D000002A12D0636B013A12041A436263A023FF
:1011E000DB00A36301235B42E3646B892364F8BDE6
:1011F0009026102210233601D1E7626B1B041343A3
:101200006363ECE7200007F0D9FAD2E7010003009E
:1012100084235B00C258E023DB041A4203D0C023BE
:101220005B00C1507047836B1B06FCD480239B017D
:10123000C3648023C150F5E70B008908890040187A
:1012400003211940F823C9008B408A4010B5046976
:0C1250009C43046103691A43026110BD55
:105000000448054B10B5834203D0044B002B00D05D
:10501000984710BD600600206006002000000000D8
:1050200006480749091A8B10C90FC91810B549104D
:1050300003D0044B002B00D0984710BD6006002021
:10504000600600200000000010B5074C2378002BFC
:1050500009D1FFF7D5FF054B002B02D0044800E033
:1050600000BF0123237010BD600600200000000077
:10507000BCB40010054B10B5002B03D00449054803
:1050800000E000BFFFF7CCFF10BDC04600000000ED
:1050900064060020BCB40010F0B546464F46D64624
:1050A000C0B50700080080219846504B490092B0D7
:1050B0005960012391464E4A4E4C13614E4A0025D9
:1050C00013614E4A13614E4A136B234013634D4BD9
:1050D0004A46036043600023836022230573FD5426
:1050E0000533FD542F33FA540322013BFA546B4627
:1050F0009E1D3200A020358003F040F83488092C32
:1051000000D96EE00534A401A3B29A4624220021FE
:1051100009A805F045FB3C4B02AD1B683B490293D7
:1051200001232B714B466B713B8EEB804346186815
:1051300004F0FAFD05F0A2F943463449A860586826
:1051400004F0F2FD05F09AF943463049E8609868AA
:1051500004F0EAFD05F092F943462D4928611869EB
:1051600004F0E2FD05F08AF96861B86904F0E8F935
:105170007823A861FA5C753B29009C46101DC0B2DB
:105180006446144063001B195B00FB181C0060346C
:10519000248801328C831C006433623424881B8889
:1051A000D2B28C848B8502319042E9D15746544665
:1051B00040372D1B21002A19A020043402F076FF6D
:1051C000A742F7D180213388320001334900A02063
:1051D000338002F06BFF12B0E0BCBA46B146A8467D
:1051E000F0BDA0235B009A4635808FE700000440A5
:1051F00000010448FEFEFFFF0002005000020448C8
:10520000000001400080BB44240A002000007A44D2
:1052100000002041F0B5CE46474680B5204B85B012
:10522000029300230E0002A904001700994603937D
:1052300003F028FA02236A46012598464B462000CF
:10524000012153801770557003F050FA200001219E
:1052500003F03CFA4B4601AA53804346200002214A
:105260001770537003F042FA2000022103F036FA5F
:1052700020000C4903F078FA2A00B3009A4013008A
:10528000A022D2051361FF232900334099404346F1
:10529000D1602361E56005B0C0BCB946B046F0BD41
:1052A00060000100FFFF000010B5802208212248A5
:1052B000FBF7C2FF802201212048FBF7BDFF8022BF
:1052C00002211E48FBF7B8FF802203211B48FBF791
:1052D000B3FFA02206211848FBF7AEFFA822072142
:1052E0001548FBF7A9FFF8220A211548FBF7A4FF90
:1052F000F0220B211248FBF79FFF902205210F4857
:10530000FBF79AFF002204210C48FBF795FF0022CF
:1053100005210948FBF790FF002204210648FBF70E
:105320008BFF002203210448FBF786FF00220121A6
:105330000148FBF781FF10BD00000440000104405C
:1053400000020440F0B591B004000822002104A836
:1053500005F026FAA0236A4606211374504804AAD1
:1053600003F078F80822002106A805F019FAA8230E
:105370006A46072113764A4806AA03F06BF8002113
:10538000484803F0AFF802260123A020454F002132
:10539000FB60C005FE6003F041F9A023424DDB0530
:1053A0000822DE60002108A805F0FAF9280008A903
:1053B00003F0B0F8238801216B633C4B280001AA5D
:1053C000019303F0E9F801220121280003F0C8F855
:1053D000102200210CA805F0E3F9382069460123CA
:1053E00009180B7032480CA903F030F921883048B5
:1053F00003F0BAF92F4B01212D4802AA029303F0C2
:1054000075F9012201212A4803F04CF9B422062142
:10541000274883588B4333438350274B27480AA997
:105420000A930B9603F08EF8042303AAFF3301219D
:105430002248039303F0B0F80121204803F0A4F8B8
:105440008023A0225B00D205FB60D3602468013476
:10545000A4B264082000EC6305F080F8002104F099
:1054600063FC05F00BF8021C80B2A04200D9221C9C
:10547000A21A92B2013C141900210D48A4B203F003
:1054800075F9220001210A4803F070F90122054B49
:105490001A61A0230F32DB051A6111B0F0BDC046BE
:1054A0000000044000000448000104480801010015
:1054B00000020050070101006000010000020448E2
:1054C00070B50C1C05001649201C04F011F80028CA
:1054D00020D11449201C04F01FF8211C00281DD1E4
:1054E000114804F053FAFE21890504F06FFD04F021
:1054F00027F8030481B21B0C0C4A286053630C4844
:1055000003F032F901220B4B1A61A0230F32DB05A5
:105510001A6170BD084B19001800EDE70149DFE77B
:1055200000409C46007C12480024744C0001044852
:1055300000020050000004487F0C000010B5324B00
:1055400082B00093002301AA04000021A02001934F
:1055500002F014FE019A009B9A4230D06A46002164
:10556000A02002F0A3FD220004210832A02002F0B6
:105570009DFD220008210C32A02002F097FD2200A0
:105580000C211032A02002F091FD220010211432D3
:10559000A02002F08BFD220014211C32A02002F07A
:1055A00085FD22001821A0201E3202F07FFD6369D4
:1055B000A361E368E362E38B238402B010BD2200A1
:1055C00004210832A02002F0D9FD220008210C326B
:1055D000A02002F0D3FD22000C211032A02002F006
:1055E000CDFD220010211432A02002F0C7FD2200C0
:1055F00014211C32A02002F0C1FD220018211E320D
:10560000A02002F0BBFDD2E758331217F8B54E4682
:1056100045465746DE46E0B555271E00C35D0400EB
:10562000884615009946032B00D142E1CE493068E7
:1056300003F072FF002800D0D5E07368E068191C01
:105640009A4603F055FF002800D0F9E05046C749BC
:1056500003F062FF002800D0F2E0C549306903F092
:105660005BFF002800D0B3E2C24B1A684B46012B07
:1056700000D1F1E000D8C3E0022B00D012E12223D8
:10568000E35C002B00D19BE12523E35C002B00D1E0
:10569000C0E12623E35C002B00D1BBE12323E35CC4
:1056A000002B00D0B6E12723E35C002B00D1AEE253
:1056B0005723E35C002B00D12AE3012B00D17FE3C9
:1056C000022B00D196E300273E1CE16D301C03F055
:1056D0004FFFA949061C03F01FFF002800D02EE34E
:1056E000A649301C03F004FF002800D197E3A44929
:1056F000A24EE665381C03F03BFFA16903F038FFBA
:10570000A049061C03F012FF002806D09E49301C59
:1057100003F0F8FE002800D076E32B7B2E68002BE8
:105720001CD0AF689949381C04F0FEFA011C301CEB
:1057300003F01EFF0021061C2860381C03F0F6FE53
:10574000002800D1FEE26F68301C391C03F0EEFE29
:10575000002803D000232F602B733E1C301C03F065
:10576000EFFE43468A492084301C1D6804F00EF980
:105770000021061C03F0BCFE002800D0DBE28549B6
:10578000301C03F0C9FE002800D0D6E2301C81494D
:1057900004F0FCF8061C01357F4BADB26D08DD63EB
:1057A000280004F0DBFE311C04F0BEFA03F0A6FB77
:1057B000021C80B2A84200D92A1CAA1A92B2013D4A
:1057C000551900217548ADB202F0D0FF2A00012121
:1057D000724802F0CBFF0122714B1A61A0230F32F5
:1057E000DB051A61DCE13300012229002000FFF70C
:1057F00053FCE35D5F4A1268012B2DD0012B4CD87E
:105800002223E35C002B00D0F8E00422654B5A60B1
:105810000222644B5A6023232032A25CE35C0132F3
:10582000FF325B0013432522A15C213A49420A4022
:1058300013432386F0BCBB46B246A946A046F8BD3A
:105840003300022229002000FFF726FC5523494A95
:10585000E35C1268012BD1D18022534B52005A6075
:1058600001234D4A514913614C4A1361504A136157
:10587000504A136B0B4013634F4B27222B606B6016
:105880000023AB6000232B73A3542233E35C002B73
:10589000BBD05523253AE254B7E7022B00D1EEE600
:1058A000032B08D055230022E2543E4B04325A60A9
:1058B000AEE7304B1B6880223B4B52005A600123FD
:1058C000354A3A491361354A1361394A1361394AF5
:1058D000136B0B401363384B27222B606B60002344
:1058E000AB6000232B73A3542233E55C002D1CD046
:1058F0005523E25C04212B4B5960032A00D087E733
:10590000802292025A605623E35C012B00D156E1BB
:10591000022B00D156E1032B00D156E1043B5A4241
:105920005341DB010133FF3383E71A49306803F049
:10593000E9FD0028DCD0E168706803F0E3FD002891
:10594000D6D01E49306903F0DDFD0028D0D08C236D
:10595000E35C002BCCD056230422E554013BE554F4
:10596000104B5A6054E7C046000050420000784295
:105970000000AA42240A002000409C4500409CC52B
:1059800000007AC300409C46005043486F12833A9F
:105990000000C842000048420001044800020050D4
:1059A000000004480001044000000440FEFEFFFF28
:1059B00000020448000001400080BB440000A042F7
:1059C0008021E84A490051600122E749E7480A611D
:1059D000E7490A61E7490A61E7490A6B02400A633D
:1059E000E64A2B732A606A600022AA602722A35429
:1059F0002E32A354E24B513A5A6009E70023252185
:105A0000E3630023C83A6354E2640222E38455331B
:105A1000E254FAE6002327216354D8492B73296006
:105A200069600021E36CA960D31AC72B00D8ECE6AB
:105A3000E264CD4A80239346012291465A46494664
:105A40004846C84D5B006B601161C94ACD4F11617A
:105A5000C8490861C848CC4982465646036BC348CA
:105A600003403363464631605E4671634E46100024
:105A700002F07AFE3E61A02610234246F60533610D
:105A80001368002101339BB25A0890465A4640469B
:105A9000D0630022B64802F069FE4246013A012175
:105AA000B34892B202F062FE4A463A6110270121E1
:105AB0005846376102F0A4FD0121AD4802F04AFECC
:105AC00080235B046B605E460223A94AA9493361C7
:105AD000136152460B610223126BFF33134352468C
:105AE0001363136BA148034013634A463530CA6001
:105AF000FF3002F0DDFB80235B0000219D486B60DE
:105B000002F088FD00287DD043011B1AE76B5E0080
:105B100066D0300004F022FD9C4903F037FF011CE1
:105B2000FE20800503F032FF994903F02FFFA664A1
:105B3000051C9849281C03F0DBFC00281CD1964961
:105B4000281C03F0E9FC002816D10026381C311C63
:105B500003F0C8FC002800D1DDE0216C281C03F014
:105B600007FD44232064A562E35C0A2B00D13AE1DF
:105B70000133DBB24422A354012325228021A35404
:105B80000132A354774A49005160774A774913613B
:105B9000774A1361774A1361774A136B0B4013639B
:105BA0005523E25C022A00D0A4E62E3BE35C002BE6
:105BB00000D12AE68022724BD2025A6028E688235E
:105BC0005B0036E690235B0033E6A0235B0030E603
:105BD0003300032229002000FFF75EFAE35D09E6A7
:105BE000A06C0028C8D004F0B9FC684903F0CEFED0
:105BF000011CFE20800503F0C9FE654903F0C6FEC6
:105C0000051C96E701215B4802F004FD7CE7A769CB
:105C10006249381C03F06CFC002800D0CCE06049DD
:105C2000381C03F079FC391C002800D05C495D4821
:105C300003F0ACFEFE21890504F0C8F903F080FCF6
:105C400003041B0C81B242461060474A4848536324
:105C5000914602F089FD01224A4B1A61A0230F32BE
:105C6000DB051A6143461F684B460137BFB27F0808
:105C7000DF63380004F072FC002104F055F804F0F2
:105C8000FDFB021C80B2B84200D93A1CBA1A92B28B
:105C9000013FD71900213648BFB202F067FD3A0034
:105CA00001270121324802F061FD364B10221F61AD
:105CB000A023DB051A61E08B04F050FC0023011CDB
:105CC0002B60686003F054FC0021A8602F73264805
:105CD00002F096FC0021264802F03CFD8022214B78
:105CE00052045A600223204A1361214A136102229E
:105CF000214BFF32196B0A431A631A6B1B490A4086
:105D00001A632723E754053BE35C002B00D0CFE464
:105D10000023E36501E52449281C04F005F8234924
:105D2000051C381C04F000F8011C281C03F020FCA2
:105D3000A062E06320E700262DE5164827E51C4910
:105D40001C4ED6E40021381C03F0D2FB002800D101
:105D500004E56F68301C391C03F0D4FB002800D127
:105D6000FCE4F7E40000044000010448FEFEFFFFED
:105D70000002005000020448000001400080BB44C3
:105D800000010440000004487F0C0000286B6E4EA8
:105D900000007A44000048420000164300409C4640
:105DA000007C12480024744C8C2E3A3E5D74513FA6
:105DB00000007A4300409C451C490B00080042E764
:105DC000B0681B4903F0B0FF5823061CE05A04F0EA
:105DD000C5FB011C301C04F0F9F81649061C03F041
:105DE000A3FF071C71E4144903F0D0FD0223E06314
:105DF0002664BFE67168306803F096FF0C4903F033
:105E000093FF5A23061CE1E7A661301C03F098FBC0
:105E100004F0A4FB011C4046FFF752FB7DE4074958
:105E2000301C03F081FF011C63E4C0467F0C0000BE
:105E300000007A440000204000002041CDCC4C3DC1
:105E4000C046FDE7024A1368013313607047C0463D
:105E5000240A0020014B18687047C046240A00201D
:105E6000F8B590248A25E4056D0063591B070AD410
:105E70008E26054F7600A1593800C9B200F0BAFC51
:105E800063591B07F7D5F8BD54070020F0B5DE466F
:105E900057464E464546E0B5A3B000210C2212A855
:105EA00004F07EFC80235B021393012310AA12A846
:105EB000537202F0ABFAFBF701F9FA21FB4B8900B0
:105EC000186803F08DF9802301385B0498420DD2E5
:105ED000C021F74A09065060F648036A1B021B0AF4
:105EE0000B430362002393600733136062B6042000
:105EF00002F002FA022002F0FFF9082002F0FCF999
:105F0000012002F0F9F9FFF7CFF9EB4B18000493E9
:105F1000FFF718FA012002F0EFF902F077FE1822DD
:105F200000211CA804F03CFC0323E4481CA91D9399
:105F300002F076FE0321E24802F0E0FE0321E14890
:105F400002F0DCFEDD4802F08DFE8021DE4ADB48F7
:105F50004358002B00DA7BE31023072718AC1022EC
:105F600000212000994604F01BFCD84B2200189316
:105F70000121D348677302F021FFA7230025D04AEF
:105F80000F219B00D5500922FF26A37888468B431A
:105F90001343A370220066730021C94802F00EFF6C
:105FA000A923C74A9B00D5504246A3786673934302
:105FB0000B221343A37022000021C24802F0FEFE10
:105FC000AB23C04A41469B00D5500A22A378667392
:105FD0008B431343A3702200BA480E3902F0EEFE41
:105FE000AA23B84A41469B00D5500422A378667381
:105FF0008B4313430B392200A370B2488A4602F048
:10600000DDFEA423AF4A9B00D55005239B46159384
:106010004B4615A9A9481793169502F077FEC023A1
:106020000220A6495B00CA58FE3E3243CA50CA58F5
:106030000243CA500433CA583243CA50CA580243B2
:106040004846CA50CA580243CA50812292008B580F
:10605000F130FF3003438B5012239D489D4A1C931F
:10606000835A9D490B40835203311CAB1A00FF3108
:1060700002F0DEFEB622964912018B589748334350
:106080008B5006211CAA1D9105391C9502F0DEFEDD
:106090004B466026220000219048189302F0EAFE49
:1060A00008220021200004F07BFB210026708C4890
:1060B00002F0E8FA01238A4A0021D3601CAB0822CF
:1060C000180004F06DFB302310AAD21816701CAE15
:1060D0003100844802F0D6FA0123824A1E00D360C0
:1060E000169315AB1A0004217F48159502F0B2F9FA
:1060F000902322001893052166607B4802F0AAF9DC
:10610000FA239B021C93794B90261D934B46F60570
:106110001E931CAB190030000122FBF733F8062157
:10612000F3693000BB430B435946F361B36A052260
:10613000BB430B435146B362336BBB430B433363E7
:106140000021002302F018FC012330000522202149
:1061500002F0FCFB30000022102102F025FC300090
:106160000022132102F020FC8622C023C22052000C
:10617000B158DB050B43B3505D4B800019585D4AA5
:106180001140C02212020A431A50802292001A6063
:1061900042460220336C15A9934303433364564EA1
:1061A000494B30000E3A1695159302F039FC5A46C9
:1061B000F3692021BB4313435246F361336A4F48CE
:1061C000BB4313433362B36A3C32BB43B362F36AEB
:1061D000BB43F362336BBB433363F3690B43F3613C
:1061E000F3691343F361336A0B433362336A16393D
:1061F000134342463362336C934352461343336432
:10620000F823012618932200666002F023F9F02398
:106210001CAA0B2139481C931D9602F01BF9A020E3
:106220000021C00502F0FAF98023A0225B00D2050C
:10623000D360002108221CA804F0B2FA0C213048D7
:106240001CAA02F007F90D212D481CAA02F002F940
:10625000002200212248FEF7DDFF01220321214810
:10626000FEF7D8FF274B99461800FFF767F94B4612
:1062700004989969FFF724F9234B402118000F93E4
:1062800001F0A2F84A4622231570D5541F4A4E4603
:10629000934615681368039313680793136809936B
:1062A000136808931A4B0A9334E0C046F83F002065
:1062B00010E000E000ED00E0FC05002000000348D5
:1062C0000004034800080348A086010002002700DC
:1062D000000501405C0B0000FFFEFFFF00060140CF
:1062E00000010050000400500001044000080801B3
:1062F00000E100E0FF00FFFF000200480002044050
:1063000000000440B806002098060020240A00205F
:1063100054070020D14B9A46D14B9846D14B10934D
:10632000D14B0E93D14B11935B461C685346210011
:106330000093049A33000A9800F06AFA5223F35C3F
:10634000002B00D036E1A54200D1CDE0C722C84BDA
:1063500092009A580D92C92292009B5808321B0550
:106360001B0D0693C34B9F58043A9D58183A9B58EF
:106370002D051B051B0D0593BF4B2D0D5B6A2800DA
:106380009B07DB0F0B9304F0E9F83F053F0D0C90E2
:10639000002D00D112E1011CB84803F0F7FA051CEA
:1063A00043461B680021181C994603F09BF80028FF
:1063B0000BD181214846C90503F0B6FC291C03F026
:1063C000D7F8AF4903F0E2FA051C434638001D60D8
:1063D00004F0C4F8291C03F0A7FCAA4903F0D6FA7C
:1063E0000021071C03F07EF8002801D0FE27BF051E
:1063F00043465B680021181C994603F073F8002897
:106400000BD181214846C90503F08EFC391C03F0ED
:10641000AFF89B4903F0BAFA071C43465F600B9B39
:10642000002B00D1DBE0984B9946059804F096F8D4
:10643000291C03F079FC914903F0C8FD494603F09B
:10644000A5FA0590069804F089F8291C03F06CFC65
:106450008A4903F0BBFD8D4903F098FA4346069044
:106460001B7A092B00D9ABE042460133D068137286
:106470005346524651461F60059B0C9D5360069A39
:1064800008618A60CD6078216023755C9C46A946CE
:106490006D004D446D007519AC4463467C49381C51
:1064A0000B9303F041FC03F0E9FF0B9F7849388020
:1064B000059803F039FC2F0003F0E0FF62377449C0
:1064C0003880069803F030FC03F0D8FF4B460322D7
:1064D00078210133134064357354288053463000CB
:1064E000109A0499FFF792F8039BE31A092B11D92C
:1064F0000122542060494B6A5B08134033544B6AB5
:106500001A405323F2543378022B6BD00E9801F0CB
:10651000C1FC0394FA22099B9200E31A934203D32D
:106520003378012B25D00994079BE31A182B37D811
:10653000FA22089B5200E31A934218D3554B564A4D
:106540005A603378002B11D1FA23DB009C420DD323
:106550002423F25C223B002A04D1B28B002A01D012
:106560007263013B0F98337000F098FE0894250089
:10657000DAE62423F35C002BD5D1736B002B61D1B9
:1065800001232422B354023AB3540133337000235D
:10659000738033710A230F98736300F07FFEC2E7A4
:1065A00003237278119801321340737000F02AFFB0
:1065B0000794BDE70F9800F0B1FEC4E6374DEFE653
:1065C0000D9B424618050023000D1372431E344AEA
:1065D0009BB293421AD933484346D86048E72B4BC5
:1065E000994622E72321715C002A09D1B378022B56
:1065F00005D0002907D1012B88D1B17086E700238F
:10660000B370002982D00123B3707FE703F0A6FFA7
:10661000051C011C244803F0D9FC011C281C03F0B4
:10662000B5F902F03BFC214903F07EFB204902F062
:106630009FFF011CFE20800503F0A8F91D4903F00F
:10664000C5FCC9E7013B7363002B00D06BE797E7FC
:10665000013A002A00D07BE47EE4C046A406002074
:10666000EC050020DC050020480700207C06002007
:1066700000040348000803480000044000002040D4
:106680000000A040D044583BCDCC4C3D0AD7233D20
:106690000000C8420001044008000800BF49533A06
:1066A000FD0F00000000C84100F07F457CD4833915
:1066B0000FCF5B3B3393884370B5304D280000F01B
:1066C0007BF82F4C2F492200280002F0DFFB2E4DD3
:1066D000280001F08BF9220028002C4902F0D6FB9B
:1066E0002B482C492C4AC160C162802182602B4A10
:1066F000502502612A4A002342618261294A4900E9
:10670000C26100220163F6394163093941550135FF
:106710004155013543550135435525354355083518
:10672000C26742518262C2630264C265842283509E
:1067300004320360436003624362836341648364A1
:10674000C3644365836583508C33C154703A002120
:10675000603004F025F8144D280000F0D3FC22002E
:106760001249280002F092FB114D280000F046FE6D
:10677000280022000F4902F089FB70BD5407002059
:10678000D8050020F167001048070020F9790010B3
:10679000B8060020000070420000A041000034450F
:1067A0000050C3470A008813980600202571001086
:1067B0007C06002001740010B1220023920010B565
:1067C000036083500432835004328350C02204009B
:1067D00000215200043003F0E3FF2000A0228530A6
:1067E00000215200FF3003F0DBFF200010BDC04647
:1067F0007047C046B223C0229B0010B5C458520057
:10680000944204D2C258541CC4508018017110BD67
:10681000F0B54546DE464E465746E0B51E0090238D
:106820008B467021DB0590469A6C0500C3B011427F
:1068300000D0DA64B2242B1D9946A4006F1D72B6F5
:106840002A5962B62B78002B08D0012B1FD043B0F9
:10685000F0BCBB46B246A946A046F0BD032AF6D915
:1068600029796B79A879EA794B4043409A425AD00A
:1068700072B62A5939004846013A03F07FFF2B5976
:10688000013B2B5162B62B59032BD8D8DFE7B32736
:106890005946BF00EB59CB1A322B32D8C34BE85ABA
:1068A000873BFF3B9C46411E8BB2634529D29042F9
:1068B000CDD82B1D9946002954D02A79012907D01B
:1068C00001234F46FC5C013362409942FAD8B94635
:1068D00069180B7993424AD072B690228C2380219A
:1068E000D2055B000902D1508021C901D150B222EA
:1068F000002359469200AB500432A9502B7062B667
:10690000A5E772B690228C238021D2055B00090294
:10691000D1508021C901D15000235A462B51EA5150
:106920002B7062B693E7AB7968791B020343B12001
:10693000800029549D495BBA6B529D4BEA5472B654
:1069400029002A594846043A083103F017FF2B5909
:10695000043B2B5162B6B3235A469B00EA500123F5
:106960002B706CE7002269180B799342B4D12B7914
:106970009A4652468E4BEA54013BEB5C022B49D0BF
:106980002C008534FF34032B00D188E000239A4685
:106990009846009372B6B227844BBF00EB5AEA596F
:1069A0004846D21A0433E91803F0E8FE7F4AEB594F
:1069B000AA5A9B1AEB5162B64346002B00D0FBE16A
:1069C0005346002B00D0DDE1009B002B00D10FE1EE
:1069D000E423FF33A1469A4690278A268024A846BE
:1069E000AA44FF054D467600640100E0C046BB594D
:1069F0002342FBD190202978C0050135FAF708FC25
:106A0000AA45F4D1B32345465A469B00EA500023D9
:106A10002B701CE7EB88674A934200D11DE2664A5F
:106A2000934200D100E2654A934200D1A2E2644A57
:106A3000934200D181E0002B01D05BBA33866B79A1
:106A4000012B00D158E2002B10D12222B3545D4B10
:106A5000DE325A6001235C4A5C4913615C4A13616F
:106A60005C4A13615C4A136B0B401363A8685B4B71
:106A700000BAC2185A4B9A4200D808E2022211000A
:106A80002B7B19401A4200D1FBE101212132B15484
:106A90001B0700D5F5E22C008534FF3476E76B79CF
:106AA0009846092B00D922E25F1DFFB2BF012C00DE
:106AB000A0228534FF3420005200002103F070FE34
:106AC000C223484A5B00EA525F220233EA54882319
:106AD0005246FF33EA5442460133EA54493BFF3BF6
:106AE0009A462B0022008A33FF33BA44DB1BA846A8
:106AF00054461D0092463900EA19A020043701F0DF
:106B00003DFBBC42F7D188234546FF332800EA5CB1
:106B10002B0054468933E330FF33FF3019780133BB
:106B20004A409842FAD1F1235B00EA5400239A4686
:106B300001330093002398462CE72C00A0228534D3
:106B4000FF34002152002000AF6803F029FE8623A5
:106B50000122FF33EA5401330232EA548823013A16
:106B6000FF33EA5452460133EA548A23552228005F
:106B7000FF33EA541C4B3FBA8B30F918AB32FF306D
:106B800003F04CFE2B005146184A8A33FF33AA18F3
:106B90001878013341409A42FAD1144BE954012349
:106BA0009A46002398460093F4E6C046C6020000C9
:106BB000C5020000FFF00000FFF10000FFF200003E
:106BC000FFF300000000044000010448FEFEFFFF48
:106BD000000200500002044800000140E0B1FFFF45
:106BE00020BF0200035C000000B001108A02000018
:106BF000A02200215200200003F0D2FD86235C2257
:106C0000FF33EA54013BEB5CCA495340C3225200B4
:106C1000AB54C94BEF5C8823FF33EF54663BFF3B1B
:106C2000F25C6733FF33EA54A822338EFF321B0A2B
:106C3000AB54D423328E5B00EA544C9B186803F0AB
:106C400073F803F01BFCCA23020EFF33EA5402144C
:106C50000133EA54CC230212FF33EA540133E854DF
:106C60004C9BB449586803F05FF803F007FCCE234F
:106C7000020EFF33EA5402140133EA54D023021205
:106C8000FF33EA540133E8544C9BAA49986803F057
:106C90004BF803F0F3FBD223020EFF33EA54021445
:106CA0000133EA54D4230212FF33EA540133E85487
:106CB0004C9BA249186903F037F803F0DFFBD62399
:106CC000020EFF33EA5402140133EA54D8230212AD
:106CD000FF33EA540133E8544C9B5968186803F0B9
:106CE00023F8944903F020F803F0C8FBDA23020EDE
:106CF000FF33EA5402140133EA54DC230212FF3357
:106D0000EA540133E854B06902F01AFCDE23020EA3
:106D1000FF33EA54020C0133EA54E023020AFF3342
:106D2000EA540133E8548B3BFF3BF25CE223FF3330
:106D30002900EA542B00E3318933FF33FF311A78FD
:106D4000013357408B42FAD1F1235B00EF54E42327
:106D5000FF33A1469A4690278A268024A846AA4453
:106D6000FF054D467600640100E0C046BB59234252
:106D7000FBD190202978C0050135FAF749FAAA45D8
:106D8000F4D13FE66E4BA1469A4690278A2680248E
:106D9000A846AA44FF054D467600640100E0C046BF
:106DA000BB592342FBD190202978C0050135FAF761
:106DB0002FFAAA45F4D125E6A02200212000520096
:106DC00003F0EEFC86230522FF33EA54013BEB5C23
:106DD00055215340C3225200AB548822564BFF32F8
:106DE000EB5CA146AB540132A954552253408A2290
:106DF000FF32AB54C5235B009A4690278A26802435
:106E0000A846AA44FF054D467600640100E0C0464E
:106E1000BB592342FBD190202978C0050135FAF7F0
:106E2000F7F95545F4D1EDE580222900AC680C3125
:106E3000520002A803F0F2FCFAF77CF9414B24BAA5
:106E4000E01802A9FAF794F900232C009A4600935F
:106E5000853401339846FF349CE53A4BAC689A463A
:106E600024BAA2441F009A4508D93800FAF76CF9F1
:106E700080235B019C466744BA45F6D8324B1C60C0
:106E8000E2E75A0700D403E62322B15400E603F0F8
:106E900065FB2E49B061041C02F02AFB002822D1B8
:106EA0002B49201C02F038FB211C002800D0284967
:106EB000284802F06BFDFE21890503F087F802F0F7
:106EC0003FFB03041B0C81B242461060224A234858
:106ED000536301F049FC0122214B1A61A0230F32B8
:106EE000DB051A61CAE51F490B000800ECE7A02783
:106EF00000237F009846DAE522220021B354164889
:106F000001F07EFB0021154801F024FC8022164B85
:106F100052045A600223104A1361104A136102227C
:106F2000124BFF32196B0A431A631A6B10490A405D
:106F30001A639BE500007A44C5020000000020416E
:106F40008B02000000B00110FC3F002000409C4676
:106F5000007C12480024744C0001044800020050D8
:106F6000000004487F0C00000000044000000140C5
:106F7000FEFEFFFF8022574B52005A600123564A03
:106F800056491361564A1361564A1361564A136BA8
:106F90000B40136322230022F254072808D9AB6860
:106FA000524A1BBA9846C62342445B029A420BD906
:106FB0004F4B4E4A1B689846C62342445B029A4296
:106FC00002D991235B0298462C00A0228534FF341D
:106FD00000215200200003F0E3FB86230522FF334B
:106FE000EA540133EA5488225521424BFF32EB5CCC
:106FF0009027AB540132A954552253408A22FF32C4
:10700000AB54C5235B009C46AC446346019380238C
:107010005B019A460094FF0500E0C0468A23524671
:107020005B00FB581342F8D19020009BC0051978F3
:10703000FAF7EEF8009B019A013300939342EDD1E9
:107040008A22802390205200B9581B01C0051942A2
:1070500003D1C04681581942FBD000230293029A03
:10706000254B19009A4206D8C046029B0133029371
:10707000029B8B42F8D942462049214804F038F857
:1070800084E4320004210832A02001F00FF832001D
:1070900008210C32A02001F009F832000C21103236
:1070A000A02001F003F8320010211432A02000F0DB
:1070B000FDFF320014211C32A02000F0F7FF2C004D
:1070C00032001821A0201E32853400F0EFFFFF347B
:1070D0005CE4C0460000044000010448FEFEFFFFDF
:1070E00000020050000204480000014000FCFFFFC5
:1070F000FC3F0020C50200003F0D030000B001105E
:1071000000100010142200234270103A82700432E2
:10711000027138320370C37042718371C37103729C
:107120007047C0467047C04610B5047900220C4332
:1071300041790B4801F0ACFC04210948214301F0DE
:1071400001FD022001F0B4F82100054801F0FAFC2D
:10715000034801F0DDFC052001F08AF810BDC046AF
:1071600000020048F8B5CE46474680B50D0041798B
:1071700000294BD02D4B984650234246D35C002B20
:1071800044D05223D35C002B40D188270379284C6C
:107190009946E36CBF003B4300222000E36401F00A
:1071A00077FCFEF757FE060004E0FEF753FE801B57
:1071B000042835D8A36C3B42F7D02023A26C13429D
:1071C00028D180234946E26C9B001343E3642943A2
:1071D000174801F0B7FC8826FEF73CFE144C05006A
:1071E000B60004E0FEF736FE401B042818D8A36C56
:1071F0003342F7D02023A26C13420BD18023E26CE0
:107200009B0013430A48E36401F082FCC0BCB9460A
:10721000B046F8BDE26C06481343E36401F078FC25
:10722000522301224146CA54F0E7C046B806002066
:1072300000020048F8B50F230E00CE4647469E4395
:10724000164380B58946310005001400FFF78AFF18
:10725000042331000427984639432800C9B2FFF7B8
:1072600081FF4346310028009943FFF77BFF4B46DF
:107270001B011C43E4B2280021002743FFF772FFE3
:107280002800F9B2FFF76EFF43462100280099431A
:10729000FFF768FFC0BCB946B046F8BD10B5002284
:1072A0000121FFF7C7FF022000F0E2FF00F098F88D
:1072B00010BDC046F0B585B06D460C4B8C46C2CBB8
:1072C000C2C51B686C462B608378934201D8013B92
:1072D000DAB280219200A358494263441943002244
:1072E000C9B2FFF7A7FF05B0F0BDC04600B100105E
:1072F00070B50E00097805000024002908D10BE0C4
:10730000012228000134FFF795FF315D002903D0E9
:107310006A78E3B29A42F3D8012070BDF8B502262C
:10732000274D0400280001F065FCAE66EB6C0F22CF
:107330003343EB64EB6C012304275B42EB642B6C5F
:10734000322093433B432B6400F092FF2000302116
:10735000FFF7EAFE20003021FFF7E6FE2000302193
:10736000FFF7E2FE20002021FFF7DEFE2023A179B7
:10737000200019430022FFF75DFF2000E771002283
:107380000C21FFF757FF002201212000FFF752FFD9
:10739000022000F06DFF2000267200220621FFF778
:1073A00049FF002202212000FFF744FF022000F0E5
:1073B0005FFF00F015F852220021024B9954F8BDEE
:1073C00000020048B80600200123827810B59342DD
:1073D0009B415B42DB0041718371FFF79FFF10BD52
:1073E000542210B50021034803F0DAF9FF22024BC2
:1073F0001A7010BD280A0020000600207047C04601
:107400007047C046F0B5454657464E46DE46002317
:10741000E0B5CA4F8FB003713B78C94C98462378CA
:1074200005007E7843453CD1C64B0293FB78002B88
:1074300033D1BB781A000393434664245C43B30002
:107440009B195B00E418C04BA4189B465B682C603A
:10745000181C9A4603F012F8814603F02FF8011C1D
:10746000504602F0B3FDB94902F05EFC03F006F8A5
:10747000FF2382465B009C4200D165E21BDCE82CC6
:1074800000DD8CE0C72C00DCDCE0C83C202C00D9FF
:10749000F3E0AF4BA4001B599F4600230022039347
:1074A000CAE7A84B542218000021029303F078F990
:1074B00043462370BAE7E1239B009C4200D14EE291
:1074C0002BDCA44B9C4200D1F4E000DDC9E0A24BD0
:1074D0009C4200D130E25A339C4202D0643B9C4231
:1074E00065D17F699D49381C02F050FA02F0C6FF51
:1074F000040002F0E3FF994902F016FC011C381C5D
:1075000002F064FD964902F041FA02F0B7FFC2436F
:107510000300D21793491340C5E08B23DB009C4244
:107520004DDA914B9C4200DDF6E16D3B9C4200D16F
:10753000EAE18E4B9C466444012C38D82B1D132263
:1075400018008B499B4603F069F92B7908AC002B96
:107550002FD05D4614222021200003F021F90023C2
:107560002800237503F063F90200142800D91422BF
:107570002900200003F052F973009B19DA00D31A96
:10758000029A2100D518280003F03EF9002828D1DE
:107590000FB0F0BCBB46B246A946A046F0BDC8231A
:1075A0005B009C4200D1BFE164339C4269D0002360
:1075B0002B714346032B34D908AC6E4DCAE76E4B92
:1075C0009C466444012CF2D82B1D9B465423FB5C43
:1075D000002B00D1D0E1694A1821584603F078F811
:1075E000B3E721001522280003F018F9644D32009A
:1075F00028000021FFF75EFE21002800FFF778FE3B
:10760000C6E7FEF727FC5F4901F0EAFD2B1D0200EB
:107610005D4918009B4603F08FF82B79002B00D0B2
:1076200022E108AC032EC8D8039B002BC5D14346EA
:107630009B00564A9B199B009D58002D00D089E75E
:107640004C4D87E76E2C18D12B1D18007A6B5049D2
:107650009B4603F071F82B7908AC002B00D078E73B
:10766000E0E7C8239B009C42A1D12B1D1800BA8BD8
:1076700048499B4603F060F867E7002308AC2B718C
:10768000D0E7FF68381C02F0F9FE040002F016FF94
:10769000011C381C02F09AFC2C4902F045FB02F058
:1076A000EDFE03003C492A1D93462200584603F094
:1076B00043F84AE72B1D0C22180038499B4603F07B
:1076C000ADF842E7BC692549201C02F05FF902F0E1
:1076D000D5FE05AB9946824602F0F0FE1F4902F046
:1076E00023FB011C201C02F071FC1D4902F04EF925
:1076F00002F0C4FEC343DB17184053460B21284A4F
:10770000019000934846274B02F0E2FF2221795C6A
:1077100008AC254B254A009120000B2102F0D8FF30
:107720002B1D9B464A4623005846214903F004F886
:107730002B79002B00D00CE774E7C046B806002078
:1077400000060020280A0020A40600200000C842ED
:10775000F0B20010C60200006202000000007A448D
:1077600000002041F0B1001055040000B4FBFFFF01
:1077700044B10010ECB20010A0FBFFFF3CB10010C0
:107780009806002080EE3600D8B1001074B30010C7
:1077900058B1001018B20010E0B100100CB2001087
:1077A00060B100105CB1001070B1001074B1001035
:1077B0007CB10010398C724B724A009105A80B21E4
:1077C00002F086FF5146C817091841400191494609
:1077D0006D4B6E4A08AC00910B21200002F078FF3F
:1077E0002B1D9B466A492300584605AA02F0A4FFB8
:1077F0002B79002B00D0ACE614E75B461F68381CE1
:1078000002F03CFE5B461B690400994602F056FEFE
:10781000011C381C02F0DAFB5E4902F085FA02F026
:107820002DFEC317C01858400B215B4B574A0190DF
:10783000009405A802F04CFF484602F01FFE574F87
:1078400008AC00903B000B212000554A02F040FF9D
:10785000C6E72B1D18000E2252499B4602F0DEFFA0
:107860002B79002B00D1DCE608AC72E65B469B6806
:1078700008AC181C994602F001FE8246398E4A4B2C
:107880004A4A009105A80B2102F022FF504602F05F
:1078900015FE011C484602F099FB3E4902F044FAED
:1078A00002F0ECFDC317C01858405346404F0093F8
:1078B000364A3B0001908FE7B86A05AB994602F063
:1078C000DDFD3C4C009023000B2148462D4A02F080
:1078D000FFFE2523FB5C002B50D0374908AC374B0B
:1078E000374A009120000B2102F0F2FE2B1D9B462F
:1078F0004A4623005846264902F01EFF2B79002BEA
:1079000000D026E62F4D25E62B1D1800FA8B2E49B8
:107910009B4602F011FF18E62B1D072218002B4989
:107920009B4602F07BFF10E62B1D9B462323FB5C4E
:10793000002B1FD0264A4FE62B1D0B22180025498D
:107940009B4602F06BFF00E6C217831853402A1DC6
:10795000934621494A46584602F0EEFEF5E5B868DE
:1079600002F042FE02000B00281D1C49834602F073
:10797000E3FEEAE51A4A2FE61A4A2DE61A49ADE770
:1079800088B1001074B100108CB1001060B100100B
:107990007CB100100000C84290B1001094B10010FA
:1079A00098B10010A4B10010B4B10010B8B100102B
:1079B000C4B10010C8B1001010B10010CCB100105B
:1079C000D0B10010ECB2001034B2001044B200107C
:1079D00014B1001000B20010E0B1001028B2001085
:1079E00028B1001040B1001038B10010012303602D
:1079F00000234360836070477047C046002370B522
:107A00005E4C0500A370E378002B0AD10123E370DC
:107A100002332370002323710A3363630A336B70CC
:107A200070BD4378502B00D18FE00CD96E2B00D164
:107A300086E028D85A2B15D0642BF1D10A23237065
:107A400064334370ECE73C2B00D183E014D8282B3F
:107A50000DD0E5D8142B00D085E004232370243307
:107A60004370DDE7092323705B334370D8E70523B8
:107A7000237037334370D3E7462BD1D107232370CC
:107A800049334370CCE7782BCAD122000421083255
:107A9000A02000F00BFB220008210C32A02000F0F7
:107AA00005FB22000C211032A02000F0FFFA22007A
:107AB00010211432A02000F0F9FA220014211C3207
:107AC000A02000F0F3FA220018211E32A02000F0BE
:107AD000EDFAA06901F034FD02F040FD2849061CD2
:107AE00001F006FD00283AD12649301C01F014FDB2
:107AF000311C002800D02349234801F047FFFE2114
:107B0000890502F063FA01F01BFD03041B0C81B22E
:107B10001E4A10601E4A1F48536300F025FE0122D2
:107B20001D4B1A61A0230F32DB051A6102230022CC
:107B30002370002362800A32237162636B706FE7E7
:107B40000B2323706D3343706AE70823237052338D
:107B5000437065E7062323704033437060E70F49A5
:107B60000B000800D4E7142B00D959E7002B00D1F3
:107B70004CE70A2B00D053E748E7C046B806002080
:107B800000409C46007C12480024744CFC050020F8
:107B90000001044800020050000004487F0C00006F
:107BA00070B5474C22780A2A09D846499300CB5829
:107BB0009F462223E25C002A01D10122E25470BDDB
:107BC000E378002BFBD0062A60D03F493F4E656921
:107BD000281C01F097FC00285BD0311C281C01F008
:107BE000C7FC3B496061A061051C01F081FC0028D5
:107BF00050D038490B000800374A1060374A3848DF
:107C0000536300F0B1FD0122364B1A61A0230F32FD
:107C1000DB051A61D3E7E378002BD0D09622A38B43
:107C200052009342CBD20133A383C8E7E378002B01
:107C3000C5D0A5682C49281C01F05AFC0028BED0EC
:107C40002A49281C01F094FCA060B8E7E378002BD7
:107C5000B5D0E38B264A9342B1D86433E383AEE7D1
:107C6000E378002BABD02323A7E7E378002BA6D043
:107C7000E5682049281C01F045FC00289FD01B49DD
:107C8000281C01F075FCE060E06298E71A491B4E81
:107C90009DE7A5611A49281C01F03EFC291C00281B
:107CA00000D01749174801F071FEFE21890502F046
:107CB0008DF901F045FC03041B0C81B29CE7C04622
:107CC000B8060020B4B3001000D3D647000020410E
:107CD00000409C467F0C0000FC0500200001044889
:107CE00000020050000004480000A041CDCCCC3D73
:107CF000871300009A99774200A6D6470000C84231
:107D0000007C12480024744C70B54F4C22780A2A2B
:107D10000ED84E499300CB589F4624230122E254AB
:107D20000022023BE2544A48203B2370FFF7B6FA98
:107D300070BDE378002BFBD0062A76D04549464E2D
:107D40006569281C01F0F2FB002871D0281C311C49
:107D500002F03CF9051C6061A0614049281C01F05B
:107D6000DBFB291C002800D03C493D4801F00EFEF9
:107D7000FE21890502F02AF901F0E2FB03041B0C45
:107D800081B2384A1060384A3848536300F0ECFC3E
:107D90000122374B1A61A0230F32DB051A61C7E7B6
:107DA000E378002BC4D0A38B012BC1D9013BA38363
:107DB000BEE7E378002BBBD0A5682E49281C01F054
:107DC000ABFB0028B4D02C49281C02F0FFF8A060BF
:107DD000AEE7E378002BABD0E38B284A9342A7D9D8
:107DE000643BE383A4E72223E25C002AA0D00022C4
:107DF000E25422879CE7E378002B99D023230022CA
:107E0000E25495E7E378002B00D191E7E5681C493F
:107E1000281C01F08BFB002800D189E71649281C9B
:107E200002F0D4F8E060E06282E71649164E87E778
:107E30001649A561281C01F05BFB00288DD0144970
:107E40000B0008009DE7C046B8060020E0B3001014
:107E5000980600200009A64700002041007C124837
:107E60000024744CFC05002000010448000200506E
:107E7000000004480000A0C1CDCCCC3DDC050000D2
:107E80003333A3400036A6470000C84200409C465A
:107E90007F0C000070B50378040082B0002B01D184
:107EA00002B070BDFDF7D6FF7A4906004A6AA37892
:107EB000920602D54A6AD2060FD4774DEA78012A93
:107EC00001D10A216963012B6CD0032B62D0002BF6
:107ED000E6D101336660A370E2E74A6A1207ECD587
:107EE000012B00D18CE06B494A6AD2067DD46A4DE1
:107EF000EB78012BD4D16368F61A684B9E42CFD938
:107F00006748FFF7CBF9674B01AA009300230021D4
:107F1000A020019300F032F9019A009B9A4200D10F
:107F200092E06A460021A02000F0C0F82A00042157
:107F30000832A02000F0BAF82A0008210C32A02054
:107F400000F0B4F82A000C211032A02000F0AEF8A6
:107F50002A0010211432A02000F0A8F82A001421D1
:107F60001C32A02000F0A2F82A001821A0201E3206
:107F700000F09CF86B690022AB61EB686A80EB62F1
:107F8000EB8B0A322B8402232B7000236A632B7144
:107F9000637085E76368F31A322B00D880E700230B
:107FA000A3707DE76368F31A642B00D878E739483B
:107FB000416AC90610D53748416A890627D4002A84
:107FC00036D1394A934200D86AE72000FFF716FD00
:107FD00003236660A37063E7416A0907EBD4617805
:107FE0001429E8D10223A3705AE74A6A120700D481
:107FF0007DE7022B00D07AE72000FFF7FFFCCEE7F9
:10800000FA2162684900821A8A42C8D86BE7436A3B
:10801000DB0612D5436A1B0700D541E72000FFF7B6
:1080200073FE03230122A37021336660EA5437E70D
:108030006378142B00D133E7C7E72000FFF7B0FDCA
:1080400003236660A3702BE72A0004210832A020D6
:1080500000F094F82A0008210C32A02000F08EF8DD
:108060002A000C211032A02000F088F82A001021EC
:108070001432A02000F082F82A0014211C32A02023
:1080800000F07CF82A0018211E32A02000F076F8BB
:1080900070E7C04600000440B8060020102700002A
:1080A000980600205833121788130000F0B5C64612
:1080B00000B582B06F460B0AC9B210780902DBB274
:1080C0000B4351780004090603430B430093937854
:1080D0003B71D37800227B71254B98465023414653
:1080E000CA5424498B6B1B0609D58020224B02E021
:1080F000013B002B03D0C0468A6B1042F8D100220E
:10810000A0211C4800F0C4FC6B468025194C9E1D24
:10811000A36B1D4208D0184B02E0013B002B03D09B
:10812000C046A26B1542F8D139781248013700F0E9
:1081300009FDBE42ECD1A36B1B060AD580210E4B74
:108140000C4802E0013B002B03D0C046826B114279
:10815000F8D1084800F0DCFC0A2000F089F8502330
:10816000012241460120CA5402B080BCB846F0BD8D
:10817000B806002000020048E7030000CBB2F0B5CB
:10818000C6461400984600225023364E0F0A364940
:1081900000B5F2548B6BFFB21B0609D58020334B20
:1081A00002E0013B002B03D0C0468A6B1042F8D19D
:1081B0002D4D0022A021280000F06AFCAB6B1B06AD
:1081C00009D58022294B02E0013B002B03D0C04699
:1081D000A86B0242F8D1244D3900280000F0B2FC0F
:1081E000AB6B1B0609D58022204B02E0013B002B24
:1081F00003D0C046A96B0A42F8D141461A4800F0A4
:10820000A1FC012000F034F80122A021164800F062
:108210005FFC012000F02CF8E51C271D1248AC4241
:1082200015D000F0A5FC012000F022F80E4800F067
:10823000D3FC20700134BC42F0D10B4800F068FC44
:10824000502301220120F25480BCB846F0BD00F05A
:10825000A9FC012000F00CF8034800F0BDFC2070E0
:10826000EBE7C046B806002000020048E703000024
:10827000FA210E4B70B589000400186800F0B0FFB9
:10828000010006000320404200F0AAFF0500A042C2
:1082900006D20320404200F01FF8641BA542F8D329
:1082A0002000704300F018F870BDC046F83F002071
:1082B000064B10B5040018680549013800F090FF1E
:1082C0000130604300F008F810BDC046F83F0020C0
:1082D00040420F00000000000230800803D0013847
:1082E000FDD1C046C046C0467047EFF3108072B65D
:1082F000704780F310887047C0230421084A5362F6
:10830000536A1942FCD18021064AC90513691843F2
:10831000106113680B42FCD1C322014B5A627047B3
:108320000000014000030140034B9B6803405A1EBC
:108330009341D8B27047C04600030140F8B5C0234E
:108340000D0004242C4A5362536A1C42FCD12B4A70
:108350002B4B14681168240419402A4B29430B4302
:108360008021240E1360C90513680B42FCD184429E
:1083700029D98600B44212D9234B80219C461F4A3A
:10838000204FC90565461368A4082B4025022B43DE
:108390003B43136013680B42FCD1B442F2D8174A36
:1083A0001949136800020B40164903430B4380210F
:1083B0001360C90513680B42FCD1C3220E4B5A62ED
:1083C000F8F77CFEF8BDA3009842E8D980210B4A5B
:1083D0000D4F0C4EC905251E00D101351368AC00A8
:1083E0003B40AD022B433343136013680B42FCD177
:1083F000A3009842EFD8D2E70000014000030140FB
:1084000000FF0FC00000F03FFF000FC0C023042199
:108410000A4A70B55362536A1942FCD145688368B1
:10842000074C2B432168074D29400B432360C3238E
:10843000536201784078FFF781FF70BD0000014072
:1084400000030140FFFFF0FF014B18687047C04672
:10845000F83F0020F0B54746CE46032480B52700FC
:10846000F8260F40FF00BE408B089B00C3181D6913
:10847000B5434E00B4401D61456F0426A543CC08AA
:10848000A40045670419256CA84607250D40AD00DA
:10849000AE40A9464546B54325644D46266CB446D4
:1084A0005678AE4035006646354325640C4CA042F4
:1084B00010D0002555571478002D02DA52688A40F2
:1084C00042602200BA4019690A431A61C0BCB94629
:1084D000B046F0BD01258D40046EAC430466E8E76C
:1084E00000020440094B70B505000C00984209D009
:1084F00080235B00EB602B68054AA40313401C43F8
:108500002C6070BD0420FFF7F7FEF1E7000004487F
:10851000FF3FFFFF0B6843614B799B06DB0F1B0599
:1085200043600B791B071B0F43624B791B071B0F23
:1085300003624B79DB06DB0F83610B791B09C36296
:108540007047C0460B6843614B79DB07DB0A436029
:108550000B791B071B0F43620B791B09C362704722
:1085600010B503244368A343194341604369012ABA
:1085700003D0044A1340436110BD8022D20013434C
:10858000F9E7C046FFFBFFFF302243680901934330
:10859000194341607047C046F0B54C1EE4B2650017
:1085A000EDB22F0003231037FFB2C6469846BB40FA
:1085B0009C46066800B533006646B3439C46537834
:1085C0001531BB40CFB201216646B94033438B43DE
:1085D00091784646B9401935EDB21943D378AE408B
:1085E000AB40B1430B43A1000F241278C9B28C40B9
:1085F0008A40A3431343036080BCB846F0BDC04625
:1086000002224369002902D1934343617047134317
:108610004361FBE789004018406F7047A02370B5A5
:10862000DB0505000C00984209D080235B00EB605D
:108630002B68054AA40313401C432C6070BD022024
:10864000FFF75AFEF1E7C046FF3FFFFF012303613A
:108650000B688A6843614B7BDB06DB0F1B054360BD
:108660000B7B1B071B0F43620B7B1B09C3624B7BFE
:108670001B071B0F03624B68836114235340836401
:108680007047C046012303610B6843614B79DB07E8
:10869000DB0A43600B791B09C3620B791B071B0FB5
:1086A0004362704710B503244368A34319434160F4
:1086B0004369012A03D0044A1340436110BD80225C
:1086C000D2001343F9E7C046FFFBFFFF30224368A7
:1086D00009019343194341607047C046C022436873
:1086E00089019343194341607047C046F0B54C1E61
:1086F000E4B26500EDB22F0003231037FFB2C64687
:108700009846BB409C46066800B533006646B343B6
:108710009C4653781531BB40CFB201216646B94023
:1087200033438B4391784646B9401935EDB219432E
:10873000D378AE40AB40B1430B43A1000F24127875
:10874000C9B28C408A40A3431343036080BCB8463F
:10875000F0BDC04602224369002902D19343436120
:1087600070471343FBE7C04641637047002901D1BE
:10877000C26370474264FCE77047C046902310B55F
:10878000DB05040098420DD00B4B98420AD003231E
:108790000122E360E3681A42FCD00F22236C93436A
:1087A000236410BD0820FFF7A7FD0820FFF7BCFDDC
:1087B0000028FAD1EBE7C04600020048F0B5DE46DB
:1087C00057464E464546E0B583B001900C00012067
:1087D0000092632901D9002A06D103B0F0BCBB4640
:1087E000B246A946A046F0BDFFF72EFE642100F078
:1087F000F7FC64210600200000F0F2FC194B009FFA
:10880000994601239A468023DB009B461C0098462C
:108810004743B5023900280000F0E2FC830A4345D3
:1088200006D88005800D814502D981469A46A34627
:10883000013CAD1B002CEDD15B4680220198120259
:10884000013B13430361009B42690749013B9B02C3
:108850000A401A435346013B1B0413434361002063
:10886000BBE7C046FF030000EF8000FCF0B55746B1
:108870004546DE464E461400E0B583B00D00824604
:1088800001910092FFF7E0FD23006B43070098463B
:1088900001209F4249DD1900380000F02BFD294BD3
:1088A0000600984248D942460125994656003100B3
:1088B000380000F01FFDAB46040001354644484532
:1088C000F5D85B4606001B049B466E430099631C6B
:1088D000694338005943984600F082FC019B009997
:1088E0001D1AEB17ED18380071435D4000F078FC5D
:1088F000019B181AC317C0185840854200DBA046D8
:1089000080224346D200D21A8023DB011343524611
:108910001361009B52690C49013B0A409B021343BF
:108920005A46134352460020536103B0F0BCBB4685
:10893000B246A946A046F0BD002304009B4601258F
:10894000C4E7C046FE030000EF8000FC70B584243D
:1089500064000559064E1206354005510A431B02B4
:1089600005591A43034B1D402A43025170BDC046AE
:10897000FFFFFFF8C0C0FFF870B586256D004459B1
:10898000074E1206344044514459064E1B023440EF
:108990000C4314431C4380235B052343435170BDA8
:1089A000FFFFFFF8C0C0FFEF30B5072486258C40DD
:1089B0008A406D004359A3431343435130BDC04621
:1089C0000300144810B581420AD8D86B124C2040DD
:1089D000D863002A14D00A221800FFF747FF10BD01
:1089E0000E4C0120A142FAD88020DC6B800220438B
:1089F000D863002A09D019221800FFF737FFEEE7E5
:108A00000A221800FFF7DAFEE9E719221800FFF73B
:108A1000D5FEE4E7A0860100FFFFFDFF801A0600F7
:108A200070B504000D001600FFF7A8FEF822F02133
:108A3000164BD2016363EB88C9011A408A4210D0F9
:108A4000E06B1B02000C00040343E363002E16D10D
:108A5000A023DB00A36301235B42E36400232364C0
:108A600070BDFF21E26B1940120C12040A43FE2173
:108A70005B0009020B401343E363002EE8D02000A3
:108A80002A792968FFF79CFFE2E7C04603033F0706
:108A9000012A18D08023DB00194384235B00C258CD
:108AA000E023DB041A4203D0C0235B00C1507047AF
:108AB000836B1B06FCD48023C26C9B011343C364ED
:108AC0008023C150F3E7014B1943E6E7010400009E
:108AD000012A18D0A023DB00194384235B00C2586D
:108AE000E023DB041A4203D0C0235B00C15070476F
:108AF000836B1B06FCD48023C26C9B011343C364AD
:108B00008023C150F3E7014B1943E6E7010500005C
:108B100084235B00C258E023DB041A4205D0C02343
:108B2000C0225B00D200C2507047836B1B06FCD48E
:108B30008023C26C9B011343C022C3648023D200F4
:108B4000C250F1E784235B00C258E023DB041A42E1
:108B500003D0C0235B00C1507047836B1B06FCD45D
:108B60008023C26C9B011343C3648023C150F3E78D
:108B700084235B00C258E023DB041A4205D0C023E3
:108B800080225B009200C2507047836B1B06FCD4AE
:108B90008023C26C9B0113438022C3648023920014
:108BA000C250F1E784235B00C258E023DB041A4281
:108BB00005D0C023C0225B009200C2507047836B77
:108BC0001B06FCD48023C26C9B011343C022C364E8
:108BD00080239200C250F1E786235B00C258E02355
:108BE000DB041A4202D1406DC0B270478E235B0095
:108BF000C058F9E7836B1B0605D40F22036C93431F
:108C00000364002070470220FCE7C046FF2210B535
:108C1000024B01201A60FFF76FFB10BD00050140F9
:108C2000FF2270B50D0004000D4B01201A60FFF704
:108C300063FB6B696A68236080231B0213438022F5
:108C4000A350A023AA68E250EA680433E2502A69DC
:108C5000DD33FF33E2502A68C93BFF3BE25070BD71
:108C6000000501408022802381581B060B43C02150
:108C70008350204B89029858084207D18022C02196
:108C80001D4B8902985808421DD1704780219A587F
:108C9000890580200A4203D1C0461A580A42FBD0F7
:108CA00080238021134A4905D3580B42E6D0802007
:108CB000C04613580B42FBD18022C0210E4B8902C3
:108CC00098580842E1D080219A58890580200A42AC
:108CD00003D1C0461A580A42FBD080238021064A9D
:108CE0004905D3580B42D0D08020C04613580B42C0
:108CF000FBD1CAE70004034800080348802210B5EE
:108D000003248358A3431943815010BDF0B5464650
:108D1000D6464F468422C0B5234E244CB358244D2A
:108D20002340B350AB5823400324AB500B781C4076
:108D300027009A46A446B3587C1EA7411D4CFF024B
:108D40002340A0461C0053461B079B0F1B021C43DD
:108D50003C43B4504646AC58344023431F43AF50C5
:108D60004A68154B134380229200835001238A687E
:108D700013438122920083506346022B04D1802347
:108D800081585B020B438350842380220648D2041F
:108D9000C1581143C1500649C8580243CA50E0BCEB
:108DA000BA46B146A846F0BD00040348FFFFFFFBEA
:108DB00000080348FFFCFFFF00808000012370B51E
:108DC00088258B4044599C43137B8B40234343515C
:108DD0000D23D356002B0EDB01291BD0002904D113
:108DE000B0251F264459B44344510026B024B34053
:108DF00005592B430351C8240359556880312B432F
:108E0000035108349568035989002B4303511368B3
:108E10000B5070BD28354459044E34400826445147
:108E2000B024B34005592B430351E4E7FFE0FFFFB3
:108E300010B5802489004018034912684358640023
:108E400023401343435010BD5C0B000070B50C0071
:108E500005001600FFF790FC0F22A1008A402B6846
:108E6000043493433268A4008A4013432B60736830
:108E7000635170BD70B516000C0005000834FFF793
:108E80007BFC3368A400635170BDC046030010B57D
:108E90000800190001F00EFC10BD000070B5041CA4
:108EA00000F058F8211C051C201C01F0D1FA002804
:108EB00010D10021201C00F02FFB00280AD1002136
:108EC000201C00F00FFB002806D001F071FC2223CB
:108ED000064D0360281C70BD01F06AFC212303606D
:108EE000034800F007F8051CF4E7C046000080FFC7
:108EF000ECB20010004870470000C07F4200031C25
:108F0000120EC043110010B50224C01720407F3953
:108F100001381E290CDC002916DB80245B025B0A69
:108F200024042343162907DD963A9340584310BD85
:108F3000181C01F0A3FAFAE78022D2030A41D318E1
:108F40001722521AD340F1E77E3A53425A41524215
:108F50001040ECE7F8B5DE4657464E46454642001F
:108F6000E0B5002A46D0021E4FDBFF21C90588422A
:108F700000DBC6E0802300211B04984206DA98211A
:108F8000C90500F0D1FE192102004942D3157F3BEB
:108F90005B1880215202540A834AFE200904A21859
:108FA0000A40FE2180055040D61520438905F61859
:108FB00001F00CF822007D4B0F32051C1A422BD118
:108FC000002100F08FFA002800D19EE00020002E42
:108FD00015D0300001F072FA7549041C00F0A4FEAF
:108FE0007449051C201C00F09FFE011C281C00F089
:108FF000BFFA04E0CC200021000600F0C7FCF0BC62
:10900000BB46B246A946A046F8BD011C00F0DEFFF3
:10901000002100F0BBFCF2E78021C90500F0A8FAAE
:10902000011C281C00F0B2FC8046300001F046FA1A
:1090300041468146404600F077FE5F4B011C9A4650
:10904000834600F071FE5D49071C00F06DFE5C492F
:1090500000F08EFA391C00F067FE5A4900F088FAD9
:10906000391C00F061FE584900F082FA594600F0C0
:109070005BFE56498346381C00F056FE544900F00A
:1090800077FA391C00F050FE524900F071FA391C91
:1090900000F04AFEA244011C584600F069FA52460C
:1090A0004D4B071C1B1B1343002B48DDFC21281CC8
:1090B000890500F039FE291C00F036FE011C041C55
:1090C000381C00F055FA414600F02EFE071C002E19
:1090D00049D03749484600F027FE3649061C484625
:1090E00000F022FE391C00F043FA011C201C00F0A5
:1090F0006DFF291C00F06AFF011C301C00F066FFA8
:109100007DE7011C00F034FA79E73449281C00F0AF
:109110000BFE011CFC20800500F058FF291C041CDC
:10912000281C00F001FE011C201C00F0FDFD041CA9
:10913000002E21D1211C281C00F048FF5FE7011CF4
:10914000281C00F043FF414600F0EEFD041C002EF9
:10915000F0D04846164900F0E7FD1649061C48467F
:1091600000F0E2FDC1E7011C201C00F02FFF011CF4
:10917000281C00F02BFF42E7300001F09FF90C495A
:10918000061C00F0D1FD0B49071C301C00F0CCFD83
:10919000011C201C00F01AFF291C00F017FF011C05
:1091A000381C00F013FF2AE720FB4A00F0FF7F0085
:1091B0008071313FD1F71737305CCFFF9788173E6A
:1091C00025333A3E2549923EABAA2A3F4FD01C3E5A
:1091D000298E633ECDCCCC3E88C23500ABAAAA3ED8
:1091E000002243088B4274D303098B425FD3030AE6
:1091F0008B4244D3030B8B4228D3030C8B420DD3F9
:10920000FF22090212BA030C8B4202D31212090286
:1092100065D0030B8B4219D300E0090AC30B8B42C4
:1092200001D3CB03C01A5241830B8B4201D38B0372
:10923000C01A5241430B8B4201D34B03C01A524117
:10924000030B8B4201D30B03C01A5241C30A8B425A
:1092500001D3CB02C01A5241830A8B4201D38B0245
:10926000C01A5241430A8B4201D34B02C01A5241E9
:10927000030A8B4201D30B02C01A5241CDD2C3095B
:109280008B4201D3CB01C01A524183098B4201D3D7
:109290008B01C01A524143098B4201D34B01C01AC2
:1092A000524103098B4201D30B01C01A5241C3083A
:1092B0008B4201D3CB00C01A524183088B4201D3A9
:1092C0008B00C01A524143088B4201D34B00C01A95
:1092D0005241411A00D20146524110467047FFE701
:1092E00001B5002000F0F0F802BDC0460029F7D01B
:1092F00076E7704703460B437FD4002243088B4236
:1093000074D303098B425FD3030A8B4244D3030B0C
:109310008B4228D3030C8B420DD3FF22090212BAD1
:10932000030C8B4202D31212090265D0030B8B424D
:1093300019D300E0090AC30B8B4201D3CB03C01A37
:109340005241830B8B4201D38B03C01A5241430B12
:109350008B4201D34B03C01A5241030B8B4201D302
:109360000B03C01A5241C30A8B4201D3CB02C01A6D
:109370005241830A8B4201D38B02C01A5241430AE5
:109380008B4201D34B02C01A5241030A8B4201D3D4
:109390000B02C01A5241CDD2C3098B4201D3CB017B
:1093A000C01A524183098B4201D38B01C01A52412A
:1093B00043098B4201D34B01C01A524103098B422E
:1093C00001D30B01C01A5241C3088B4201D3CB0019
:1093D000C01A524183088B4201D38B00C01A5241FC
:1093E00043088B4201D34B00C01A5241411A00D2AC
:1093F00001465241104670475DE0CA0F00D0494215
:10940000031000D34042534000229C4603098B4284
:109410002DD3030A8B4212D3FC22890112BA030A0C
:109420008B420CD3890192118B4208D3890192118E
:109430008B4204D389013AD0921100E08909C30913
:109440008B4201D3CB01C01A524183098B4201D315
:109450008B01C01A524143098B4201D34B01C01A00
:10946000524103098B4201D30B01C01A5241C30878
:109470008B4201D3CB00C01A524183088B4201D3E7
:109480008B00C01A5241D9D243088B4201D34B0002
:10949000C01A5241411A00D20146634652415B1044
:1094A000104601D34042002B00D549427047634625
:1094B0005B1000D3404201B5002000F005F802BD6A
:1094C0000029F8D016E770477047C0468446080068
:1094D0006146FFE71FB500F0DFFB002801D4002143
:1094E000C8421FBD10B500F067FB4042013010BDFF
:1094F00010B500F0D1FB002801DB002010BD0120D9
:1095000010BDC04610B500F0C7FB002801DD0020EB
:1095100010BD012010BDC04610B500F075FB00283D
:1095200001DC002010BD012010BDC04610B500F0C8
:109530006BFB002801DA002010BD012010BDC046E1
:109540009E2110B5C905041CFFF7F0FF002803D1C8
:10955000201C00F093FF10BD9E21201CC90500F0C7
:1095600035FD00F08BFF80231B069C466044F2E72C
:109570004A02F8B5530ACE4699464B00C90F4746F2
:10958000884646004502360E1B0E80B5C40F6F0A92
:109590009209AD09F11A44454BD0002938DD002B62
:1095A00000D174E0FF2E00D1BEE08023DB041A431B
:1095B0001B2900DCFDE0013D6B0100D4AFE001257B
:1095C0006D42AD01AF09380001F056F83B00053897
:1095D0008340864200DCD3E0B94D311A1D405A0762
:1095E00000D19EE00F221340042B00D199E00435F6
:1095F0006B0100D495E0481CFE2951D1FF200023C7
:10960000C0051843E4072043C0BCB946B046F8BDC6
:10961000002949D0991B002E72D1002D00D133E1D1
:109620004C1E012900D159E1FF2900D14CE1210054
:109630006CE0002900DC81E0002B55D1002A70D0BD
:109640004B1E012900D12BE1FF296DD01B2B50DCD3
:10965000190020235B1A10009A40C840531E9A41FB
:109660000243AD188023DB041D4200D1ADE0711C24
:10967000FE2EC3D001206A082840924D15400543B4
:109680006A0700D08BE01D42B5D1EF0834E0002A14
:1096900047D04B1E012966D0FF2945D0190087E726
:1096A000C0B2AB015B0AABE7FE239C46701C030013
:1096B0006046184200D092E0002E00D0E7E0002D76
:1096C00000D119E1002A17D08023AF1ADB041F4212
:1096D00000D142E14446551B00D187E001201D42E4
:1096E000DFD10021EF0807E0FF2E1DD01B2900DC91
:1096F00094E031000535EF087B025B0AC8B27FE7D2
:10970000FF2B00D1E0E08020C00405431B2900DCD2
:1097100088E0551E44461E00690100D54FE7310020
:109720000435EF08FF29E7D1002F00D166E7802339
:10973000DB033B435B02FF205B0A61E7002958D053
:10974000991B002E00D089E0002D00D19DE04E1E17
:10975000012900D1A4E0FF2900D1B6E01B2E00DDD5
:10976000B8E0310081E0AA1A530100D4AFE09701BC
:10977000BF09380000F080FF3B0005388340012618
:109780001D00811B20200131CD40411A8B40591E04
:109790008B411D432AD000216B0700D1F0E00F233D
:1097A0002B40042B00D022E76B0100D523E7EF0804
:1097B000A2E720235B1A10009A40C840531E9A412A
:1097C0000243AD1A6B0100D5FBE66B0700D1D5E073
:1097D0000F2331002B40042B00D008E7A1E7AF1A7C
:1097E0007B014ED4002F00D0EDE6002400200023A2
:1097F00006E7FE23711C0B4221D1002E00D081E030
:10980000002D00D19FE0002A00D1B2E0AB185A0130
:1098100000D4B0E09B0101205B0AF1E68023DB0469
:109820001A4316E720242800C840611A8D402900F9
:109830004C1EA141014344461E00551AC2E7FF29B0
:1098400000D1DBE6AF187F087B0705D00F233D1D55
:109850003B40042B00D064E7FF084DE7FF2B34D0DA
:109860001B2937DC8020C004054328002026C8407F
:10987000711A8D4029004D1EA94101431E008D180B
:10988000F0E64446571B9EE64446150049E7002D86
:1098900046D1002A66D180230024FF20DB03AFE6F7
:1098A000AA18530113D5074F52081740530744D045
:1098B0000F231340042B40D002213D1D31E7C04649
:1098C000FFFFFFFBFFFFFF7D44464F462CE70121D2
:1098D000D70811E705321900D7080DE7571B7B01A0
:1098E00037D5BF01BF09380000F0C6FE3B00053880
:1098F00083404446013643E7002A00D175E74446D9
:109900004F46F9E6002DE0D08023DB03002A17D074
:109910009F4200D20BE7994500D308E74F4606E780
:109920008023DB03002A0BD09F4200D2FFE699453B
:1099300000D3FCE644464F46F9E60221FF08DBE689
:10994000FF203B435CE6002A00D14FE70021D70807
:10995000D2E644460121FF08CEE6002F00D07BE787
:10996000002443E780234A46DB034446FF20134399
:1099700046E60021C0E60021DF08BDE63100D0E662
:1099800001206A0100D58BE62A00DFE7F0B54646E4
:109990004F46D6464502C0B5C30F470098460E1C39
:1099A0006D0A3F0E5BD0FF2F21D08023ED00DB043A
:1099B0001D43002399469A467F3F74027300640A50
:1099C0001B0EF60F002B20D0FF2B43D0802200204F
:1099D000E400D20414437F3B4246FF1A4B467240D8
:1099E0000F2B00D99DE071499B00CB589F46002D5D
:1099F0005AD108239946063B74029A467300FF2702
:109A0000640A1B0EF60F002BDED1002C3BD1012384
:109A100042464946724019430E2918D864488900C5
:109A200041588F465346022B00D1B8E0032B6ED02D
:109A300042462C00012B40D100200024C0052043C9
:109A4000D2071043E0BCBA46B146A846F0BDFF209D
:109A50000024F3E7002C20D10223FF3FD8E7002D9C
:109A600005D104239946033B00279A46A5E7280021
:109A700000F002FE7627431F9D4000237F42994657
:109A80009A463F1A99E7200000F0F6FD431F9C40DC
:109A900076235B421B1A00209EE703234A461A43A3
:109AA00091460320FC3397E70C239946093BFF2797
:109AB0009A4682E703282CD0320038007F300028F5
:109AC00047DD630704D00F232340042B00D0043468
:109AD000230103D53800374B80301C40FE28B6DC0C
:109AE000A401640AC0B2A9E780240022FF20E40395
:109AF000A4E78023DB031D4201D01C420BD080244D
:109B0000E4032C4364024246FF20640A96E746467B
:109B10002C008023DB031C4364023200FF20640A14
:109B20008CE76D01600185422DD21B230024013F8B
:109B30000126290064006D00002901DB854201D364
:109B40002D1A3443013B002BF3D16B1E9D412C4356
:109B5000B3E701231B1A1B2B00DD6DE721009E37A5
:109B6000D940BC400B00611E8C412343590704D0EF
:109B70000F211940042900D00433590113D49B014B
:109B800000205C0A5AE71A2301242D1AD0E7981EF8
:109B900043425841404232000024C0B24EE74246A0
:109BA000FF2000244AE70120002447E70CB40010FE
:109BB0004CB40010FFFFFFF770B542004E024C009E
:109BC00045026D0A120EC30F760A240EC90FFF2A32
:109BD00010D0FF2C0CD00120A2420AD1B54208D1EE
:109BE0008B420FD0002A04D12800431E984100E088
:109BF000012070BD0120FF2CFBD13543F9D14B4032
:109C00001800F6E70020F4E730B5420044024D02A8
:109C1000C30F4800640A120E6D0A000EC90FFF2A16
:109C200018D0FF280AD0002A1ED100280AD1002D02
:109C300029D0002C2DD14800013830BD002D25D170
:109C4000002A01D1002CF6D08B4219D001205B42B2
:109C50001843F2E7002C19D1FF28F7D1002D15D1B8
:109C600000208B42F2D1E8E70028EFD08B42EDD103
:109C70008242EBDC04DBAC42E8D80020AC42DCD210
:109C800058000138D9E7002CD7D0DFE70220404246
:109C9000D3E78B42DAD1EEE730B5420044024D0201
:109CA000C30F4800640A120E6D0A000EC90FFF2A86
:109CB00017D0FF280AD0002A1BD100280AD1002D76
:109CC0001DD0002C2DD14800013811E0002D0ED1FF
:109CD000002A01D1002CF6D08B420CD1580001385B
:109CE00006E0002C03D1FF2805D1002D15D002205D
:109CF00030BD002806D101205B421843F8E7002C54
:109D0000F6D0F8E78B42F6D18242F4DCE6DBAC42D7
:109D1000F1D80020AC42EBD2E0E700208B42EAD140
:109D2000E6E78B42E7D1F2E7F0B54F464646D64626
:109D30004502C0B546000F1C6D0A360EC40F002E3A
:109D400000D1CDE0FF2E72D08023ED00DB041D4357
:109D5000002399469A467F3E7B025B0A98467B0029
:109D60001B0EFF0F002B72D0FF2B00D1A9E07F3B11
:109D7000F6184B460A2B00DD85E043468022DB00C7
:109D8000D2041A434B4690467C400022022B0FDD42
:109D9000494601238B40A621C9000B4200D072E046
:109DA000902189000B4200D0DAE08821194267D166
:109DB000280C42462D042D0C4346290012041B0C8E
:109DC000120C51435D4342435843AD180B0C5B19D1
:109DD0009A4203D9802252029446604409041A042C
:109DE000090C52189501691E8D411B0C920E1B180F
:109DF00015439B011D431B0100D5CFE030007F3090
:109E0000002800DCB1E06B070BD00F2332002B40A1
:109E1000042B06D004352B0103D5803210006A4B89
:109E20001D40FE2864DCAB015B0AC0B21FE0002DC0
:109E300000D08FE008239946063B9A467B025B0AD6
:109E400098467B00FF261B0EFF0F002B8CD143464C
:109E5000002B5CD14A4601331A43914613000A2A6B
:109E600011DC01227C40022B92DC00200023C00583
:109E70001843E4072043E0BCBA46B146A846F0BD0B
:109E80003C00454692465346022B31D0032B11D05D
:109E9000012BEAD030008030721C002866DD6B0791
:109EA000B9D00F232B40042BB4D1B4E70F2A7AD0BA
:109EB0003C0045468023DB032B435B02FF205B0A0B
:109EC000D5E74346FF36002B34D14A4602331343CD
:109ED0000A2BD8DC7C40002A0AD09946022257E798
:109EE000002D08D104239946033B00269A4633E708
:109EF000FF200023BBE7280000F0BEFB7626431FAF
:109F00009D400023764299469A46361A24E74046F9
:109F100000F0B2FB4B46361A763E0A2BB3DC4346C2
:109F20000538834098464B4600227C40022B00DDDA
:109F30002EE73DE703234A461A4313000A2AB5DCFD
:109F400001229A40882113007C400322194200D14B
:109F50002EE795E70C239946093BFF269A46FBE638
:109F600080230024FF20DB0381E7320001231B1A3A
:109F70001B2B00DD79E79E3229009540D9406A1EEF
:109F800095410D436B0704D00F232B40042B00D0C9
:109F900004356B0113D50120002368E701236A080B
:109FA0001D40154376E78023DB031D4282D04246E5
:109FB0001A4200D07EE73C00FF20134357E7AB0175
:109FC00000205B0A53E7C046FFFFFFF7F8B547469E
:109FD000CE464B02460080B5C40F4702580A84465D
:109FE00048007A0A360EBF09000ECD0F9B09FF28E4
:109FF0006DD001214D40311AAC423AD0002900DC2D
:10A000009CE1002800D19EE0FF2E00D188E0802254
:10A01000D20413431B2900DCF6E0013F7A0100D48F
:10A0200079E001277F42BF01BB099846404600F016
:10A0300023FB434605388340864200DCCCE0B44F26
:10A04000311A1F405A0768D00F221340042B64D0E6
:10A0500004377B0161D5481CFE2900D081E0FF2038
:10A060000023C0051843E4072043C0BCB946B046EE
:10A07000F8BD002900DC79E1002876D1002B4CD016
:10A08000481E012900D147E1FF2949D01B2871DC76
:10A0900001001A002020CA40411A8B40591E8B41F2
:10A0A0001343FF188023DB041F4200D1B8E0711C6A
:10A0B000FE2ED4D0012297483A407F08074017432C
:10A0C0007A0700D096E01F42C5D1FA0855E031006A
:10A0D000FF398946002B2CD101214D40AC4200D1E3
:10A0E000B4E0494600294CD0002E00D0F9E0FF2111
:10A0F000002F00D108E14A1E012900D156E1FF29B5
:10A1000000D142E11B2A00DC24E15F1E2C00060086
:10A110007A0100D585E731000437FA08FF292CD1F0
:10A12000002A9CD08023DB0313435B02FF205B0AE1
:10A1300097E7AC4200D1A7E0002922D0002ED6D06C
:10A1400062462C00EEE7002BE7D0481E012936D0EE
:10A15000FF29E5D001005DE701203B007A0100D432
:10A1600057E1C0B2BB015B0A7BE7FF2ED8D01B29A9
:10A1700000DC9FE031000537FA0853025B0AC8B2E1
:10A180006FE7FE20711C084254D1002E00D0B1E0D0
:10A19000002F00D102E1002B00D1F9E08021FA1A52
:10A1A000C9040A4200D13BE10124DF1B2C40002FEF
:10A1B00049D001200F42D5D10021FA08DDE7FF1A6E
:10A1C0007B0100D4DEE0BD01AD09280000F054FAA7
:10A1D0002B000538834001262022811B0131521AB1
:10A1E0001F009340CF405A1E93411F432BD00021A4
:10A1F0007B07B1D00F233B40042B00D028E77B0125
:10A2000000D528E7FA08B8E71A002020CA40411A0A
:10A210008B40591E8B411343FF1A7B0100D502E787
:10A220007B0700D10DE10F2331003B40042B00D010
:10A230000EE772E7FA1A9046520156D44346002BB5
:10A2400000D0F3E60024002000230AE74946002955
:10A250001CD0002E00D002E7FF21002F55D04A1E4F
:10A26000012959D0FF2900D190E01B2A00DD91E09F
:10A2700011003A002025CA40691A8F40791E8F418B
:10A2800017430600FF180DE7002926D1FE20711C98
:10A29000084213D1002E00D096E0002F00D1B4E088
:10A2A000002B75D0FB185A0100D4B2E09B015B0A69
:10A2B000FD38D6E68022D2041343EAE6FF2900D116
:10A2C000CDE6FA185208530705D00F23171D134087
:10A2D000042B00D021E7D2084FE7002EBCD0624605
:10A2E00020E72C00FF200023BBE60124DB1B98465F
:10A2F0002C409BE6002F75D1002B00D096E08023E8
:10A300000024FF20DB03ACE62C001F0005E7C0465D
:10A31000FFFFFFFBFFFFFF7DFB185A0100D48DE01C
:10A320004A4A5B081A40590700D18CE00F210B40C4
:10A330000D39042BCFD00221171DEEE6002900D1E4
:10A340001FE7821B1100002E00D1D1E68021C90435
:10A350000F43D7E639002024D140A21A97407A1E35
:10A3600097410F432C000600DF1B56E700298DD0D4
:10A37000811B002E00D170E71B290BDC8022D20448
:10A38000174376E70121FA08F7E62C006246C7E694
:10A390000021F2E605330100DA08EEE6002B00D1D9
:10A3A00050E70124002162462C40E6E6DA1B530107
:10A3B00032D592019409200000F05EF9230005389F
:10A3C00083402C00012607E7002FDFD0002B17D099
:10A3D0008023DB039A4200D2A4E69C4500D3A1E689
:10A3E00062469FE6002B0BD08023DB039A4200D20B
:10A3F00098E69C4500D395E6012462462C4091E600
:10A400008023DB03FF2013432BE60020002B00D129
:10A4100027E60021DA08B0E62C000121D208ACE6DC
:10A42000002A00D10EE70021D208A6E6802362466A
:10A430000124DB03FF2013432C4012E60121DA083C
:10A440009BE6310069E60221D20896E6FFFFFF7D18
:10A4500043024A02400049005B0A520A090E000EFC
:10A46000FF2806D00020FF2902D1531E9A41100078
:10A470007047FE38002BFBD1F4E7C0464102420092
:10A48000C30F490A0020120E7E2A03DD9D2A02DD39
:10A49000094A98187047802000040143952A07DC78
:10A4A0009620821AD1404842002BF3D10800F1E7F0
:10A4B000963A9140F7E7C046FFFFFF7F70B500284E
:10A4C00012D0C317C5185D40C40F280000F0D4F89F
:10A4D0009E231B1A962B0FDC082838D0083885409D
:10A4E0006D026D0AD8B202E0002400200025C005EC
:10A4F0002843E407204370BD992B14DC421F95408C
:10A500002A001549114055071CD00F252A40042A5E
:10A5100018D00431CA08490115D59F235202181AD0
:10A52000550AC0B2E3E7020029001B3291404A1EDF
:10A5300091410522121AD5402A000A4306491140CA
:10A540005507E2D1CA085202550AD8B2CFE76D02C8
:10A550006D0A8E30CBE7C046FFFFFFFB10B5041E2F
:10A560000DD000F089F89E231B1A962B0CDC0828CE
:10A5700034D0083884406402640AD8B201E0002074
:10A580000024C005204310BD992B13DC421F9440CA
:10A59000144A224061071CD00F212140042918D001
:10A5A0000432D408520115D59F236402181A640A94
:10A5B000C0B2E6E7020021001B3291400A00511EA2
:10A5C0008A410521091ACC401443064A22406107FA
:10A5D000E2D1D4086402640AD8B2D2E76402640A01
:10A5E0008E30CEE7FFFFFFFB70B542024300C40F81
:10A5F000FE201B0E591C550A08420CD0E021890090
:10A600008C466D07120B63441B051343E407234379
:10A610002800190070BD002B14D1002D1BD028007C
:10A6200000F02AF80A281CDC0B232A001B1ADA4047
:10A63000030015339D400E4B12031B1A5B05120BD2
:10A640005B0DE1E7002D09D0130B802212031A43A2
:10A650006D07084BD8E700230022D5E70022054B01
:10A66000D2E703002A000B3B9A400025E3E7C046EF
:10A6700089030000FF0700001C2101231B049842EE
:10A6800001D3000C10391B0A984201D3000A083983
:10A690001B09984201D30009043902A2105C40183A
:10A6A0007047C046040302020101010100000000DE
:10A6B0000000000010B5040004481300002804D076
:10A6C0000A000220210000E000BF10BD00000000D1
:10A6D0000CB430B5174B0C001D689DB0002908DA8A
:10A6E0008B2301202B6040421DB030BC08BC02B05F
:10A6F0001847822302A99B008B81002302904B669E
:10A7000008619C4200D0631E8B604B6101235B4259
:10A71000CB81280021AB209A019300F0EFF9431C74
:10A7200001DA8B232B60002CDED00022029B1A70F2
:10A73000DAE7C046040600200EB410B500249DB030
:10A74000029006900A481FAB07900490094804CB7A
:10A750000590094802A9006801934C6600F0CEF903
:10A76000029B1C701DB010BC08BC03B01847C0464B
:10A77000FFFFFF7F0802FFFF0406002010B588429C
:10A7800002D98B18984208D300239A4207D0CC5C98
:10A79000C4540133F9E78B5C8354013AFBD210BDFA
:10A7A00003008218934200D1704719700133F9E712
:10A7B000014B18687047C0460406002070B500269B
:10A7C0000C4C0D4D641BA410A64209D1002600F0CC
:10A7D00083FC0A4C0A4D641BA410A64205D170BD2F
:10A7E000B300EB5898470136EEE7B300EB589847B3
:10A7F0000136F2E754060020540600205C060020D3
:10A80000540600207047704702780B78002A03D066
:10A81000013001319A42F7D0D01A7047002310B5A9
:10A820009A4200D110BDCC5CC4540133F8E7002338
:10A83000C25C0133002AFBD1581E704770B5050079
:10A840000C1E10D0043C2368002B00DAE41828000A
:10A8500000F0E0F81D4A1368002B05D16360146016
:10A86000280000F0DFF870BDA34208D92068211845
:10A870008B42F3D119685B6809182160EEE71A0072
