:020000041000EA
:10100000480500201910001000000000B15E00101B
:1010100000040100000100001149124A124B00F0C7
:1010200018F8124880471249124A134B00F011F881
:101030001249134A134B00F00CF81349134A0020CD
:10104000521A02DD043A8850FCDC114880471148EE
:1010500080479B1A03DD043BC858D050FBDC704727
:1010600040B500100C0000204401002029110010A0
:1010700078B60010480500206006002090B70010E8
:10108000600600206006002060060020CC0B0020D7
:101090003DA80010FD5E0010FEE700008022064B18
:1010A000520119890A4348211A818022585A120193
:1010B00002435A527047C04600000540FF21080015
:1010C000094A10B5136812681B0A1840194209D062
:1010D000114000020918054808F0C2F84000044B0E
:1010E000186010BD0348FAE700030140000024F433
:1010F000F83F00200048E801C0228021074B10B5CE
:101100005A62074A074BC905136013680B42FCD1AA
:10111000C322024B5A62FFF7D1FF10BD000001400D
:10112000000301400001F13F10B5FFF7B7FFFFF7E3
:10113000E3FF10BDC023034A9B0191880B439380BA
:101140007047C04600000540F8B580238026802502
:1011500004005B01C71876006D02200033689847D1
:10116000A84203D10134FF34BC42F6D1F8BDC046D9
:101170008222030010B5520008001900126890473F
:1011800010BDC046F8B50D000400170007F036FB8F
:101190002B7A002B2CD01A005E0801363602002F65
:1011A00007D02879296800282CD01A00200007F0E1
:1011B0009DFBEB79154A013B5B00334313438122CE
:1011C000E3636B795200013B19060A436263AA7913
:1011D000002A12D0636B013A12041A436263A023FF
:1011E000DB00A36301235B42E3646B892364F8BDE6
:1011F0009026102210233601D1E7626B1B041343A3
:101200006363ECE7200007F019FBD2E7010003005D
:1012100084235B00C258E023DB041A4203D0C023BE
:101220005B00C1507047836B1B06FCD480239B017D
:10123000C3648023C150F5E70B008908890040187A
:1012400003211940F823C9008B408A4010B5046976
:0C1250009C43046103691A43026110BD55
:105000000448054B10B5834203D0044B002B00D05D
:10501000984710BD600600206006002000000000D8
:1050200006480749091A8B10C90FC91810B549104D
:1050300003D0044B002B00D0984710BD6006002021
:10504000600600200000000010B5074C2378002BFC
:1050500009D1FFF7D5FF054B002B02D0044800E033
:1050600000BF0123237010BD600600200000000077
:105070003CB50010054B10B5002B03D00449054882
:1050800000E000BFFFF7CCFF10BDC04600000000ED
:10509000640600203CB50010F0B546464F46D646A3
:1050A000C0B50700080080219846504B490092B0D7
:1050B0005960012391464E4A4E4C13614E4A0025D9
:1050C00013614E4A13614E4A136B234013634D4BD9
:1050D0004A46036043600023836022230573FD5426
:1050E0000533FD543333FA540322013BFA546B4623
:1050F0009E1D3200A020358003F080F83488092CF2
:1051000000D96EE00534A401A3B29A4624220021FE
:1051100009A805F085FB3C4B02AD1B683B49029397
:1051200001232B714B466B713B8EEB804346186815
:1051300004F03AFE05F0E2F943463449A8605868A5
:1051400004F032FE05F0DAF943463049E860986829
:1051500004F02AFE05F0D2F943462D49286118696A
:1051600004F022FE05F0CAF96861B86904F028FA73
:105170007C23A861FA5C793B29009C46101DC0B2D3
:105180006446144063001B195B00FB181C00643468
:10519000248801328C831C006833663424881B8881
:1051A000D2B28C848B8502319042E9D15746544665
:1051B00040372D1B21002A19A020043402F0B6FF2D
:1051C000A742F7D180213388320001334900A02063
:1051D000338002F0ABFF12B0E0BCBA46B146A8463D
:1051E000F0BDA0235B009A4635808FE700000440A5
:1051F00000010448FEFEFFFF0002005000020448C8
:10520000000001400080BB44280A002000007A44CE
:1052100000002041F0B5CE46474680B5204B85B012
:10522000029300230E0002A904001700994603937D
:1052300003F068FA02236A46012598464B4620008F
:10524000012153801770557003F090FA200001215E
:1052500003F07CFA4B4601AA53804346200002210A
:105260001770537003F082FA2000022103F076FADF
:1052700020000C4903F0B8FA2A00B3009A4013004A
:10528000A022D2051361FF232900334099404346F1
:10529000D1602361E56005B0C0BCB946B046F0BD41
:1052A00060000100FFFF000010B58022082129489E
:1052B000FBF7C2FF802201212748FBF7BDFF8022B8
:1052C00002212548FBF7B8FF802203212248FBF783
:1052D000B3FF224CA02206211E48FBF7ADFFA822F7
:1052E00007211C48FBF7A8FF2000F8220A21FBF742
:1052F000A3FF2000F0220B21FBF79EFF9022052147
:105300001548FBF799FF002204211348FBF794FF8F
:10531000002205210F48FBF78FFF002204210D48D2
:10532000FBF78AFF002203210A48FBF785FF0022D2
:1053300001210848FBF780FF002207212000FBF72E
:105340007BFF626F064B1A408023DB0113436367C8
:1053500010BDC046000004400001044000020440AB
:10536000FF3FFFFFF0B591B004000822002104A820
:1053700005F056FAA0236A4606211374514804AA80
:1053800003F0A8F80822002106A805F049FAA8238E
:105390006A46072113764B4806AA03F09BF80021C2
:1053A000494803F0DFF802260123A020464F0021E0
:1053B000FB60C005FE6003F071F9A023434DDB05DF
:1053C0000822DE60002108A805F02AFA280008A9B2
:1053D00003F0E0F8238801216B633D4B280001AA0C
:1053E000019303F019F901220121280003F0F8F8D4
:1053F000102200210CA805F013FA38206946012379
:1054000009180B7033480CA903F060F92188314862
:1054100003F0EAF9304B01212E4802AA029303F06F
:10542000A5F9012201212B4803F07CF9B4220621C1
:10543000284883588B43334383500021AC3A0AA851
:1054400005F0EEF925480AA903F0BCF8042303AAE5
:10545000FF3301212148039303F0DEF801211F48A7
:1054600003F0D2F85023A0223B61D205B033FB6099
:10547000D36024680134A4B264082000EC6305F012
:10548000ADF8002104F090FC05F038F8021C80B261
:10549000A04200D9221CA21A92B2013C1419002188
:1054A0000C48A4B203F0A2F922000121094803F03C
:1054B0009DF90122044B1A61A0230F32DB051A610A
:1054C00011B0F0BD00000440000004480001044891
:1054D0000801010000020050070101000002044819
:1054E00070B50C1C05001649201C04F041F800287A
:1054F00020D11449201C04F04FF8211C00281DD194
:10550000114804F083FAFE21890504F09FFD04F0A0
:1055100057F8030481B21B0C0C4A286053630C48F3
:1055200003F062F901220B4B1A61A0230F32DB0555
:105530001A6170BD084B19001800EDE70149DFE75B
:1055400000409C46007C12480024744C0001044832
:1055500000020050000004487F0C000010B5324BE0
:1055600082B00093002301AA04000021A02001932F
:1055700002F044FE019A009B9A4230D06A46002114
:10558000A02002F0D3FD220004210832A02002F066
:10559000CDFD220008210C32A02002F0C7FD220020
:1055A0000C211032A02002F0C1FD22001021143283
:1055B000A02002F0BBFD220014211C32A02002F02A
:1055C000B5FD22001821A0201E3202F0AFFD636954
:1055D000A361E368E362E38B238402B010BD220081
:1055E00004210832A02002F009FE220008210C321A
:1055F000A02002F003FE22000C211032A02002F0B5
:10560000FDFD220010211432A02002F0F7FD22003F
:1056100014211C32A02002F0F1FD220018211E32BC
:10562000A02002F0EBFDD2E758331217F8B5574629
:1056300045464E46DE46E0B559271E00C35D0400D0
:10564000884615009A46032B00D14DE1D3493068B6
:1056500003F0A2FF002800D0E0E07368E068191CA6
:10566000994603F085FF002800D004E14846CC4964
:1056700003F092FF002800D0FDE0CA49306903F032
:105680008BFF002800D011E2C74B1F685346012B47
:1056900000D1FCE000D8CEE0022B00D01DE1222397
:1056A000E35C002B00D1A7E12523E35C002B00D1B4
:1056B000D1E12623E35C002B00D1CCE12323E35C82
:1056C000002B00D0C7E1236DB84AFB1A934200D9E2
:1056D000C1E12723E35C002B00D1D7E25B23E35C2D
:1056E000002B00D153E3012B00D1A3E3022B00D107
:1056F000B3E300273E1C216E301C03F079FFAC4958
:10570000061C03F049FF002800D07CE3A949301CA7
:1057100003F02EFF002800D1B4E3A749A54E26666A
:10572000381C03F065FFA16903F062FFA349061C62
:1057300003F03CFF002806D0A149301C03F022FFF3
:10574000002800D093E32B7B2E68002B1CD0AF6881
:105750009C49381C04F028FB011C301C03F048FF56
:105760000021061C2860381C03F020FF002800D10F
:105770004CE36F68301C391C03F018FF002803D07D
:1057800000233E1C2F602B73301C03F019FF43468F
:105790008D492084301C1D6804F038F90021061C56
:1057A00003F0E6FE002800D0F7E28849301C03F041
:1057B000F3FE002800D024E3301C844904F026F9CD
:1057C000061C0135824BADB26D08DD63280004F084
:1057D00005FF311C04F0E8FA03F0D0FB021C80B294
:1057E000A84200D92A1CAA1A92B2013D55190021DB
:1057F0007848ADB202F0FAFF2A000121754802F0A4
:10580000F5FF0122744B1A61A0230F32DB051A61E8
:105810005923E15C022900D135E186E03300012201
:1058200029002000FFF738FCE35D5F4A1768012B71
:105830002DD0012B4CD82223E35C002B00D0F9E0C3
:105840000422664B5A600222644B5A6023232032A2
:10585000A25CE35C0132FF325B0013432522A15CB2
:10586000213A49420A4013432386F0BCBB46B24664
:10587000A946A046F8BD3300022229002000FFF708
:105880000BFC5923484AE35C1768012BD1D18022D5
:10589000534B52005A6001234D4A524913614D4AFD
:1058A0001361514A1361514A136B0B401363504B00
:1058B00027222B606B600023AB6000232B73A35463
:1058C0002233E35C002BBBD05923253AE254B7E7DF
:1058D000022B00D1E3E6032B08D059230022E25427
:1058E0003E4B04325A60AEE72F4B1B6880223C4B84
:1058F00052005A600123364A3A491361354A13610E
:10590000394A1361394A136B0B401363384B272212
:105910002B606B600023AB6000232B73A3542233F6
:10592000E55C002D1CD05923E15C04222B4B5A600E
:10593000032900D087E7802292025A605A23E35C51
:10594000012B00D1A9E0022B00D1A9E0032B00D14B
:10595000A9E0043B5A425341DB010133FF3383E7A3
:105960001A49306803F00EFE0028DCD0E168706848
:1059700003F008FE0028D6D01E49306903F002FE6D
:105980000028D0D09023E35C002BCCD05A230422F3
:10599000E554013BE554114B5A6054E70000504276
:1059A000000078420000AA42280A00208713000065
:1059B00000409C4500409CC500007AC300409C46C6
:1059C000005043486F12833A0000C842000048422A
:1059D0000001044800020050000004480001044097
:1059E00000000440FEFEFFFF0002044800000140EA
:1059F0000080BB440000A0428021E94A4900516078
:105A00000122E849E8480A61E8490A61E8490A616F
:105A1000E8490A6B02400A63E74A2B732A606A600E
:105A20000022AA602722A3543232A354E34B553AF2
:105A30005A6008E700232522E3630023A354E3848C
:105A40003B00C83BE364DE4B233A9C465923674442
:105A50002765E254F4E600222723E254D64B2A734A
:105A60002B606B600023AB60E36CFB1AC72B25D85F
:105A7000236DD449FB1A8B4200D8E1E62523276524
:105A8000E2540133E2542723E35C002B00D1D7E634
:105A90008022CA4BD2025A60D5E688235B00E3E637
:105AA00090235B00E0E6A0235B00DDE633000322E9
:105AB00029002000FFF7F0FAE35DB6E68023B84D39
:105AC0005B00E7646B60B74BB9499B4601239A467C
:105AD0005B4652461A615346B44AB4481361B54A0C
:105AE0000B61136BB049A0260B4013634346B649C4
:105AF000F60519605B46596302F076FE5046B34BDB
:105B0000002218610F303061814640460368002151
:105B100001339BB25808804658464346C363A348A6
:105B200002F064FE4046421E92B201219F4802F0FC
:105B30005DFE5046A54B012118614B465846336126
:105B400002F09EFD0121994802F044FE80235B048F
:105B50006B60052002F0ECFB02235846934A9449FF
:105B60000361136150460B615B46D860D060C8602A
:105B7000FA20800002F0DCFB00218D4802F08AFD53
:105B8000012105008A4802F085FDE36B9846002D4F
:105B900057D0854200D205006E01761B300004F01C
:105BA0001DFD8B4903F032FF011CFE20800503F030
:105BB0002DFF884903F02AFFA664051C8649281C8E
:105BC00003F0D6FC00281BD18449281C03F0E4FC18
:105BD000002815D100264046311C03F0C3FC0028E4
:105BE00044D0216C281C03F003FD44232064A562EB
:105BF000E35C0A2B00D1FDE00133DBB24422A35465
:105C0000802501232520262265496D002354A354B5
:105C10004D606449644D0B6164490B6164490B61DB
:105C200064490B6B2B400B635923664DE15C236D7C
:105C3000FB1AAB4200D8EDE5002327652354A3549B
:105C4000E8E5002800D0A5E0A06C0028D8D004F03A
:105C5000C5FC5F4903F0DAFE011CFE20800503F05D
:105C6000D5FE5C4903F0D2FE051CA7E75C49281C61
:105C700004F09AF85B49051C404604F095F8011CB5
:105C8000281C03F0B5FCA062E063B9E7A769564998
:105C9000381C03F06DFC002800D0C7E05349381CC5
:105CA00003F07AFC391C002800D05049504803F01A
:105CB000ADFEFE21890504F0C9F903F081FC03045F
:105CC0001B0C81B242461060364A384853639146F5
:105CD00002F08AFD01223D4B1A61A0230F32DB0541
:105CE0001A6143461F684B460137BFB27F08DF6326
:105CF000380004F073FC002104F056F804F0FEFBB9
:105D0000021C80B2B84200D93A1CBA1A92B2013FC2
:105D1000D71900212548BFB202F068FD3A000127DB
:105D20000121224802F062FD284B10221F61A023AE
:105D3000DB051A61E08B04F051FC0023011C2B6091
:105D4000686003F055FC0021A8602F73154802F02D
:105D500097FC0021154802F03DFD8022104B5204B3
:105D60005A6002230F4A1361104A13610222114B39
:105D7000FF32196B0A431A631A6B0B490A401A6304
:105D80002723E754053BE35C002B00D0A6E4002367
:105D90002366D8E44601361A00E7002611E5C0461E
:105DA0000000044000010448FEFEFFFF0002005016
:105DB00000020448000001400080BB440001044090
:105DC00078ECFFFF871300007F0C00000000044800
:105DD000286B6E4E00007A440000484200001643D3
:105DE0008C2E3A3E5D74513F00409C46007C124828
:105DF0000024744C264903F009FE0223E063266464
:105E0000FCE62448D9E42449244E88E40021381CC7
:105E100003F0AEFB002800D1B6E46F68301C391CDB
:105E200003F0B0FB002800D1AEE4A9E41C490B004C
:105E3000080047E7B0681B4903F0B6FF5C23061C67
:105E4000E05A04F0CBFB011C301C04F0FFF81649AB
:105E5000061C03F0A9FF071C4DE47168306803F0CD
:105E6000A3FF104903F0A0FF5E23061CE8E7A6612C
:105E7000301C03F0A5FB04F0B1FB011C4046FFF70A
:105E80002FFB60E40949301C03F08EFF011C46E43F
:105E9000000020410000484200007A4300409C4539
:105EA0007F0C000000007A4400002040CDCC4C3D27
:105EB000C046FDE7024A1368013313607047C046CD
:105EC000280A0020014B18687047C046280A0020A5
:105ED000F8B590248A25E4056D0063591B070AD4A0
:105EE0008E26054F7600A1593800C9B200F0B8FCE3
:105EF00063591B07F7D5F8BD58070020F0B5DE46FB
:105F000057464E464546E0B5A3B000210C2212A8E4
:105F100004F086FC80235B021393012310AA12A8CD
:105F2000537202F0B3FAFBF7C9F8FA21FB4B890070
:105F3000186803F095F9802301385B0498420DD26C
:105F4000C021F74A09065060F648036A1B021B0A83
:105F50000B430362002393600733136062B604208F
:105F600002F00AFA022002F007FA082002F004FA0E
:105F7000012002F001FAFFF797F9EB4B18000493A8
:105F8000FFF7F0F9012002F0F7F902F07FFE182286
:105F900000211CA804F044FC0323E4481CA91D9321
:105FA00002F07EFE0321E24802F0E8FE0321E14810
:105FB00002F0E4FEDD4802F095FE8021DE4ADB4877
:105FC0004358002B00DA7BE31023072718AC10227C
:105FD00000212000994604F023FCD84B220018939E
:105FE0000121D348677302F029FFA7230025D04A77
:105FF0000F219B00D5500922FF26A37888468B43AA
:106000001343A370220066730021C94802F016FFF3
:10601000A923C74A9B00D5504246A3786673934391
:106020000B221343A37022000021C24802F006FF96
:10603000AB23C04A41469B00D5500A22A378667321
:106040008B431343A3702200BA480E3902F0F6FEC8
:10605000AA23B84A41469B00D5500422A378667310
:106060008B4313430B392200A370B2488A4602F0D7
:10607000E5FEA423AF4A49469B00D550052317915E
:10608000AA4815A91593169502F080FEC023022098
:10609000A6495B00CA58FE3E3243CA50CA588346DE
:1060A0000243CA500433CA583243CA50CA58024342
:1060B0004846CA50CA580243CA50812292008B589F
:1060C000F130FF3003438B5012239D489D4A1C93AF
:1060D000835A9D490B4003318352FF311CAA02F0C1
:1060E000E7FEB622964912018B58984833438B50ED
:1060F00008231C932F33FF331CAA01211D9302F0A8
:10610000E5FE494660262200189190480D3902F0BC
:10611000F1FE08220021200004F082FB21002670FD
:106120008B4802F0EFFA012389490822CB601CA8B2
:10613000002104F075FB302210A989180E708548E3
:106140001CA902F0DFFA0123824915AACB6082481C
:1061500004211E001693159502F0BCF9902322002D
:106160001893052166607C4802F0B4F9FA23902662
:1061700049469B02F6051C93784B30001E91012284
:106180001CA91D93FAF7FEFF06225146F369300061
:10619000BB431343F361B36A013ABB431343B36296
:1061A000336BBB430B4333630021002302F024FC19
:1061B000012330000522202102F008FC30000022DB
:1061C000102102F031FC30000022132102F02CFCDF
:1061D0008622C023C2205200B158DB050B43B350C6
:1061E0005F4B800019585F4A1140C02212020A43D7
:1061F0001A500938FF3818604146336C01228B432E
:1062000059460B433364584E4B4B300015A9169535
:10621000159302F045FC0522F3692021BB4313438B
:106220005246F361336A5148BB4313433362B36A46
:106230003C32BB43B362F36ABB43F362336BBB4391
:106240003363F3690B43F361F3691343F361336A17
:106250000B433362336A1639134342463362336C5D
:106260009343524613433364F823012618932200C4
:10627000666002F02FF9F0231CAA0B213B481C9307
:106280001D9602F027F9A0200021C00502F006FAB1
:106290008023A0225B00D205D360002108221CA825
:1062A00004F0BEFA0C2132481CAA02F013F90D21A9
:1062B0002F481CAA02F00EF9002200212448FEF704
:1062C000A9FF012203212348FEF7A4FF294B994689
:1062D0001800FFF743F94B4604989969FFF700F956
:1062E000254B402118000F9301F0AEF84A462223B7
:1062F0001570D554214A4E4693461568136803938A
:106300001368079313680993136808931C4B0A9347
:106310001C4B9A461C4B984638E0C046F83F00207C
:1063200010E000E000ED00E0FC0500200000034864
:106330000004034800080348A0860100020027006B
:10634000000501405C0B0000FFFEFFFF000601405E
:106350000001005000040050000104400008080142
:1063600000E100E0FF00FFFF0002004800020440DF
:1063700000000440B806002098060020280A0020EB
:1063800058070020A4060020EC050020CF4B1093F6
:10639000CF4B0E93CF4B11935B461C6853462100A5
:1063A0000093049A33000A9800F068FA5623F35CCD
:1063B000002B00D036E1A54200D1CDE0C722C64B6C
:1063C00092009A580D92C92292009B5808321B05E0
:1063D0001B0D0693C14B9F58043A9D58183A9B5881
:1063E0002D051B051B0D0593BD4B2D0D5B6A28006C
:1063F0009B07DB0F0B9304F0F1F83F053F0D0C906A
:10640000002D00D112E1011CB64803F0FFFA051C73
:1064100043461B680021181C994603F0A3F8002886
:106420000BD181214846C90503F0BEFC291C03F0AD
:10643000DFF8AD4903F0EAFA051C434638001D6059
:1064400004F0CCF8291C03F0AFFCA84903F0DEFAF5
:106450000021071C03F086F8002801D0FE27BF05A5
:1064600043465B680021181C994603F07BF800281E
:106470000BD181214846C90503F096FC391C03F075
:10648000B7F8994903F0C2FA071C43465F600B9BBB
:10649000002B00D1DBE0964B9946059804F09EF85E
:1064A000291C03F081FC8F4903F0D0FD494603F01D
:1064B000ADFA0590069804F091F8291C03F074FCDD
:1064C000884903F0C3FD8B4903F0A0FA43460690C8
:1064D0001B7A092B00D9ABE042460133D068137216
:1064E0005346524651461F60059B0C9D5360069AC9
:1064F00008618A60CD607C216423755C9C46A94656
:106500006D004D446D007519AC4463467A49381CE2
:106510000B9303F049FC03F0F1FF0B9F76493880A1
:10652000059803F041FC2F0003F0E8FF663772493D
:106530003880069803F038FC03F0E0FF4B46032256
:106540007C21013313406835735428805346300052
:10655000109A0499FFF76AF8039BE31A092B11D9E3
:10656000012258205E494B6A5B08134033544B6A42
:106570001A405723F2543378022B6BD00E9801F057
:10658000C9FC0394FA22099B9200E31A934203D3B5
:106590003378012B25D00994079BE31A182B37D8A1
:1065A000FA22089B5200E31A934218D3534B544AE1
:1065B0005A603378002B11D1FA23DB009C420DD3B3
:1065C0002423F25C223B002A04D1B28B002A01D0A2
:1065D0007263013B0F98337000F0A0FE0894250011
:1065E000DAE62423F35C002BD5D1736B002B61D149
:1065F00001232422B354023AB354013333700023ED
:10660000738033710A230F98736300F087FEC2E72B
:1066100003237278119801321340737000F032FF37
:106620000794BDE70F9800F0B9FEC4E6354DEFE6DC
:106630000D9B424618050023000D1372431E324A7B
:106640009BB293421AD931484346D86048E7294B58
:10665000994622E72321715C002A09D1B378022BE5
:1066600005D0002907D1012B88D1B17086E700231E
:10667000B370002982D00123B3707FE703F0AEFF2F
:10668000051C011C224803F0E1FC011C281C03F03E
:10669000BDF902F043FC1F4903F086FB1E4902F0DE
:1066A000A7FF011CFE20800503F0B0F91B4903F091
:1066B000CDFCC9E7013B7363002B00D06BE797E784
:1066C000013A002A00D07BE47EE4C046DC050020CD
:1066D0004C0700207C060020000403480008034803
:1066E00000000440000020400000A040D044583B7F
:1066F000CDCC4C3D0AD7233D0000C84200010440E8
:1067000008000800BF49533AFD0F00000000C841CF
:1067100000F07F457CD483390FCF5B3B33938843B4
:1067200070B5314D280000F07DF8304C3049220022
:10673000280002F0EBFB2F4D280001F097F9220012
:1067400028002D4902F0E2FB2C482D492D4AC1605A
:10675000C162802182602C4A542502612B4A0023A9
:10676000426182612A4A4900C26100220163F6390E
:1067700041630939415501354155013543550135CD
:106780004355253543550435425104354251826203
:10679000C26302640266882203604360036243624C
:1067A000836341648364C36403658365C365835005
:1067B000043283509033C154743A0021643004F0A1
:1067C0002FF8144D280000F0DDFC220012492800AB
:1067D00002F09CFB114D280000F050FE2800220022
:1067E0000F4902F093FB70BD58070020D805002028
:1067F0005D6800104C070020797A0010B806002070
:10680000000070420000A041000034450050C34722
:106810000A00881398060020A57100107C0600204D
:1068200081740010B1220023920010B503608350E0
:106830000432835004328350C022040000215200ED
:10684000043003F0EDFF2000A0228530002152002B
:10685000FF3003F0E5FF200010BDC0467047C04682
:10686000B223C0229B0010B5C4585200944204D2F7
:10687000C258541CC4508018017110BDF0B5454673
:10688000DE464E465746E0B51E0090238B467021EB
:10689000DB0590469A6C0500C3B0114200D0DA6463
:1068A000B2242B1D9946A4006F1D72B62A5962B6F8
:1068B0002B78002B08D0012B1FD043B0F0BCBB4677
:1068C000B246A946A046F0BD032AF6D929796B79CC
:1068D000A879EA794B4043409A425AD072B62A5975
:1068E00039004846013A03F089FF2B59013B2B51EF
:1068F00062B62B59032BD8D8DFE7B3275946BF0020
:10690000EB59CB1A322B32D8C44BE85A873BFF3BAA
:106910009C46411E8BB2634529D29042CDD82B1D97
:106920009946002954D02A79012907D001234F46DE
:10693000FC5C013362409942FAD8B94669180B7978
:1069400093424AD072B690228C238021D2055B00FC
:106950000902D1508021C901D150B22200235946E9
:106960009200AB500432A9502B7062B6A5E772B604
:1069700090228C238021D2055B000902D150802116
:10698000C901D15000235A462B51EA512B7062B6EF
:1069900093E7AB7968791B020343B1208000295447
:1069A0009E495BBA6B529E4BEA5472B629002A5933
:1069B0004846043A083103F021FF2B59043B2B5180
:1069C00062B6B3235A469B00EA5001232B706CE752
:1069D000002269180B799342B4D12B799A4652461A
:1069E0008F4BEA54013BEB5C022B49D02C008534E1
:1069F000FF34032B00D18BE000239A469846009386
:106A000072B6B227854BBF00EB5AEA594846D21AF4
:106A10000433E91803F0F2FE804AEB59AA5A9B1A94
:106A2000EB5162B64346002B00D000E25346002BE8
:106A300000D0E2E1009B002B00D111E1E423FF3301
:106A4000A1469A4690278A268024A846AA44FF0594
:106A50004D467600640100E0C046BB592342FBD19D
:106A600090202978C0050135FAF7D2FBAA45F4D168
:106A7000B32345465A469B00EA5000232B701CE77F
:106A8000EB88684A934200D109E2674A934200D1F9
:106A900021E2664A934200D1B0E2654A934200D1B6
:106AA00084E0002B01D05BBA33866B79012B00D1D7
:106AB00066E2002B10D12222B3545E4BDE325A60C4
:106AC00001235D4A5D4913615D4A13615D4A1361AB
:106AD0005D4A136B0B401363A8685C4B00BAC21885
:106AE0005B4B9A4200D816E202231A002C7B22400C
:106AF000234200D109E201222133F254230700D5B9
:106B000003E3E40600D5F7E12C008534FF3473E796
:106B10006B799846092B00D92DE25F1DFFB2BF01AA
:106B20002C00A0228534FF3420005200002103F005
:106B300077FEC223474A5B00EA525F220233EA54DF
:106B400088235246FF33EA5442460133EA54493B14
:106B5000FF3B9A462B0022008A33FF33BA44DB1BEB
:106B6000A84654461D0092463900EA19A020043771
:106B700001F044FBBC42F7D188234546FF3328008F
:106B8000EA5C2B0054468933E330FF33FF30197839
:106B900001334A409842FAD1F1235B00EA540023C2
:106BA0009A46013300930023984629E72C00A0223F
:106BB0008534FF34002152002000AF6803F030FE1E
:106BC00086230122FF33EA5401330232EA54882338
:106BD000013AFF33EA5452460133EA548A235522DC
:106BE0002800FF33EA541C4B3FBA8B30F918AB3204
:106BF000FF3003F053FE2B005146184A8A33FF330F
:106C0000AA181878013341409A42FAD1134BE9543B
:106C100001239A46002398460093F1E6C60200003D
:106C2000C5020000FFF00000FFF10000FFF20000CD
:106C3000FFF300000000044000010448FEFEFFFFD7
:106C4000000200500002044800000140E0B1FFFFD4
:106C500020BF0200035C000000B001108A020000A7
:106C6000A02200215200200003F0DAFD86235C22DE
:106C7000FF33EA54013BEB5CD0495340C32252003E
:106C8000AB54CF4BEF5C8823FF33EF54663BFF3BA5
:106C9000F25C6733FF33EA54A822338EFF321B0ABB
:106CA000AB54D423328E5B00EA544C9B186803F03B
:106CB0007BF803F023FCCA23020EFF33EA540214CC
:106CC0000133EA54CC230212FF33EA540133E8546F
:106CD0004C9BBA49586803F067F803F00FFCCE23C9
:106CE000020EFF33EA5402140133EA54D023021295
:106CF000FF33EA540133E8544C9BB049986803F0E1
:106D000053F803F0FBFBD223020EFF33EA540214C4
:106D10000133EA54D4230212FF33EA540133E85416
:106D20004C9BA849186903F03FF803F0E7FBD62312
:106D3000020EFF33EA5402140133EA54D82302123C
:106D4000FF33EA540133E8544C9B5968186803F048
:106D50002BF89A4903F028F803F0D0FBDA23020E4F
:106D6000FF33EA5402140133EA54DC230212FF33E6
:106D7000EA540133E8549149B06A03F015F802F07F
:106D80001FFCDE23020EFF33EA54020C0133EA54E7
:106D9000E023020AFF33EA540133E854873BFF3B08
:106DA000F25CE223FF332900EA542B00E3318933FC
:106DB000FF33FF311A78013357408B42FAD1F12368
:106DC0005B00EF54E423FF33A1469A4690278A26BE
:106DD0008024A846AA44FF054D467600640100E0E1
:106DE000C046BB592342FBD190202978C00501350C
:106DF000FAF70EFAAA45F4D13AE6734BA1469A4641
:106E000090278A268024A846AA44FF054D4676008E
:106E1000640100E0C046BB592342FBD19020297891
:106E2000C0050135FAF7F4F9AA45F4D120E6A0220D
:106E300000212000520003F0F3FC86230522FF33DB
:106E4000EA54013BEB5C55215340C3225200AB5442
:106E500088225B4BFF32EB5CA146AB540132A95454
:106E6000552253408A22FF32AB54C5235B009A4619
:106E700090278A268024A846AA44FF054D4676001E
:106E8000640100E0C046BB592342FBD19020297821
:106E9000C0050135FAF7BCF95545F4D1E8E54B4B8F
:106EA000AC689A4624BAA2441F009A4508D9380013
:106EB000FAF74AF980235B019C466744BA45F6D845
:106EC000434B1C6000232C009A4600938534013309
:106ED0009846FF3494E529008022AC6852000C31BA
:106EE00002A803F0DBFCFAF725F9384B24BAE018C6
:106EF00002A9FAF73DF9E5E7242301222C00F25418
:106F00008534223B3370FF3476E5630700D4F5E522
:106F10002323F254F2E503F061FB2E49B061041C17
:106F200002F026FB002822D12B49201C02F034FB62
:106F3000211C002800D02849284802F067FDFE21C6
:106F4000890503F083F802F03BFB03041B0C81B2BC
:106F500042461060224A2348536301F045FC012257
:106F6000214B1A61A0230F32DB051A61BCE51F49D2
:106F70000B000800ECE7A02700237F009846CFE530
:106F800022220021B354164801F07AFB0021154853
:106F900001F020FC8022164B52045A600223104A52
:106FA0001361104A13610222124BFF32196B0A431C
:106FB0001A631A6B10490A401A638DE500007A447F
:106FC000C5020000000020418B02000000B001104B
:106FD000FC3F002000409C46007C12480024744C7A
:106FE0000001044800020050000004487F0C00002B
:106FF0000000044000000140FEFEFFFF8022554BD0
:1070000052005A600123544A54491361544A13618F
:10701000544A1361544A136B0B401363222300221A
:10702000F254072808D9AB68504A1BBA9846C623C1
:1070300042445B029A420BD94D4B4C4A1B6898461E
:10704000C62342445B029A4202D991235B029846CE
:107050002C00A0228534FF3400215200200003F0D0
:10706000DFFB86230522FF33EA540133EA548822EA
:107070005521404BFF32EB5C9027AB540132A954B1
:10708000552253408A22FF32AB54C5235B009C46F5
:10709000AC446346019380235B019A460094FF054C
:1070A00000E0C0468A2352465B00FB581342F8D1E9
:1070B0009020009BC0051978FAF7AAF8009B019A66
:1070C000013300939342EDD18A2280239020520015
:1070D000B9581B01C005194203D1C0468158194255
:1070E000FBD000230293029A234B19009A4206D840
:1070F000C046029B01330293029B8B42F8D9424661
:107100001E491F4804F034F876E4320004210832A6
:10711000A02001F00BF8320008210C32A02001F071
:1071200005F832000C211032A02000F0FFFF3200E1
:1071300010211432A02000F0F9FF320014211C327B
:10714000A02000F0F3FF320018211E32A02000F032
:10715000EDFFD6E40000044000010448FEFEFFFFFE
:1071600000020050000204480000014000FCFFFF44
:10717000FC3F0020C50200003F0D030000B00110DD
:1071800000100010142200234270103A8270043262
:10719000027138320370C37042718371C37103721C
:1071A0007047C0467047C04610B5047900220C43B2
:1071B00041790B4801F0ACFC04210948214301F05E
:1071C00001FD022001F0B4F82100054801F0FAFCAD
:1071D000034801F0DDFC052001F08AF810BDC0462F
:1071E00000020048F8B5CE46474680B50D0041790B
:1071F00000294BD02D4B984654234246D35C002B9C
:1072000044D05623D35C002B40D188270379284CE7
:107210009946E36CBF003B4300222000E36401F089
:1072200077FCFEF74FFE060004E0FEF74BFE801BE6
:10723000042835D8A36C3B42F7D02023A26C13421C
:1072400028D180234946E26C9B001343E364294321
:10725000174801F0B7FC8826FEF734FE144C0500F1
:10726000B60004E0FEF72EFE401B042818D8A36CDD
:107270003342F7D02023A26C13420BD18023E26C5F
:107280009B0013430A48E36401F082FCC0BCB9468A
:10729000B046F8BDE26C06481343E36401F078FCA5
:1072A000562301224146CA54F0E7C046B8060020E2
:1072B00000020048F8B50F230E00CE4647469E4315
:1072C000164380B58946310005001400FFF78AFF98
:1072D000042331000427984639432800C9B2FFF738
:1072E00081FF4346310028009943FFF77BFF4B465F
:1072F0001B011C43E4B2280021002743FFF772FF63
:107300002800F9B2FFF76EFF434621002800994399
:10731000FFF768FFC0BCB946B046F8BD10B5002203
:107320000121FFF7C7FF022000F0E2FF00F098F80C
:1073300010BDC046F0B585B06D460C4B8C46C2CB37
:10734000C2C51B686C462B608378934201D8013B11
:10735000DAB280219200A3584942634419430022C3
:10736000C9B2FFF7A7FF05B0F0BDC04680B100105D
:1073700070B50E00097805000024002908D10BE043
:10738000012228000134FFF795FF315D002903D069
:107390006A78E3B29A42F3D8012070BDF8B50226AC
:1073A000274D0400280001F065FCAE66EB6C0F224F
:1073B0003343EB64EB6C012304275B42EB642B6CDF
:1073C000322093433B432B6400F092FF2000302196
:1073D000FFF7EAFE20003021FFF7E6FE2000302113
:1073E000FFF7E2FE20002021FFF7DEFE2023A17937
:1073F000200019430022FFF75DFF2000E771002203
:107400000C21FFF757FF002201212000FFF752FF58
:10741000022000F06DFF2000267200220621FFF7F7
:1074200049FF002202212000FFF744FF022000F064
:107430005FFF00F015F856220021024B9954F8BD69
:1074400000020048B80600200123827810B593425C
:107450009B415B42DB0041718371FFF79FFF10BDD1
:10746000542210B50021034803F0DAF9FF22024B41
:107470001A7010BD2C0A0020000600207047C0467C
:107480007047C046F0B5454657464E46DE46002397
:10749000E0B5CA4F8FB003713B78C94C984623784A
:1074A00005007E7843453CD1C64B0293FB78002B08
:1074B00033D1BB781A000393434664245C43B30082
:1074C0009B195B00E418C04BA4189B465B682C60BA
:1074D000181C9A4603F012F8814603F02FF8011C9D
:1074E000504602F0B3FDB94902F05EFC03F006F825
:1074F000FF2382465B009C4200D165E21BDCE82C46
:1075000000DD8CE0C72C00DCDCE0C83C202C00D97E
:10751000F3E0AF4BA4001B599F46002300220393C6
:10752000CAE7A84B542218000021029303F078F90F
:1075300043462370BAE7E1239B009C4200D14EE210
:107540002BDCA44B9C4200D1F4E000DDC9E0A24B4F
:107550009C4200D130E25A339C4202D0643B9C42B0
:1075600065D17F699D49381C02F050FA02F0C6FFD0
:10757000040002F0E3FF994902F016FC011C381CDC
:1075800002F064FD964902F041FA02F0B7FFC243EF
:107590000300D21793491340C5E08B23DB009C42C4
:1075A0004DDA914B9C4200DDF6E16D3B9C4200D1EF
:1075B000EAE18E4B9C466444012C38D82B1D1322E3
:1075C00018008B499B4603F069F92B7908AC002B16
:1075D0002FD05D4614222021200003F021F9002342
:1075E0002800237503F063F90200142800D914223F
:1075F0002900200003F052F973009B19DA00D31A16
:10760000029A2100D518280003F03EF9002828D15D
:107610000FB0F0BCBB46B246A946A046F0BDC82399
:107620005B009C4200D1BFE164339C4269D00023DF
:107630002B714346032B34D908AC6E4DCAE76E4B11
:107640009C466444012CF2D82B1D9B465823FB5CBE
:10765000002B00D1D0E1694A1821584603F078F890
:10766000B3E721001522280003F018F9644D320019
:1076700028000021FFF75EFE21002800FFF778FEBA
:10768000C6E7FEF71FFC5F4901F0EAFD2B1D020073
:107690005D4918009B4603F08FF82B79002B00D032
:1076A00022E108AC032EC8D8039B002BC5D143466A
:1076B0009B00564A9B199B009D58002D00D089E7DE
:1076C0004C4D87E76E2C18D12B1D18007A6B504952
:1076D0009B4603F071F82B7908AC002B00D078E7BB
:1076E000E0E7C8239B009C42A1D12B1D1800BA8B58
:1076F00048499B4603F060F867E7002308AC2B710C
:10770000D0E7FF68381C02F0F9FE040002F016FF13
:10771000011C381C02F09AFC2C4902F045FB02F0D7
:10772000EDFE03003C492A1D93462200584603F013
:1077300043F84AE72B1D0C22180038499B4603F0FA
:10774000ADF842E7BC692549201C02F05FF902F060
:10775000D5FE05AB9946824602F0F0FE1F4902F0C5
:1077600023FB011C201C02F071FC1D4902F04EF9A4
:1077700002F0C4FEC343DB17184053460B21284ACE
:10778000019000934846274B02F0E2FF2221795CEA
:1077900008AC254B254A009120000B2102F0D8FFB0
:1077A0002B1D9B464A4623005846214903F004F806
:1077B0002B79002B00D00CE774E7C046B8060020F8
:1077C000000600202C0A0020A40600200000C84269
:1077D00070B30010C60200006202000000007A448C
:1077E0000000204170B2001055040000B4FBFFFF00
:1077F000C4B100106CB30010A0FBFFFFBCB10010BF
:107800009806002080EE360058B20010F4B3001045
:10781000D8B1001098B2001060B200108CB2001005
:10782000E0B10010DCB10010F0B10010F4B10010B4
:10783000FCB10010398C724B724A009105A80B21E3
:1078400002F086FF5146C817091841400191494688
:107850006D4B6E4A08AC00910B21200002F078FFBE
:107860002B1D9B466A492300584605AA02F0A4FF37
:107870002B79002B00D0ACE614E75B461F68381C60
:1078800002F03CFE5B461B690400994602F056FE7E
:10789000011C381C02F0DAFB5E4902F085FA02F0A6
:1078A0002DFEC317C01858400B215B4B574A01905F
:1078B000009405A802F04CFF484602F01FFE574F07
:1078C00008AC00903B000B212000554A02F040FF1D
:1078D000C6E72B1D18000E2252499B4602F0DEFF20
:1078E0002B79002B00D1DCE608AC72E65B469B6886
:1078F00008AC181C994602F001FE8246398E4A4BAC
:107900004A4A009105A80B2102F022FF504602F0DE
:1079100015FE011C484602F099FB3E4902F044FA6C
:1079200002F0ECFDC317C01858405346404F009377
:10793000364A3B0001908FE7B86A05AB994602F0E2
:10794000DDFD3C4C009023000B2148462D4A02F0FF
:10795000FFFE2523FB5C002B50D0374908AC374B8A
:10796000374A009120000B2102F0F2FE2B1D9B46AE
:107970004A4623005846264902F01EFF2B79002B69
:1079800000D026E62F4D25E62B1D1800FA8B2E4938
:107990009B4602F011FF18E62B1D072218002B4909
:1079A0009B4602F07BFF10E62B1D9B462323FB5CCE
:1079B000002B1FD0264A4FE62B1D0B22180025490D
:1079C0009B4602F06BFF00E6C217831853402A1D46
:1079D000934621494A46584602F0EEFEF5E5B8685E
:1079E00002F042FE02000B00281D1C49834602F0F3
:1079F000E3FEEAE51A4A2FE61A4A2DE61A49ADE7F0
:107A000008B20010F4B100100CB20010E0B1001088
:107A1000FCB100100000C84210B2001014B20010F7
:107A200018B2001024B2001034B2001038B20010A6
:107A300044B2001048B2001090B100104CB20010D7
:107A400050B200106CB30010B4B20010C4B20010F9
:107A500094B1001080B2001060B20010A8B2001003
:107A6000A8B10010C0B10010B8B10010012303602C
:107A700000234360836070477047C046002370B5A1
:107A80005E4C0500A370E378002B0AD10123E3705C
:107A900002332370002323710A3363630A336B704C
:107AA00070BD4378502B00D18FE00CD96E2B00D1E4
:107AB00086E028D85A2B15D0642BF1D10A232370E5
:107AC00064334370ECE73C2B00D183E014D8282BBF
:107AD0000DD0E5D8142B00D085E004232370243387
:107AE0004370DDE7092323705B334370D8E7052338
:107AF000237037334370D3E7462BD1D1072323704C
:107B000049334370CCE7782BCAD1220004210832D4
:107B1000A02000F00BFB220008210C32A02000F076
:107B200005FB22000C211032A02000F0FFFA2200F9
:107B300010211432A02000F0F9FA220014211C3286
:107B4000A02000F0F3FA220018211E32A02000F03D
:107B5000EDFAA06901F034FD02F040FD2849061C51
:107B600001F006FD00283AD12649301C01F014FD31
:107B7000311C002800D02349234801F047FFFE2193
:107B8000890502F063FA01F01BFD03041B0C81B2AE
:107B90001E4A10601E4A1F48536300F025FE012252
:107BA0001D4B1A61A0230F32DB051A61022300224C
:107BB0002370002362800A32237162636B706FE767
:107BC0000B2323706D3343706AE70823237052330D
:107BD000437065E7062323704033437060E70F4925
:107BE0000B000800D4E7142B00D959E7002B00D173
:107BF0004CE70A2B00D053E748E7C046B806002000
:107C000000409C46007C12480024744CFC05002077
:107C10000001044800020050000004487F0C0000EE
:107C200070B5474C22780A2A09D846499300CB58A8
:107C30009F462223E25C002A01D10122E25470BD5A
:107C4000E378002BFBD0062A60D03F493F4E6569A0
:107C5000281C01F097FC00285BD0311C281C01F087
:107C6000C7FC3B496061A061051C01F081FC002854
:107C700050D038490B000800374A1060374A38485E
:107C8000536300F0B1FD0122364B1A61A0230F327D
:107C9000DB051A61D3E7E378002BD0D09622A38BC3
:107CA00052009342CBD20133A383C8E7E378002B81
:107CB000C5D0A5682C49281C01F05AFC0028BED06C
:107CC0002A49281C01F094FCA060B8E7E378002B57
:107CD000B5D0E38B264A9342B1D86433E383AEE751
:107CE000E378002BABD02323A7E7E378002BA6D0C3
:107CF000E5682049281C01F045FC00289FD01B495D
:107D0000281C01F075FCE060E06298E71A491B4E00
:107D10009DE7A5611A49281C01F03EFC291C00289A
:107D200000D01749174801F071FEFE21890502F0C5
:107D30008DF901F045FC03041B0C81B29CE7C046A1
:107D4000B806002034B4001000D3D647000020410C
:107D500000409C467F0C0000FC0500200001044808
:107D600000020050000004480000A041CDCCCC3DF2
:107D7000871300009A99774200A6D6470000C842B0
:107D8000007C12480024744C70B54F4C22780A2AAB
:107D90000ED84E499300CB589F4624230122E2542B
:107DA0000022023BE2544A48203B2370FFF7B6FA18
:107DB00070BDE378002BFBD0062A76D04549464EAD
:107DC0006569281C01F0F2FB002871D0281C311CC9
:107DD00002F03CF9051C6061A0614049281C01F0DB
:107DE000DBFB291C002800D03C493D4801F00EFE79
:107DF000FE21890502F02AF901F0E2FB03041B0CC5
:107E000081B2384A1060384A3848536300F0ECFCBD
:107E10000122374B1A61A0230F32DB051A61C7E735
:107E2000E378002BC4D0A38B012BC1D9013BA383E2
:107E3000BEE7E378002BBBD0A5682E49281C01F0D3
:107E4000ABFB0028B4D02C49281C02F0FFF8A0603E
:107E5000AEE7E378002BABD0E38B284A9342A7D957
:107E6000643BE383A4E72223E25C002AA0D0002243
:107E7000E25422879CE7E378002B99D02323002249
:107E8000E25495E7E378002B00D191E7E5681C49BF
:107E9000281C01F08BFB002800D189E71649281C1B
:107EA00002F0D4F8E060E06282E71649164E87E7F8
:107EB0001649A561281C01F05BFB00288DD01449F0
:107EC0000B0008009DE7C046B806002060B4001013
:107ED000980600200009A64700002041007C1248B7
:107EE0000024744CFC0500200001044800020050EE
:107EF000000004480000A0C1CDCCCC3DDC05000052
:107F00003333A3400036A6470000C84200409C46D9
:107F10007F0C000070B50378040082B0002B01D103
:107F200002B070BDFDF7CEFF7A4906004A6AA37819
:107F3000920602D54A6AD2060FD4774DEA78012A12
:107F400001D10A216963012B6CD0032B62D0002B75
:107F5000E6D101336660A370E2E74A6A1207ECD506
:107F6000012B00D18CE06B494A6AD2067DD46A4D60
:107F7000EB78012BD4D16368F61A684B9E42CFD9B7
:107F80006748FFF7CBF9674B01AA00930023002154
:107F9000A020019300F032F9019A009B9A4200D18F
:107FA00092E06A460021A02000F0C0F82A000421D7
:107FB0000832A02000F0BAF82A0008210C32A020D4
:107FC00000F0B4F82A000C211032A02000F0AEF826
:107FD0002A0010211432A02000F0A8F82A00142151
:107FE0001C32A02000F0A2F82A001821A0201E3286
:107FF00000F09CF86B690022AB61EB686A80EB6271
:10800000EB8B0A322B8402232B7000236A632B71C3
:10801000637085E76368F31A322B00D880E700238A
:10802000A3707DE76368F31A642B00D878E73948BA
:10803000416AC90610D53748416A890627D4002A03
:1080400036D1394A934200D86AE72000FFF716FD7F
:1080500003236660A37063E7416A0907EBD4617884
:108060001429E8D10223A3705AE74A6A120700D400
:108070007DE7022B00D07AE72000FFF7FFFCCEE778
:10808000FA2162684900821A8A42C8D86BE7436ABB
:10809000DB0612D5436A1B0700D541E72000FFF736
:1080A00073FE03230122A37021336660EA5437E78D
:1080B0006378142B00D133E7C7E72000FFF7B0FD4A
:1080C00003236660A3702BE72A0004210832A02056
:1080D00000F094F82A0008210C32A02000F08EF85D
:1080E0002A000C211032A02000F088F82A0010216C
:1080F0001432A02000F082F82A0014211C32A020A3
:1081000000F07CF82A0018211E32A02000F076F83A
:1081100070E7C04600000440B806002010270000A9
:10812000980600205833121788130000F0B5C64691
:1081300000B582B06F460B0AC9B210780902DBB2F3
:108140000B4351780004090603430B4300939378D3
:108150003B71D37800227B71254B984654234146CE
:10816000CA5424498B6B1B0609D58020224B02E0A0
:10817000013B002B03D0C0468A6B1042F8D100228D
:10818000A0211C4800F0C4FC6B468025194C9E1DA4
:10819000A36B1D4208D0184B02E0013B002B03D01B
:1081A000C046A26B1542F8D139781248013700F069
:1081B00009FDBE42ECD1A36B1B060AD580210E4BF4
:1081C0000C4802E0013B002B03D0C046826B1142F9
:1081D000F8D1084800F0DCFC0A2000F089F85423AC
:1081E000012241460120CA5402B080BCB846F0BD0D
:1081F000B806002000020048E7030000CBB2F0B54B
:10820000C6461400984600225423364E0F0A3649BB
:1082100000B5F2548B6BFFB21B0609D58020334B9F
:1082200002E0013B002B03D0C0468A6B1042F8D11C
:108230002D4D0022A021280000F06AFCAB6B1B062C
:1082400009D58022294B02E0013B002B03D0C04618
:10825000A86B0242F8D1244D3900280000F0B2FC8E
:10826000AB6B1B0609D58022204B02E0013B002BA3
:1082700003D0C046A96B0A42F8D141461A4800F023
:10828000A1FC012000F034F80122A021164800F0E2
:108290005FFC012000F02CF8E51C271D1248AC42C1
:1082A00015D000F0A5FC012000F022F80E4800F0E7
:1082B000D3FC20700134BC42F0D10B4800F068FCC4
:1082C000542301220120F25480BCB846F0BD00F0D6
:1082D000A9FC012000F00CF8034800F0BDFC207060
:1082E000EBE7C046B806002000020048E7030000A4
:1082F000FA210E4B70B589000400186800F0B0FF39
:10830000010006000320404200F0AAFF0500A04241
:1083100006D20320404200F01FF8641BA542F8D3A8
:108320002000704300F018F870BDC046F83F0020F0
:10833000064B10B5040018680549013800F090FF9D
:108340000130604300F008F810BDC046F83F00203F
:1083500040420F00000000000230800803D00138C6
:10836000FDD1C046C046C0467047EFF3108072B6DC
:10837000704780F310887047C0230421084A536275
:10838000536A1942FCD18021064AC9051369184372
:10839000106113680B42FCD1C322014B5A62704733
:1083A0000000014000030140034B9B6803405A1E3C
:1083B0009341D8B27047C04600030140F8B5C023CE
:1083C0000D0004242C4A5362536A1C42FCD12B4AF0
:1083D0002B4B14681168240419402A4B29430B4382
:1083E0008021240E1360C90513680B42FCD184421E
:1083F00029D98600B44212D9234B80219C461F4ABA
:10840000204FC90565461368A4082B4025022B435D
:108410003B43136013680B42FCD1B442F2D8174AB5
:108420001949136800020B40164903430B4380218E
:108430001360C90513680B42FCD1C3220E4B5A626C
:10844000F8F73CFEF8BDA3009842E8D980210B4A1A
:108450000D4F0C4EC905251E00D101351368AC0027
:108460003B40AD022B433343136013680B42FCD1F6
:10847000A3009842EFD8D2E700000140000301407A
:1084800000FF0FC00000F03FFF000FC0C023042119
:108490000A4A70B55362536A1942FCD14568836831
:1084A000074C2B432168074D29400B432360C3230E
:1084B000536201784078FFF781FF70BD00000140F2
:1084C00000030140FFFFF0FF014B18687047C046F2
:1084D000F83F0020F0B54746CE46032480B527007C
:1084E000F8260F40FF00BE408B089B00C3181D6993
:1084F000B5434E00B4401D61456F0426A543CC082A
:10850000A40045670419256CA84607250D40AD0059
:10851000AE40A9464546B54325644D46266CB44653
:108520005678AE4035006646354325640C4CA04273
:1085300010D0002555571478002D02DA52688A4071
:1085400042602200BA4019690A431A61C0BCB946A8
:10855000B046F0BD01258D40046EAC430466E8E7EB
:1085600000020440094B70B505000C00984209D088
:1085700080235B00EB602B68054AA40313401C4377
:108580002C6070BD0420FFF7F7FEF1E700000448FF
:10859000FF3FFFFF0B6843614B799B06DB0F1B0519
:1085A00043600B791B071B0F43624B791B071B0FA3
:1085B00003624B79DB06DB0F83610B791B09C36216
:1085C0007047C0460B6843614B79DB07DB0A4360A9
:1085D0000B791B071B0F43620B791B09C3627047A2
:1085E00010B503244368A343194341604369012A3A
:1085F00003D0044A1340436110BD8022D2001343CC
:10860000F9E7C046FFFBFFFF3022436809019343AF
:10861000194341607047C046F0B54C1EE4B2650096
:10862000EDB22F0003231037FFB2C6469846BB4079
:108630009C46066800B533006646B3439C465378B3
:108640001531BB40CFB201216646B94033438B435D
:1086500091784646B9401935EDB21943D378AE400A
:10866000AB40B1430B43A1000F241278C9B28C4038
:108670008A40A3431343036080BCB846F0BDC046A4
:1086800002224369002902D1934343617047134397
:108690004361FBE789004018406F7047A02370B525
:1086A000DB0505000C00984209D080235B00EB60DD
:1086B0002B68054AA40313401C432C6070BD0220A4
:1086C000FFF75AFEF1E7C046FF3FFFFF01230361BA
:1086D0000B688A6843614B7BDB06DB0F1B0543603D
:1086E0000B7B1B071B0F43620B7B1B09C3624B7B7E
:1086F0001B071B0F03624B68836114235340836481
:108700007047C046012303610B6843614B79DB0767
:10871000DB0A43600B791B09C3620B791B071B0F34
:108720004362704710B503244368A3431943416073
:108730004369012A03D0044A1340436110BD8022DB
:10874000D2001343F9E7C046FFFBFFFF3022436826
:1087500009019343194341607047C046C0224368F2
:1087600089019343194341607047C046F0B54C1EE0
:10877000E4B26500EDB22F0003231037FFB2C64606
:108780009846BB409C46066800B533006646B34336
:108790009C4653781531BB40CFB201216646B940A3
:1087A00033438B4391784646B9401935EDB21943AE
:1087B000D378AE40AB40B1430B43A1000F241278F5
:1087C000C9B28C408A40A3431343036080BCB846BF
:1087D000F0BDC04602224369002902D193434361A0
:1087E00070471343FBE7C04641637047002901D13E
:1087F000C26370474264FCE77047C046902310B5DF
:10880000DB05040098420DD00B4B98420AD003239D
:108810000122E360E3681A42FCD00F22236C9343E9
:10882000236410BD0820FFF7A7FD0820FFF7BCFD5B
:108830000028FAD1EBE7C04600020048F0B5DE465A
:1088400057464E464546E0B583B001900C000120E6
:108850000092632901D9002A06D103B0F0BCBB46BF
:10886000B246A946A046F0BDFFF72EFE642100F0F7
:10887000F7FC64210600200000F0F2FC194B009F79
:10888000994601239A468023DB009B461C009846AC
:108890004743B5023900280000F0E2FC830A434553
:1088A00006D88005800D814502D981469A46A346A7
:1088B000013CAD1B002CEDD15B46802201981202D9
:1088C000013B13430361009B42690749013B9B0243
:1088D0000A401A435346013B1B04134343610020E3
:1088E000BBE7C046FF030000EF8000FCF0B5574631
:1088F0004546DE464E461400E0B583B00D00824684
:1089000001910092FFF7E0FD23006B4307009846BA
:1089100001209F4249DD1900380000F02BFD294B52
:108920000600984248D94246012599465600310032
:10893000380000F01FFDAB460400013546444845B1
:10894000F5D85B4606001B049B466E430099631CEA
:10895000694338005943984600F082FC019B009916
:108960001D1AEB17ED18380071435D4000F078FCDC
:10897000019B181AC317C0185840854200DBA04657
:1089800080224346D200D21A8023DB011343524691
:108990001361009B52690C49013B0A409B0213433F
:1089A0005A46134352460020536103B0F0BCBB4605
:1089B000B246A946A046F0BD002304009B4601250F
:1089C000C4E7C046FE030000EF8000FC70B58424BD
:1089D00064000559064E1206354005510A431B0234
:1089E00005591A43034B1D402A43025170BDC0462E
:1089F000FFFFFFF8C0C0FFF870B586256D00445931
:108A0000074E1206344044514459064E1B0234406E
:108A10000C4314431C4380235B052343435170BD27
:108A2000FFFFFFF8C0C0FFEF30B5072486258C405C
:108A30008A406D004359A3431343435130BDC046A0
:108A40000300144810B581420AD8D86B124C20405C
:108A5000D863002A14D00A221800FFF747FF10BD80
:108A60000E4C0120A142FAD88020DC6B800220430A
:108A7000D863002A09D019221800FFF737FFEEE764
:108A80000A221800FFF7DAFEE9E719221800FFF7BB
:108A9000D5FEE4E7A0860100FFFFFDFF801A060077
:108AA00070B504000D001600FFF7A8FEF822F021B3
:108AB000164BD2016363EB88C9011A408A4210D079
:108AC000E06B1B02000C00040343E363002E16D18D
:108AD000A023DB00A36301235B42E3640023236440
:108AE00070BDFF21E26B1940120C12040A43FE21F3
:108AF0005B0009020B401343E363002EE8D0200023
:108B00002A792968FFF79CFFE2E7C04603033F0785
:108B1000012A18D08023DB00194384235B00C2584C
:108B2000E023DB041A4203D0C0235B00C15070472E
:108B3000836B1B06FCD48023C26C9B011343C3646C
:108B40008023C150F3E7014B1943E6E7010400001D
:108B5000012A18D0A023DB00194384235B00C258EC
:108B6000E023DB041A4203D0C0235B00C1507047EE
:108B7000836B1B06FCD48023C26C9B011343C3642C
:108B80008023C150F3E7014B1943E6E701050000DC
:108B900084235B00C258E023DB041A4205D0C023C3
:108BA000C0225B00D200C2507047836B1B06FCD40E
:108BB0008023C26C9B011343C022C3648023D20074
:108BC000C250F1E784235B00C258E023DB041A4261
:108BD00003D0C0235B00C1507047836B1B06FCD4DD
:108BE0008023C26C9B011343C3648023C150F3E70D
:108BF00084235B00C258E023DB041A4205D0C02363
:108C000080225B009200C2507047836B1B06FCD42D
:108C10008023C26C9B0113438022C3648023920093
:108C2000C250F1E784235B00C258E023DB041A4200
:108C300005D0C023C0225B009200C2507047836BF6
:108C40001B06FCD48023C26C9B011343C022C36467
:108C500080239200C250F1E786235B00C258E023D4
:108C6000DB041A4202D1406DC0B270478E235B0014
:108C7000C058F9E7836B1B0605D40F22036C93439E
:108C80000364002070470220FCE7C046FF2210B5B5
:108C9000024B01201A60FFF76FFB10BD0005014079
:108CA000FF2270B50D0004000D4B01201A60FFF784
:108CB00063FB6B696A68236080231B021343802275
:108CC000A350A023AA68E250EA680433E2502A695C
:108CD000DD33FF33E2502A68C93BFF3BE25070BDF1
:108CE000000501408022802381581B060B43C021D0
:108CF0008350204B89029858084207D18022C02116
:108D00001D4B8902985808421DD1704780219A58FE
:108D1000890580200A4203D1C0461A580A42FBD076
:108D200080238021134A4905D3580B42E6D0802086
:108D3000C04613580B42FBD18022C0210E4B890242
:108D400098580842E1D080219A58890580200A422B
:108D500003D1C0461A580A42FBD080238021064A1C
:108D60004905D3580B42D0D08020C04613580B423F
:108D7000FBD1CAE70004034800080348802210B56D
:108D800003248358A3431943815010BDF0B54646D0
:108D9000D6464F468422C0B5234E244CB358244DAA
:108DA0002340B350AB5823400324AB500B781C40F6
:108DB00027009A46A446B3587C1EA7411D4CFF02CB
:108DC0002340A0461C0053461B079B0F1B021C435D
:108DD0003C43B4504646AC58344023431F43AF5045
:108DE0004A68154B134380229200835001238A68FE
:108DF00013438122920083506346022B04D18023C7
:108E000081585B020B438350842380220648D2049E
:108E1000C1581143C1500649C8580243CA50E0BC6A
:108E2000BA46B146A846F0BD00040348FFFFFFFB69
:108E300000080348FFFCFFFF00808000012370B59D
:108E400088258B4044599C43137B8B4023434351DB
:108E50000D23D356002B0EDB01291BD0002904D192
:108E6000B0251F264459B44344510026B024B340D2
:108E700005592B430351C8240359556880312B43AE
:108E8000035108349568035989002B430351136833
:108E90000B5070BD28354459044E344008264451C7
:108EA000B024B34005592B430351E4E7FFE0FFFF33
:108EB00010B58024890040180349126843586400A3
:108EC00023401343435010BD5C0B000070B50C00F1
:108ED00005001600FFF790FC0F22A1008A402B68C6
:108EE000043493433268A4008A4013432B607368B0
:108EF000635170BD70B516000C0005000834FFF713
:108F00007BFC3368A400635170BDC046030010B5FC
:108F10000800190001F00EFC10BD000070B5041C23
:108F200000F058F8211C051C201C01F0D1FA002883
:108F300010D10021201C00F02FFB00280AD10021B5
:108F4000201C00F00FFB002806D001F071FC22234A
:108F5000064D0360281C70BD01F06AFC21230360EC
:108F6000034800F007F8051CF4E7C046000080FF46
:108F70006CB30010004870470000C07F4200031C23
:108F8000120EC043110010B50224C01720407F39D3
:108F900001381E290CDC002916DB80245B025B0AE9
:108FA00024042343162907DD963A9340584310BD05
:108FB000181C01F0A3FAFAE78022D2030A41D31861
:108FC0001722521AD340F1E77E3A53425A41524295
:108FD0001040ECE7F8B5DE4657464E46454642009F
:108FE000E0B5002A46D0021E4FDBFF21C9058842AA
:108FF00000DBC6E0802300211B04984206DA98219A
:10900000C90500F0D1FE192102004942D3157F3B6A
:109010005B1880215202540A834AFE200904A218D8
:109020000A40FE2180055040D61520438905F618D8
:1090300001F00CF822007D4B0F32051C1A422BD197
:10904000002100F08FFA002800D19EE00020002EC1
:1090500015D0300001F072FA7549041C00F0A4FE2E
:109060007449051C201C00F09FFE011C281C00F008
:10907000BFFA04E0CC200021000600F0C7FCF0BCE1
:10908000BB46B246A946A046F8BD011C00F0DEFF73
:10909000002100F0BBFCF2E78021C90500F0A8FA2E
:1090A000011C281C00F0B2FC8046300001F046FA9A
:1090B00041468146404600F077FE5F4B011C9A46D0
:1090C000834600F071FE5D49071C00F06DFE5C49AF
:1090D00000F08EFA391C00F067FE5A4900F088FA59
:1090E000391C00F061FE584900F082FA594600F040
:1090F0005BFE56498346381C00F056FE544900F08A
:1091000077FA391C00F050FE524900F071FA391C10
:1091100000F04AFEA244011C584600F069FA52468B
:109120004D4B071C1B1B1343002B48DDFC21281C47
:10913000890500F039FE291C00F036FE011C041CD4
:10914000381C00F055FA414600F02EFE071C002E98
:1091500049D03749484600F027FE3649061C4846A4
:1091600000F022FE391C00F043FA011C201C00F024
:109170006DFF291C00F06AFF011C301C00F066FF27
:109180007DE7011C00F034FA79E73449281C00F02F
:109190000BFE011CFC20800500F058FF291C041C5C
:1091A000281C00F001FE011C201C00F0FDFD041C29
:1091B000002E21D1211C281C00F048FF5FE7011C74
:1091C000281C00F043FF414600F0EEFD041C002E79
:1091D000F0D04846164900F0E7FD1649061C4846FF
:1091E00000F0E2FDC1E7011C201C00F02FFF011C74
:1091F000281C00F02BFF42E7300001F09FF90C49DA
:10920000061C00F0D1FD0B49071C301C00F0CCFD02
:10921000011C201C00F01AFF291C00F017FF011C84
:10922000381C00F013FF2AE720FB4A00F0FF7F0004
:109230008071313FD1F71737305CCFFF9788173EE9
:1092400025333A3E2549923EABAA2A3F4FD01C3ED9
:10925000298E633ECDCCCC3E88C23500ABAAAA3E57
:10926000002243088B4274D303098B425FD3030A65
:109270008B4244D3030B8B4228D3030C8B420DD378
:10928000FF22090212BA030C8B4202D31212090206
:1092900065D0030B8B4219D300E0090AC30B8B4244
:1092A00001D3CB03C01A5241830B8B4201D38B03F2
:1092B000C01A5241430B8B4201D34B03C01A524197
:1092C000030B8B4201D30B03C01A5241C30A8B42DA
:1092D00001D3CB02C01A5241830A8B4201D38B02C5
:1092E000C01A5241430A8B4201D34B02C01A524169
:1092F000030A8B4201D30B02C01A5241CDD2C309DB
:109300008B4201D3CB01C01A524183098B4201D356
:109310008B01C01A524143098B4201D34B01C01A41
:10932000524103098B4201D30B01C01A5241C308B9
:109330008B4201D3CB00C01A524183088B4201D328
:109340008B00C01A524143088B4201D34B00C01A14
:109350005241411A00D20146524110467047FFE780
:1093600001B5002000F0F0F802BDC0460029F7D09A
:1093700076E7704703460B437FD4002243088B42B5
:1093800074D303098B425FD3030A8B4244D3030B8C
:109390008B4228D3030C8B420DD3FF22090212BA51
:1093A000030C8B4202D31212090265D0030B8B42CD
:1093B00019D300E0090AC30B8B4201D3CB03C01AB7
:1093C0005241830B8B4201D38B03C01A5241430B92
:1093D0008B4201D34B03C01A5241030B8B4201D382
:1093E0000B03C01A5241C30A8B4201D3CB02C01AED
:1093F0005241830A8B4201D38B02C01A5241430A65
:109400008B4201D34B02C01A5241030A8B4201D353
:109410000B02C01A5241CDD2C3098B4201D3CB01FA
:10942000C01A524183098B4201D38B01C01A5241A9
:1094300043098B4201D34B01C01A524103098B42AD
:1094400001D30B01C01A5241C3088B4201D3CB0098
:10945000C01A524183088B4201D38B00C01A52417B
:1094600043088B4201D34B00C01A5241411A00D22B
:1094700001465241104670475DE0CA0F00D0494294
:10948000031000D34042534000229C4603098B4204
:109490002DD3030A8B4212D3FC22890112BA030A8C
:1094A0008B420CD3890192118B4208D3890192110E
:1094B0008B4204D389013AD0921100E08909C30993
:1094C0008B4201D3CB01C01A524183098B4201D395
:1094D0008B01C01A524143098B4201D34B01C01A80
:1094E000524103098B4201D30B01C01A5241C308F8
:1094F0008B4201D3CB00C01A524183088B4201D367
:109500008B00C01A5241D9D243088B4201D34B0081
:10951000C01A5241411A00D20146634652415B10C3
:10952000104601D34042002B00D5494270476346A4
:109530005B1000D3404201B5002000F005F802BDE9
:109540000029F8D016E770477047C04684460800E7
:109550006146FFE71FB500F0DFFB002801D40021C2
:10956000C8421FBD10B500F067FB4042013010BD7E
:1095700010B500F0D1FB002801DB002010BD012058
:1095800010BDC04610B500F0C7FB002801DD00206B
:1095900010BD012010BDC04610B500F075FB0028BD
:1095A00001DC002010BD012010BDC04610B500F048
:1095B0006BFB002801DA002010BD012010BDC04661
:1095C0009E2110B5C905041CFFF7F0FF002803D148
:1095D000201C00F093FF10BD9E21201CC90500F047
:1095E00035FD00F08BFF80231B069C466044F2E7AC
:1095F0004A02F8B5530ACE4699464B00C90F474672
:10960000884646004502360E1B0E80B5C40F6F0A11
:109610009209AD09F11A44454BD0002938DD002BE1
:1096200000D174E0FF2E00D1BEE08023DB041A439A
:109630001B2900DCFDE0013D6B0100D4AFE00125FA
:109640006D42AD01AF09380001F056F83B00053816
:109650008340864200DCD3E0B94D311A1D405A07E1
:1096600000D19EE00F221340042B00D199E0043575
:109670006B0100D495E0481CFE2951D1FF20002346
:10968000C0051843E4072043C0BCB946B046F8BD46
:10969000002949D0991B002E72D1002D00D133E151
:1096A0004C1E012900D159E1FF2900D14CE12100D4
:1096B0006CE0002900DC81E0002B55D1002A70D03D
:1096C0004B1E012900D12BE1FF296DD01B2B50DC53
:1096D000190020235B1A10009A40C840531E9A417B
:1096E0000243AD188023DB041D4200D1ADE0711CA4
:1096F000FE2EC3D001206A082840924D1540054334
:109700006A0700D08BE01D42B5D1EF0834E0002A93
:1097100047D04B1E012966D0FF2945D0190087E7A5
:10972000C0B2AB015B0AABE7FE239C46701C030092
:109730006046184200D092E0002E00D0E7E0002DF5
:1097400000D119E1002A17D08023AF1ADB041F4291
:1097500000D142E14446551B00D187E001201D4263
:10976000DFD10021EF0807E0FF2E1DD01B2900DC10
:1097700094E031000535EF087B025B0AC8B27FE751
:10978000FF2B00D1E0E08020C00405431B2900DC52
:1097900088E0551E44461E00690100D54FE73100A0
:1097A0000435EF08FF29E7D1002F00D166E78023B9
:1097B000DB033B435B02FF205B0A61E7002958D0D3
:1097C000991B002E00D089E0002D00D19DE04E1E97
:1097D000012900D1A4E0FF2900D1B6E01B2E00DD55
:1097E000B8E0310081E0AA1A530100D4AFE097013C
:1097F000BF09380000F080FF3B0005388340012698
:109800001D00811B20200131CD40411A8B40591E83
:109810008B411D432AD000216B0700D1F0E00F23BC
:109820002B40042B00D022E76B0100D523E7EF0883
:10983000A2E720235B1A10009A40C840531E9A41A9
:109840000243AD1A6B0100D5FBE66B0700D1D5E0F2
:109850000F2331002B40042B00D008E7A1E7AF1AFB
:109860007B014ED4002F00D0EDE600240020002321
:1098700006E7FE23711C0B4221D1002E00D081E0AF
:10988000002D00D19FE0002A00D1B2E0AB185A01B0
:1098900000D4B0E09B0101205B0AF1E68023DB04E9
:1098A0001A4316E720242800C840611A8D40290079
:1098B0004C1EA141014344461E00551AC2E7FF2930
:1098C00000D1DBE6AF187F087B0705D00F233D1DD5
:1098D0003B40042B00D064E7FF084DE7FF2B34D05A
:1098E0001B2937DC8020C004054328002026C840FF
:1098F000711A8D4029004D1EA94101431E008D188B
:10990000F0E64446571B9EE64446150049E7002D05
:1099100046D1002A66D180230024FF20DB03AFE676
:10992000AA18530113D5074F52081740530744D0C4
:109930000F231340042B40D002213D1D31E7C046C8
:10994000FFFFFFFBFFFFFF7D44464F462CE7012151
:10995000D70811E705321900D7080DE7571B7B011F
:1099600037D5BF01BF09380000F0C6FE3B000538FF
:1099700083404446013643E7002A00D175E7444658
:109980004F46F9E6002DE0D08023DB03002A17D0F4
:109990009F4200D20BE7994500D308E74F4606E700
:1099A0008023DB03002A0BD09F4200D2FFE69945BB
:1099B00000D3FCE644464F46F9E60221FF08DBE609
:1099C000FF203B435CE6002A00D14FE70021D70887
:1099D000D2E644460121FF08CEE6002F00D07BE707
:1099E000002443E780234A46DB034446FF20134319
:1099F00046E60021C0E60021DF08BDE63100D0E6E2
:109A000001206A0100D58BE62A00DFE7F0B5464663
:109A10004F46D6464502C0B5C30F470098460E1CB8
:109A20006D0A3F0E5BD0FF2F21D08023ED00DB04B9
:109A30001D43002399469A467F3F74027300640ACF
:109A40001B0EF60F002B20D0FF2B43D080220020CE
:109A5000E400D20414437F3B4246FF1A4B46724057
:109A60000F2B00D99DE071499B00CB589F46002DDC
:109A70005AD108239946063B74029A467300FF2781
:109A8000640A1B0EF60F002BDED1002C3BD1012304
:109A900042464946724019430E2918D86448890045
:109AA00041588F465346022B00D1B8E0032B6ED0AD
:109AB00042462C00012B40D100200024C005204349
:109AC000D2071043E0BCBA46B146A846F0BDFF201D
:109AD0000024F3E7002C20D10223FF3FD8E7002D1C
:109AE00005D104239946033B00279A46A5E72800A1
:109AF00000F002FE7627431F9D4000237F429946D7
:109B00009A463F1A99E7200000F0F6FD431F9C405B
:109B100076235B421B1A00209EE703234A461A4322
:109B200091460320FC3397E70C239946093BFF2716
:109B30009A4682E703282CD0320038007F30002874
:109B400047DD630704D00F232340042B00D00434E7
:109B5000230103D53800374B80301C40FE28B6DC8B
:109B6000A401640AC0B2A9E780240022FF20E40314
:109B7000A4E78023DB031D4201D01C420BD08024CC
:109B8000E4032C4364024246FF20640A96E74646FB
:109B90002C008023DB031C4364023200FF20640A94
:109BA0008CE76D01600185422DD21B230024013F0B
:109BB0000126290064006D00002901DB854201D3E4
:109BC0002D1A3443013B002BF3D16B1E9D412C43D6
:109BD000B3E701231B1A1B2B00DD6DE721009E3725
:109BE000D940BC400B00611E8C412343590704D06F
:109BF0000F211940042900D00433590113D49B01CB
:109C000000205C0A5AE71A2301242D1AD0E7981E77
:109C100043425841404232000024C0B24EE742461F
:109C2000FF2000244AE70120002447E78CB40010FD
:109C3000CCB40010FFFFFFF770B542004E024C009D
:109C400045026D0A120EC30F760A240EC90FFF2AB1
:109C500010D0FF2C0CD00120A2420AD1B54208D16D
:109C60008B420FD0002A04D12800431E984100E007
:109C7000012070BD0120FF2CFBD13543F9D14B40B1
:109C80001800F6E70020F4E730B5420044024D0228
:109C9000C30F4800640A120E6D0A000EC90FFF2A96
:109CA00018D0FF280AD0002A1ED100280AD1002D82
:109CB00029D0002C2DD14800013830BD002D25D1F0
:109CC000002A01D1002CF6D08B4219D001205B4232
:109CD0001843F2E7002C19D1FF28F7D1002D15D138
:109CE00000208B42F2D1E8E70028EFD08B42EDD183
:109CF0008242EBDC04DBAC42E8D80020AC42DCD290
:109D000058000138D9E7002CD7D0DFE702204042C5
:109D1000D3E78B42DAD1EEE730B5420044024D0280
:109D2000C30F4800640A120E6D0A000EC90FFF2A05
:109D300017D0FF280AD0002A1BD100280AD1002DF5
:109D40001DD0002C2DD14800013811E0002D0ED17E
:109D5000002A01D1002CF6D08B420CD158000138DA
:109D600006E0002C03D1FF2805D1002D15D00220DC
:109D700030BD002806D101205B421843F8E7002CD3
:109D8000F6D0F8E78B42F6D18242F4DCE6DBAC4257
:109D9000F1D80020AC42EBD2E0E700208B42EAD1C0
:109DA000E6E78B42E7D1F2E7F0B54F464646D646A6
:109DB0004502C0B546000F1C6D0A360EC40F002EBA
:109DC00000D1CDE0FF2E72D08023ED00DB041D43D7
:109DD000002399469A467F3E7B025B0A98467B00A9
:109DE0001B0EFF0F002B72D0FF2B00D1A9E07F3B91
:109DF000F6184B460A2B00DD85E043468022DB0047
:109E0000D2041A434B4690467C400022022B0FDDC1
:109E1000494601238B40A621C9000B4200D072E0C5
:109E2000902189000B4200D0DAE08821194267D1E5
:109E3000280C42462D042D0C4346290012041B0C0D
:109E4000120C51435D4342435843AD180B0C5B1950
:109E50009A4203D9802252029446604409041A04AB
:109E6000090C52189501691E8D411B0C920E1B188E
:109E700015439B011D431B0100D5CFE030007F300F
:109E8000002800DCB1E06B070BD00F2332002B4021
:109E9000042B06D004352B0103D5803210006A4B09
:109EA0001D40FE2864DCAB015B0AC0B21FE0002D40
:109EB00000D08FE008239946063B9A467B025B0A56
:109EC00098467B00FF261B0EFF0F002B8CD14346CC
:109ED000002B5CD14A4601331A43914613000A2AEB
:109EE00011DC01227C40022B92DC00200023C00503
:109EF0001843E4072043E0BCBA46B146A846F0BD8B
:109F00003C00454692465346022B31D0032B11D0DC
:109F1000012BEAD030008030721C002866DD6B0710
:109F2000B9D00F232B40042BB4D1B4E70F2A7AD039
:109F30003C0045468023DB032B435B02FF205B0A8A
:109F4000D5E74346FF36002B34D14A46023313434C
:109F50000A2BD8DC7C40002A0AD09946022257E717
:109F6000002D08D104239946033B00269A4633E787
:109F7000FF200023BBE7280000F0BEFB7626431F2E
:109F80009D400023764299469A46361A24E7404679
:109F900000F0B2FB4B46361A763E0A2BB3DC434642
:109FA0000538834098464B4600227C40022B00DD5A
:109FB0002EE73DE703234A461A4313000A2AB5DC7D
:109FC00001229A40882113007C400322194200D1CB
:109FD0002EE795E70C239946093BFF269A46FBE6B8
:109FE00080230024FF20DB0381E7320001231B1ABA
:109FF0001B2B00DD79E79E3229009540D9406A1E6F
:10A0000095410D436B0704D00F232B40042B00D048
:10A0100004356B0113D50120002368E701236A088A
:10A020001D40154376E78023DB031D4282D0424664
:10A030001A4200D07EE73C00FF20134357E7AB01F4
:10A0400000205B0A53E7C046FFFFFFF7F8B547461D
:10A05000CE464B02460080B5C40F4702580A8446DC
:10A0600048007A0A360EBF09000ECD0F9B09FF2863
:10A070006DD001214D40311AAC423AD0002900DCAC
:10A080009CE1002800D19EE0FF2E00D188E08022D4
:10A09000D20413431B2900DCF6E0013F7A0100D40F
:10A0A00079E001277F42BF01BB099846404600F096
:10A0B00023FB434605388340864200DCCCE0B44FA6
:10A0C000311A1F405A0768D00F221340042B64D066
:10A0D00004377B0161D5481CFE2900D081E0FF20B8
:10A0E0000023C0051843E4072043C0BCB946B0466E
:10A0F000F8BD002900DC79E1002876D1002B4CD096
:10A10000481E012900D147E1FF2949D01B2871DCF5
:10A1100001001A002020CA40411A8B40591E8B4171
:10A120001343FF188023DB041F4200D1B8E0711CE9
:10A13000FE2ED4D0012297483A407F0807401743AB
:10A140007A0700D096E01F42C5D1FA0855E03100E9
:10A15000FF398946002B2CD101214D40AC4200D162
:10A16000B4E0494600294CD0002E00D0F9E0FF2190
:10A17000002F00D108E14A1E012900D156E1FF2934
:10A1800000D142E11B2A00DC24E15F1E2C00060006
:10A190007A0100D585E731000437FA08FF292CD170
:10A1A000002A9CD08023DB0313435B02FF205B0A61
:10A1B00097E7AC4200D1A7E0002922D0002ED6D0EC
:10A1C00062462C00EEE7002BE7D0481E012936D06E
:10A1D000FF29E5D001005DE701203B007A0100D4B2
:10A1E00057E1C0B2BB015B0A7BE7FF2ED8D01B2929
:10A1F00000DC9FE031000537FA0853025B0AC8B261
:10A200006FE7FE20711C084254D1002E00D0B1E04F
:10A21000002F00D102E1002B00D1F9E08021FA1AD1
:10A22000C9040A4200D13BE10124DF1B2C40002F6E
:10A2300049D001200F42D5D10021FA08DDE7FF1AED
:10A240007B0100D4DEE0BD01AD09280000F054FA26
:10A250002B000538834001262022811B0131521A30
:10A260001F009340CF405A1E93411F432BD0002123
:10A270007B07B1D00F233B40042B00D028E77B01A4
:10A2800000D528E7FA08B8E71A002020CA40411A8A
:10A290008B40591E8B411343FF1A7B0100D502E707
:10A2A0007B0700D10DE10F2331003B40042B00D090
:10A2B0000EE772E7FA1A9046520156D44346002B35
:10A2C00000D0F3E60024002000230AE749460029D5
:10A2D0001CD0002E00D002E7FF21002F55D04A1ECF
:10A2E000012959D0FF2900D190E01B2A00DD91E01F
:10A2F00011003A002025CA40691A8F40791E8F410B
:10A3000017430600FF180DE7002926D1FE20711C17
:10A31000084213D1002E00D096E0002F00D1B4E007
:10A32000002B75D0FB185A0100D4B2E09B015B0AE8
:10A33000FD38D6E68022D2041343EAE6FF2900D195
:10A34000CDE6FA185208530705D00F23171D134006
:10A35000042B00D021E7D2084FE7002EBCD0624684
:10A3600020E72C00FF200023BBE60124DB1B9846DE
:10A370002C409BE6002F75D1002B00D096E0802367
:10A380000024FF20DB03ACE62C001F0005E7C046DD
:10A39000FFFFFFFBFFFFFF7DFB185A0100D48DE09C
:10A3A0004A4A5B081A40590700D18CE00F210B4044
:10A3B0000D39042BCFD00221171DEEE6002900D164
:10A3C0001FE7821B1100002E00D1D1E68021C904B5
:10A3D0000F43D7E639002024D140A21A97407A1EB5
:10A3E00097410F432C000600DF1B56E700298DD054
:10A3F000811B002E00D170E71B290BDC8022D204C8
:10A40000174376E70121FA08F7E62C006246C7E613
:10A410000021F2E605330100DA08EEE6002B00D158
:10A4200050E70124002162462C40E6E6DA1B530186
:10A4300032D592019409200000F05EF9230005381E
:10A4400083402C00012607E7002FDFD0002B17D018
:10A450008023DB039A4200D2A4E69C4500D3A1E608
:10A4600062469FE6002B0BD08023DB039A4200D28A
:10A4700098E69C4500D395E6012462462C4091E67F
:10A480008023DB03FF2013432BE60020002B00D1A9
:10A4900027E60021DA08B0E62C000121D208ACE65C
:10A4A000002A00D10EE70021D208A6E680236246EA
:10A4B0000124DB03FF2013432C4012E60121DA08BC
:10A4C0009BE6310069E60221D20896E6FFFFFF7D98
:10A4D00043024A02400049005B0A520A090E000E7C
:10A4E000FF2806D00020FF2902D1531E9A411000F8
:10A4F0007047FE38002BFBD1F4E7C0464102420012
:10A50000C30F490A0020120E7E2A03DD9D2A02DDB8
:10A51000094A98187047802000040143952A07DCF7
:10A520009620821AD1404842002BF3D10800F1E76F
:10A53000963A9140F7E7C046FFFFFF7F70B50028CD
:10A5400012D0C317C5185D40C40F280000F0D4F81E
:10A550009E231B1A962B0FDC082838D0083885401C
:10A560006D026D0AD8B202E0002400200025C0056B
:10A570002843E407204370BD992B14DC421F95400B
:10A580002A001549114055071CD00F252A40042ADE
:10A5900018D00431CA08490115D59F235202181A50
:10A5A000550AC0B2E3E7020029001B3291404A1E5F
:10A5B00091410522121AD5402A000A43064911404A
:10A5C0005507E2D1CA085202550AD8B2CFE76D0248
:10A5D0006D0A8E30CBE7C046FFFFFFFB10B5041EAF
:10A5E0000DD000F089F89E231B1A962B0CDC08284E
:10A5F00034D0083884406402640AD8B201E00020F4
:10A600000024C005204310BD992B13DC421F944049
:10A61000144A224061071CD00F212140042918D080
:10A620000432D408520115D59F236402181A640A13
:10A63000C0B2E6E7020021001B3291400A00511E21
:10A640008A410521091ACC401443064A2240610779
:10A65000E2D1D4086402640AD8B2D2E76402640A80
:10A660008E30CEE7FFFFFFFB70B542024300C40F00
:10A67000FE201B0E591C550A08420CD0E02189000F
:10A680008C466D07120B63441B051343E4072343F9
:10A690002800190070BD002B14D1002D1BD02800FC
:10A6A00000F02AF80A281CDC0B232A001B1ADA40C7
:10A6B000030015339D400E4B12031B1A5B05120B52
:10A6C0005B0DE1E7002D09D0130B802212031A4322
:10A6D0006D07084BD8E700230022D5E70022054B81
:10A6E000D2E703002A000B3B9A400025E3E7C0466F
:10A6F00089030000FF0700001C2101231B0498426E
:10A7000001D3000C10391B0A984201D3000A083902
:10A710001B09984201D30009043902A2105C4018B9
:10A720007047C0460403020201010101000000005D
:10A730000000000010B5040004481300002804D0F5
:10A740000A000220210000E000BF10BD0000000050
:10A750000CB430B5174B0C001D689DB0002908DA09
:10A760008B2301202B6040421DB030BC08BC02B0DE
:10A770001847822302A99B008B81002302904B661D
:10A7800008619C4200D0631E8B604B6101235B42D9
:10A79000CB81280021AB209A019300F0EFF9431CF4
:10A7A00001DA8B232B60002CDED00022029B1A7072
:10A7B000DAE7C046040600200EB410B500249DB0B0
:10A7C000029006900A481FAB07900490094804CBFA
:10A7D0000590094802A9006801934C6600F0CEF983
:10A7E000029B1C701DB010BC08BC03B01847C046CB
:10A7F000FFFFFF7F0802FFFF0406002010B588421C
:10A8000002D98B18984208D300239A4207D0CC5C17
:10A81000C4540133F9E78B5C8354013AFBD210BD79
:10A8200003008218934200D1704719700133F9E791
:10A83000014B18687047C0460406002070B500261A
:10A840000C4C0D4D641BA410A64209D1002600F04B
:10A8500083FC0A4C0A4D641BA410A64205D170BDAE
:10A86000B300EB5898470136EEE7B300EB58984732
:10A870000136F2E754060020540600205C06002052
