:020000041000EA
:101000004805002019100010000000008960001041
:1010100000040100000100001149124A124B00F0C7
:1010200018F8124880471249124A134B00F011F881
:101030001249134A134B00F00CF81349134A0020CD
:10104000521A02DD043A8850FCDC114880471148EE
:1010500080479B1A03DD043BC858D050FBDC704727
:1010600008B900100C0000204401002029110010D4
:1010700040BA0010480500206006002058BB001050
:10108000600600206006002060060020C80B0020DB
:10109000C9AB0010D5600010FEE700008022064BAF
:1010A000520119890A4348211A818022585A120193
:1010B00002435A527047C04600000540FF21080015
:1010C000094A10B5136812681B0A1840194209D062
:1010D000114000020918054808F0D0FA4000044BFE
:1010E000186010BD0348FAE700030140000024F433
:1010F000F83F00200048E801C0228021074B10B5CE
:101100005A62074A074BC905136013680B42FCD1AA
:10111000C322024B5A62FFF7D1FF10BD000001400D
:10112000000301400001F13F10B5FFF7B7FFFFF7E3
:10113000E3FF10BDC023034A9B0191880B439380BA
:101140007047C04600000540F8B580238026802502
:1011500004005B01C71876006D02200033689847D1
:10116000A84203D10134FF34BC42F6D1F8BDC046D9
:101170008222030010B5520008001900126890473F
:1011800010BDC046F8B50D000400170007F0C0FC04
:101190002B7A002B2CD01A005E0801363602002F65
:1011A00007D02879296800282CD01A00200007F0E1
:1011B00027FDEB79154A013B5B0033431343812242
:1011C000E3636B795200013B19060A436263AA7913
:1011D000002A12D0636B013A12041A436263A023FF
:1011E000DB00A36301235B42E3646B892364F8BDE6
:1011F0009026102210233601D1E7626B1B041343A3
:101200006363ECE7200007F0A3FCD2E701000300D2
:1012100084235B00C258E023DB041A4203D0C023BE
:101220005B00C1507047836B1B06FCD480239B017D
:10123000C3648023C150F5E70B008908890040187A
:1012400003211940F823C9008B408A4010B5046976
:0C1250009C43046103691A43026110BD55
:105000000448054B10B5834203D0044B002B00D05D
:10501000984710BD600600206006002000000000D8
:1050200006480749091A8B10C90FC91810B549104D
:1050300003D0044B002B00D0984710BD6006002021
:10504000600600200000000010B5074C2378002BFC
:1050500009D1FFF7D5FF054B002B02D0044800E033
:1050600000BF0123237010BD600600200000000077
:1050700004B90010054B10B5002B03D004490548B6
:1050800000E000BFFFF7CCFF10BDC04600000000ED
:105090006406002004B90010F0B546464F46D646D7
:1050A000C0B50700080080219846504B490092B0D7
:1050B0005960012391464E4A4E4C13614E4A0025D9
:1050C00013614E4A13614E4A136B234013634D4BD9
:1050D0004A46036043600023836022230573FD5426
:1050E0000533FD542F33FA540322013BFA546B4627
:1050F0009E1D3200A020358003F0E0F93488092C91
:1051000000D96EE00534A401A3B29A4624220021FE
:1051100009A805F04BFD3C4B02AD1B683B490293CF
:1051200001232B714B466B713B8EEB804346186815
:1051300005F048F805F0F0FB43463449A86058688C
:1051400005F040F805F0E8FB43463049E860986810
:1051500005F038F805F0E0FB43462D492861186951
:1051600005F030F805F0D8FB6861B86904F036FC4A
:105170007823A861FA5C753B29009C46101DC0B2DB
:105180006446144063001B195B00FB181C0060346C
:10519000248801328C831C006433623424881B8889
:1051A000D2B28C848B8502319042E9D15746544665
:1051B00040372D1B21002A19A020043403F016F9D2
:1051C000A742F7D180213388320001334900A02063
:1051D000338003F00BF912B0E0BCBA46B146A846E2
:1051E000F0BDA0235B009A4635808FE700000440A5
:1051F00000010448FEFEFFFF0002005000020448C8
:10520000000001400080BB44240A002000007A44D2
:1052100000002041F0B5CE46474680B5204B85B012
:10522000029300230E0002A904001700994603937D
:1052300003F0F2FB02236A46012598464B46200004
:10524000012153801770557003F01AFC20000121D2
:1052500003F006FC4B4601AA53804346200002217E
:105260001770537003F00CFC2000022103F000FCC7
:1052700020000C4903F042FC2A00B3009A401300BE
:10528000A022D2051361FF232900334099404346F1
:10529000D1602361E56005B0C0BCB946B046F0BD41
:1052A00060000100FFFF000010B580220821354892
:1052B000FBF7C2FF802201213348FBF7BDFF8022AC
:1052C00002213148FBF7B8FF802203212E48FBF76B
:1052D000B3FF80232B4A5B0053602C4CA022062195
:1052E0002848FBF7A9FFA82207212648FBF7A4FFBF
:1052F0002000F8220A21FBF79FFF2000F0220B215B
:10530000FBF79AFF902205211F48FBF795FF00222B
:1053100004211D48FBF790FF002205211948FBF7E7
:105320008BFF002204211748FBF786FF0022032190
:105330001448FBF781FF002200211248FBF77CFF95
:10534000002201210F48FBF777FF200000220721F0
:10535000FBF772FF626F0E4B06211A408023DB01C0
:105360001343636700222000FBF766FF626F094B5F
:105370001A4080235B011343C0226367236E1343EB
:10538000236610BD000004400001044000020440F8
:10539000FF3FFFFFFFCFFFFFF0B591B005000822F0
:1053A000002104A805F002FCA0236A46062113741C
:1053B0006A4804AA03F0EEF90822002106A805F0C5
:1053C000F5FBA8236A4607211376644806AA03F072
:1053D000E1F90021624803F025FA02260127A02006
:1053E0005F4A0021D760C005D66003F0E1FAA02330
:1053F0005C4CDB050822DE60002108A805F0D6FB26
:10540000200008A903F026FA2B8820006363564B7E
:105410006A460121009303F067FA2000002201216F
:1054200003F03EFA20000222002103F09BFAA4229E
:10543000A35800213B43A3500CA8943A05F0B6FBB7
:1054400038206946012309180B7048480CA903F05D
:10545000C7FA2988454803F051FB454B01214348D1
:1054600001AA019303F00CFB002201213F4803F045
:10547000E3FAB42206213D4883588B4333438350DB
:105480003C4B3D480A93F2230AA90B9303F0FAF927
:105490003A4B394902AA4B6304230121FF333648B2
:1054A000029303F021FA0121334803F00DFA344B43
:1054B00003AA02213048039303F016FA02212E4872
:1054C00003F00AFA5123264A2E481361AF33D36002
:1054D000A022D205D3602C682B49013460436508B3
:1054E00004F0CCF8A84200D92800002817D11D4BA1
:1054F0002404ADB2240C2A0000211C48DC6303F014
:10550000FFFA2A000121194803F0FAFA0122144B8C
:105510001A61A0230F32DB051A6111B0F0BD114BE7
:10552000201A80B2D86319481749604304F0A6F8DE
:1055300085B217481449604304F0A0F884B2002CE7
:1055400001D0013CA4B22A000021084803F0D8FA97
:1055500022000121054803F0D3FAD7E700000440F8
:105560000000044800010448080101000002005046
:10557000070101006000010000020448FFFF000075
:1055800003020000DC05000010270000AC0D000045
:105590008813000070B50C1C05001649201C04F08F
:1055A000F5F9002820D11449201C04F003FA211C2D
:1055B00000281DD1114804F037FCFE21890504F0B4
:1055C00053FF04F00BFA030481B21B0C0C4A286051
:1055D00053630C4803F092FA01220B4B1A61A0238B
:1055E0000F32DB051A6170BD084B19001800EDE79A
:1055F0000149DFE700409C46007C12480024744CBF
:105600000001044800020050000004487F0C000024
:1056100010B5324B82B00093002301AA0400002190
:10562000A020019302F04AFF019A009B9A4230D0D9
:105630006A460021A02002F0D9FE2200042108328F
:10564000A02002F0D3FE220008210C32A02002F09C
:10565000CDFE22000C211032A02002F0C7FE220055
:1056600010211432A02002F0C1FE220014211C32AD
:10567000A02002F0BBFE22001821A0201E3202F062
:10568000B5FE6369A361E368E362E38B238402B040
:1056900010BD220004210832A02002F00FFF2200DA
:1056A00008210C32A02002F009FF22000C21103248
:1056B000A02002F003FF220010211432A02002F0EB
:1056C000FDFE220014211C32A02002F0F7FE220071
:1056D00018211E32A02002F0F1FED2E75833121733
:1056E000F0B54F464646D646C0B555271E00C35DA9
:1056F0000400894615009846032B00D1A5E07D499A
:10570000306804F057F9002840D17368E068191C2C
:105710009A4604F03BF9002864D15046764904F0DB
:1057200049F900285ED17549306904F043F9002831
:1057300000D0DBE2724B1A684346012B5ED032D9AF
:10574000022B1CD12223E35C002B00D0EEE0802151
:105750006C4A4900516001226B496C480A616C49EE
:105760000A616C490A616C490A6B02400A636B4A20
:105770002B732A606A600022AA602722A354552353
:105780000022E254664B04325A6014E033000122D6
:1057900029002000FFF780FCE35D594A1268012BC5
:1057A0002CD0012B4BD82223E35C002B00D085E1C9
:1057B00004225B4B5A600222594B5A602223213249
:1057C000E35CA25C01335200FF3313432522A15C4A
:1057D000213A49420A4013432386E0BCBA46B14607
:1057E000A846F0BD3300022229002000FFF754FC38
:1057F0005523434AE35C1268012BD2D18022414BEE
:1058000052005A600123404A40491361404A1361E3
:10581000404A1361404A136B0B4013633F4B2722EE
:105820002B606B600023AB6000232B73A3542233E7
:10583000E35C002BBCD05523253AE254B8E7022B99
:1058400000D17FE7032B9AD101E02D4B1B6880220A
:105850002C4B52005A6001232B4A2C4913612C4ACD
:1058600013612C4A13612C4A136B0B4013632B4BAF
:1058700027222B606B600023AB6000232B73A354A3
:105880002233E55C002D1CD05523E25C0421244B1F
:105890005960032A00D08EE7802292025A60562374
:1058A000E35C012B00D11BE2022B00D112E1032BA0
:1058B00000D118E2043B5A425341DB010133FF336C
:1058C0008AE71849306804F06BF80028DCD0E168FA
:1058D000706804F065F80028D6D01349306904F0E8
:1058E0005FF80028D0D08C23E35C002BCCD056236B
:1058F000E55444E700005042000078420000AA420C
:10590000240A00200000044000010448FEFEFFFFBE
:105910000002005000020448000001400080BB4427
:1059200000010440000048420000A0422523E35C3F
:10593000002B00D1D1E02623E35C002B00D1CCE08A
:105940002323E35C002B00D0C7E02723E35C002B7C
:1059500000D165E25723E35C002B00D1E3E2012B89
:1059600000D123E3022B00D13AE300273E1CE16D76
:10597000301C04F04BF8E149061C04F01BF8002829
:1059800000D0E5E2DE49301C04F000F8002800D128
:105990003FE3DC49DA4EE665381C04F037F8A169CC
:1059A00004F034F8D849061C04F00EF8002806D09C
:1059B000D649301C03F0F4FF002800D01AE32B7BFB
:1059C0002E68002B1CD0AF68D149381C04F0FAFBBC
:1059D000011C301C04F01AF80021061C2860381C39
:1059E00003F0F2FF002800D1B5E26F68301C391CCB
:1059F00003F0EAFF002803D000232F602B733E1C26
:105A0000301C03F0EBFF4B462084C249301C1D685C
:105A100003F0C6FF002804D0301CBF4904F0D2FBBD
:105A2000061C301C03F0DAFF01356F08002800D196
:105A3000DEE1BA4B0600984200D91E002800B849A2
:105A4000704303F01BFEB84200D93800002800D193
:105A5000CEE1B44BB14F281A80B2D863B81B68436B
:105A6000AF4903F00BFE86B23800AD49684303F03E
:105A700005FE85B2002D01D0013DADB232000021FE
:105A8000A94803F03DF82A000121A74803F038F89F
:105A90000122A64B1A61A0230F32DB051A615523A0
:105AA000E25C022A00D0F1E62E3BE35C002B00D141
:105AB0007EE680229E4BD2025A607CE6002325219E
:105AC000E3630123C83A6354E2640222E38454335B
:105AD000E2546DE690235B007EE6002327216354A9
:105AE00094492B73296069600021E36CA960D31A83
:105AF000C72B00D85CE6E264802201258E4B520061
:105B00005A608848884B05611D618C4B8C4A1D6129
:105B1000136B8C490B4013634B468B4919604163EF
:105B2000814802F0EBFF814B10221D61A023DB05B1
:105B30001A614B461D68794801356843784903F07E
:105B40009DFD6A080300904200D91300002B00D08D
:105B500043E1744B2D042D0CDD6395B22A00012620
:105B60000021714802F0CCFF2A0001216E4802F0AA
:105B7000C7FF6E4B10221E61A0238027DB051A6130
:105B8000012168486D4D02F0E3FE0121664802F0F4
:105B9000ABFF322002F02CFD6B6FAB6FEB6FEB595C
:105BA0000223604A604913610B612B61EE60D6608D
:105BB0008022614B5204CE605A600222FA20604B70
:105BC000FF32196B80000A431A631A6B5D490A4061
:105BD0001A6302F00DFDAB6F1A04110C8C46002AFB
:105BE00000D1E9E0E9590A04160C002A00D1B5E019
:105BF00060461B031B0F0130022B00D8BCE09D1E2A
:105C00002A000023514E5B00B446013A6344002A47
:105C1000F8D1A840C018002915D00E040903360C8D
:105C2000090F02290BD902390A000023474D5B00F6
:105C3000AC46013A6344002AF8D18E40F618861922
:105C4000002E00D082E1002800D09BE0A06C00284C
:105C500031D004F0D1FE3E4904F0E6F8011CFE20EC
:105C6000800504F0E1F83B4904F0DEF8061C294900
:105C7000301C03F08BFE00281DD13749301C03F087
:105C800099FE002817D10027E56B391C281C03F06A
:105C900077FE002800D149E1216C301C03F0B6FEEC
:105CA00044232064A662E35C0A2B00D191E1013316
:105CB000DBB24422A354012325228021A3540132C4
:105CC000A3541D4A49005160164A1E491361164AE1
:105CD00013611A4A13611A4A136B0B401363DEE611
:105CE00088235B0078E5A0235B0075E53300032281
:105CF00029002000FFF7D0F9E35D4EE500409C4508
:105D000000409CC500007AC300409C4600504348B8
:105D10006F12833A000048420000C8428813000016
:105D20001027000000010448000200500000044851
:105D3000000104400080BB4400000440000204480D
:105D400000000140FEFEFFFF7F0C0000FFFF00008F
:105D5000286B6E4E00007A4400001643E96F6046DF
:105D60001B0301301B0F022B00D948E7002909D083
:105D700005000A042800160C0903090F022900D99E
:105D800051E7801904F038FEA54904F01BFA03F02E
:105D900025FE051E00D159E704F02EFEA14904F0AE
:105DA00043F8011CFE20800504F03EF89E4904F0F3
:105DB0003BF8A564061C5AE7686FE9590A04160CFB
:105DC000002A25D00028D7D005042D0C0303013567
:105DD0001B0F022BCED9280011E7ED1A934BADB261
:105DE000DD6385B2002D01D0013DADB20022B6E6E3
:105DF0008E4B2D04BFB22D0C3A0000218C48DD6380
:105E000002F07EFE3A000121894802F079FE3FE669
:105E1000E96F002800D0F8E0002900D0FDE615E782
:105E2000A7698449381C03F0B1FD002800D0A2E026
:105E30008149381C03F0BEFD391C002800D07E4982
:105E40007E4803F0F1FFFE21890504F00DFB03F00D
:105E5000C5FD03041B0C81B24A461060734A7448A6
:105E6000536302F04BFE0122754B76481A61A02362
:105E70000F32DB051A614B461F68734901377B08F7
:105E80007843984603F0FAFB404500D94046002885
:105E900075D1664B3F043F0CDF6343469FB23A0027
:105EA0000021634802F02CFE3A00012701216048DE
:105EB00002F026FE624B10221F61A023DB051A614F
:105EC000E08B04F099FD61496860296004F0CCFA28
:105ED000011C03F09BFD5E4BA860002154482F730A
:105EE0001F6102F001FE0021594802F031FD02223B
:105EF0004E4B4F491A610A610222DF60554BCF6059
:105F0000196BFF320A431A631A6B53490A401A632A
:105F10008022524B52045A602723E754053BE35C2E
:105F2000002B00D016E50023E36548E54C49301C02
:105F300004F048F94B49061C281C04F043F9011CE5
:105F4000301C03F063FDA062E063B4E6300019E7A3
:105F50004549464E1FE50021381C03F017FD002877
:105F600000D14DE56F68301C391C03F019FD002885
:105F700000D145E540E53E490B0008006CE72B4B9E
:105F8000381A80B2D8633B482F49784303F076FB38
:105F900083B239482C497843984603F06FFB87B2A7
:105FA000002F01D0013FBFB2424679E7B0681E49D9
:105FB00004F008F95823061CE05A04F01DFD011CEA
:105FC000301C04F051FA2D49061C04F0FBF8071CA4
:105FD000CDE42B4903F028FF0223E063276468E641
:105FE0007168306804F0EEF80F4904F0EBF85A23BA
:105FF000061CE1E7A661301C03F0F0FC04F0FCFC99
:10600000011C4846FFF7C6FAD9E483B29C46030058
:10601000A5E61C49301C04F0D5F8011CBBE4C046C1
:1060200000007A42286B6E4E00007A44000104485A
:106030000002005000409C46007C12480024744C32
:1060400000000448DC050000102700000080BB446D
:106050000002044800000140FEFEFFFF0000044073
:106060008C2E3A3E5D74513F00007A4300409C45BF
:106070007F0C0000AC0D00008813000000002040E1
:1060800000002041CDCC4C3DC046FDE7024A1368DC
:10609000013313607047C046240A0020014B186882
:1060A0007047C046240A0020F8B590248A25E405EC
:1060B0006D0063591B070AD48E26054F7600A1593F
:1060C0003800C9B200F000FD63591B07F7D5F8BDD1
:1060D00054070020F0B5DE4657464E464546E0B52B
:1060E000A7B000210C2213A804F060FD80235B02FE
:1060F0001493012310AA13A8537302F027FBFAF795
:10610000DDFFFA21FB4B8900186803F0B7FA802302
:1061100001385B0498420DD2C021F74A090650604D
:10612000F648036A1B021B0A0B43036200239360B9
:106130000733136062B6042002F07EFA022002F0F8
:106140007BFA082002F078FA012002F075FAFFF7D6
:10615000ABF8EB4B18000493FFF71EF9012002F097
:106160006BFA02F01DFF1822002120A804F01EFD8A
:106170000323E44820A9219302F01CFF00220023FE
:106180000221E04802F038FF0321DF4802F0B8FFA7
:106190000321DE4802F0B4FFDA4802F03FFF80211D
:1061A000DB4AD8484358002B00DAE1E302230022FF
:1061B0009A4602210023D44802F07CFF10220021DD
:1061C0001CA804F0F3FCD34B07271C933D2310AA13
:1061D000D218177001211CAACB4803F02DF8A72371
:1061E0000025C9489B00C55090231C9ACA491B032F
:1061F0000A4013431C933D23FF26884610AAD21859
:10620000167000211CAA03F017F8A9234146BE48C6
:106210009B00C5501C9AC14B0A4013431C933D235D
:1062200010AAD218167000211CAAB84803F004F86E
:10623000AB234146B54A9B00D5501C9AB84B0A4047
:1062400013431C933D2310A9C9180E701CA90A0002
:10625000AE48012102F0F0FFAA234146AB4A9B0061
:10626000D5501C9AAF4B0A4013431C933D2310A9F1
:10627000CB181E701CAB1A000421A44802F0DCFFEE
:10628000A423A24A9B00D5500D2316938023DB0143
:106290001793242316A99C48189302F039FF9223E0
:1062A000032199485B00C258FE3E8A43C250C2583F
:1062B00010243243C25084220433C65080238158B4
:1062C0009B040B438350052319A9994619938D48C4
:1062D000FB331A931B9402F057FFC02250468949A2
:1062E00052008B5803438B50C2235B00CA58324381
:1062F000CA50CA580243CA50CA58FF302243CA5033
:10630000812292008B58FF3003438B501223864A20
:10631000834686482093835A85490B400331835234
:10632000FF3120AA02F0C2FFB622804912018B5829
:10633000804833438B5020AA01212095219702F0F9
:10634000C3FF002201217B4802F0DEFF7A4B1CAA2A
:10635000002178481C9302F0CBFF082200211CA8E2
:1063600004F024FC60223021904610AA52184146C5
:10637000724811701CA902F04FFB704A0021D660D0
:1063800020A8082204F012FC402110AA521841460D
:106390006B48117020A902F03FFB694A0421D660C6
:1063A000684819AA19951A9602F0F4F990231CAAC4
:1063B000052164481C931D9602F0ECF9FA232294FF
:1063C00090249B02E40520935F4B200020A901222A
:1063D0002193FAF7D7FE0622E3692000BB4313435B
:1063E0004A46E361A36A0021BB431343A362236BC4
:1063F000013ABB431343236390460023013202F06A
:1064000085FC012320000522202102F069FC2000E8
:106410000022102102F092FC20000022132102F041
:106420008DFC8622C023C2205200A158DB050B43FD
:10643000A350464B80001958454A1140C022120211
:106440000A431A505A461A60236CF23AFF3A9346AE
:1064500093435246134323643E4C2D4B2000013A94
:1064600019A91A95199302F0A5FC4A46E36920215F
:10647000BB4313434246E361236A3748BB4313439C
:106480002362A36A3C32BB43A362E36ABB43E36279
:10649000236BBB432363E3690B43E361E36913436A
:1064A000E361236A0B432362236A163913435A4676
:1064B0002362236C9343424613432364F8231CAAAC
:1064C0001C931D9602F066F9F02320AA0B212248A6
:1064D0002093219602F05EF9A0200021C00502F071
:1064E00067FAA0228023D2055B00D3600021082236
:1064F00020A833E0F83F002010E000E000ED00E0CD
:10650000FC0500200000034800040348000803487D
:10651000A086010002002700FCFFF0FF02000B0034
:1065200002000A00020004005C0B000000050140AC
:10653000FFFEFFFF00060140102000000001005098
:1065400000040050000104400008080100E100E0E0
:10655000FF00FFFF000200480002044004F026FB99
:106560000C21D94820AA02F015F90D21D64820AAFD
:1065700002F010F900220021D448FEF74BFE012260
:106580000321D348FEF746FED24B99461800FFF789
:106590003FF84B4604989969FEF7FCFFCE4B40212B
:1065A00018000F9301F08EF84A4622231570D55437
:1065B000CA4A4E46934615681368039313680793B7
:1065C0001368099313680893C54B0A93C54B9A4601
:1065D000C54B9846C54B1093C54B0E93C54B1193B5
:1065E0005B461C68534621000093049A33000A98C6
:1065F00000F078FA5223F35C002B00D037E1A5427B
:1066000000D1CDE0C722BC4B92009A580D92C9220E
:1066100092009B5808321B051B0D0693B74B9F58E1
:10662000043A9D58183A9B582D051B051B0D0593E0
:10663000A54B2D0D5B6A28009B07DB0F0B9304F025
:10664000DBF93F053F0D0C90002D00D113E1011C3B
:10665000AB4803F0E9FB051C43461B680021181CEE
:10666000994603F08DF900280BD181214846C905D0
:1066700003F0A8FD291C03F0C9F9A24903F0D4FBDB
:10668000051C434638001D6004F0B6F9291C03F0D0
:1066900099FD9D4903F0C8FB0021071C03F070F928
:1066A000002801D0FE27BF0543465B680021181C67
:1066B000994603F065F900280BD181214846C905A8
:1066C00003F080FD391C03F0A1F98E4903F0ACFB07
:1066D000071C43465F600B9B002B00D1DCE08B4B1B
:1066E0009946059804F088F9291C03F06BFD84494C
:1066F00003F0BAFE494603F097FB0590069804F0B4
:106700007BF9291C03F05EFD7D4903F0ADFE804955
:1067100003F08AFB434606901B7A092B00D9ACE0B4
:1067200042460133D06813725346524651461F60A9
:10673000059B0C9D5360069A08618A60CD607821A4
:106740006023755C9C46A9466D004D446D0075192B
:10675000AC4463466F49381C0B9303F033FD04F0DF
:10676000DBF80B9F6B493880059803F02BFD2F0059
:1067700004F0D2F8623767493880069803F022FDAA
:1067800004F0CAF84B4603227821013313406435E4
:106790007354288053463000109A0499FEF7A0FFE6
:1067A000039BE31A092B11D90122542046494B6A55
:1067B0005B08134033544B6A1A405323F254337826
:1067C000022B6CD00E9801F005FD0394FA22099B70
:1067D0009200E31A934203D33378012B25D0099416
:1067E000079BE31A182B38D8FA22089B5200E31AA9
:1067F000934218D3484B494A5A603378002B11D141
:10680000FA23DB009C420DD32423F25C223B002AB6
:1068100004D1B28B002A01D07263013B0F98337010
:1068200000F0BAFE08942500DAE62423F35C002B7E
:10683000D5D1736B002B00D094E001232422B354F4
:10684000023AB354013333700023738033710A2347
:106850000F98736300F0A0FEC1E7032372781198CC
:1068600001321340737000F04BFF0794BCE70F98A0
:1068700000F0D2FEC3E62A4DEEE60D9B4246180517
:106880000023000D1372431E264A9BB293424DD93A
:1068900025484346D86047E71D4B994621E7232109
:1068A000715C002A09D1B378022B05D0002907D1E9
:1068B000012B87D1B17085E70023B370002981D007
:1068C0000123B3707EE7C046000004400001005081
:1068D00000040050B806002098060020240A00207A
:1068E00054070020A4060020EC050020DC05002051
:1068F000480700207C0600200004034800080348E5
:10690000000020400000A040D044583BCDCC4C3D7E
:106910000AD7233D0000C8420001044008000800D7
:10692000BF49533AFD0F00000000C84104F064F86D
:10693000051C011C114803F097FD011C281C03F0E5
:1069400073FA02F0F9FC0E4903F03CFC0D4903F028
:106950005DF8011CFE20800503F066FA0A4903F089
:1069600083FD96E7013B7363002B00D037E764E7B4
:10697000013A002A00D015E418E4C04600F07F4533
:106980007CD483390FCF5B3B3393884370B5304D54
:10699000280000F07BF82F4C2F492200280002F03D
:1069A000C3FC2E4D280001F0C1F9220028002C491B
:1069B00002F0BAFC2B482C492C4AC160C1628021EC
:1069C00082602B4A502502612A4A0023426182617B
:1069D000294A4900C26100220163F639416309393D
:1069E000415501354155013543550135435525354F
:1069F00043550835C26742518262C2630264C26570
:106A000084228350043203604360036243628363E1
:106A100041648364C3644365836583508C33C1548C
:106A2000703A0021603004F0C1F8144D280000F0E5
:106A3000E7FC22001249280002F076FC114D2800E4
:106A400000F05AFE280022000F4902F06DFC70BDD4
:106A500054070020D8050020C56A00104807002010
:106A6000397D0010B8060020000070420000A041EF
:106A7000000034450050C3470A00881398060020E0
:106A8000217400107C060020FD760010B122002346
:106A9000920010B503608350043283500432835057
:106AA000C022040000215200043004F07FF82000CE
:106AB000A022853000215200FF3004F077F820003A
:106AC00010BDC0467047C046B223C0229B0010B51F
:106AD000C4585200944204D2C258541CC450801866
:106AE000017110BDF0B5DE464E4645465746E0B54D
:106AF0001E009023C3B000917021DB0593469A6C71
:106B00000500114200D0DA64B2242B1D9946A4007E
:106B10006F1D72B62A5962B62B78002B08D0012B54
:106B20001FD043B0F0BCBB46B246A946A046F0BD5C
:106B3000032AF6D929796B79A879EA794B40434041
:106B40009A425AD072B62A5939004846013A04F09E
:106B50001BF82B59013B2B5162B62B59032BD8D86C
:106B6000DFE7B327BF00EB590099CB1A322B32D89D
:106B7000C54BE85A873BFF3B9C46411E8BB26345A1
:106B800029D29042CDD82B1D9946002954D02A797C
:106B9000012907D001234F46FC5C01336240994232
:106BA000FAD8B94669180B7993424AD072B6902246
:106BB0008C238021D2055B000902D1508021C901BC
:106BC000D150B222002300999200AB500432A95058
:106BD0002B7062B6A5E772B690228C238021D20575
:106BE0005B000902D1508021C901D1500023009AD5
:106BF0002B51EA512B7062B693E7AB7968791B028F
:106C00000343B120800029549F495BBA6B529F4BCC
:106C1000EA5472B629002A594846043A083103F06A
:106C2000B3FF2B59043B2B5162B6B323009A9B0050
:106C3000EA5001232B706CE7002269180B7993420C
:106C4000B4D12B799A465246904BEA54013BEB5C07
:106C5000022B49D02C008534FF34032B00D18CE06B
:106C600000239A469B46984672B6B227864BBF00D1
:106C7000EB5AEA594846D21A0433E91803F084FF64
:106C8000814AEB59AA5A9B1AEB5162B64346002B34
:106C900000D002E25346002B00D0E4E15B46002B1B
:106CA00000D113E1E423FF33A1469A4690278A26B8
:106CB0008024A846AA44FF054D467600640100E002
:106CC000C046BB592342FBD190202978C00501352D
:106CD000FAF79EFAAA45F4D1B3234546009A9B00E1
:106CE000EA5000232B701CE7EB88694A934200D1DD
:106CF0000BE2684A934200D123E2674A934200D1F3
:106D0000BCE2664A934200D185E0002B01D05BBA19
:106D100033866C79012C00D168E2002C11D122233A
:106D20008022F4545E4B52005A6001235D4A5E4952
:106D300013615E4A13615E4A13615E4A136B0B4036
:106D40001363A8685C4B00BAC2185C4B9A4200D827
:106D500017E202231A002C7B2240234200D10AE2D0
:106D600001222133F254230700D50CE3E40600D5B9
:106D7000F8E12C008534FF3472E76B799846092BD3
:106D800000D92EE25F1DFFB2BF012C00A022853486
:106D9000FF3420005200002103F008FFC223484ABC
:106DA0005B00EA525F220233EA5488235246FF33E3
:106DB000EA5442460133EA54493BFF3B9A462B00D2
:106DC00022008A33FF33BA44DB1BA84654461D0019
:106DD00092463900EA19A020043701F06FFBBC424B
:106DE000F7D188234546FF332800EA5C2B00544640
:106DF0008933E330FF33FF30197801334A4098423A
:106E0000FAD1F1235B00EA5400239A4601339B46F2
:106E10000023984628E72C00A0228534FF34002167
:106E200052002000AF6803F0C1FE86230122FF3329
:106E3000EA5401330232EA548823013AFF33EA5418
:106E400052460133EA548A2355222800FF33EA547C
:106E50001C4B3FBA8B30F918AB32FF3003F0E4FE25
:106E60002B005146184A8A33FF33AA181878013389
:106E700041409A42FAD1144BE95401239A46002327
:106E80009B469846F0E6C046C6020000C5020000D8
:106E9000FFF00000FFF10000FFF20000FFF3000030
:106EA0000000044000010448FEFEFFFF0002005005
:106EB0000002044800000140E0B1FFFF20BF0200D3
:106EC000035C000000B001108A020000A022002133
:106ED0005200200003F06AFE86235C22FF33EA544E
:106EE000013BEB5CD4495340C3225200AB54D34B1B
:106EF000EF5C8823FF33EF54663BFF3BF25C673364
:106F0000FF33EA54A822338EFF321B0AAB54D4233A
:106F1000328E5B00EA544C9B186803F053F903F07F
:106F2000FBFCCA23020EFF33EA5402140133EA5475
:106F3000CC230212FF33EA540133E8544C9BBE4980
:106F4000586803F03FF903F0E7FCCE23020EFF334D
:106F5000EA5402140133EA54D0230212FF33EA54F4
:106F60000133E8544C9BB449986803F02BF903F0C3
:106F7000D3FCD223020EFF33EA5402140133EA5445
:106F8000D4230212FF33EA540133E8544C9BAC493A
:106F9000186903F017F903F0BFFCD623020EFF3384
:106FA000EA5402140133EA54D8230212FF33EA549C
:106FB0000133E8544C9B5968186803F003F99E4963
:106FC00003F000F903F0A8FCDA23020EFF33EA54C1
:106FD00002140133EA54DC230212FF33EA54013372
:106FE000E8549549B06A03F0EDF802F0F7FCDE23AF
:106FF000020EFF33EA54020C0133EA54E023020A82
:10700000FF33EA540133E8548B3BFF3BF25CE2234D
:10701000FF332900EA542B00E3318933FF33FF317A
:107020001A78013357408B42FAD1F1235B00EF54B9
:10703000E423FF33A1469A4690278A268024A84657
:10704000AA44FF054D467600640100E0C046BB59E6
:107050002342FBD190202978C0050135FAF7D8F8F2
:10706000AA45F4D138E6774BA1469A4690278A265E
:107070008024A846AA44FF054D467600640100E03E
:10708000C046BB592342FBD190202978C005013569
:10709000FAF7BEF8AA45F4D11EE6A022002120008E
:1070A000520003F083FD86230522FF33EA54013B9F
:1070B000EB5C55215340C3225200AB5488225F4BF6
:1070C000FF32EB5CA146AB540132A9545522534028
:1070D0008A22FF32AB54C5235B009A4690278A264A
:1070E0008024A846AA44FF054D467600640100E0CE
:1070F000C046BB592342FBD190202978C0050135F9
:10710000FAF786F85545F4D1E6E54F4BAC689A4658
:1071100024BAA2441F009A4508D93800FAF714F897
:1071200080235B019C466744BA45F6D8474B1C60F8
:1071300000232C009A469B46853401339846FF3441
:1071400092E529008022AC6852000C3102A803F0BD
:107150006BFDF9F7EFFF3C4B24BAE01802A9FAF7F0
:1071600007F8E5E7242301222C00F2548534223B62
:107170003370FF3474E5630700D4F4E52323F2543D
:10718000F1E503F039FC3249B061041C02F0FEFB6A
:10719000002822D12F49201C02F00CFC211C0028C1
:1071A00000D02C492C4802F03FFEFE21890503F057
:1071B0005BF902F013FC03041B0C81B25A46106009
:1071C000264A2748536301F099FC0122254B1A6196
:1071D000A0230F32DB051A61BBE523490B00080031
:1071E000ECE7A02700237F009846CEE52223F45445
:1071F0001E4B002198461C61194B9A46180001F05D
:1072000073FC0021404601F0A3FB02225146134BC0
:107210001A610A610222DC60154BCC60196BFF32E7
:107220000A431A631A6B13490A401A638022124BED
:1072300052045A6085E5C04600007A44C502000049
:10724000000020418B02000000B00110FC3F002034
:1072500000409C46007C12480024744C0001044805
:1072600000020050000004487F0C000000020448A7
:1072700000000140FEFEFFFF000004408022544B4E
:1072800052005A600123534A53491361534A136110
:10729000534A1361534A136B0B401363222300229A
:1072A000F254072808D9AB684F4A1BBA9846C62340
:1072B00042445B029A420BD94C4B4B4A1B6898469E
:1072C000C62342445B029A4202D991235B0298464C
:1072D0002C00A0228534FF3400215200200003F04E
:1072E00065FC86230522FF33EA540133EA548822E1
:1072F00055213F4BFF32EB5C9027AB540132A95430
:10730000552253408A22FF32AB54C5235B009C4672
:107310008023AC445B01E3469A460194FF0500E0FC
:10732000C0468A2352465B00FB581342F8D1902096
:10733000019BC0051978F9F76BFF019B013301939D
:107340005B45EED18A22802390205200B9581B0160
:10735000C005194203D1C04681581942FBD0002311
:107360000293029A234B19009A4206D8C046029B08
:1073700001330293029B8B42F8D942461E491F48B3
:1073800004F0BEF86CE4320004210832A02001F0C1
:107390002DF8320008210C32A02001F027F832002D
:1073A0000C211032A02001F021F8320010211432FB
:1073B000A02001F01BF8320014211C32A02001F0A3
:1073C00015F8320018211E32A02001F00FF8CDE48C
:1073D0000000044000010448FEFEFFFF00020050D0
:1073E000000204480000014000FCFFFFFC3F0020B9
:1073F000C50200003F0D030000B001100010001096
:10740000142200234270103A827004320271383222
:107410000370C37042718371C37103727047C046B9
:107420007047C04610B5047900220C4341790B48DF
:1074300001F0F8FC04210948214301F04DFD022030
:1074400001F0D6F82100054801F046FD034801F09F
:1074500029FD052001F0ACF810BDC046000200482F
:10746000F8B5CE46474680B50D00417900294BD08E
:107470002D4B984650234246D35C002B44D05223D8
:10748000D35C002B40D188270379284C9946E36CC4
:10749000BF003B4300222000E36401F0C3FCFEF781
:1074A000FDFD060004E0FEF7F9FD801B042835D839
:1074B000A36C3B42F7D02023A26C134228D1802337
:1074C0004946E26C9B001343E3642943174801F0EB
:1074D00003FD8826FEF7E2FD144C0500B60004E02B
:1074E000FEF7DCFD401B042818D8A36C3342F7D00C
:1074F0002023A26C13420BD18023E26C9B00134328
:107500000A48E36401F0CEFCC0BCB946B046F8BD01
:10751000E26C06481343E36401F0C4FC52230122E9
:107520004146CA54F0E7C046B806002000020048B1
:10753000F8B50F230E00CE4647469E43164380B54E
:107540008946310005001400FFF78AFF042331004B
:107550000427984639432800C9B2FFF781FF434604
:10756000310028009943FFF77BFF4B461B011C436A
:10757000E4B2280021002743FFF772FF2800F9B288
:10758000FFF76EFF4346210028009943FFF768FF8D
:10759000C0BCB946B046F8BD10B500220121FFF7C6
:1075A000C7FF022001F004F800F098F810BDC046B3
:1075B000F0B585B06D460C4B8C46C2CBC2C51B687E
:1075C0006C462B608378934201D8013BDAB280216C
:1075D0009200A3584942634419430022C9B2FFF7FD
:1075E000A7FF05B0F0BDC04610B5001070B50E0085
:1075F000097805000024002908D10BE001222800A9
:107600000134FFF795FF315D002903D06A78E3B2BA
:107610009A42F3D8012070BDF8B50226274D040028
:10762000280001F0B1FCAE66EB6C0F223343EB6433
:10763000EB6C012304275B42EB642B6C32209343F9
:107640003B432B6400F0B4FF20003021FFF7EAFE3B
:1076500020003021FFF7E6FE20003021FFF7E2FE98
:1076600020002021FFF7DEFE2023A179200019430E
:107670000022FFF75DFF2000E77100220C21FFF7D9
:1076800057FF002201212000FFF752FF022000F0E7
:107690008FFF2000267200220621FFF749FF0022FB
:1076A00002212000FFF744FF022000F081FF00F0DC
:1076B00015F852220021024B9954F8BD00020048EF
:1076C000B80600200123827810B593429B415B42AB
:1076D000DB0041718371FFF79FFF10BD542210B58D
:1076E0000021034803F062FAFF22024B1A7010BD1A
:1076F000280A0020000600207047C0467047C04698
:10770000F0B5454657464E46DE460023E0B5D24F1B
:1077100095B003713B78D14D99467B78040098462B
:107720002B784B454DD1CE4B9B46FB78002B44D15B
:10773000BB781A0003934B4664255D4343469B0088
:10774000C84E43445B00ED187368AD18181C2560E3
:107750009A4603F0E1F8059003F0FEF8011C50464C
:1077600002F082FEC04902F02DFD03F0D5F8B368A7
:10777000BD49049333680690079333690893BB6A45
:107780000993BB68181C9A4602F01CFD01F004FE28
:10779000FF2306005B009D4200D15CE21BDCE82D6C
:1077A00000DD92E0C72D00DCFDE0C83D202D00D9B2
:1077B00007E1AE4BAD005B599F46002300220393C7
:1077C000B9E7A74B5422180000219B4603F0EEF9BD
:1077D0004B462B70A9E7E1239B009D4200D145E277
:1077E00031DCA34B9D4200D1F6E000DDAEE0A14BC1
:1077F0009D4200D128E25A339D4203D0643B9D4212
:1078000000D0A7E07E699C49301C02F00DFB03F01C
:1078100083F8050003F0A0F8974902F0D3FC011C9F
:10782000301C02F021FE954902F0FEFA03F074F8D4
:10783000C2430300D217261D134030002A0090498E
:1078400003F080F917E08B23DB009D425DDA8D4B5E
:107850009D4200DDEAE16D3B9D4200D1DFE18A4BB4
:107860009C466544012D00D974E0261D132230008A
:10787000864903F0D9F923790EAD002B6CD0142280
:107880002021280003F092F9002330002B7503F02B
:10789000D4F90200142800D914223100280003F082
:1078A000C3F943465B004344DA00D31A5B44290022
:1078B00018001C0003F0AEF9002837D115B0F0BC59
:1078C000BB46B246A946A046F0BDC8235B009D4218
:1078D00000D1B2E164339D423CD1FE68301C03F01C
:1078E0001BF8050003F038F8011C301C02F0BCFD49
:1078F0005D4902F067FC03F00FF8261D03002A0023
:107900003000634903F01EF9B5E7624B9C466544BD
:10791000012D1FD85423FB5C261D002B00D1BFE195
:107920005D4A1821300003F0D9F8A4E72900152298
:10793000200003F079F9594C424620000021FFF75E
:1079400037FE29002000FFF751FEB7E7C8239B0050
:107950009D423AD0002323714B46032B11D90EAD23
:107960004F4E8CE7FEF79AFB4E4901F087FE261D2D
:1079700002004D49300003F0E5F82379002B00D0D8
:10798000FEE00EAD4346032BEAD8039B002BE7D164
:107990004B469B00454A43449B009E58002E00D016
:1079A0006DE73F4E6BE76E2D0BD1261D30007A6BD5
:1079B0003F4903F0C7F823790EAD002B00D05EE7F6
:1079C000E0E700230EAD2371DCE7261D3000BA8B03
:1079D000384903F0B7F84EE7261D0C22300036492F
:1079E00003F022F947E7BE692349301C02F01CFA74
:1079F00002F092FF0BAB9A46050002F0ADFF1E4964
:107A000002F0E0FB011C301C02F02EFD1B4902F0CD
:107A10000BFA02F081FFC343DB1718400B21274B01
:107A2000274A01900095504603F058F82221795CCE
:107A30000EAD244B244A009128000B21261D03F093
:107A40004DF82B0052463000204903F07BF8237993
:107A5000002B00D013E795E7B806002000060020B1
:107A6000280A0020A40600200000C84208B7001021
:107A7000C60200006202000000007A4400002041BB
:107A800000B6001055040000B4FBFFFF54B5001011
:107A9000F0B50010A0FBFFFF4CB5001098060020C9
:107AA00004B7001080EE3600E8B500108CB7001067
:107AB00068B5001028B600101CB600106CB5001098
:107AC00070B5001080B5001084B500108CB50010A2
:107AD000398C7A4B7A4A00910BA80B2102F0FEFFF9
:107AE0000699784BC8170918414001910599764AC3
:107AF0000EAD00910B21280002F0F0FF261D2B0097
:107B0000300072490BAA03F01DF82379002B00D036
:107B1000B5E637E7079B181C9A4602F0FDFE070002
:107B200002F01AFF011C504602F09EFC684902F068
:107B300049FB02F0F1FEC317664E634DC018584072
:107B40002A0033000B21019000970BA802F0C6FF1A
:107B5000089802F0E1FE604F604E0EAD00903B00D1
:107B600032000B21280002F0B9FFC7E7261D0E22C4
:107B700030005B4903F058F82379002B00D100E76F
:107B80000EAD7CE6049802F0C7FE8246398E0BAD3E
:107B9000544B554A280000910B2102F09FFF50469C
:107BA00002F0DAFE011C049802F05EFC484902F083
:107BB00009FB02F0B1FEC317C018584053464B4FA3
:107BC000414E009332003B000EAD019092E70BABAB
:107BD00009989A4602F0A0FE454E394D33000090B8
:107BE0002A000B21504602F079FF2523FB5C002B75
:107BF00058D040490EAD404B404A009128000B211F
:107C0000261D02F06BFF2B00524630002F4902F078
:107C100099FF2379002B00D031E6394E2FE6261D3F
:107C20003000FA8B374902F08DFF24E6261D07222B
:107C30003000354902F0F8FF1DE62323FB5C261DCA
:107C4000002B2BD0314A6CE6261D0B223000304928
:107C500002F0EAFF0FE6069B261DDA179B18534039
:107C600030002C49059A02F06DFF04E6504602F000
:107C700053FE64210500300001F070FE50460F00F5
:107C8000002101F083FE00280ED1261D2B003000BC
:107C90001B4A2149009702F055FFECE51F4A40E6D8
:107CA0001F4A3EE61F49A5E7261D7F4230001E4AB7
:107CB00019496B42009702F045FFDCE598B50010CA
:107CC00084B500109CB5001070B500108CB5001084
:107CD0000000C842A0B50010A4B50010A8B500105F
:107CE000B4B50010C4B50010C8B50010D4B500106C
:107CF000D8B5001020B50010DCB50010E0B50010BC
:107D000004B700104CB600105CB6001024B500108B
:107D100010B60010F0B500103CB6001038B50010D9
:107D200050B5001048B5001038B6001001230360AC
:107D300000234360836070477047C046002370B5DE
:107D40005E4C0500A370E378002B0AD10123E37099
:107D500002332370002323710A3363630A336B7089
:107D600070BD4378502B00D18FE00CD96E2B00D121
:107D700086E028D85A2B15D0642BF1D10A23237022
:107D800064334370ECE73C2B00D183E014D8282BFC
:107D90000DD0E5D8142B00D085E0042323702433C4
:107DA0004370DDE7092323705B334370D8E7052375
:107DB000237037334370D3E7462BD1D10723237089
:107DC00049334370CCE7782BCAD122000421083212
:107DD000A02000F00BFB220008210C32A02000F0B4
:107DE00005FB22000C211032A02000F0FFFA220037
:107DF00010211432A02000F0F9FA220014211C32C4
:107E0000A02000F0F3FA220018211E32A02000F07A
:107E1000EDFAA06901F0E2FD02F0EEFD2849061C32
:107E200001F0B4FD00283AD12649301C01F0C2FD12
:107E3000311C002800D02349234801F0F5FFFE2122
:107E4000890502F011FB01F0C9FD03041B0C81B28E
:107E50001E4A10601E4A1F48536300F04FFE012265
:107E60001D4B1A61A0230F32DB051A610223002289
:107E70002370002362800A32237162636B706FE7A4
:107E80000B2323706D3343706AE70823237052334A
:107E9000437065E7062323704033437060E70F4962
:107EA0000B000800D4E7142B00D959E7002B00D1B0
:107EB0004CE70A2B00D053E748E7C046B80600203D
:107EC00000409C46007C12480024744CFC050020B5
:107ED0000001044800020050000004487F0C00002C
:107EE00070B5474C22780A2A09D846499300CB58E6
:107EF0009F462223E25C002A01D10122E25470BD98
:107F0000E378002BFBD0062A60D03F493F4E6569DD
:107F1000281C01F045FD00285BD0311C281C01F015
:107F200075FD3B496061A061051C01F02FFD002833
:107F300050D038490B000800374A1060374A38489B
:107F4000536300F0DBFD0122364B1A61A0230F3290
:107F5000DB051A61D3E7E378002BD0D09622A38B00
:107F600052009342CBD20133A383C8E7E378002BBE
:107F7000C5D0A5682C49281C01F008FD0028BED0FA
:107F80002A49281C01F042FDA060B8E7E378002BE5
:107F9000B5D0E38B264A9342B1D86433E383AEE78E
:107FA000E378002BABD02323A7E7E378002BA6D000
:107FB000E5682049281C01F0F3FC00289FD01B49EC
:107FC000281C01F023FDE060E06298E71A491B4E8F
:107FD0009DE7A5611A49281C01F0ECFC291C00282A
:107FE00000D01749174801F01FFFFE21890502F054
:107FF0003BFA01F0F3FC03041B0C81B29CE7C04682
:10800000B8060020CCB7001000D3D64700002041AE
:1080100000409C467F0C0000FC0500200001044845
:1080200000020050000004480000A041CDCCCC3D2F
:10803000871300009A99774200A6D6470000C842ED
:10804000007C12480024744C70B54F4C22780A2AE8
:108050000ED84E499300CB589F4624230122E25468
:108060000022023BE2544A48203B2370FFF794FA77
:1080700070BDE378002BFBD0062A76D04549464EEA
:108080006569281C01F0A0FC002871D0281C311C57
:1080900002F0EAF9051C6061A0614049281C01F06A
:1080A00089FC291C002800D03C493D4801F0BCFE59
:1080B000FE21890502F0D8F901F090FC03041B0CA5
:1080C00081B2384A1060384A3848536300F016FDD0
:1080D0000122374B1A61A0230F32DB051A61C7E773
:1080E000E378002BC4D0A38B012BC1D9013BA38320
:1080F000BEE7E378002BBBD0A5682E49281C01F011
:1081000059FC0028B4D02C49281C02F0ADF9A0601D
:10811000AEE7E378002BABD0E38B284A9342A7D994
:10812000643BE383A4E72223E25C002AA0D0002280
:10813000E25422879CE7E378002B99D02323002286
:10814000E25495E7E378002B00D191E7E5681C49FC
:10815000281C01F039FC002800D189E71649281CA9
:1081600002F082F9E060E06282E71649164E87E786
:108170001649A561281C01F009FC00288DD014497E
:108180000B0008009DE7C046B8060020F8B70010B5
:10819000980600200009A64700002041007C1248F4
:1081A0000024744CFC05002000010448000200502B
:1081B000000004480000A0C1CDCCCC3DDC0500008F
:1081C0003333A3400036A6470000C84200409C4617
:1081D0007F0C000070B50378040082B0002B01D141
:1081E00002B070BDFDF75AFF7A4906004A6AA378CB
:1081F000920602D54A6AD2060FD4774DEA78012A50
:1082000001D10A216963012B6CD0032B62D0002BB2
:10821000E6D101336660A370E2E74A6A1207ECD543
:10822000012B00D18CE06B494A6AD2067DD46A4D9D
:10823000EB78012BD4D16368F61A684B9E42CFD9F4
:108240006748FFF7A9F9674B01AA009300230021B3
:10825000A020019300F032F9019A009B9A4200D1CC
:1082600092E06A460021A02000F0C0F82A00042114
:108270000832A02000F0BAF82A0008210C32A02011
:1082800000F0B4F82A000C211032A02000F0AEF863
:108290002A0010211432A02000F0A8F82A0014218E
:1082A0001C32A02000F0A2F82A001821A0201E32C3
:1082B00000F09CF86B690022AB61EB686A80EB62AE
:1082C000EB8B0A322B8402232B7000236A632B7101
:1082D000637085E76368F31A322B00D880E70023C8
:1082E000A3707DE76368F31A642B00D878E73948F8
:1082F000416AC90610D53748416A890627D4002A41
:1083000036D1394A934200D86AE72000FFF716FDBC
:1083100003236660A37063E7416A0907EBD46178C1
:108320001429E8D10223A3705AE74A6A120700D43D
:108330007DE7022B00D07AE72000FFF7FFFCCEE7B5
:10834000FA2162684900821A8A42C8D86BE7436AF8
:10835000DB0612D5436A1B0700D541E72000FFF773
:1083600073FE03230122A37021336660EA5437E7CA
:108370006378142B00D133E7C7E72000FFF7B0FD87
:1083800003236660A3702BE72A0004210832A02093
:1083900000F094F82A0008210C32A02000F08EF89A
:1083A0002A000C211032A02000F088F82A001021A9
:1083B0001432A02000F082F82A0014211C32A020E0
:1083C00000F07CF82A0018211E32A02000F076F878
:1083D00070E7C04600000440B806002010270000E7
:1083E000980600205833121788130000F0B5C646CF
:1083F00000B582B06F460B0AC9B210780902DBB231
:108400000B4351780004090603430B430093937810
:108410003B71D37800227B71254B9846502341460F
:10842000CA5424498B6B1B0609D58020224B02E0DD
:10843000013B002B03D0C0468A6B1042F8D10022CA
:10844000A0211C4800F0EEFC6B468025194C9E1DB7
:10845000A36B1D4208D0184B02E0013B002B03D058
:10846000C046A26B1542F8D139781248013700F0A6
:1084700033FDBE42ECD1A36B1B060AD580210E4B07
:108480000C4802E0013B002B03D0C046826B114236
:10849000F8D1084800F006FD0A2000F089F85023C2
:1084A000012241460120CA5402B080BCB846F0BD4A
:1084B000B806002000020048E7030000CBB2F0B588
:1084C000C6461400984600225023364E0F0A3649FD
:1084D00000B5F2548B6BFFB21B0609D58020334BDD
:1084E00002E0013B002B03D0C0468A6B1042F8D15A
:1084F0002D4D0022A021280000F094FCAB6B1B0640
:1085000009D58022294B02E0013B002B03D0C04655
:10851000A86B0242F8D1244D3900280000F0DCFCA1
:10852000AB6B1B0609D58022204B02E0013B002BE0
:1085300003D0C046A96B0A42F8D141461A4800F060
:10854000CBFC012000F034F80122A021164800F0F5
:1085500089FC012000F02CF8E51C271D1248AC42D4
:1085600015D000F0CFFC012000F022F80E4800F0FA
:10857000FDFC20700134BC42F0D10B4800F092FCAD
:10858000502301220120F25480BCB846F0BD00F017
:10859000D3FC012000F00CF8034800F0E7FC207049
:1085A000EBE7C046B806002000020048E7030000E1
:1085B000FA210E4B70B589000400186801F05EF8CE
:1085C000010006000320404201F058F80500A042D7
:1085D00006D20320404200F01FF8641BA542F8D3E6
:1085E0002000704300F018F870BDC046F83F00202E
:1085F000064B10B5040018680549013801F03EF833
:108600000130604300F008F810BDC046F83F00207C
:1086100040420F00000000000230800803D0013803
:10862000FDD1C046C046C0467047EFF3108072B619
:10863000704780F310887047C0230421084A5362B2
:10864000536A1942FCD18021064AC90513691843AF
:10865000106113680B42FCD1C322014B5A62704770
:108660000000014000030140034B9B6803405A1E79
:108670009341D8B27047C04600030140F8B5C0230B
:108680000D0004242C4A5362536A1C42FCD12B4A2D
:108690002B4B14681168240419402A4B29430B43BF
:1086A0008021240E1360C90513680B42FCD184425B
:1086B00029D98600B44212D9234B80219C461F4AF7
:1086C000204FC90565461368A4082B4025022B439B
:1086D0003B43136013680B42FCD1B442F2D8174AF3
:1086E0001949136800020B40164903430B438021CC
:1086F0001360C90513680B42FCD1C3220E4B5A62AA
:10870000F8F7DCFCF8BDA3009842E8D980210B4AB9
:108710000D4F0C4EC905251E00D101351368AC0064
:108720003B40AD022B433343136013680B42FCD133
:10873000A3009842EFD8D2E70000014000030140B7
:1087400000FF0FC00000F03FFF000FC0C023042156
:108750000A4A70B55362536A1942FCD1456883686E
:10876000074C2B432168074D29400B432360C3234B
:10877000536201784078FFF781FF70BD000001402F
:1087800000030140FFFFF0FF014B18687047C0462F
:10879000F83F0020F0B54746CE46032480B52700B9
:1087A000F8260F40FF00BE408B089B00C3181D69D0
:1087B000B5434E00B4401D61456F0426A543CC0867
:1087C000A40045670419256CA84607250D40AD0097
:1087D000AE40A9464546B54325644D46266CB44691
:1087E0005678AE4035006646354325640C4CA042B1
:1087F00010D0002555571478002D02DA52688A40AF
:1088000042602200BA4019690A431A61C0BCB946E5
:10881000B046F0BD01258D40046EAC430466E8E728
:1088200000020440094B70B505000C00984209D0C5
:1088300080235B00EB602B68054AA40313401C43B4
:108840002C6070BD0420FFF7F7FEF1E7000004483C
:10885000FF3FFFFF0B6843614B799B06DB0F1B0556
:1088600043600B791B071B0F43624B791B071B0FE0
:1088700003624B79DB06DB0F83610B791B09C36253
:108880007047C0460B6843614B79DB07DB0A4360E6
:108890000B791B071B0F43620B791B09C3627047DF
:1088A00010B503244368A343194341604369012A77
:1088B00003D0044A1340436110BD8022D200134309
:1088C000F9E7C046FFFBFFFF3022436809019343ED
:1088D000194341607047C046C022436889019343F1
:1088E000194341607047C046F0B54C1EE4B26500C4
:1088F000EDB22F0003231037FFB2C6469846BB40A7
:108900009C46066800B533006646B3439C465378E0
:108910001531BB40CFB201216646B94033438B438A
:1089200091784646B9401935EDB21943D378AE4037
:10893000AB40B1430B43A1000F241278C9B28C4065
:108940008A40A3431343036080BCB846F0BDC046D1
:1089500002224369002902D19343436170471343C4
:108960004361FBE730B50B290BD80D4B89005B58F1
:108970009F460C240B4BA821A24045582B401A437C
:10898000425030BD042300245B42F4E70D2302244F
:108990005B42F0E70824044BEDE70A24034BEAE7C7
:1089A00024B80010FFCFFFFFFFFCFFFFFFF3FFFF26
:1089B000A02370B5DB0505000C00984209D0802388
:1089C0005B00EB602B68054AA40313401C432C603A
:1089D00070BD0220FFF730FEF1E7C046FF3FFFFF0A
:1089E000012303610B688A6843614B7BDB06DB0F65
:1089F0001B0543600B7B1B071B0F43620B7B1B0993
:108A0000C3624B7B1B071B0F03624B6883611423FC
:108A1000534083647047C046012303610B68436180
:108A20004B79DB07DB0A43600B791B09C3620B79C7
:108A30001B071B0F4362704710B503244368A34311
:108A4000194341604369012A03D0044A134043613A
:108A500010BD8022D2001343F9E7C046FFFBFFFFA1
:108A60003022436809019343194341607047C0466F
:108A7000C022436889019343194341607047C0464F
:108A8000F0B54C1EE4B26500EDB22F0003231037A1
:108A9000FFB2C6469846BB409C46066800B5330008
:108AA0006646B3439C4653781531BB40CFB2012193
:108AB0006646B94033438B4391784646B9401935F1
:108AC000EDB21943D378AE40AB40B1430B43A100A4
:108AD0000F241278C9B28C408A40A3431343036029
:108AE00080BCB846F0BDC04602224369002902D1CD
:108AF0009343436170471343FBE7C04641637047AC
:108B0000002901D1C26370474264FCE77047C04648
:108B1000902310B5DB05040098420DD00B4B984212
:108B20000AD003230122E360E3681A42FCD00F223B
:108B3000236C9343236410BD0820FFF77DFD0820BC
:108B4000FFF792FD0028FAD1EBE7C046000200488B
:108B5000F0B5DE4657464E464546E0B583B0019037
:108B60000C0001200092632901D9002A06D103B02C
:108B7000F0BCBB46B246A946A046F0BDFFF704FED6
:108B8000642100F07BFD64210600200000F076FDEA
:108B9000194B009F994601239A468023DB009B4690
:108BA0001C0098464743B5023900280000F066FDD6
:108BB000830A434506D88005800D814502D9814648
:108BC0009A46A346013CAD1B002CEDD15B468022AA
:108BD00001981202013B13430361009B426907495C
:108BE000013B9B020A401A435346013B1B041343BB
:108BF00043610020BBE7C046FF030000EF8000FC9C
:108C0000F0B557464546DE464E461400E0B583B003
:108C10000D00824601910092FFF7B6FD23006B43E1
:108C20000700984601209F4249DD1900380000F0F6
:108C3000AFFD294B0600984248D942460125994686
:108C400056003100380000F0A3FDAB4604000135AA
:108C500046444845F5D85B4606001B049B466E43D8
:108C60000099631C694338005943984600F006FD9B
:108C7000019B00991D1AEB17ED18380071435D40F8
:108C800000F0FCFC019B181AC317C018584085421D
:108C900000DBA04680224346D200D21A8023DB01AB
:108CA000134352461361009B52690C49013B0A4031
:108CB0009B0213435A46134352460020536103B0AC
:108CC000F0BCBB46B246A946A046F0BD0023040056
:108CD0009B460125C4E7C046FE030000EF8000FC70
:108CE00070B5842464000559064E120635400551BE
:108CF0000A431B0205591A43034B1D402A430251E4
:108D000070BDC046FFFFFFF8C0C0FFF870B58625F4
:108D10006D004459074E1206344044514459064EE2
:108D20001B0234400C4314431C4380235B05234344
:108D3000435170BDFFFFFFF8C0C0FFEF30B50724FF
:108D400086258C408A406D004359A3431343435109
:108D500030BDC0460300144810B581420AD8D86B14
:108D6000124C2040D863002A14D00A221800FFF7C2
:108D700047FF10BD0E4C0120A142FAD88020DC6BC9
:108D800080022043D863002A09D019221800FFF777
:108D900037FFEEE70A221800FFF7DAFEE9E71922AB
:108DA0001800FFF7D5FEE4E7A0860100FFFFFDFFF6
:108DB000801A060070B504000D001600FFF7A8FE2B
:108DC000F822F021164BD2016363EB88C9011A40E7
:108DD0008A4210D0E06B1B02000C00040343E363E3
:108DE000002E16D1A023DB00A36301235B42E364C2
:108DF0000023236470BDFF21E26B1940120C1204A2
:108E00000A43FE215B0009020B401343E363002E7B
:108E1000E8D020002A792968FFF79CFFE2E7C046E6
:108E200003033F07012A18D08023DB001943842362
:108E30005B00C258E023DB041A4203D0C0235B006E
:108E4000C1507047836B1B06FCD48023C26C9B010E
:108E50001343C3648023C150F3E7014B1943E6E792
:108E600001040000012A18D0A023DB001943842349
:108E70005B00C258E023DB041A4203D0C0235B002E
:108E8000C1507047836B1B06FCD48023C26C9B01CE
:108E90001343C3648023C150F3E7014B1943E6E752
:108EA0000105000084235B00C258E023DB041A4262
:108EB00005D0C023C0225B00D200C2507047836B34
:108EC0001B06FCD48023C26C9B011343C022C364E5
:108ED0008023D200C250F1E784235B00C258E02314
:108EE000DB041A4203D0C0235B00C1507047836B80
:108EF0001B06FCD48023C26C9B011343C3648023F4
:108F0000C150F3E784235B00C258E023DB041A421C
:108F100005D0C02380225B009200C2507047836B53
:108F20001B06FCD48023C26C9B0113438022C364C4
:108F300080239200C250F1E784235B00C258E023F3
:108F4000DB041A4205D0C023C0225B009200C2504D
:108F50007047836B1B06FCD48023C26C9B011343B8
:108F6000C022C36480239200C250F1E786235B00D5
:108F7000C258E023DB041A4202D1406DC0B27047F0
:108F80008E235B00C058F9E7836B1B0605D40F22C4
:108F9000036C93430364002070470220FCE7C04643
:108FA000FF2210B5024B01201A60FFF745FB10BDF0
:108FB00000050140FF2270B50D0004000D4B01209B
:108FC0001A60FFF739FB6B696A68236080231B0214
:108FD00013438022A350A023AA68E250EA68043316
:108FE000E2502A69DD33FF33E2502A68C93BFF3B78
:108FF000E25070BD00050140002A05D1054A283322
:1090000011409B0019507047034A283311409B00C0
:109010001950F8E71F07000000001F078022802377
:1090200081581B060B43C0218350204B890298585E
:10903000084207D18022C0211D4B8902985808425E
:109040001DD1704780219A58890580200A4203D19A
:10905000C0461A580A42FBD080238021134A490592
:10906000D3580B42E6D08020C04613580B42FBD1A8
:109070008022C0210E4B890298580842E1D08021FD
:109080009A58890580200A4203D1C0461A580A42DC
:10909000FBD080238021064A4905D3580B42D0D00B
:1090A0008020C04613580B42FBD1CAE70004034896
:1090B00000080348F0B5002A12D10827CD0649055B
:1090C0004C0F0C49ED0E203AA0269B00C018835986
:1090D0000B402100B94019430A402A438251F0BD98
:1090E0004C01C902C90E0D041827034A0349640F35
:1090F000EAE7C046FFF8FFFFFFFFE0FFFFFFFFF8D2
:10910000802210B503248358A3431943815010BD16
:10911000F0B584241A4A0359032513400351302320
:109120000E780259174F9A4333079B0F1B011343C5
:109130002A00324094464A688968174301220A434C
:1091400035420CD1035190235B00C7500433C25009
:109150008422802381589B040B438350F0BD8021DF
:109160000B43035190235B00C7500433C250624647
:10917000022AEDD18022C15852020A43C250E7E7C9
:10918000FFFFFFFD00808080F0B54646D6464F4683
:109190008422C0B5234E244CB358244D2340B350F1
:1091A000AB5823400324AB500B781C4027009A4651
:1091B000A446B3587C1EA7411D4CFF022340A04685
:1091C0001C0053461B079B0F1B021C433C43B4501F
:1091D0004646AC58344023431F43AF504A68154BB2
:1091E000134380229200835001238A681343812213
:1091F000920083506346022B04D1802381585B0286
:109200000B438350842380220648D204C158114363
:10921000C1500649C8580243CA50E0BCBA46B146DC
:10922000A846F0BD00040348FFFFFFFB0008034809
:10923000FFFCFFFF00808000012370B588258B4074
:1092400044599C43137B8B40234343510D23D356F6
:10925000002B0EDB01291BD0002904D1B0251F26CD
:109260004459B44344510026B024B34005592B431C
:109270000351C8240359556880312B4303510834E6
:109280009568035989002B43035113680B5070BD37
:1092900028354459044E344008264451B024B34084
:1092A00005592B430351E4E7FFE0FFFF10B580248D
:1092B000890040180349126843586400234013434F
:1092C000435010BD5C0B000070B50C00050016008B
:1092D000FFF71CFC0F22A1008A402B680434934343
:1092E0003268A4008A4013432B607368635170BDD9
:1092F00070B516000C0005000834FFF707FC336852
:10930000A400635170BDC04610B507240431890024
:109310000B58224069341201A343134301220B501E
:109320000B5813430B5010BD030010B50800190073
:1093300001F0C6FB10BD000070B5041C00F058F829
:10934000211C051C201C01F0D1FA002810D100219D
:10935000201C00F02FFB00280AD10021201C00F067
:109360000FFB002806D001F029FC2223064D0360E4
:10937000281C70BD01F022FC21230360034800F08B
:1093800007F8051CF4E7C046000080FF04B7001092
:10939000004870470000C07F4200031C120EC0430B
:1093A000110010B50224C01720407F3901381E2952
:1093B0000CDC002916DB80245B025B0A24042343B7
:1093C000162907DD963A9340584310BD181C01F04A
:1093D000A3FAFAE78022D2030A41D3181722521ABD
:1093E000D340F1E77E3A53425A4152421040ECE7F3
:1093F000F8B5DE4657464E4645464200E0B5002ADF
:1094000046D0021E4FDBFF21C905884200DBC6E0C3
:10941000802300211B04984206DA9821C90500F038
:10942000D1FE192102004942D3157F3B5B188021F0
:109430005202540A834AFE200904A2180A40FE215F
:1094400080055040D61520438905F61801F00CF828
:1094500022007D4B0F32051C1A422BD1002100F057
:109460008FFA002800D19EE00020002E15D0300099
:1094700001F072FA7549041C00F0A4FE7449051C41
:10948000201C00F09FFE011C281C00F0BFFA04E025
:10949000CC200021000600F0C7FCF0BCBB46B24661
:1094A000A946A046F8BD011C00F0DEFF002100F037
:1094B000BBFCF2E78021C90500F0A8FA011C281CBA
:1094C00000F0B2FC8046300001F046FA4146814689
:1094D000404600F077FE5F4B011C9A46834600F041
:1094E00071FE5D49071C00F06DFE5C4900F08EFACC
:1094F000391C00F067FE5A4900F088FA391C00F068
:1095000061FE584900F082FA594600F05BFE564968
:109510008346381C00F056FE544900F077FA391C97
:1095200000F050FE524900F071FA391C00F04AFE7A
:10953000A244011C584600F069FA52464D4B071CE4
:109540001B1B1343002B48DDFC21281C890500F060
:1095500039FE291C00F036FE011C041C381C00F0EA
:1095600055FA414600F02EFE071C002E49D037491F
:10957000484600F027FE3649061C484600F022FE09
:10958000391C00F043FA011C201C00F06DFF291C5F
:1095900000F06AFF011C301C00F066FF7DE7011C33
:1095A00000F034FA79E73449281C00F00BFE011C66
:1095B000FC20800500F058FF291C041C281C00F02A
:1095C00001FE011C201C00F0FDFD041C002E21D119
:1095D000211C281C00F048FF5FE7011C281C00F03C
:1095E00043FF414600F0EEFD041C002EF0D048463B
:1095F000164900F0E7FD1649061C484600F0E2FD5A
:10960000C1E7011C201C00F02FFF011C281C00F0EA
:109610002BFF42E7300001F09FF90C49061C00F0D7
:10962000D1FD0B49071C301C00F0CCFD011C201C97
:1096300000F01AFF291C00F017FF011C381C00F075
:1096400013FF2AE720FB4A00F0FF7F008071313FC3
:10965000D1F71737305CCFFF9788173E25333A3E56
:109660002549923EABAA2A3F4FD01C3E298E633E2D
:10967000CDCCCC3E88C23500ABAAAA3E002243081E
:109680008B4274D303098B425FD3030A8B4244D3CA
:10969000030B8B4228D3030C8B420DD3FF2209020C
:1096A00012BA030C8B4202D31212090265D0030BCB
:1096B0008B4219D300E0090AC30B8B4201D3CB03C1
:1096C000C01A5241830B8B4201D38B03C01A524103
:1096D000430B8B4201D34B03C01A5241030B8B4205
:1096E00001D30B03C01A5241C30A8B4201D3CB02F0
:1096F000C01A5241830A8B4201D38B02C01A5241D5
:10970000430A8B4201D34B02C01A5241030A8B42D7
:1097100001D30B02C01A5241CDD2C3098B4201D3EF
:10972000CB01C01A524183098B4201D38B01C01A6D
:10973000524143098B4201D34B01C01A52410309E4
:109740008B4201D30B01C01A5241C3088B4201D393
:10975000CB00C01A524183088B4201D38B00C01A40
:10976000524143088B4201D34B00C01A5241411A67
:1097700000D20146524110467047FFE701B5002074
:1097800000F0F0F802BDC0460029F7D076E7704738
:1097900003460B437FD4002243088B4274D3030952
:1097A0008B425FD3030A8B4244D3030B8B4228D3F3
:1097B000030C8B420DD3FF22090212BA030C8B4219
:1097C00002D31212090265D0030B8B4219D300E0B9
:1097D000090AC30B8B4201D3CB03C01A5241830B3E
:1097E0008B4201D38B03C01A5241430B8B4201D3EE
:1097F0004B03C01A5241030B8B4201D30B03C01A17
:109800005241C30A8B4201D3CB02C01A5241830A90
:109810008B4201D38B02C01A5241430A8B4201D3BF
:109820004B02C01A5241030A8B4201D30B02C01AE9
:109830005241CDD2C3098B4201D3CB01C01A524150
:1098400083098B4201D38B01C01A524143098B42D9
:1098500001D34B01C01A524103098B4201D30B01C2
:10986000C01A5241C3088B4201D3CB00C01A5241E7
:1098700083088B4201D38B00C01A524143088B42AC
:1098800001D34B00C01A5241411A00D20146524145
:10989000104670475DE0CA0F00D04942031000D364
:1098A0004042534000229C4603098B422DD3030AB9
:1098B0008B4212D3FC22890112BA030A8B420CD3C9
:1098C000890192118B4208D3890192118B4204D3F2
:1098D00089013AD0921100E08909C3098B4201D372
:1098E000CB01C01A524183098B4201D38B01C01AAC
:1098F000524143098B4201D34B01C01A5241030923
:109900008B4201D30B01C01A5241C3088B4201D3D1
:10991000CB00C01A524183088B4201D38B00C01A7E
:109920005241D9D243088B4201D34B00C01A524155
:10993000411A00D20146634652415B10104601D3E2
:109940004042002B00D54942704763465B1000D36C
:10995000404201B5002000F005F802BD0029F8D012
:1099600016E770477047C046844608006146FFE727
:109970001FB500F0DFFB002801D40021C8421FBD45
:1099800010B500F067FB4042013010BD10B500F08B
:10999000D1FB002801DB002010BD012010BDC04616
:1099A00010B500F0C7FB002801DD002010BD01202C
:1099B00010BDC04610B500F075FB002801DC00208A
:1099C00010BD012010BDC04610B500F06BFB002893
:1099D00001DA002010BD012010BDC0469E2110B547
:1099E000C905041CFFF7F0FF002803D1201C00F07C
:1099F00093FF10BD9E21201CC90500F035FD00F02D
:109A00008BFF80231B069C466044F2E74A02F8B5B0
:109A1000530ACE4699464B00C90F47468846460032
:109A20004502360E1B0E80B5C40F6F0A9209AD09B0
:109A3000F11A44454BD0002938DD002B00D174E0E9
:109A4000FF2E00D1BEE08023DB041A431B2900DC7B
:109A5000FDE0013D6B0100D4AFE001256D42AD0199
:109A6000AF09380001F00EF83B000538834086420C
:109A700000DCD3E0B94D311A1D405A0700D19EE0F9
:109A80000F221340042B00D199E004356B0100D460
:109A900095E0481CFE2951D1FF200023C005184342
:109AA000E4072043C0BCB946B046F8BD002949D000
:109AB000991B002E72D1002D00D133E14C1E0129DB
:109AC00000D159E1FF2900D14CE121006CE00029CF
:109AD00000DC81E0002B55D1002A70D04B1E0129FB
:109AE00000D12BE1FF296DD01B2B50DC1900202366
:109AF0005B1A10009A40C840531E9A410243AD18A9
:109B00008023DB041D4200D1ADE0711CFE2EC3D0CA
:109B100001206A082840924D154005436A0700D08D
:109B20008BE01D42B5D1EF0834E0002A47D04B1E30
:109B3000012966D0FF2945D0190087E7C0B2AB01E3
:109B40005B0AABE7FE239C46701C0300604618428C
:109B500000D092E0002E00D0E7E0002D00D119E106
:109B6000002A17D08023AF1ADB041F4200D142E144
:109B70004446551B00D187E001201D42DFD1002162
:109B8000EF0807E0FF2E1DD01B2900DC94E0310018
:109B90000535EF087B025B0AC8B27FE7FF2B00D1D7
:109BA000E0E08020C00405431B2900DC88E0551E4E
:109BB00044461E00690100D54FE731000435EF0827
:109BC000FF29E7D1002F00D166E78023DB033B4369
:109BD0005B02FF205B0A61E7002958D0991B002E29
:109BE00000D089E0002D00D19DE04E1E012900D15A
:109BF000A4E0FF2900D1B6E01B2E00DDB8E0310063
:109C000081E0AA1A530100D4AFE09701BF093800E0
:109C100000F038FF3B000538834001261D00811B02
:109C200020200131CD40411A8B40591E8B411D43EC
:109C30002AD000216B0700D1F0E00F232B40042B2A
:109C400000D022E76B0100D523E7EF08A2E720232D
:109C50005B1A10009A40C840531E9A410243AD1A45
:109C60006B0100D5FBE66B0700D1D5E00F23310077
:109C70002B40042B00D008E7A1E7AF1A7B014ED49C
:109C8000002F00D0EDE600240020002306E7FE238D
:109C9000711C0B4221D1002E00D081E0002D00D19B
:109CA0009FE0002A00D1B2E0AB185A0100D4B0E026
:109CB0009B0101205B0AF1E68023DB041A4316E7CF
:109CC00020242800C840611A8D4029004C1EA14163
:109CD000014344461E00551AC2E7FF2900D1DBE6C6
:109CE000AF187F087B0705D00F233D1D3B40042B99
:109CF00000D064E7FF084DE7FF2B34D01B2937DC89
:109D00008020C004054328002026C840711A8D40D9
:109D100029004D1EA94101431E008D18F0E644465E
:109D2000571B9EE64446150049E7002D46D1002A00
:109D300066D180230024FF20DB03AFE6AA1853017D
:109D400013D5074F52081740530744D00F23134031
:109D5000042B40D002213D1D31E7C046FFFFFFFB31
:109D6000FFFFFF7D44464F462CE70121D70811E74E
:109D700005321900D7080DE7571B7B0137D5BF0106
:109D8000BF09380000F07EFE3B00053883404446A2
:109D9000013643E7002A00D175E744464F46F9E60D
:109DA000002DE0D08023DB03002A17D09F4200D291
:109DB0000BE7994500D308E74F4606E78023DB030E
:109DC000002A0BD09F4200D2FFE6994500D3FCE663
:109DD00044464F46F9E60221FF08DBE6FF203B43FD
:109DE0005CE6002A00D14FE70021D708D2E64446BE
:109DF0000121FF08CEE6002F00D07BE7002443E7D7
:109E000080234A46DB034446FF20134346E60021F5
:109E1000C0E60021DF08BDE63100D0E601206A017E
:109E200000D58BE62A00DFE7F0B546464F46D6461A
:109E30004502C0B5C30F470098460E1C6D0A3F0E81
:109E40005BD0FF2F21D08023ED00DB041D430023D6
:109E500099469A467F3F74027300640A1B0EF60F00
:109E6000002B20D0FF2B43D080220020E400D2041E
:109E700014437F3B4246FF1A4B4672400F2B00D9DA
:109E80009DE071499B00CB589F46002D5AD1082375
:109E90009946063B74029A467300FF27640A1B0E1C
:109EA000F60F002BDED1002C3BD101234246494660
:109EB000724019430E2918D86448890041588F46CA
:109EC0005346022B00D1B8E0032B6ED042462C0043
:109ED000012B40D100200024C0052043D2071043AD
:109EE000E0BCBA46B146A846F0BDFF200024F3E727
:109EF000002C20D10223FF3FD8E7002D05D10423F9
:109F00009946033B00279A46A5E7280000F0BAFDD2
:109F10007627431F9D4000237F4299469A463F1A69
:109F200099E7200000F0AEFD431F9C4076235B4282
:109F30001B1A00209EE703234A461A43914603203A
:109F4000FC3397E70C239946093BFF279A4682E7A3
:109F500003282CD0320038007F30002847DD63070B
:109F600004D00F232340042B00D00434230103D555
:109F70003800374B80301C40FE28B6DCA401640A50
:109F8000C0B2A9E780240022FF20E403A4E78023D5
:109F9000DB031D4201D01C420BD08024E4032C4380
:109FA00064024246FF20640A96E746462C0080235E
:109FB000DB031C4364023200FF20640A8CE76D015E
:109FC000600185422DD21B230024013F0126290078
:109FD00064006D00002901DB854201D32D1A344352
:109FE000013B002BF3D16B1E9D412C43B3E70123B2
:109FF0001B1A1B2B00DD6DE721009E37D940BC40AA
:10A000000B00611E8C412343590704D00F211940D6
:10A01000042900D00433590113D49B0100205C0AA9
:10A020005AE71A2301242D1AD0E7981E43425841BB
:10A03000404232000024C0B24EE74246FF200024D6
:10A040004AE70120002447E754B8001094B80010F4
:10A05000FFFFFFF770B542004E024C0045026D0A4B
:10A06000120EC30F760A240EC90FFF2A10D0FF2C40
:10A070000CD00120A2420AD1B54208D18B420FD0A8
:10A08000002A04D12800431E984100E0012070BD41
:10A090000120FF2CFBD13543F9D14B401800F6E7E6
:10A0A0000020F4E730B5420044024D02C30F4800DF
:10A0B000640A120E6D0A000EC90FFF2A18D0FF287D
:10A0C0000AD0002A1ED100280AD1002D29D0002C48
:10A0D0002DD14800013830BD002D25D1002A01D1F5
:10A0E000002CF6D08B4219D001205B421843F2E7D6
:10A0F000002C19D1FF28F7D1002D15D100208B425B
:10A10000F2D1E8E70028EFD08B42EDD18242EBDCC0
:10A1100004DBAC42E8D80020AC42DCD25800013865
:10A12000D9E7002CD7D0DFE702204042D3E78B42AB
:10A13000DAD1EEE730B5420044024D02C30F4800C9
:10A14000640A120E6D0A000EC90FFF2A17D0FF28ED
:10A150000AD0002A1BD100280AD1002D1DD0002CC6
:10A160002DD14800013811E0002D0ED1002A01D177
:10A17000002CF6D08B420CD15800013806E0002CA0
:10A1800003D1FF2805D1002D15D0022030BD0028B5
:10A1900006D101205B421843F8E7002CF6D0F8E71F
:10A1A0008B42F6D18242F4DCE6DBAC42F1D80020EF
:10A1B000AC42EBD2E0E700208B42EAD1E6E78B42EB
:10A1C000E7D1F2E7F0B54F464646D6464502C0B560
:10A1D00046000F1C6D0A360EC40F002E00D1CDE0D4
:10A1E000FF2E72D08023ED00DB041D43002399462F
:10A1F0009A467F3E7B025B0A98467B001B0EFF0F50
:10A20000002B72D0FF2B00D1A9E07F3BF6184B4604
:10A210000A2B00DD85E043468022DB00D2041A438E
:10A220004B4690467C400022022B0FDD494601231D
:10A230008B40A621C9000B4200D072E0902189001A
:10A240000B4200D0DAE08821194267D1280C42463F
:10A250002D042D0C4346290012041B0C120C5143F3
:10A260005D4342435843AD180B0C5B199A4203D926
:10A27000802252029446604409041A04090C5218C0
:10A280009501691E8D411B0C920E1B1815439B01F5
:10A290001D431B0100D5CFE030007F30002800DCDB
:10A2A000B1E06B070BD00F2332002B40042B06D0FC
:10A2B00004352B0103D5803210006A4B1D40FE2867
:10A2C00064DCAB015B0AC0B21FE0002D00D08FE060
:10A2D00008239946063B9A467B025B0A98467B0018
:10A2E000FF261B0EFF0F002B8CD14346002B5CD1A9
:10A2F0004A4601331A43914613000A2A11DC01220F
:10A300007C40022B92DC00200023C0051843E407A8
:10A310002043E0BCBA46B146A846F0BD3C004546E5
:10A3200092465346022B31D0032B11D0012BEAD099
:10A3300030008030721C002866DD6B07B9D00F2317
:10A340002B40042BB4D1B4E70F2A7AD03C00454609
:10A350008023DB032B435B02FF205B0AD5E74346E8
:10A36000FF36002B34D14A46023313430A2BD8DC84
:10A370007C40002A0AD09946022257E7002D08D1D6
:10A3800004239946033B00269A4633E7FF20002327
:10A39000BBE7280000F076FB7626431F9D40002394
:10A3A000764299469A46361A24E7404600F06AFB00
:10A3B0004B46361A763E0A2BB3DC434605388340BB
:10A3C00098464B4600227C40022B00DD2EE73DE7FD
:10A3D00003234A461A4313000A2AB5DC01229A4095
:10A3E000882113007C400322194200D12EE795E713
:10A3F0000C239946093BFF269A46FBE6802300245E
:10A40000FF20DB0381E7320001231B1A1B2B00DD39
:10A4100079E79E3229009540D9406A1E95410D4347
:10A420006B0704D00F232B40042B00D004356B01A5
:10A4300013D50120002368E701236A081D40154356
:10A4400076E78023DB031D4282D042461A4200D0C9
:10A450007EE73C00FF20134357E7AB0100205B0A77
:10A4600053E7C046FFFFFFF7F8B54746CE464B021D
:10A47000460080B5C40F4702580A844648007A0A4D
:10A48000360EBF09000ECD0F9B09FF286DD00121AC
:10A490004D40311AAC423AD0002900DC9CE1002842
:10A4A00000D19EE0FF2E00D188E08022D204134329
:10A4B0001B2900DCF6E0013F7A0100D479E0012796
:10A4C0007F42BF01BB099846404600F0DBFA434695
:10A4D00005388340864200DCCCE0B44F311A1F407F
:10A4E0005A0768D00F221340042B64D004377B0135
:10A4F00061D5481CFE2900D081E0FF200023C00563
:10A500001843E4072043C0BCB946B046F8BD002953
:10A5100000DC79E1002876D1002B4CD0481E0129BF
:10A5200000D147E1FF2949D01B2871DC01001A0046
:10A530002020CA40411A8B40591E8B411343FF18FB
:10A540008023DB041F4200D1B8E0711CFE2ED4D062
:10A55000012297483A407F08074017437A0700D006
:10A5600096E01F42C5D1FA0855E03100FF3989460F
:10A57000002B2CD101214D40AC4200D1B4E0494622
:10A5800000294CD0002E00D0F9E0FF21002F00D18F
:10A5900008E14A1E012900D156E1FF2900D142E11C
:10A5A0001B2A00DC24E15F1E2C0006007A0100D586
:10A5B00085E731000437FA08FF292CD1002A9CD006
:10A5C0008023DB0313435B02FF205B0A97E7AC4267
:10A5D00000D1A7E0002922D0002ED6D062462C0060
:10A5E000EEE7002BE7D0481E012936D0FF29E5D041
:10A5F00001005DE701203B007A0100D457E1C0B2C1
:10A60000BB015B0A7BE7FF2ED8D01B2900DC9FE053
:10A6100031000537FA0853025B0AC8B26FE7FE2023
:10A62000711C084254D1002E00D0B1E0002F00D19F
:10A6300002E1002B00D1F9E08021FA1AC9040A4294
:10A6400000D13BE10124DF1B2C40002F49D0012029
:10A650000F42D5D10021FA08DDE7FF1A7B0100D4B3
:10A66000DEE0BD01AD09280000F00CFA2B00053832
:10A67000834001262022811B0131521A1F00934082
:10A68000CF405A1E93411F432BD000217B07B1D0EE
:10A690000F233B40042B00D028E77B0100D528E79F
:10A6A000FA08B8E71A002020CA40411A8B40591E08
:10A6B0008B411343FF1A7B0100D502E77B0700D1D2
:10A6C0000DE10F2331003B40042B00D00EE772E771
:10A6D000FA1A9046520156D44346002B00D0F3E6B6
:10A6E0000024002000230AE7494600291CD0002E40
:10A6F00000D002E7FF21002F55D04A1E012959D072
:10A70000FF2900D190E01B2A00DD91E011003A0002
:10A710002025CA40691A8F40791E8F4117430600D1
:10A72000FF180DE7002926D1FE20711C084213D125
:10A73000002E00D096E0002F00D1B4E0002B75D0A1
:10A74000FB185A0100D4B2E09B015B0AFD38D6E643
:10A750008022D2041343EAE6FF2900D1CDE6FA189D
:10A760005208530705D00F23171D1340042B00D0A8
:10A7700021E7D2084FE7002EBCD0624620E72C002C
:10A78000FF200023BBE60124DB1B98462C409BE600
:10A79000002F75D1002B00D096E080230024FF20ED
:10A7A000DB03ACE62C001F0005E7C046FFFFFFFB04
:10A7B000FFFFFF7DFB185A0100D48DE04A4A5B0879
:10A7C0001A40590700D18CE00F210B400D39042BA2
:10A7D000CFD00221171DEEE6002900D11FE7821B12
:10A7E0001100002E00D1D1E68021C9040F43D7E625
:10A7F00039002024D140A21A97407A1E97410F4376
:10A800002C000600DF1B56E700298DD0811B002E8F
:10A8100000D170E71B290BDC8022D204174376E7B6
:10A820000121FA08F7E62C006246C7E60021F2E6AD
:10A8300005330100DA08EEE6002B00D150E70124D1
:10A84000002162462C40E6E6DA1B530132D5920124
:10A850009409200000F016F92300053883402C00ED
:10A86000012607E7002FDFD0002B17D08023DB0362
:10A870009A4200D2A4E69C4500D3A1E662469FE638
