:020000041000EA
:10100000480500201910001000000000A15F00102A
:1010100000040100000100001149124A124B00F0C7
:1010200018F8124880471249124A134B00F011F881
:101030001249134A134B00F00CF81349134A0020CD
:10104000521A02DD043A8850FCDC114880471148EE
:1010500080479B1A03DD043BC858D050FBDC704727
:1010600048B600100C000020440100202911001097
:1010700080B70010480500206006002098B80010D6
:10108000600600206006002060060020C80B0020DB
:101090003DA90010ED5F0010FEE700008022064B26
:1010A000520119890A4348211A818022585A120193
:1010B00002435A527047C04600000540FF21080015
:1010C000094A10B5136812681B0A1840194209D062
:1010D000114000020918054808F08AF94000044B45
:1010E000186010BD0348FAE700030140000024F433
:1010F000F83F00200048E801C0228021074B10B5CE
:101100005A62074A074BC905136013680B42FCD1AA
:10111000C322024B5A62FFF7D1FF10BD000001400D
:10112000000301400001F13F10B5FFF7B7FFFFF7E3
:10113000E3FF10BDC023034A9B0191880B439380BA
:101140007047C04600000540F8B580238026802502
:1011500004005B01C71876006D02200033689847D1
:10116000A84203D10134FF34BC42F6D1F8BDC046D9
:101170008222030010B5520008001900126890473F
:1011800010BDC046F8B50D000400170007F0EEFBD7
:101190002B7A002B2CD01A005E0801363602002F65
:1011A00007D02879296800282CD01A00200007F0E1
:1011B00055FCEB79154A013B5B0033431343812215
:1011C000E3636B795200013B19060A436263AA7913
:1011D000002A12D0636B013A12041A436263A023FF
:1011E000DB00A36301235B42E3646B892364F8BDE6
:1011F0009026102210233601D1E7626B1B041343A3
:101200006363ECE7200007F0D1FBD2E701000300A5
:1012100084235B00C258E023DB041A4203D0C023BE
:101220005B00C1507047836B1B06FCD480239B017D
:10123000C3648023C150F5E70B008908890040187A
:1012400003211940F823C9008B408A4010B5046976
:0C1250009C43046103691A43026110BD55
:105000000448054B10B5834203D0044B002B00D05D
:10501000984710BD600600206006002000000000D8
:1050200006480749091A8B10C90FC91810B549104D
:1050300003D0044B002B00D0984710BD6006002021
:10504000600600200000000010B5074C2378002BFC
:1050500009D1FFF7D5FF054B002B02D0044800E033
:1050600000BF0123237010BD600600200000000077
:1050700044B60010054B10B5002B03D00449054879
:1050800000E000BFFFF7CCFF10BDC04600000000ED
:105090006406002044B60010F0B546464F46D6469A
:1050A000C0B50700080080219846504B490092B0D7
:1050B0005960012391464E4A4E4C13614E4A0025D9
:1050C00013614E4A13614E4A136B234013634D4BD9
:1050D0004A46036043600023836022230573FD5426
:1050E0000533FD542F33FA540322013BFA546B4627
:1050F0009E1D3200A020358003F036F93488092C3B
:1051000000D96EE00534A401A3B29A4624220021FE
:1051100009A805F005FC3C4B02AD1B683B49029316
:1051200001232B714B466B713B8EEB804346186815
:1051300004F002FF05F0AAFA43463449A860586813
:1051400004F0FAFE05F0A2FA43463049E860986898
:1051500004F0F2FE05F09AFA43462D4928611869D9
:1051600004F0EAFE05F092FA6861B86904F0F0FA1A
:105170007823A861FA5C753B29009C46101DC0B2DB
:105180006446144063001B195B00FB181C0060346C
:10519000248801328C831C006433623424881B8889
:1051A000D2B28C848B8502319042E9D15746544665
:1051B00040372D1B21002A19A020043403F06CF87D
:1051C000A742F7D180213388320001334900A02063
:1051D000338003F061F812B0E0BCBA46B146A8468D
:1051E000F0BDA0235B009A4635808FE700000440A5
:1051F00000010448FEFEFFFF0002005000020448C8
:10520000000001400080BB44240A002000007A44D2
:1052100000002041F0B5CE46474680B5204B85B012
:10522000029300230E0002A904001700994603937D
:1052300003F020FB02236A46012598464B462000D6
:10524000012153801770557003F048FB20000121A5
:1052500003F034FB4B4601AA538043462000022151
:105260001770537003F03AFB2000022103F02EFB6D
:1052700020000C4903F070FB2A00B3009A40130091
:10528000A022D2051361FF232900334099404346F1
:10529000D1602361E56005B0C0BCB946B046F0BD41
:1052A00060000100FFFF000010B580220821354892
:1052B000FBF7C2FF802201213348FBF7BDFF8022AC
:1052C00002213148FBF7B8FF802203212E48FBF76B
:1052D000B3FF80232B4A5B0053602C4CA022062195
:1052E0002848FBF7A9FFA82207212648FBF7A4FFBF
:1052F0002000F8220A21FBF79FFF2000F0220B215B
:10530000FBF79AFF902205211F48FBF795FF00222B
:1053100004211D48FBF790FF002205211948FBF7E7
:105320008BFF002204211748FBF786FF0022032190
:105330001448FBF781FF002200211248FBF77CFF95
:10534000002201210F48FBF777FF200000220721F0
:10535000FBF772FF626F0E4B06211A408023DB01C0
:105360001343636700222000FBF766FF626F094B5F
:105370001A4080235B011343C0226367236E1343EB
:10538000236610BD000004400001044000020440F8
:10539000FF3FFFFFFFCFFFFFF0B591B004000822F1
:1053A000002104A805F0BCFAA0236A460621137464
:1053B000584804AA03F042F90822002106A805F083
:1053C000AFFAA8236A4607211376524806AA03F0CB
:1053D00035F90021504803F079F902260123A02075
:1053E0004D4F0021FB60C005FE6003F00FFAA023C3
:1053F0004A4DDB050822DE60002108A805F090FA7E
:10540000280008A903F07AF923886A466B63444BA5
:1054100001212800009303F0BBF90122012128009B
:1054200003F092F9102200210CA805F079FA382037
:105430006946012309180B703A480CA903F0FEF9DC
:105440002188384803F088FA374B0121354801AAF2
:10545000019303F043FA01220121324803F01AFAC2
:10546000B42206212F4883588B43334383502F4B5C
:105470002F480A93F2230AA90B9303F057F92D4BF7
:105480002B4902AA4B6304230121FF3328480293CE
:1054900003F07EF90121264803F06AF9264B03AA9E
:1054A00002212348039303F073F90221204803F0FB
:1054B00067F95023A0223B61D205B033FB60D36073
:1054C00024680134A4B264082000EC6305F04EF9AE
:1054D000002104F031FD05F0D9F8021C80B2A04291
:1054E00000D9221CA21A92B2013C141900210D48C5
:1054F000A4B203F033FA220001210A4803F02EFA85
:105500000122054B1A61A0230F32DB051A6111B08D
:10551000F0BDC046000004400000044800010448FB
:1055200008010100000200500701010060000100B5
:1055300000020448FFFF00000302000070B50C1CCD
:1055400005001649201C04F0DBF8002820D114497E
:10555000201C04F0E9F8211C00281DD1114804F09A
:105560001DFBFE21890504F039FE04F0F1F8030467
:1055700081B21B0C0C4A286053630C4803F0ECF911
:1055800001220B4B1A61A0230F32DB051A6170BD9B
:10559000084B19001800EDE70149DFE700409C4681
:1055A000007C12480024744C0001044800020050A2
:1055B000000004487F0C000010B5324B82B000930D
:1055C000002301AA04000021A020019302F0CCFED8
:1055D000019A009B9A4230D06A460021A02002F036
:1055E0005BFE220004210832A02002F055FE2200BA
:1055F00008210C32A02002F04FFE22000C211032B4
:10560000A02002F049FE220010211432A02002F056
:1056100043FE220014211C32A02002F03DFE220095
:105620001821A0201E3202F037FE6369A361E368EF
:10563000E362E38B238402B010BD22000421083210
:10564000A02002F091FE220008210C32A02002F0DE
:105650008BFE22000C211032A02002F085FE2200D9
:1056600010211432A02002F07FFE220014211C32EF
:10567000A02002F079FE220018211E32A02002F0A4
:1056800073FED2E758331217F8B54E4645465746D3
:10569000DE46E0B51F0055239846C35C04000D00AC
:1056A00016009946032B00D1A7E07E49386804F024
:1056B0003BF8002840D17B68E068191C9A4604F04A
:1056C0001FF8002866D15046774904F02DF80028CD
:1056D00060D17649386904F027F8002800D0CFE27D
:1056E000734B1A684B46012B60D033D9022B1CD167
:1056F0002223E35C002B00D0F0E080216D4A4900BA
:10570000516001226C496D480A616D490A616D4919
:105710000A616D490A6B02400A636C4A3373326056
:1057200072600022B2602722A35455230022E25463
:10573000674B04325A6015E03B0001223100200023
:10574000FFF7AAFC43465A4AE35C1268012B2DD0AE
:10575000012B4CD82223E35C002B00D07EE10422F5
:105760005B4B5A6002225A4B5A6022232132E35C7F
:10577000A25C01335200FF3313432522A15C213A7E
:1057800049420A4013432386F0BCBB46B246A946B1
:10579000A046F8BD3B00022231002000FFF77CFC50
:1057A0005523434AE35C1268012BD1D18022414B3F
:1057B00052005A600123404A40491361404A136134
:1057C000404A1361404A136B0B4013633F4B27223F
:1057D000336073600023B36000233373A354223318
:1057E000E35C002BBBD05523253AE254B7E7022BEC
:1057F00000D17DE7032B98D101E02D4B1B6880225F
:105800002C4B52005A6001232B4A2C4913612C4A1D
:1058100013612C4A13612C4A136B0B4013632B4BFF
:105820002722336073600023B36000233373A354D3
:105830002233E55C002D1CD05523E25C0421244B6F
:105840005960032A00D08DE7802292025A605623C5
:10585000E35C012B00D10DE2022B00D10AE1032B06
:1058600000D10AE2043B5A425341DB010133FF33CA
:1058700089E71849386803F04DFF0028DCD0E1685B
:10588000786803F047FF0028D6D01349386903F041
:1058900041FF0028D0D08C23E35C002BCCD05623D2
:1058A000E55442E700005042000078420000AA425E
:1058B000240A00200000044000010448FEFEFFFF0F
:1058C0000002005000020448000001400080BB4478
:1058D00000010440000048420000A0422523E35C90
:1058E000002B00D1C9E02623E35C002B00D1C4E0EB
:1058F0002323E35C002B00D0BFE02723E35C002BD5
:1059000000D134E25723E35C002B00D1B7E2012B36
:1059100000D1E5E2022B00D1FCE2002398461F1CD7
:10592000E16D381C03F02CFFD749071C03F0FCFE87
:10593000002800D0BCE2D549381C03F0E1FE002865
:1059400000D1FCE2D249D14FE765404603F018FF91
:10595000A16903F015FFCF49071C03F0EFFE0028F3
:1059600006D0CD49381C03F0D5FE002800D0DBE27C
:10597000337B3768002B1FD0B368C849181C984682
:1059800004F0DAFA011C381C03F0FAFE0021071CAF
:105990003060404603F0D2FE002800D18BE27368ED
:1059A000381C191C984603F0C9FE002804D0434651
:1059B0003360002347463373381C03F0C9FEB849EF
:1059C0002084381C04F0EAF800212D68061C03F03E
:1059D00097FE002800D065E2B249301C03F0A4FE17
:1059E000002800D062E2301CAE4904F0D7F8061C53
:1059F0000135AD4BADB26D08DD63280004F0B6FE95
:105A0000311C04F099FA03F081FB021C80B2A84219
:105A100000D92A1CAA1A92B2013D55190021A348A7
:105A2000ADB202F09BFF2A000121A04802F096FFD0
:105A300001229F4B1A61A0230F32DB051A61552307
:105A4000E25C022A00D0F9E62E3BE35C002B00D199
:105A500085E68022974BD2025A6083E600232521F7
:105A6000E3630023C83A6354E2640222E3845533BB
:105A7000E25474E690235B0085E6002327216354FB
:105A80008D493373316071600021E36CB160D31ACA
:105A9000C72B00D863E68023E264884A5B0053602A
:105AA000814B874F9B46012399465B4648461861C8
:105AB000844B7E4A9A46106138611B6B8248834949
:105AC00003408046504603635B46296010005963DB
:105AD00002F042FFA02648465946754BF60518616C
:105AE0000F3030612D6800220135ADB26D08CD63F5
:105AF0006E480021013D02F031FFAAB201216B483E
:105B000002F02CFF4D461020694B01211D613061D0
:105B1000584602F071FE0121644802F013FF802311
:105B200066495B044B6032207F3502F0B7FC7B6F27
:105B30005946BB6FFB6F7B5902235C4A0B611361B3
:105B40003B614B464946FB605B46D9605346D1609A
:105B50001A6B0223FF33134352461363136B4246FF
:105B6000FA20134052468000136302F097FCBB6F8B
:105B70001A04160C002A00D1DFE079590A04150C2A
:105B8000002A00D1ACE01B031B0F701C022B00D8B5
:105B9000B3E09D1E2A0000234D4E5B00B446013A3F
:105BA0006344002AF8D1A840C018002915D00D047C
:105BB00009032D0C090F02290BD902390A00002311
:105BC000434E5B00B446013A6344002AF8D18D404D
:105BD000ED184519002D00D066E1002800D092E0B4
:105BE000A06C002831D004F0C1FD3A4903F0D6FF83
:105BF000011CFE20800503F0D1FF374903F0CEFFE2
:105C0000051C2849281C03F07BFD00281DD13349C1
:105C1000281C03F089FD002817D10027E66B391CEA
:105C2000301C03F067FD002800D12BE1216C281CFB
:105C300003F0A6FD44232064A562E35C0A2B00D197
:105C400061E10133DBB24422A354012325228021E8
:105C5000A3540132A354194A49005160124A1A4907
:105C60001361124A1361164A1361164A136B0B40F3
:105C70001363E4E688235B0085E5A0235B0082E5EF
:105C80003B0003225AE5C04600409C4500409CC5AD
:105C900000007AC300409C46005043486F12833A8C
:105CA0000000C842000048420001044800020050C1
:105CB00000000448000104400080BB440000044090
:105CC0000002044800000140FEFEFFFF7F0C0000C0
:105CD000FFFF0000286B6E4E00007A440000164360
:105CE000F96F1B03701C1B0F022B00D951E7002911
:105CF00009D006000A043000150C0903090F022917
:105D000000D95AE7401904F031FD904904F014F924
:105D100003F01EFD061E00D162E704F027FD8C494A
:105D200003F03CFF011CFE20800503F037FF89498A
:105D300003F034FFA664051C63E7786F79590A0401
:105D4000150C002A0AD00028D7D00604360C03030D
:105D500001361B0F022BCED930001AE70300F96F72
:105D600086B20028BDD1002900D020E738E7A3691A
:105D70007949181C984603F0C3FC002800D0ABE01A
:105D80007649404603F0D0FC4146002800D07349D4
:105D9000734803F003FFFE21890504F01FFA03F0A6
:105DA000D7FC03041B0C81B26E4A286053636E4813
:105DB000914602F0D1FD01226C4B1A61A0230F32F3
:105DC000DB051A612B6801339BB25B0898464B4692
:105DD00042464046DA6304F0C9FC002104F0ACF806
:105DE00004F054FC021C80B2404500D942464346B0
:105DF0009A1A92B2013BD3189BB2984600215A4896
:105E000002F0ACFD42460121574802F0A7FD0123F4
:105E100098464246554B1A61A0230F32DB051A61A2
:105E2000E08B04F0A3FC0023011C3360706003F0DE
:105E3000A7FC434600213373B0604A4802F0DCFC03
:105E40000021494802F07EFD8022494B52045A60ED
:105E50000223444A1361444A13610222454BFF3234
:105E6000196B0A431A631A6B43490A401A632723C2
:105E70004246E254053BE35C002B00D042E50023A0
:105E8000E36575E53D49281C04F056F83C49051CBE
:105E9000301C04F051F8011C281C03F071FCA062B6
:105EA000E063D2E60026A3E528002CE735489BE511
:105EB0003549364F48E50021404603F021FC0028D3
:105EC00000D179E57368381C191C984603F022FC50
:105ED000002800D170E56AE52D490B00080063E752
:105EE000B8681C4904F028F85823071CE05A04F04D
:105EF0003DFC011C381C04F071F92649071C04F014
:105F00001BF880460CE5244903F048FE0223E063B9
:105F1000276498E67968386804F00EF80D4904F0B3
:105F20000BF85A23071CE1E7A761381C03F010FCAB
:105F300004F01CFC011C2800FFF700FB18E51749C2
:105F4000381C03F0F9FF011CFEE4C04600007A4251
:105F5000286B6E4E00007A4400409C46007C12483C
:105F60000024744C00010448000200500000044862
:105F70000000044000000140FEFEFFFF8C2E3A3E70
:105F80005D74513F0000484200007A4300409C4548
:105F90007F0C00000000204000002041CDCC4C3D93
:105FA000C046FDE7024A1368013313607047C046DC
:105FB000240A0020014B18687047C046240A0020BC
:105FC000F8B590248A25E4056D0063591B070AD4AF
:105FD0008E26054F7600A1593800C9B200F0D4FCD6
:105FE00063591B07F7D5F8BD54070020F0B5DE460E
:105FF00057464E464546E0B5A3B000210C2212A8F4
:1060000004F08EFC80235B021393012310AA12A8D4
:10601000537202F0EFFAFBF751F8FA21FB4B8900BB
:10602000186803F0E5F9802301385B0498420DD22B
:10603000C021F74A09065060F648036A1B021B0A92
:106040000B430362002393600733136062B604209E
:1060500002F046FA022002F043FA082002F040FA69
:10606000012002F03DFAFFF71FF9EB4B18000493F3
:10607000FFF792F9012002F033FA02F0BFFE182276
:1060800000211CA804F04CFC0323E4481CA91D9328
:1060900002F0BEFE0321E24802F028FF0321E1489E
:1060A00002F024FFDD4802F0D5FE8021DE4ADB4805
:1060B0004358002B00DA92E31022002118A804F0C4
:1060C0002FFCDA4B072618932D2310AAD21816702E
:1060D000012118AAD24802F069FFA7230025D04A5F
:1060E0009B00D5509023189AD1491B030A401343B3
:1060F00018932D23FF27884610A9C9180F7018A9D7
:106100000A00C748002102F051FFA9234146C44AB2
:106110009B00D550189AC74B0A40134318932D2360
:1061200010AAD2181770002118AABE4802F03EFF2C
:10613000AB234146BB4A9B00D550189ABE4B0A4040
:10614000134318932D2310A9C9180F7018A90A001A
:10615000B448012102F02AFFAA234146B14A9B001C
:10616000D550189AB54B0A40134318932D2310A904
:10617000CB181F7018AB1A000421AA4802F016FFB2
:10618000A423A84A9B00D5501024052315A9A34891
:10619000994615931794169502F0B0FEC02302207D
:1061A0009E495B00CA58FE3F3A43CA50CA588246CD
:1061B0000243CA500433CA583A43CA50CA58024329
:1061C000CA50CA58FF302243CA50812292008B58CD
:1061D000FF3003438B501223994A834699481C93FE
:1061E000835A99490B4003318352FF311CAA02F0B4
:1061F00017FFB622934912018B5894483B438B50AA
:106200001CAA01211C951D9602F018FF00220121F5
:106210008E4802F033FF8E4B18AA00218B4818934A
:1062200002F020FF0822002118A804F079FB602367
:106230002022984610AB9B18424618A91A70854830
:1062400002F018FB834B0822DF6000211CA804F039
:1062500067FB302210AB9B1842461CA91A707E487F
:1062600002F008FB7C4B15AADF6004217B481595E2
:10627000169702F0E3F9902318AA0521774818939E
:10628000199702F0DBF9FA231E9490249B02E4058F
:106290001C93734B20001CA901221D93FAF772FF77
:1062A0000622E3692000B34313434A46E361A36A2D
:1062B0000021B3431343A362236B013AB343134357
:1062C000236390460023013202F04EFC012320009C
:1062D0000522202102F032FC20000022102102F0D1
:1062E0005BFC20000022132102F056FC8622C02312
:1062F000C2205200A158DB050B43A350594B80002C
:106300001958594A1140C02212020A431A505A46DB
:106310001A60236CF23AFF3A934693435246134372
:106320002364524C404B2000013A15A91695159351
:1063300002F06EFC4A46E3692021B3431343424610
:10634000E361236A4A48B34313432362A36A3C329E
:10635000B343A362E36AB343E362236BB3432363B0
:10636000E3690B43E361E3691343E361236A0B438E
:106370002362236A163913435A462362236C9343DC
:10638000424613432364F82318AA1893199702F07E
:1063900055F9F0231CAA0B2135481C931D9702F0D8
:1063A0004DF9A0200021C00502F030FA8023A02280
:1063B0005B00D205D360002108221CA804F0B0FACB
:1063C0000C212C481CAA02F039F90D2129481CAADD
:1063D00002F034F9002200211E48FEF71BFF0122C3
:1063E00003211D48FEF716FF234B99461800FFF7BF
:1063F000E3F84B4604989969FFF7A0F81F4B40213A
:1064000018000F9301F0B4F84A4639E0F83F002035
:1064100010E000E000ED00E0FC0500200000034873
:106420000004034800080348A0860100020027007A
:10643000FCFFF0FF02000B0002000A000200040053
:106440005C0B000000050140FFFEFFFF000601405D
:106450001020000000010050000400500001044022
:106460000008080100E100E0FF00FFFF0002004813
:106470000002044000000440B806002098060020F6
:1064800022231570D554D84A4E4693461568136892
:106490000393136807931368099313680893D34B06
:1064A0000A93D34B9A46D34B9846D34B1093D34B76
:1064B0000E93D34B11935B461C6853462100009307
:1064C000049A33000A9800F06DFA5223F35C002B13
:1064D00000D036E1A54200D1CDE0C722C94B9200E1
:1064E0009A580D92C92292009B5808321B051B0D29
:1064F0000693C54B9F58043A9D58183A9B582D0552
:106500001B051B0D0593C14B2D0D5B6A28009B07D6
:10651000DB0F0B9304F02AF93F053F0D0C90002D83
:1065200000D112E1011CBA4803F038FB051C4346B8
:106530001B680021181C994603F0DCF800280BD1D9
:1065400081214846C90503F0F7FC291C03F018F91E
:10655000B04903F023FB051C434638001D6004F0DE
:1065600005F9291C03F0E8FCAB4903F017FB0021F7
:10657000071C03F0BFF8002801D0FE27BF054346E3
:106580005B680021181C994603F0B4F800280BD171
:1065900081214846C90503F0CFFC391C03F0F0F80F
:1065A0009C4903F0FBFA071C43465F600B9B002BE2
:1065B00000D1DBE0994B9946059804F0D7F8291CE7
:1065C00003F0BAFC924903F009FE494603F0E6FAEB
:1065D0000590069804F0CAF8291C03F0ADFC8C491C
:1065E00003F0FCFD8E4903F0D9FA434606901B7A6E
:1065F000092B00D9ABE042460133D06813725346F1
:10660000524651461F60059B0C9D5360069A0861D7
:106610008A60CD6078216023755C9C46A9466D0038
:106620004D446D007519AC4463467E49381C0B938C
:1066300003F082FC04F02AF80B9F7A493880059811
:1066400003F07AFC2F0004F021F862377549388096
:10665000069803F071FC04F019F84B4603227821E8
:106660000133134064357354288053463000109A28
:106670000499FFF709F8039BE31A092B11D90122AA
:10668000542062494B6A5B08134033544B6A1A40EA
:106690005323F2543378022B6BD00E9801F0F0FCA8
:1066A0000394FA22099B9200E31A934203D33378AE
:1066B000012B25D00994079BE31A182B37D8FA220F
:1066C000089B5200E31A934218D3574B574A5A601B
:1066D0003378002B11D1FA23DB009C420DD3242305
:1066E000F25C223B002A04D1B28B002A01D07263F3
:1066F000013B0F98337000F0A5FE08942500DAE600
:106700002423F35C002BD5D1736B002B61D10123C3
:106710002422B354023AB3540133337000237380FC
:1067200033710A230F98736300F08CFEC2E70323D2
:106730007278119801321340737000F037FF07949C
:10674000BDE70F9800F0BEFEC4E6394DEFE60D9BA5
:10675000424618050023000D1372431E354A9BB2B2
:1067600093421AD934484346D86048E72C4B99469F
:1067700022E72321715C002A09D1B378022B05D0CE
:10678000002907D1012B88D1B17086E70023B370AF
:10679000002982D00123B3707FE703F0E7FF051CD7
:1067A000011C264803F01AFD011C281C03F0F6F911
:1067B00002F07CFC224903F0BFFB224902F0E0FF1B
:1067C000011CFE20800503F0E9F91F4903F006FDD6
:1067D000C9E7013B7363002B00D06BE797E7013AF1
:1067E000002A00D064E467E4240A00205407002053
:1067F000A4060020EC050020DC050020480700204E
:106800007C06002000040348000803480000044000
:10681000000020400000A040D044583BCDCC4C3D6F
:106820000AD7233D0000C8420001044008000800C8
:10683000BF49533AFD0F00000000C84100F07F45FA
:106840007CD483390FCF5B3B3393884370B5304D95
:10685000280000F07BF82F4C2F492200280002F07E
:106860001DFC2E4D280001F0B7F9220028002C490C
:1068700002F014FC2B482C492C4AC160C1628021D3
:1068800082602B4A502502612A4A002342618261BC
:10689000294A4900C26100220163F639416309397E
:1068A0004155013541550135435501354355253590
:1068B00043550835C26742518262C2630264C265B1
:1068C0008422835004320360436003624362836323
:1068D00041648364C3644365836583508C33C154CE
:1068E000703A0021603004F01BF8144D280000F0CD
:1068F000DDFC22001249280002F0D0FB114D2800D7
:1069000000F050FE280022000F4902F0C7FB70BDC6
:1069100054070020D8050020856900104807002092
:10692000E57B0010B8060020000070420000A04186
:10693000000034450050C3470A0088139806002021
:10694000CD7200107C060020A9750010B122002332
:10695000920010B503608350043283500432835098
:10696000C022040000215200043003F0D9FF2000AF
:10697000A022853000215200FF3003F0D1FF20001B
:1069800010BDC0467047C046B223C0229B0010B560
:10699000C4585200944204D2C258541CC4508018A7
:1069A000017110BDF0B54546DE464E465746E0B58E
:1069B0001E0090238B467021DB0590469A6C0500E3
:1069C000C3B0114200D0DA64B2242B1D9946A40052
:1069D0006F1D72B62A5962B62B78002B08D0012B96
:1069E0001FD043B0F0BCBB46B246A946A046F0BD9E
:1069F000032AF6D929796B79A879EA794B40434083
:106A00009A425AD072B62A5939004846013A03F0E0
:106A100075FF2B59013B2B5162B62B59032BD8D84C
:106A2000DFE7B3275946BF00EB59CB1A322B32D8D8
:106A3000C44BE85A873BFF3B9C46411E8BB26345E3
:106A400029D29042CDD82B1D9946002954D02A79BD
:106A5000012907D001234F46FC5C01336240994273
:106A6000FAD8B94669180B7993424AD072B6902287
:106A70008C238021D2055B000902D1508021C901FD
:106A8000D150B222002359469200AB500432A95093
:106A90002B7062B6A5E772B690228C238021D205B6
:106AA0005B000902D1508021C901D15000235A4610
:106AB0002B51EA512B7062B693E7AB7968791B02D0
:106AC0000343B120800029549E495BBA6B529E4B10
:106AD000EA5472B629002A594846043A083103F0AC
:106AE0000DFF2B59043B2B5162B6B3235A469B0032
:106AF000EA5001232B706CE7002269180B7993424E
:106B0000B4D12B799A4652468F4BEA54013BEB5C49
:106B1000022B49D02C008534FF34032B00D18BE0AD
:106B200000239A469846009372B6B227854BBF0061
:106B3000EB5AEA594846D21A0433E91803F0DEFE4C
:106B4000804AEB59AA5A9B1AEB5162B64346002B76
:106B500000D000E25346002B00D0E2E1009B002B66
:106B600000D111E1E423FF33A1469A4690278A26FB
:106B70008024A846AA44FF054D467600640100E043
:106B8000C046BB592342FBD190202978C00501356E
:106B9000FAF73EFBAA45F4D1B32345465A469B007B
:106BA000EA5000232B701CE7EB88684A934200D11F
:106BB00009E2674A934200D121E2664A934200D13A
:106BC000B0E2654A934200D184E0002B01D05BBA69
:106BD00033866B79012B00D166E2002B10D1222283
:106BE000B3545E4BDE325A6001235D4A5D49136146
:106BF0005D4A13615D4A13615D4A136B0B40136379
:106C0000A8685C4B00BAC2185B4B9A4200D816E2E7
:106C100002231A002C7B2240234200D109E20122E8
:106C20002133F254230700D503E3E40600D5F7E14E
:106C30002C008534FF3473E76B799846092B00D913
:106C40002DE25F1DFFB2BF012C00A0228534FF346E
:106C500020005200002103F063FEC223474A5B007C
:106C6000EA525F220233EA5488235246FF33EA5441
:106C700042460133EA54493BFF3B9A462B0022002F
:106C80008A33FF33BA44DB1BA84654461D009246A4
:106C90003900EA19A020043701F066FBBC42F7D1A5
:106CA00088234546FF332800EA5C2B00544689338D
:106CB000E330FF33FF30197801334A409842FAD16C
:106CC000F1235B00EA5400239A460133009300232A
:106CD000984629E72C00A0228534FF340021520079
:106CE0002000AF6803F01CFE86230122FF33EA5424
:106CF00001330232EA548823013AFF33EA54524600
:106D00000133EA548A2355222800FF33EA541C4BEE
:106D10003FBA8B30F918AB32FF3003F03FFE2B0047
:106D20005146184A8A33FF33AA1818780133414074
:106D30009A42FAD1134BE95401239A46002398460C
:106D40000093F1E6C6020000C5020000FFF000005B
:106D5000FFF10000FFF20000FFF30000000004401C
:106D600000010448FEFEFFFF00020050000204483C
:106D700000000140E0B1FFFF20BF0200035C000003
:106D800000B001108A020000A02200215200200061
:106D900003F0C6FD86235C22FF33EA54013BEB5C23
:106DA000D0495340C3225200AB54CF4BEF5C8823F1
:106DB000FF33EF54663BFF3BF25C6733FF33EA542B
:106DC000A822338EFF321B0AAB54D423328E5B00D1
:106DD000EA544C9B186803F0AFF803F057FCCA2341
:106DE000020EFF33EA5402140133EA54CC23021298
:106DF000FF33EA540133E8544C9BBA49586803F016
:106E00009BF803F043FCCE23020EFF33EA54021436
:106E10000133EA54D0230212FF33EA540133E85419
:106E20004C9BB049986803F087F803F02FFCD223FD
:106E3000020EFF33EA5402140133EA54D42302123F
:106E4000FF33EA540133E8544C9BA849186903F016
:106E500073F803F01BFCD623020EFF33EA5402142E
:106E60000133EA54D8230212FF33EA540133E854C1
:106E70004C9B5968186803F05FF89A4903F05CF876
:106E800003F004FCDA23020EFF33EA540214013348
:106E9000EA54DC230212FF33EA540133E8549149E7
:106EA000B06A03F049F802F053FCDE23020EFF3310
:106EB000EA54020C0133EA54E023020AFF33EA5495
:106EC0000133E8548B3BFF3BF25CE223FF332900A4
:106ED000EA542B00E3318933FF33FF311A78013351
:106EE00057408B42FAD1F1235B00EF54E423FF3388
:106EF000A1469A4690278A268024A846AA44FF05E0
:106F00004D467600640100E0C046BB592342FBD1E8
:106F100090202978C0050135FAF77AF9AA45F4D10D
:106F20003AE6734BA1469A4690278A268024A846C3
:106F3000AA44FF054D467600640100E0C046BB59F7
:106F40002342FBD190202978C0050135FAF760F97A
:106F5000AA45F4D120E6A02200212000520003F02F
:106F6000DFFC86230522FF33EA54013BEB5C55210D
:106F70005340C3225200AB5488225B4BFF32EB5C80
:106F8000A146AB540132A954552253408A22FF3204
:106F9000AB54C5235B009A4690278A268024A846D6
:106FA000AA44FF054D467600640100E0C046BB5987
:106FB0002342FBD190202978C0050135FAF728F942
:106FC0005545F4D1E8E54B4BAC689A4624BAA24447
:106FD0001F009A4508D93800FAF7B6F880235B01FC
:106FE0009C466744BA45F6D8434B1C6000232C00EE
:106FF0009A460093853401339846FF3494E529007E
:107000008022AC6852000C3102A803F0C7FCFAF7EA
:1070100091F8384B24BAE01802A9FAF7A9F8E5E785
:10702000242301222C00F2548534223B3370FF3498
:1070300076E5630700D4F5E52323F254F2E503F087
:1070400095FB2E49B061041C02F05AFB002822D1A6
:107050002B49201C02F068FB211C002800D0284985
:10706000284802F09BFDFE21890503F0B7F802F0E5
:107070006FFB03041B0C81B242461060224A234876
:10708000536301F069FC0122214B1A61A0230F32E6
:10709000DB051A61BCE51F490B000800ECE7A027DF
:1070A00000237F009846CFE522220021B3541648E2
:1070B00001F0A2FB0021154801F044FC8022164B90
:1070C00052045A600223104A1361104A13610222CB
:1070D000124BFF32196B0A431A631A6B10490A40AC
:1070E0001A638DE500007A44C502000000002041CB
:1070F0008B02000000B00110FC3F002000409C46C5
:10710000007C12480024744C000104480002005026
:10711000000004487F0C0000000004400000014013
:10712000FEFEFFFF8022554B52005A600123544A55
:1071300054491361544A1361544A1361544A136BFE
:107140000B40136322230022F254072808D9AB68AE
:10715000504A1BBA9846C62342445B029A420BD956
:107160004D4B4C4A1B689846C62342445B029A42E8
:1071700002D991235B0298462C00A0228534FF346B
:1071800000215200200003F0CBFB86230522FF33B1
:10719000EA540133EA5488225521404BFF32EB5C1C
:1071A0009027AB540132A954552253408A22FF3212
:1071B000AB54C5235B009C46AC44634601938023DB
:1071C0005B019A460094FF0500E0C0468A235246C0
:1071D0005B00FB581342F8D19020009BC005197842
:1071E000FAF716F8009B019A013300939342EDD110
:1071F0008A22802390205200B9581B01C0051942F1
:1072000003D1C04681581942FBD000230293029A51
:10721000234B19009A4206D8C046029B01330293C1
:10722000029B8B42F8D942461E491F4804F020F8C1
:1072300076E4320004210832A02001F02DF832005B
:1072400008210C32A02001F027F832000C21103266
:10725000A02001F021F8320010211432A02001F00A
:107260001BF8320014211C32A02001F015F8320066
:1072700018211E32A02001F00FF8D6E400000440CF
:1072800000010448FEFEFFFF000200500002044817
:107290000000014000FCFFFFFC3F0020C502000091
:1072A0003F0D030000B00110001000101422002355
:1072B0004270103A82700432027138320370C37027
:1072C00042718371C37103727047C0467047C046F4
:1072D00010B5047900220C4341790B4801F0D0FC31
:1072E00004210948214301F025FD022001F0D6F8D0
:1072F0002100054801F01EFD034801F001FD0520B5
:1073000001F0ACF810BDC04600020048F8B5CE460A
:10731000474680B50D00417900294BD02D4B98464A
:1073200050234246D35C002B44D05223D35C002B25
:1073300040D188270379284C9946E36CBF003B4332
:1073400000222000E36401F09BFCFEF733FE060000
:1073500004E0FEF72FFE801B042835D8A36C3B42C7
:10736000F7D02023A26C134228D180234946E26C37
:107370009B001343E3642943174801F0DBFC882694
:10738000FEF718FE144C0500B60004E0FEF712FEEE
:10739000401B042818D8A36C3342F7D02023A26CDA
:1073A00013420BD18023E26C9B0013430A48E36431
:1073B00001F0A6FCC0BCB946B046F8BDE26C064878
:1073C0001343E36401F09CFC522301224146CA545A
:1073D000F0E7C046B806002000020048F8B50F23C9
:1073E0000E00CE4647469E43164380B5894631007F
:1073F00005001400FFF78AFF042331000427984694
:1074000039432800C9B2FFF781FF43463100280005
:107410009943FFF77BFF4B461B011C43E4B2280056
:1074200021002743FFF772FF2800F9B2FFF76EFF34
:107430004346210028009943FFF768FFC0BCB946C6
:10744000B046F8BD10B500220121FFF7C7FF0220AA
:1074500001F004F800F098F810BDC046F0B585B012
:107460006D460C4B8C46C2CBC2C51B686C462B606C
:107470008378934201D8013BDAB280219200A3586D
:107480004942634419430022C9B2FFF7A7FF05B080
:10749000F0BDC04680B2001070B50E00097805003E
:1074A0000024002908D10BE0012228000134FFF755
:1074B00095FF315D002903D06A78E3B29A42F3D890
:1074C000012070BDF8B50226274D0400280001F008
:1074D00089FCAE66EB6C0F223343EB64EB6C01234B
:1074E00004275B42EB642B6C322093433B432B64B9
:1074F00000F0B4FF20003021FFF7EAFE2000302129
:10750000FFF7E6FE20003021FFF7E2FE20002021F9
:10751000FFF7DEFE2023A179200019430022FFF7A8
:107520005DFF2000E77100220C21FFF757FF0022CA
:1075300001212000FFF752FF022000F08FFF200002
:10754000267200220621FFF749FF002202212000B7
:10755000FFF744FF022000F081FF00F015F85222EF
:107560000021024B9954F8BD00020048B8060020E3
:107570000123827810B593429B415B42DB0041714D
:107580008371FFF79FFF10BD542210B500210348FF
:1075900003F0C6F9FF22024B1A7010BD280A002022
:1075A000000600207047C0467047C046F0B545460B
:1075B00057464E46DE460023E0B5D24F95B00371E4
:1075C0003B78D14D99467B78040098462B784B4503
:1075D0004DD1CE4B9B46FB78002B44D1BB781A0093
:1075E00003934B4664255D4343469B00C84E43448A
:1075F0005B00ED187368AD18181C25609A4603F0FF
:1076000045F8059003F062F8011C504602F0E6FDD3
:10761000C04902F091FC03F039F8B368BD49049306
:1076200033680690079333690893BB6A0993BB6874
:10763000181C9A4602F080FC01F068FDFF2306004A
:107640005B009D4200D15CE21BDCE82D00DD92E096
:10765000C72D00DCFDE0C83D202D00D907E1AE4B71
:10766000AD005B599F46002300220393B9E7A74B67
:107670005422180000219B4603F052F94B462B7010
:10768000A9E7E1239B009D4200D145E231DCA34BF9
:107690009D4200D1F6E000DDAEE0A14B9D4200D15D
:1076A00028E25A339D4203D0643B9D4200D0A7E0BC
:1076B0007E699C49301C02F071FA02F0E7FF050078
:1076C00003F004F8974902F037FC011C301C02F06B
:1076D00085FD954902F062FA02F0D8FFC24303002B
:1076E000D217261D134030002A00904903F0E4F819
:1076F00017E08B23DB009D425DDA8D4B9D4200DD60
:10770000EAE16D3B9D4200D1DFE18A4B9C46654436
:10771000012D00D974E0261D13223000864903F0A4
:107720003DF923790EAD002B6CD0142220212800C6
:1077300003F0F6F8002330002B7503F038F902004F
:10774000142800D914223100280003F027F94346F9
:107750005B004344DA00D31A5B44290018001C0084
:1077600003F012F9002837D115B0F0BCBB46B24681
:10777000A946A046F0BDC8235B009D4200D1B2E1FE
:1077800064339D423CD1FE68301C02F07FFF05004F
:1077900002F09CFF011C301C02F020FD5D4902F04C
:1077A000CBFB02F073FF261D03002A003000634963
:1077B00003F082F8B5E7624B9C466544012D1FD863
:1077C0005423FB5C261D002B00D1BFE15D4A18212C
:1077D000300003F03DF8A4E729001522200003F053
:1077E000DDF8594C424620000021FFF737FE290002
:1077F0002000FFF751FEB7E7C8239B009D423AD017
:10780000002323714B46032B11D90EAD4F4E8CE74D
:10781000FEF7D0FB4E4901F0EBFD261D02004D495D
:10782000300003F049F82379002B00D0FEE00EADC4
:107830004346032BEAD8039B002BE7D14B469B0022
:10784000454A43449B009E58002E00D06DE73F4EB2
:107850006BE76E2D0BD1261D30007A6B3F4903F08C
:107860002BF823790EAD002B00D05EE7E0E7002374
:107870000EAD2371DCE7261D3000BA8B384903F0CA
:107880001BF84EE7261D0C223000364903F086F81F
:1078900047E7BE692349301C02F080F902F0F6FE8A
:1078A0000BAB9A46050002F011FF1E4902F044FBA3
:1078B000011C301C02F092FC1B4902F06FF902F02F
:1078C000E5FEC343DB1718400B21274B274A0190E5
:1078D0000095504602F0BCFF2221795C0EAD244B8E
:1078E000244A009128000B21261D02F0B1FF2B0035
:1078F00052463000204902F0DFFF2379002B00D0F0
:1079000013E795E7B806002000060020280A0020AB
:10791000A40600200000C84278B40010C60200008F
:107920006202000000007A440000204170B30010A1
:1079300055040000B4FBFFFFC4B2001060B3001098
:10794000A0FBFFFFBCB200109806002074B400102A
:1079500080EE360058B30010FCB40010D8B200100E
:1079600098B300108CB30010DCB20010E0B200102D
:10797000F0B20010F4B20010FCB20010398C7A4B57
:107980007A4A00910BA80B2102F062FF0699784B0E
:10799000C8170918414001910599764A0EAD00912A
:1079A0000B21280002F054FF261D2B0030007249E5
:1079B0000BAA02F081FF2379002B00D0B5E637E750
:1079C000079B181C9A4602F061FE070002F07EFE3B
:1079D000011C504602F002FC684902F0ADFA02F0C8
:1079E00055FEC317664E634DC01858402A00330039
:1079F0000B21019000970BA802F02AFF089802F0D3
:107A000045FE604F604E0EAD00903B0032000B21F2
:107A1000280002F01DFFC7E7261D0E2230005B493B
:107A200002F0BCFF2379002B00D100E70EAD7CE60D
:107A3000049802F02BFE8246398E0BAD544B554A0A
:107A4000280000910B2102F003FF504602F03EFE99
:107A5000011C049802F0C2FB484902F06DFA02F0E2
:107A600015FEC317C018584053464B4F414E009364
:107A700032003B000EAD019092E70BAB09989A469D
:107A800002F004FE454E394D330000902A000B21D0
:107A9000504602F0DDFE2523FB5C002B58D0404908
:107AA0000EAD404B404A009128000B21261D02F0EC
:107AB000CFFE2B00524630002F4902F0FDFE237905
:107AC000002B00D031E6394E2FE6261D3000FA8B10
:107AD000374902F0F1FE24E6261D07223000354921
:107AE00002F05CFF1DE62323FB5C261D002B2BD040
:107AF000314A6CE6261D0B223000304902F04EFF61
:107B00000FE6069B261DDA179B18534030002C49C0
:107B1000059A02F0D1FE04E6504602F0B7FD64215A
:107B20000500300001F0D4FD50460F00002101F0A7
:107B3000E7FD00280ED1261D2B0030001B4A2149ED
:107B4000009702F0B9FEECE51F4A40E61F4A3EE608
:107B50001F49A5E7261D7F4230001E4A19496B4286
:107B6000009702F0A9FEDCE508B30010F4B20010A3
:107B70000CB30010E0B20010FCB200100000C842CC
:107B800010B3001014B3001018B3001024B3001089
:107B900034B3001038B3001044B3001048B30010E1
:107BA00090B200104CB3001050B3001074B4001029
:107BB000BCB30010CCB3001094B2001080B300101E
:107BC00060B30010ACB30010A8B20010C0B2001037
:107BD000B8B20010A8B30010012303600023436073
:107BE000836070477047C046002370B55E4C050047
:107BF000A370E378002B0AD10123E37002332370D2
:107C0000002323710A3363630A336B7070BD4378BA
:107C1000502B00D18FE00CD96E2B00D186E028D8F4
:107C20005A2B15D0642BF1D10A232370643343708F
:107C3000ECE73C2B00D183E014D8282B0DD0E5D8FD
:107C4000142B00D085E00423237024334370DDE738
:107C5000092323705B334370D8E705232370373340
:107C60004370D3E7462BD1D10723237049334370A8
:107C7000CCE7782BCAD1220004210832A02000F0E2
:107C80000BFB220008210C32A02000F005FB220093
:107C90000C211032A02000F0FFFA22001021143233
:107CA000A02000F0F9FA220014211C32A02000F0DC
:107CB000F3FA220018211E32A02000F0EDFAA0698C
:107CC00001F046FD02F052FD2849061C01F018FDA6
:107CD00000283AD12649301C01F026FD311C00282D
:107CE00000D02349234801F059FFFE21890502F005
:107CF00075FA01F02DFD03041B0C81B21E4A1060C1
:107D00001E4A1F48536300F027FE01221D4B1A61D3
:107D1000A0230F32DB051A61022300222370002307
:107D200062800A32237162636B706FE70B232370EA
:107D30006D3343706AE7082323705233437065E75D
:107D4000062323704033437060E70F490B0008009F
:107D5000D4E7142B00D959E7002B00D14CE70A2BAC
:107D600000D053E748E7C046B806002000409C46D4
:107D7000007C12480024744CFC05002000010448DB
:107D800000020050000004487F0C000070B5474C12
:107D900022780A2A09D846499300CB589F462223C5
:107DA000E25C002A01D10122E25470BDE378002B8D
:107DB000FBD0062A60D03F493F4E6569281C01F080
:107DC000A9FC00285BD0311C281C01F0D9FC3B49E0
:107DD0006061A061051C01F093FC002850D0384977
:107DE0000B000800374A1060374A3848536300F0E8
:107DF000B3FD0122364B1A61A0230F32DB051A6155
:107E0000D3E7E378002BD0D09622A38B5200934285
:107E1000CBD20133A383C8E7E378002BC5D0A56894
:107E20002C49281C01F06CFC0028BED02A49281CD3
:107E300001F0A6FCA060B8E7E378002BB5D0E38B97
:107E4000264A9342B1D86433E383AEE7E378002B4C
:107E5000ABD02323A7E7E378002BA6D0E568204921
:107E6000281C01F057FC00289FD01B49281C01F05A
:107E700087FCE060E06298E71A491B4E9DE7A56128
:107E80001A49281C01F050FC291C002800D0174971
:107E9000174801F083FEFE21890502F09FF901F0E9
:107EA00057FC03041B0C81B29CE7C046B8060020B7
:107EB0003CB5001000D3D6470000204100409C464E
:107EC0007F0C0000FC050020000104480002005067
:107ED000000004480000A041CDCCCC3D8713000039
:107EE0009A99774200A6D6470000C842007C124803
:107EF0000024744C70B54F4C22780A2A0ED84E4993
:107F00009300CB589F4624230122E2540022023BD7
:107F1000E2544A48203B2370FFF794FA70BDE3789F
:107F2000002BFBD0062A76D04549464E6569281CB1
:107F300001F004FC002871D0281C311C02F04EF91D
:107F4000051C6061A0614049281C01F0EDFB291C63
:107F5000002800D03C493D4801F020FEFE21890563
:107F600002F03CF901F0F4FB03041B0C81B2384A27
:107F70001060384A3848536300F0EEFC0122374B5A
:107F80001A61A0230F32DB051A61C7E7E378002BE3
:107F9000C4D0A38B012BC1D9013BA383BEE7E378F7
:107FA000002BBBD0A5682E49281C01F0BDFB002882
:107FB000B4D02C49281C02F011F9A060AEE7E37898
:107FC000002BABD0E38B284A9342A7D9643BE383D1
:107FD000A4E72223E25C002AA0D00022E2542287F8
:107FE0009CE7E378002B99D023230022E25495E705
:107FF000E378002B00D191E7E5681C49281C01F0CB
:108000009DFB002800D189E71649281C02F0E6F8FC
:10801000E060E06282E71649164E87E71649A561DF
:10802000281C01F06DFB00288DD014490B000800BE
:108030009DE7C046B806002068B5001098060020ED
:108040000009A64700002041007C12480024744C1F
:10805000FC05002000010448000200500000044814
:108060000000A0C1CDCCCC3DDC0500003333A340E3
:108070000036A6470000C84200409C467F0C000026
:1080800070B50378040082B0002B01D102B070BD3E
:10809000FDF790FF7A4906004A6AA378920602D556
:1080A0004A6AD2060FD4774DEA78012A01D10A2113
:1080B0006963012B6CD0032B62D0002BE6D1013316
:1080C0006660A370E2E74A6A1207ECD5012B00D183
:1080D0008CE06B494A6AD2067DD46A4DEB78012B5D
:1080E000D4D16368F61A684B9E42CFD96748FFF730
:1080F000A9F9674B01AA009300230021A020019356
:1081000000F032F9019A009B9A4200D192E06A464F
:108110000021A02000F0C0F82A0004210832A0208D
:1081200000F0BAF82A0008210C32A02000F0B4F8C0
:108130002A000C211032A02000F0AEF82A001021F5
:108140001432A02000F0A8F82A0014211C32A0202C
:1081500000F0A2F82A001821A0201E3200F09CF89E
:108160006B690022AB61EB686A80EB62EB8B0A32D1
:108170002B8402232B7000236A632B71637085E7C5
:108180006368F31A322B00D880E70023A3707DE7E1
:108190006368F31A642B00D878E73948416AC90646
:1081A00010D53748416A890627D4002A36D1394A82
:1081B000934200D86AE72000FFF716FD03236660AC
:1081C000A37063E7416A0907EBD461781429E8D109
:1081D0000223A3705AE74A6A120700D47DE7022BF4
:1081E00000D07AE72000FFF7FFFCCEE7FA216268B3
:1081F0004900821A8A42C8D86BE7436ADB0612D567
:10820000436A1B0700D541E72000FFF773FE0323F5
:108210000122A37021336660EA5437E76378142B98
:1082200000D133E7C7E72000FFF7B0FD0323666006
:10823000A3702BE72A0004210832A02000F094F854
:108240002A0008210C32A02000F08EF82A000C2110
:108250001032A02000F088F82A0010211432A0204B
:1082600000F082F82A0014211C32A02000F07CF8D3
:108270002A0018211E32A02000F076F870E7C046D0
:1082800000000440B80600201027000098060020D7
:108290005833121788130000F0B5C64600B582B0F7
:1082A0006F460B0AC9B210780902DBB20B43517852
:1082B0000004090603430B43009393783B71D37882
:1082C00000227B71254B984650234146CA542449CD
:1082D0008B6B1B0609D58020224B02E0013B002B53
:1082E00003D0C0468A6B1042F8D10022A0211C485E
:1082F00000F0C6FC6B468025194C9E1DA36B1D42E9
:1083000008D0184B02E0013B002B03D0C046A26B03
:108310001542F8D139781248013700F00BFDBE4202
:10832000ECD1A36B1B060AD580210E4B0C4802E052
:10833000013B002B03D0C046826B1142F8D10848A4
:1083400000F0DEFC0A2000F089F8502301224146AB
:108350000120CA5402B080BCB846F0BDB806002067
:1083600000020048E7030000CBB2F0B5C646140097
:10837000984600225023364E0F0A364900B5F25473
:108380008B6BFFB21B0609D58020334B02E0013B0B
:10839000002B03D0C0468A6B1042F8D12D4D00222D
:1083A000A021280000F06CFCAB6B1B0609D58022D5
:1083B000294B02E0013B002B03D0C046A86B0242D0
:1083C000F8D1244D3900280000F0B4FCAB6B1B063B
:1083D00009D58022204B02E0013B002B03D0C04690
:1083E000A96B0A42F8D141461A4800F0A3FC0120CB
:1083F00000F034F80122A021164800F061FC0120B1
:1084000000F02CF8E51C271D1248AC4215D000F0F6
:10841000A7FC012000F022F80E4800F0D5FC2070E7
:108420000134BC42F0D10B4800F06AFC5023012219
:108430000120F25480BCB846F0BD00F0ABFC012036
:1084400000F00CF8034800F0BFFC2070EBE7C046DA
:10845000B806002000020048E7030000FA210E4B96
:1084600070B589000400186800F0C2FF0100060022
:108470000320404200F0BCFF0500A04206D20320CA
:10848000404200F01DF8641BA542F8D32000704361
:1084900000F016F870BDC046F83F0020064B10B53E
:1084A000040018680549013800F0A2FF013060435C
:1084B00000F006F810BDC046F83F002040420F0013
:1084C0000230800803D00138FDD1C046C046C04606
:1084D0007047EFF3108072B6704780F310887047D2
:1084E000C0230421084A5362536A1942FCD18021F7
:1084F000064AC90513691843106113680B42FCD181
:10850000C322014B5A627047000001400003014042
:10851000034B9B6803405A1E9341D8B27047C04634
:1085200000030140F8B5C0230D0004242C4A536217
:10853000536A1C42FCD12B4A2B4B1468116824044B
:1085400019402A4B29430B438021240E1360C9058F
:1085500013680B42FCD1844229D98600B44212D957
:10856000234B80219C461F4A204FC905654613684E
:10857000A4082B4025022B433B43136013680B4296
:10858000FCD1B442F2D8174A1949136800020B40D3
:10859000164903430B4380211360C90513680B423E
:1085A000FCD1C3220E4B5A62F8F788FDF8BDA30038
:1085B0009842E8D980210B4A0D4F0C4EC905251E63
:1085C00000D101351368AC003B40AD022B4333436F
:1085D000136013680B42FCD1A3009842EFD8D2E796
:1085E000000001400003014000FF0FC00000F03F09
:1085F000FF000FC0C02304210A4A70B55362536ABA
:108600001942FCD145688368074C2B432168074D0C
:1086100029400B432360C323536201784078FFF75E
:1086200081FF70BD0000014000030140FFFFF0FF2B
:10863000014B18687047C046F83F0020F0B5474628
:10864000CE46032480B52700F8260F40FF00BE4029
:108650008B089B00C3181D69B5434E00B4401D61D3
:10866000456F0426A543CC08A40045670419256C72
:10867000A84607250D40AD00AE40A9464546B54386
:1086800025644D46266CB4465678AE4035006646A5
:10869000354325640C4CA04210D000255557147862
:1086A000002D02DA52688A4042602200BA401969FD
:1086B0000A431A61C0BCB946B046F0BD01258D40E1
:1086C000046EAC430466E8E700020440094B70B551
:1086D00005000C00984209D080235B00EB602B68FA
:1086E000054AA40313401C432C6070BD0420FFF70F
:1086F000F7FEF1E700000448FF3FFFFF0B6843610E
:108700004B799B06DB0F1B0543600B791B071B0F87
:1087100043624B791B071B0F03624B79DB06DB0FB0
:1087200083610B791B09C3627047C0460B684361C4
:108730004B79DB07DB0A43600B791B071B0F436296
:108740000B791B09C362704710B503244368A34328
:10875000194341604369012A03D0044A134043612D
:1087600010BD8022D2001343F9E7C046FFFBFFFF94
:108770003022436809019343194341607047C04662
:10878000C022436889019343194341607047C04642
:10879000F0B54C1EE4B26500EDB22F000323103794
:1087A000FFB2C6469846BB409C46066800B53300FB
:1087B0006646B3439C4653781531BB40CFB2012186
:1087C0006646B94033438B4391784646B9401935E4
:1087D000EDB21943D378AE40AB40B1430B43A10097
:1087E0000F241278C9B28C408A40A343134303601C
:1087F00080BCB846F0BDC04602224369002902D1C0
:1088000093434361704713434361FBE7A02370B573
:10881000DB0505000C00984209D080235B00EB606B
:108820002B68054AA40313401C432C6070BD022032
:10883000FFF756FEF1E7C046FF3FFFFF012303614C
:108840000B688A6843614B7BDB06DB0F1B054360CB
:108850000B7B1B071B0F43620B7B1B09C3624B7B0C
:108860001B071B0F03624B6883611423534083640F
:108870007047C046012303610B6843614B79DB07F6
:10888000DB0A43600B791B09C3620B791B071B0FC3
:108890004362704710B503244368A3431943416002
:1088A0004369012A03D0044A1340436110BD80226A
:1088B000D2001343F9E7C046FFFBFFFF30224368B5
:1088C00009019343194341607047C046C022436881
:1088D00089019343194341607047C046F0B54C1E6F
:1088E000E4B26500EDB22F0003231037FFB2C64695
:1088F0009846BB409C46066800B533006646B343C5
:108900009C4653781531BB40CFB201216646B94031
:1089100033438B4391784646B9401935EDB219433C
:10892000D378AE40AB40B1430B43A1000F24127883
:10893000C9B28C408A40A3431343036080BCB8464D
:10894000F0BDC04602224369002902D1934343612E
:1089500070471343FBE7C04641637047002901D1CC
:10896000C26370474264FCE77047C046902310B56D
:10897000DB05040098420DD00B4B98420AD003232C
:108980000122E360E3681A42FCD00F22236C934378
:10899000236410BD0820FFF7A3FD0820FFF7B8FDF2
:1089A0000028FAD1EBE7C04600020048F0B5DE46E9
:1089B00057464E464546E0B583B001900C00012075
:1089C0000092632901D9002A06D103B0F0BCBB464E
:1089D000B246A946A046F0BDFFF72AFE642100F08A
:1089E00007FD64210600200000F002FD194B009FE6
:1089F000994601239A468023DB009B461C0098463B
:108A00004743B5023900280000F0F2FC830A4345D1
:108A100006D88005800D814502D981469A46A34635
:108A2000013CAD1B002CEDD15B4680220198120267
:108A3000013B13430361009B42690749013B9B02D1
:108A40000A401A435346013B1B0413434361002071
:108A5000BBE7C046FF030000EF8000FCF0B55746BF
:108A60004546DE464E461400E0B583B00D00824612
:108A700001910092FFF7DCFD23006B43070098464D
:108A800001209F4249DD1900380000F03BFD294BD1
:108A90000600984248D942460125994656003100C1
:108AA000380000F02FFDAB46040001354644484530
:108AB000F5D85B4606001B049B466E430099631C79
:108AC000694338005943984600F092FC019B009995
:108AD0001D1AEB17ED18380071435D4000F088FC5B
:108AE000019B181AC317C0185840854200DBA046E6
:108AF00080224346D200D21A8023DB011343524620
:108B00001361009B52690C49013B0A409B021343CD
:108B10005A46134352460020536103B0F0BCBB4693
:108B2000B246A946A046F0BD002304009B4601259D
:108B3000C4E7C046FE030000EF8000FC70B584244B
:108B400064000559064E1206354005510A431B02C2
:108B500005591A43034B1D402A43025170BDC046BC
:108B6000FFFFFFF8C0C0FFF870B586256D004459BF
:108B7000074E1206344044514459064E1B023440FD
:108B80000C4314431C4380235B052343435170BDB6
:108B9000FFFFFFF8C0C0FFEF30B5072486258C40EB
:108BA0008A406D004359A3431343435130BDC0462F
:108BB0000300144810B581420AD8D86B124C2040EB
:108BC000D863002A14D00A221800FFF747FF10BD0F
:108BD0000E4C0120A142FAD88020DC6B8002204399
:108BE000D863002A09D019221800FFF737FFEEE7F3
:108BF0000A221800FFF7DAFEE9E719221800FFF74A
:108C0000D5FEE4E7A0860100FFFFFDFF801A060005
:108C100070B504000D001600FFF7A8FEF822F02141
:108C2000164BD2016363EB88C9011A408A4210D007
:108C3000E06B1B02000C00040343E363002E16D11B
:108C4000A023DB00A36301235B42E36400232364CE
:108C500070BDFF21E26B1940120C12040A43FE2181
:108C60005B0009020B401343E363002EE8D02000B1
:108C70002A792968FFF79CFFE2E7C04603033F0714
:108C8000012A18D08023DB00194384235B00C258DB
:108C9000E023DB041A4203D0C0235B00C1507047BD
:108CA000836B1B06FCD48023C26C9B011343C364FB
:108CB0008023C150F3E7014B1943E6E701040000AC
:108CC000012A18D0A023DB00194384235B00C2587B
:108CD000E023DB041A4203D0C0235B00C15070477D
:108CE000836B1B06FCD48023C26C9B011343C364BB
:108CF0008023C150F3E7014B1943E6E7010500006B
:108D000084235B00C258E023DB041A4205D0C02351
:108D1000C0225B00D200C2507047836B1B06FCD49C
:108D20008023C26C9B011343C022C3648023D20002
:108D3000C250F1E784235B00C258E023DB041A42EF
:108D400003D0C0235B00C1507047836B1B06FCD46B
:108D50008023C26C9B011343C3648023C150F3E79B
:108D600084235B00C258E023DB041A4205D0C023F1
:108D700080225B009200C2507047836B1B06FCD4BC
:108D80008023C26C9B0113438022C3648023920022
:108D9000C250F1E784235B00C258E023DB041A428F
:108DA00005D0C023C0225B009200C2507047836B85
:108DB0001B06FCD48023C26C9B011343C022C364F6
:108DC00080239200C250F1E786235B00C258E02363
:108DD000DB041A4202D1406DC0B270478E235B00A3
:108DE000C058F9E7836B1B0605D40F22036C93432D
:108DF0000364002070470220FCE7C046FF2210B544
:108E0000024B01201A60FFF76BFB10BD000501400B
:108E1000FF2270B50D0004000D4B01201A60FFF712
:108E20005FFB6B696A68236080231B021343802207
:108E3000A350A023AA68E250EA680433E2502A69EA
:108E4000DD33FF33E2502A68C93BFF3BE25070BD7F
:108E5000000501408022802381581B060B43C0215E
:108E60008350204B89029858084207D18022C021A4
:108E70001D4B8902985808421DD1704780219A588D
:108E8000890580200A4203D1C0461A580A42FBD005
:108E900080238021134A4905D3580B42E6D0802015
:108EA000C04613580B42FBD18022C0210E4B8902D1
:108EB00098580842E1D080219A58890580200A42BA
:108EC00003D1C0461A580A42FBD080238021064AAB
:108ED0004905D3580B42D0D08020C04613580B42CE
:108EE000FBD1CAE70004034800080348802210B5FC
:108EF00003248358A3431943815010BDF0B546465F
:108F0000D6464F468422C0B5234E244CB358244D38
:108F10002340B350AB5823400324AB500B781C4084
:108F200027009A46A446B3587C1EA7411D4CFF0259
:108F30002340A0461C0053461B079B0F1B021C43EB
:108F40003C43B4504646AC58344023431F43AF50D3
:108F50004A68154B134380229200835001238A688C
:108F600013438122920083506346022B04D1802355
:108F700081585B020B438350842380220648D2042D
:108F8000C1581143C1500649C8580243CA50E0BCF9
:108F9000BA46B146A846F0BD00040348FFFFFFFBF8
:108FA00000080348FFFCFFFF00808000012370B52C
:108FB00088258B4044599C43137B8B40234343516A
:108FC0000D23D356002B0EDB01291BD0002904D121
:108FD000B0251F264459B44344510026B024B34061
:108FE00005592B430351C8240359556880312B433D
:108FF000035108349568035989002B4303511368C2
:109000000B5070BD28354459044E34400826445155
:10901000B024B34005592B430351E4E7FFE0FFFFC1
:1090200010B5802489004018034912684358640031
:1090300023401343435010BD5C0B000070B50C007F
:1090400005001600FFF790FC0F22A1008A402B6854
:10905000043493433268A4008A4013432B6073683E
:10906000635170BD70B516000C0005000834FFF7A1
:109070007BFC3368A400635170BDC04610B5072463
:10908000043189000B58224069341201A343134371
:1090900001220B500B5813430B5010BD030010B5A9
:1090A0000800190001F0C6FB10BD000070B5041CDB
:1090B00000F058F8211C051C201C01F0D1FA0028F2
:1090C00010D10021201C00F02FFB00280AD1002124
:1090D000201C00F00FFB002806D001F029FC222301
:1090E000064D0360281C70BD01F022FC21230360A3
:1090F000034800F007F8051CF4E7C046000080FFB5
:1091000074B40010004870470000C07F4200031C88
:10911000120EC043110010B50224C01720407F3941
:1091200001381E290CDC002916DB80245B025B0A57
:1091300024042343162907DD963A9340584310BD73
:10914000181C01F0A3FAFAE78022D2030A41D318CF
:109150001722521AD340F1E77E3A53425A41524203
:109160001040ECE7F8B5DE4657464E46454642000D
:10917000E0B5002A46D0021E4FDBFF21C905884218
:1091800000DBC6E0802300211B04984206DA982108
:10919000C90500F0D1FE192102004942D3157F3BD9
:1091A0005B1880215202540A834AFE200904A21847
:1091B0000A40FE2180055040D61520438905F61847
:1091C00001F00CF822007D4B0F32051C1A422BD106
:1091D000002100F08FFA002800D19EE00020002E30
:1091E00015D0300001F072FA7549041C00F0A4FE9D
:1091F0007449051C201C00F09FFE011C281C00F077
:10920000BFFA04E0CC200021000600F0C7FCF0BC4F
:10921000BB46B246A946A046F8BD011C00F0DEFFE1
:10922000002100F0BBFCF2E78021C90500F0A8FA9C
:10923000011C281C00F0B2FC8046300001F046FA08
:1092400041468146404600F077FE5F4B011C9A463E
:10925000834600F071FE5D49071C00F06DFE5C491D
:1092600000F08EFA391C00F067FE5A4900F088FAC7
:10927000391C00F061FE584900F082FA594600F0AE
:109280005BFE56498346381C00F056FE544900F0F8
:1092900077FA391C00F050FE524900F071FA391C7F
:1092A00000F04AFEA244011C584600F069FA5246FA
:1092B0004D4B071C1B1B1343002B48DDFC21281CB6
:1092C000890500F039FE291C00F036FE011C041C43
:1092D000381C00F055FA414600F02EFE071C002E07
:1092E00049D03749484600F027FE3649061C484613
:1092F00000F022FE391C00F043FA011C201C00F093
:109300006DFF291C00F06AFF011C301C00F066FF95
:109310007DE7011C00F034FA79E73449281C00F09D
:109320000BFE011CFC20800500F058FF291C041CCA
:10933000281C00F001FE011C201C00F0FDFD041C97
:10934000002E21D1211C281C00F048FF5FE7011CE2
:10935000281C00F043FF414600F0EEFD041C002EE7
:10936000F0D04846164900F0E7FD1649061C48466D
:1093700000F0E2FDC1E7011C201C00F02FFF011CE2
:10938000281C00F02BFF42E7300001F09FF90C4948
:10939000061C00F0D1FD0B49071C301C00F0CCFD71
:1093A000011C201C00F01AFF291C00F017FF011CF3
:1093B000381C00F013FF2AE720FB4A00F0FF7F0073
:1093C0008071313FD1F71737305CCFFF9788173E58
:1093D00025333A3E2549923EABAA2A3F4FD01C3E48
:1093E000298E633ECDCCCC3E88C23500ABAAAA3EC6
:1093F000002243088B4274D303098B425FD3030AD4
:109400008B4244D3030B8B4228D3030C8B420DD3E6
:10941000FF22090212BA030C8B4202D31212090274
:1094200065D0030B8B4219D300E0090AC30B8B42B2
:1094300001D3CB03C01A5241830B8B4201D38B0360
:10944000C01A5241430B8B4201D34B03C01A524105
:10945000030B8B4201D30B03C01A5241C30A8B4248
:1094600001D3CB02C01A5241830A8B4201D38B0233
:10947000C01A5241430A8B4201D34B02C01A5241D7
:10948000030A8B4201D30B02C01A5241CDD2C30949
:109490008B4201D3CB01C01A524183098B4201D3C5
:1094A0008B01C01A524143098B4201D34B01C01AB0
:1094B000524103098B4201D30B01C01A5241C30828
:1094C0008B4201D3CB00C01A524183088B4201D397
:1094D0008B00C01A524143088B4201D34B00C01A83
:1094E0005241411A00D20146524110467047FFE7EF
:1094F00001B5002000F0F0F802BDC0460029F7D009
:1095000076E7704703460B437FD4002243088B4223
:1095100074D303098B425FD3030A8B4244D3030BFA
:109520008B4228D3030C8B420DD3FF22090212BABF
:10953000030C8B4202D31212090265D0030B8B423B
:1095400019D300E0090AC30B8B4201D3CB03C01A25
:109550005241830B8B4201D38B03C01A5241430B00
:109560008B4201D34B03C01A5241030B8B4201D3F0
:109570000B03C01A5241C30A8B4201D3CB02C01A5B
:109580005241830A8B4201D38B02C01A5241430AD3
:109590008B4201D34B02C01A5241030A8B4201D3C2
:1095A0000B02C01A5241CDD2C3098B4201D3CB0169
:1095B000C01A524183098B4201D38B01C01A524118
:1095C00043098B4201D34B01C01A524103098B421C
:1095D00001D30B01C01A5241C3088B4201D3CB0007
:1095E000C01A524183088B4201D38B00C01A5241EA
:1095F00043088B4201D34B00C01A5241411A00D29A
:1096000001465241104670475DE0CA0F00D0494202
:10961000031000D34042534000229C4603098B4272
:109620002DD3030A8B4212D3FC22890112BA030AFA
:109630008B420CD3890192118B4208D3890192117C
:109640008B4204D389013AD0921100E08909C30901
:109650008B4201D3CB01C01A524183098B4201D303
:109660008B01C01A524143098B4201D34B01C01AEE
:10967000524103098B4201D30B01C01A5241C30866
:109680008B4201D3CB00C01A524183088B4201D3D5
:109690008B00C01A5241D9D243088B4201D34B00F0
:1096A000C01A5241411A00D20146634652415B1032
:1096B000104601D34042002B00D549427047634613
:1096C0005B1000D3404201B5002000F005F802BD58
:1096D0000029F8D016E770477047C0468446080056
:1096E0006146FFE71FB500F0DFFB002801D4002131
:1096F000C8421FBD10B500F067FB4042013010BDED
:1097000010B500F0D1FB002801DB002010BD0120C6
:1097100010BDC04610B500F0C7FB002801DD0020D9
:1097200010BD012010BDC04610B500F075FB00282B
:1097300001DC002010BD012010BDC04610B500F0B6
:109740006BFB002801DA002010BD012010BDC046CF
:109750009E2110B5C905041CFFF7F0FF002803D1B6
:10976000201C00F093FF10BD9E21201CC90500F0B5
:1097700035FD00F08BFF80231B069C466044F2E71A
:109780004A02F8B5530ACE4699464B00C90F4746E0
:10979000884646004502360E1B0E80B5C40F6F0A80
:1097A0009209AD09F11A44454BD0002938DD002B50
:1097B00000D174E0FF2E00D1BEE08023DB041A4309
:1097C0001B2900DCFDE0013D6B0100D4AFE0012569
:1097D0006D42AD01AF09380001F00EF83B000538CD
:1097E0008340864200DCD3E0B94D311A1D405A0750
:1097F00000D19EE00F221340042B00D199E00435E4
:109800006B0100D495E0481CFE2951D1FF200023B4
:10981000C0051843E4072043C0BCB946B046F8BDB4
:10982000002949D0991B002E72D1002D00D133E1BF
:109830004C1E012900D159E1FF2900D14CE1210042
:109840006CE0002900DC81E0002B55D1002A70D0AB
:109850004B1E012900D12BE1FF296DD01B2B50DCC1
:10986000190020235B1A10009A40C840531E9A41E9
:109870000243AD188023DB041D4200D1ADE0711C12
:10988000FE2EC3D001206A082840924D15400543A2
:109890006A0700D08BE01D42B5D1EF0834E0002A02
:1098A00047D04B1E012966D0FF2945D0190087E714
:1098B000C0B2AB015B0AABE7FE239C46701C030001
:1098C0006046184200D092E0002E00D0E7E0002D64
:1098D00000D119E1002A17D08023AF1ADB041F4200
:1098E00000D142E14446551B00D187E001201D42D2
:1098F000DFD10021EF0807E0FF2E1DD01B2900DC7F
:1099000094E031000535EF087B025B0AC8B27FE7BF
:10991000FF2B00D1E0E08020C00405431B2900DCC0
:1099200088E0551E44461E00690100D54FE731000E
:109930000435EF08FF29E7D1002F00D166E7802327
:10994000DB033B435B02FF205B0A61E7002958D041
:10995000991B002E00D089E0002D00D19DE04E1E05
:10996000012900D1A4E0FF2900D1B6E01B2E00DDC3
:10997000B8E0310081E0AA1A530100D4AFE09701AA
:10998000BF09380000F038FF3B000538834001264E
:109990001D00811B20200131CD40411A8B40591EF2
:1099A0008B411D432AD000216B0700D1F0E00F232B
:1099B0002B40042B00D022E76B0100D523E7EF08F2
:1099C000A2E720235B1A10009A40C840531E9A4118
:1099D0000243AD1A6B0100D5FBE66B0700D1D5E061
:1099E0000F2331002B40042B00D008E7A1E7AF1A6A
:1099F0007B014ED4002F00D0EDE600240020002390
:109A000006E7FE23711C0B4221D1002E00D081E01D
:109A1000002D00D19FE0002A00D1B2E0AB185A011E
:109A200000D4B0E09B0101205B0AF1E68023DB0457
:109A30001A4316E720242800C840611A8D402900E7
:109A40004C1EA141014344461E00551AC2E7FF299E
:109A500000D1DBE6AF187F087B0705D00F233D1D43
:109A60003B40042B00D064E7FF084DE7FF2B34D0C8
:109A70001B2937DC8020C004054328002026C8406D
:109A8000711A8D4029004D1EA94101431E008D18F9
:109A9000F0E64446571B9EE64446150049E7002D74
:109AA00046D1002A66D180230024FF20DB03AFE6E5
:109AB000AA18530113D5074F52081740530744D033
:109AC0000F231340042B40D002213D1D31E7C04637
:109AD000FFFFFFFBFFFFFF7D44464F462CE70121C0
:109AE000D70811E705321900D7080DE7571B7B018E
:109AF00037D5BF01BF09380000F07EFE3B000538B6
:109B000083404446013643E7002A00D175E74446C6
:109B10004F46F9E6002DE0D08023DB03002A17D062
:109B20009F4200D20BE7994500D308E74F4606E76E
:109B30008023DB03002A0BD09F4200D2FFE6994529
:109B400000D3FCE644464F46F9E60221FF08DBE677
:109B5000FF203B435CE6002A00D14FE70021D708F5
:109B6000D2E644460121FF08CEE6002F00D07BE775
:109B7000002443E780234A46DB034446FF20134387
:109B800046E60021C0E60021DF08BDE63100D0E650
:109B900001206A0100D58BE62A00DFE7F0B54646D2
:109BA0004F46D6464502C0B5C30F470098460E1C27
:109BB0006D0A3F0E5BD0FF2F21D08023ED00DB0428
:109BC0001D43002399469A467F3F74027300640A3E
:109BD0001B0EF60F002B20D0FF2B43D0802200203D
:109BE000E400D20414437F3B4246FF1A4B467240C6
:109BF0000F2B00D99DE071499B00CB589F46002D4B
:109C00005AD108239946063B74029A467300FF27EF
:109C1000640A1B0EF60F002BDED1002C3BD1012372
:109C200042464946724019430E2918D864488900B3
:109C300041588F465346022B00D1B8E0032B6ED01B
:109C400042462C00012B40D100200024C0052043B7
:109C5000D2071043E0BCBA46B146A846F0BDFF208B
:109C60000024F3E7002C20D10223FF3FD8E7002D8A
:109C700005D104239946033B00279A46A5E728000F
:109C800000F0BAFD7627431F9D4000237F4299468E
:109C90009A463F1A99E7200000F0AEFD431F9C4012
:109CA00076235B421B1A00209EE703234A461A4391
:109CB00091460320FC3397E70C239946093BFF2785
:109CC0009A4682E703282CD0320038007F300028E3
:109CD00047DD630704D00F232340042B00D0043456
:109CE000230103D53800374B80301C40FE28B6DCFA
:109CF000A401640AC0B2A9E780240022FF20E40383
:109D0000A4E78023DB031D4201D01C420BD080243A
:109D1000E4032C4364024246FF20640A96E7464669
:109D20002C008023DB031C4364023200FF20640A02
:109D30008CE76D01600185422DD21B230024013F79
:109D40000126290064006D00002901DB854201D352
:109D50002D1A3443013B002BF3D16B1E9D412C4344
:109D6000B3E701231B1A1B2B00DD6DE721009E3793
:109D7000D940BC400B00611E8C412343590704D0DD
:109D80000F211940042900D00433590113D49B0139
:109D900000205C0A5AE71A2301242D1AD0E7981EE6
:109DA00043425841404232000024C0B24EE742468E
:109DB000FF2000244AE70120002447E794B5001063
:109DC000D4B50010FFFFFFF770B542004E024C0003
:109DD00045026D0A120EC30F760A240EC90FFF2A20
:109DE00010D0FF2C0CD00120A2420AD1B54208D1DC
:109DF0008B420FD0002A04D12800431E984100E076
:109E0000012070BD0120FF2CFBD13543F9D14B401F
:109E10001800F6E70020F4E730B5420044024D0296
:109E2000C30F4800640A120E6D0A000EC90FFF2A04
:109E300018D0FF280AD0002A1ED100280AD1002DF0
:109E400029D0002C2DD14800013830BD002D25D15E
:109E5000002A01D1002CF6D08B4219D001205B42A0
:109E60001843F2E7002C19D1FF28F7D1002D15D1A6
:109E700000208B42F2D1E8E70028EFD08B42EDD1F1
:109E80008242EBDC04DBAC42E8D80020AC42DCD2FE
:109E900058000138D9E7002CD7D0DFE70220404234
:109EA000D3E78B42DAD1EEE730B5420044024D02EF
:109EB000C30F4800640A120E6D0A000EC90FFF2A74
:109EC00017D0FF280AD0002A1BD100280AD1002D64
:109ED0001DD0002C2DD14800013811E0002D0ED1ED
:109EE000002A01D1002CF6D08B420CD15800013849
:109EF00006E0002C03D1FF2805D1002D15D002204B
:109F000030BD002806D101205B421843F8E7002C41
:109F1000F6D0F8E78B42F6D18242F4DCE6DBAC42C5
:109F2000F1D80020AC42EBD2E0E700208B42EAD12E
:109F3000E6E78B42E7D1F2E7F0B54F464646D64614
:109F40004502C0B546000F1C6D0A360EC40F002E28
:109F500000D1CDE0FF2E72D08023ED00DB041D4345
:109F6000002399469A467F3E7B025B0A98467B0017
:109F70001B0EFF0F002B72D0FF2B00D1A9E07F3BFF
:109F8000F6184B460A2B00DD85E043468022DB00B5
:109F9000D2041A434B4690467C400022022B0FDD30
:109FA000494601238B40A621C9000B4200D072E034
:109FB000902189000B4200D0DAE08821194267D154
:109FC000280C42462D042D0C4346290012041B0C7C
:109FD000120C51435D4342435843AD180B0C5B19BF
:109FE0009A4203D9802252029446604409041A041A
:109FF000090C52189501691E8D411B0C920E1B18FD
:10A0000015439B011D431B0100D5CFE030007F307D
:10A01000002800DCB1E06B070BD00F2332002B408F
:10A02000042B06D004352B0103D5803210006A4B77
:10A030001D40FE2864DCAB015B0AC0B21FE0002DAE
:10A0400000D08FE008239946063B9A467B025B0AC4
:10A0500098467B00FF261B0EFF0F002B8CD143463A
:10A06000002B5CD14A4601331A43914613000A2A59
:10A0700011DC01227C40022B92DC00200023C00571
:10A080001843E4072043E0BCBA46B146A846F0BDF9
:10A090003C00454692465346022B31D0032B11D04B
:10A0A000012BEAD030008030721C002866DD6B077F
:10A0B000B9D00F232B40042BB4D1B4E70F2A7AD0A8
:10A0C0003C0045468023DB032B435B02FF205B0AF9
:10A0D000D5E74346FF36002B34D14A4602331343BB
:10A0E0000A2BD8DC7C40002A0AD09946022257E786
:10A0F000002D08D104239946033B00269A4633E7F6
:10A10000FF200023BBE7280000F076FB7626431FE4
:10A110009D400023764299469A46361A24E74046E7
:10A1200000F06AFB4B46361A763E0A2BB3DC4346F8
:10A130000538834098464B4600227C40022B00DDC8
:10A140002EE73DE703234A461A4313000A2AB5DCEB
:10A1500001229A40882113007C400322194200D139
:10A160002EE795E70C239946093BFF269A46FBE626
:10A1700080230024FF20DB0381E7320001231B1A28
:10A180001B2B00DD79E79E3229009540D9406A1EDD
:10A1900095410D436B0704D00F232B40042B00D0B7
:10A1A00004356B0113D50120002368E701236A08F9
:10A1B0001D40154376E78023DB031D4282D04246D3
:10A1C0001A4200D07EE73C00FF20134357E7AB0163
:10A1D00000205B0A53E7C046FFFFFFF7F8B547468C
:10A1E000CE464B02460080B5C40F4702580A84464B
:10A1F00048007A0A360EBF09000ECD0F9B09FF28D2
:10A200006DD001214D40311AAC423AD0002900DC1A
:10A210009CE1002800D19EE0FF2E00D188E0802242
:10A22000D20413431B2900DCF6E0013F7A0100D47D
:10A2300079E001277F42BF01BB099846404600F004
:10A24000DBFA434605388340864200DCCCE0B44F5D
:10A25000311A1F405A0768D00F221340042B64D0D4
:10A2600004377B0161D5481CFE2900D081E0FF2026
:10A270000023C0051843E4072043C0BCB946B046DC
:10A28000F8BD002900DC79E1002876D1002B4CD004
:10A29000481E012900D147E1FF2949D01B2871DC64
:10A2A00001001A002020CA40411A8B40591E8B41E0
:10A2B0001343FF188023DB041F4200D1B8E0711C58
:10A2C000FE2ED4D0012297483A407F08074017431A
:10A2D0007A0700D096E01F42C5D1FA0855E0310058
:10A2E000FF398946002B2CD101214D40AC4200D1D1
:10A2F000B4E0494600294CD0002E00D0F9E0FF21FF
:10A30000002F00D108E14A1E012900D156E1FF29A2
:10A3100000D142E11B2A00DC24E15F1E2C00060074
:10A320007A0100D585E731000437FA08FF292CD1DE
:10A33000002A9CD08023DB0313435B02FF205B0ACF
:10A3400097E7AC4200D1A7E0002922D0002ED6D05A
:10A3500062462C00EEE7002BE7D0481E012936D0DC
:10A36000FF29E5D001005DE701203B007A0100D420
:10A3700057E1C0B2BB015B0A7BE7FF2ED8D01B2997
:10A3800000DC9FE031000537FA0853025B0AC8B2CF
:10A390006FE7FE20711C084254D1002E00D0B1E0BE
:10A3A000002F00D102E1002B00D1F9E08021FA1A40
:10A3B000C9040A4200D13BE10124DF1B2C40002FDD
:10A3C00049D001200F42D5D10021FA08DDE7FF1A5C
:10A3D0007B0100D4DEE0BD01AD09280000F00CFADD
:10A3E0002B000538834001262022811B0131521A9F
:10A3F0001F009340CF405A1E93411F432BD0002192
:10A400007B07B1D00F233B40042B00D028E77B0112
:10A4100000D528E7FA08B8E71A002020CA40411AF8
:10A420008B40591E8B411343FF1A7B0100D502E775
:10A430007B0700D10DE10F2331003B40042B00D0FE
:10A440000EE772E7FA1A9046520156D44346002BA3
:10A4500000D0F3E60024002000230AE74946002943
:10A460001CD0002E00D002E7FF21002F55D04A1E3D
:10A47000012959D0FF2900D190E01B2A00DD91E08D
:10A4800011003A002025CA40691A8F40791E8F4179
:10A4900017430600FF180DE7002926D1FE20711C86
:10A4A000084213D1002E00D096E0002F00D1B4E076
:10A4B000002B75D0FB185A0100D4B2E09B015B0A57
:10A4C000FD38D6E68022D2041343EAE6FF2900D104
:10A4D000CDE6FA185208530705D00F23171D134075
:10A4E000042B00D021E7D2084FE7002EBCD06246F3
:10A4F00020E72C00FF200023BBE60124DB1B98464D
:10A500002C409BE6002F75D1002B00D096E08023D5
:10A510000024FF20DB03ACE62C001F0005E7C0464B
:10A52000FFFFFFFBFFFFFF7DFB185A0100D48DE00A
:10A530004A4A5B081A40590700D18CE00F210B40B2
:10A540000D39042BCFD00221171DEEE6002900D1D2
:10A550001FE7821B1100002E00D1D1E68021C90423
:10A560000F43D7E639002024D140A21A97407A1E23
:10A5700097410F432C000600DF1B56E700298DD0C2
:10A58000811B002E00D170E71B290BDC8022D20436
:10A59000174376E70121FA08F7E62C006246C7E682
:10A5A0000021F2E605330100DA08EEE6002B00D1C7
:10A5B00050E70124002162462C40E6E6DA1B5301F5
:10A5C00032D592019409200000F016F923000538D5
:10A5D00083402C00012607E7002FDFD0002B17D087
:10A5E0008023DB039A4200D2A4E69C4500D3A1E677
:10A5F00062469FE6002B0BD08023DB039A4200D2F9
:10A6000098E69C4500D395E6012462462C4091E6ED
:10A610008023DB03FF2013432BE60020002B00D117
:10A6200027E60021DA08B0E62C000121D208ACE6CA
:10A63000002A00D10EE70021D208A6E68023624658
:10A640000124DB03FF2013432C4012E60121DA082A
:10A650009BE6310069E60221D20896E6FFFFFF7D06
:10A6600043024A02400049005B0A520A090E000EEA
:10A67000FF2806D00020FF2902D1531E9A41100066
:10A680007047FE38002BFBD1F4E7C0464102420080
:10A69000C30F490A0020120E7E2A03DD9D2A02DD27
:10A6A000094A98187047802000040143952A07DC66
:10A6B0009620821AD1404842002BF3D10800F1E7DE
:10A6C000963A9140F7E7C046FFFFFF7F70B500283C
:10A6D00012D0C317C5185D40C40F280000F08CF8D5
:10A6E0009E231B1A962B0FDC082838D0083885408B
:10A6F0006D026D0AD8B202E0002400200025C005DA
:10A700002843E407204370BD992B14DC421F954079
:10A710002A001549114055071CD00F252A40042A4C
:10A7200018D00431CA08490115D59F235202181ABE
:10A73000550AC0B2E3E7020029001B3291404A1ECD
:10A7400091410522121AD5402A000A4306491140B8
:10A750005507E2D1CA085202550AD8B2CFE76D02B6
:10A760006D0A8E30CBE7C046FFFFFFFB10B5041E1D
:10A770000DD000F041F89E231B1A962B0CDC082804
:10A7800034D0083884406402640AD8B201E0002062
:10A790000024C005204310BD992B13DC421F9440B8
:10A7A000144A224061071CD00F212140042918D0EF
:10A7B0000432D408520115D59F236402181A640A82
:10A7C000C0B2E6E7020021001B3291400A00511E90
:10A7D0008A410521091ACC401443064A22406107E8
:10A7E000E2D1D4086402640AD8B2D2E76402640AEF
:10A7F0008E30CEE7FFFFFFFB1C2101231B04984294
:10A8000001D3000C10391B0A984201D3000A083901
:10A810001B09984201D30009043902A2105C4018B8
:10A820007047C0460403020201010101000000005C
:10A830000000000010B5040004481300002804D0F4
:10A840000A000220210000E000BF10BD000000004F
:10A850000CB430B5174B0C001D689DB0002908DA08
:10A860008B2301202B6040421DB030BC08BC02B0DD
:10A870001847822302A99B008B81002302904B661C
