:020000041000EA
:10100000480500201910001000000000F55F0010D6
:1010100000040100000100001149124A124B00F0C7
:1010200018F8124880471249124A134B00F011F881
:101030001249134A134B00F00CF81349134A0020CD
:10104000521A02DD043A8850FCDC114880471148EE
:1010500080479B1A03DD043BC858D050FBDC704727
:10106000E8B600100C0000204401002029110010F7
:1010700020B80010480500206006002038B9001094
:10108000600600206006002060060020CC0B0020D7
:10109000E5A9001041600010FEE700008022064B29
:1010A000520119890A4348211A818022585A120193
:1010B00002435A527047C04600000540FF21080015
:1010C000094A10B5136812681B0A1840194209D062
:1010D000114000020918054808F096F94000044B39
:1010E000186010BD0348FAE700030140000024F433
:1010F000F83F00200048E801C0228021074B10B5CE
:101100005A62074A074BC905136013680B42FCD1AA
:10111000C322024B5A62FFF7D1FF10BD000001400D
:10112000000301400001F13F10B5FFF7B7FFFFF7E3
:10113000E3FF10BDC023034A9B0191880B439380BA
:101140007047C04600000540F8B580238026802502
:1011500004005B01C71876006D02200033689847D1
:10116000A84203D10134FF34BC42F6D1F8BDC046D9
:101170008222030010B5520008001900126890473F
:1011800010BDC046F8B50D000400170007F0FAFBCB
:101190002B7A002B2CD01A005E0801363602002F65
:1011A00007D02879296800282CD01A00200007F0E1
:1011B00061FCEB79154A013B5B0033431343812209
:1011C000E3636B795200013B19060A436263AA7913
:1011D000002A12D0636B013A12041A436263A023FF
:1011E000DB00A36301235B42E3646B892364F8BDE6
:1011F0009026102210233601D1E7626B1B041343A3
:101200006363ECE7200007F0DDFBD2E70100030099
:1012100084235B00C258E023DB041A4203D0C023BE
:101220005B00C1507047836B1B06FCD480239B017D
:10123000C3648023C150F5E70B008908890040187A
:1012400003211940F823C9008B408A4010B5046976
:0C1250009C43046103691A43026110BD55
:105000000448054B10B5834203D0044B002B00D05D
:10501000984710BD600600206006002000000000D8
:1050200006480749091A8B10C90FC91810B549104D
:1050300003D0044B002B00D0984710BD6006002021
:10504000600600200000000010B5074C2378002BFC
:1050500009D1FFF7D5FF054B002B02D0044800E033
:1050600000BF0123237010BD600600200000000077
:10507000E4B60010054B10B5002B03D004490548D9
:1050800000E000BFFFF7CCFF10BDC04600000000ED
:1050900064060020E4B60010F0B546464F46D646FA
:1050A000C0B50700080080219846504B490092B0D7
:1050B0005960012391464E4A4E4C13614E4A0025D9
:1050C00013614E4A13614E4A136B234013634D4BD9
:1050D0004A46036043600023836022230573FD5426
:1050E0000533FD543333FA540322013BFA546B4623
:1050F0009E1D3200A020358003F040F93488092C31
:1051000000D96EE00534A401A3B29A4624220021FE
:1051100009A805F059FC3C4B02AD1B683B490293C2
:1051200001232B714B466B713B8EEB804346186815
:1051300004F00EFF05F0B6FA43463449A8605868FB
:1051400004F006FF05F0AEFA43463049E86098687F
:1051500004F0FEFE05F0A6FA43462D4928611869C1
:1051600004F0F6FE05F09EFA6861B86904F0FCFAF6
:105170007C23A861FA5C793B29009C46101DC0B2D3
:105180006446144063001B195B00FB181C00643468
:10519000248801328C831C006833663424881B8881
:1051A000D2B28C848B8502319042E9D15746544665
:1051B00040372D1B21002A19A020043403F076F873
:1051C000A742F7D180213388320001334900A02063
:1051D000338003F06BF812B0E0BCBA46B146A84683
:1051E000F0BDA0235B009A4635808FE700000440A5
:1051F00000010448FEFEFFFF0002005000020448C8
:10520000000001400080BB44280A002000007A44CE
:1052100000002041F0B5CE46474680B5204B85B012
:10522000029300230E0002A904001700994603937D
:1052300003F02CFB02236A46012598464B462000CA
:10524000012153801770557003F054FB2000012199
:1052500003F040FB4B4601AA538043462000022145
:105260001770537003F046FB2000022103F03AFB55
:1052700020000C4903F07CFB2A00B3009A40130085
:10528000A022D2051361FF232900334099404346F1
:10529000D1602361E56005B0C0BCB946B046F0BD41
:1052A00060000100FFFF000010B580220821334894
:1052B000FBF7C2FF802201213148FBF7BDFF8022AE
:1052C00002212F48FBF7B8FF802203212C482D4CE8
:1052D000FBF7B2FFA02206212848FBF7ADFFA8226A
:1052E00007212648FBF7A8FF2000F8220A21FBF738
:1052F000A3FF2000F0220B21FBF79EFF9022052147
:105300001F48FBF799FF002204211D48FBF794FF7B
:10531000002205211948FBF78FFF002204211748BE
:10532000FBF78AFF002203211448FBF785FF0022C8
:1053300000211248FBF780FF002201210F48FBF7F4
:105340007BFF200000220721FBF776FF626F0E4BE8
:1053500006211A408023DB011343636700222000EB
:10536000FBF76AFF626F094B1A4080235B0113430E
:10537000C0226367236E1343236610BD0000044000
:105380000001044000020440FF3FFFFFFFCFFFFF8A
:10539000F0B591B004000822002104A805F014FB28
:1053A000A0236A4606211374574804AA03F052F951
:1053B0000822002106A805F007FBA8236A4607215A
:1053C0001376514806AA03F045F900214F4803F02F
:1053D00089F902260123A0204C4F0021FB60C00563
:1053E000FE6003F01FFAA023494DDB05DE600822B2
:1053F000002108A805F0E8FA280008A903F08AF9B6
:1054000023886A466B63434B01212800009303F015
:10541000CBF901220121280003F0A2F9102200217A
:105420000CA805F0D1FA38216A46012352183A48EF
:105430000CA9137003F00EFA2188374803F098FA8C
:10544000364B0121344801AA019303F053FA01229B
:105450000121314803F02AFAB42206212E4883584C
:105460008B43334383502E4B2E480A93F2230AA9D1
:105470000B9303F067F92C4B2A4AFE365363012144
:1054800002AA2848029603F08FF90121254803F06B
:105490007BF9802303AA9B0002212248039303F097
:1054A00083F902211F4803F077F950233B61A023C1
:1054B000DB05FE60DE6024680134A4B264082000CD
:1054C000EC6305F05FF9002104F042FD05F0EAF815
:1054D000021C80B2A04200D9221CA21A92B2013C46
:1054E000141900210C48A4B203F044FA220001214F
:1054F000094803F03FFA0122044B1A61A0230F323E
:10550000DB051A6111B0F0BD000004400000044842
:1055100000010448080101000002005007010100D9
:105520006000010000020448FFFF000070B50C1C81
:1055300005001649201C04F0EFF8002820D114497A
:10554000201C04F0FDF8211C00281DD1114804F096
:1055500031FBFE21890504F04DFE04F005F903043A
:1055600081B21B0C0C4A286053630C4803F000FA0C
:1055700001220B4B1A61A0230F32DB051A6170BDAB
:10558000084B19001800EDE70149DFE700409C4691
:10559000007C12480024744C0001044800020050B2
:1055A000000004487F0C000010B5324B82B000931D
:1055B000002301AA04000021A020019302F0DEFED6
:1055C000019A009B9A4230D06A460021A02002F046
:1055D0006DFE220004210832A02002F067FE2200A6
:1055E00008210C32A02002F061FE22000C211032B2
:1055F000A02002F05BFE220010211432A02002F055
:1056000055FE220014211C32A02002F04FFE220081
:105610001821A0201E3202F049FE6369A361E368ED
:10562000E362E38B238402B010BD22000421083220
:10563000A02002F0A3FE220008210C32A02002F0DC
:105640009DFE22000C211032A02002F097FE2200C5
:1056500010211432A02002F091FE220014211C32ED
:10566000A02002F08BFE220018211E32A02002F0A2
:1056700085FED2E758331217F8B54E4645465746D1
:10568000DE46E0B51F0059239846C35C04000D00B8
:1056900016009946032B00D1AAE08049386804F02F
:1056A0004FF8002841D17B68E068191C9A4604F045
:1056B00033F8002868D15046794904F041F80028B1
:1056C00062D17849386904F03BF8002800D0FAE14B
:1056D000754B1B6898464B46012B62D034D9022B80
:1056E0001CD12223E35C002B00D0F3E080216F4A21
:1056F0004900516001226E496E480A616E490A6193
:105700006E490A616E490A6B02400A636D4A33733F
:10571000326072600022B2602722A3545923002213
:10572000E254694B04325A6016E03B00012231001A
:105730002000FFF7B1FC43465B4AE35C12689046E9
:10574000012B2ED0012B4DD82223E35C002B00D05F
:105750007CE104225C4B5A6002225B4B5A6022239C
:105760002132E35CA25C01335200FF331343252254
:10577000A15C213A49420A4013432386F0BCBB4650
:10578000B246A946A046F8BD3B00022231002000E7
:10579000FFF782FC5923444AE35C12689046012BD0
:1057A000D0D18022414B52005A600123404A4149E6
:1057B0001361414A1361414A1361414A136B0B4023
:1057C0001363404B2722336073600023B3600023D0
:1057D0003373A3542233E35C002BBAD05923253A08
:1057E000E254B6E7022B00D17BE7032B96D101E010
:1057F0002D4B1B6880222D4B52005A6001232C4AEE
:105800002C4913612C4A13612C4A13612C4A136BE7
:105810000B4013632B4B2722336073600023B3606C
:1058200000233373A3542233E55C002D1CD059238D
:10583000E25C0421244B5960032A00D08CE78022CB
:1058400092025A605A23E35C012B00D135E1022B0E
:1058500000D10BE1032B00D132E1043B5A4253410A
:10586000DB010133FF3388E71849386803F05EFF36
:105870000028DCD0E168786803F058FF0028D6D013
:105880001349386903F052FF0028D0D09023E35C1D
:10589000002BCCD05A23E55440E7C04600005042CC
:1058A000000078420000AA42280A002000000440BC
:1058B00000010448FEFEFFFF000200500002044801
:1058C000000001400080BB44000104400000484249
:1058D0000000A0422523E35C002B00D1C9E0262371
:1058E000E35C002B00D1C4E02323E35C002B00D059
:1058F000BFE04246236DD31A744A934200D9B8E000
:105900002723E35C002B00D176E25B23E35C002BD2
:1059100000D1F9E2012B00D11CE3022B00D12CE3D2
:10592000002398461F1C216E381C03F035FF684980
:10593000071C03F005FF002800D0F3E26549381C7E
:1059400003F0EAFE002800D12CE36349614F27668B
:10595000404603F021FFA16903F01EFF5F49071CC9
:1059600003F0F8FE002806D05D49381C03F0DEFE87
:10597000002800D00BE3337B3768002B1ED0B368C0
:105980005849181C984604F0E3FA011C381C03F02F
:1059900003FF0021071C3060404603F0DBFE0028B7
:1059A00000D1C2E27368381C191C984603F0D2FE7D
:1059B000002803D04746002337603373381C03F0B8
:1059C000D3FE49492084381C04F0F4F800212D68E6
:1059D000061C03F0A1FE002800D098E24349301CC9
:1059E00003F0AEFE002800D09AE2301C3F4904F0DC
:1059F000E1F8061C01353E4BADB26D08DD632800B1
:105A000004F0C0FE311C04F0A3FA03F08BFB021C6F
:105A100080B2A84200D92A1CAA1A92B2013D551997
:105A200000213448ADB202F0A5FF2A00012131481F
:105A300002F0A0FF0122304B1A61A0230F32DB05D8
:105A40001A615923E25C022A2DD0F2E600232522B6
:105A5000E3630023A354E3844346C83BE364274B3A
:105A6000233A434423655923E25472E690235B00B2
:105A700083E600222723E254214B414633607360C2
:105A80000023B360E36C3273CB1AC72B3CD8236D71
:105A9000CB1A0E498B4200D85BE64346236525238B
:105AA000E2540133E2542723E35C002B00D150E69B
:105AB0008022144BD2025A604EE688235B005CE6DB
:105AC000A0235B0059E63B00032230E68713000069
:105AD00000409C4500409CC500007AC300409C46A5
:105AE000005043486F12833A0000C8420000484209
:105AF00000010448000200500000044878ECFFFF59
:105B00000080BB440001044080230127A94A5B00B8
:105B1000E1645360A84BA94E1F619B46A84BA94A5C
:105B20009A46176137611B6BA748A8490340814615
:105B3000504603635B4629601000596302F018FF6A
:105B4000A0201021A24BC0051F61016159462D689C
:105B500000220135ADB26D08CD639A480021013DA8
:105B600002F008FFAAB20121964802F003FF984B09
:105B700010201F61A023DB0518610121584602F0A7
:105B800047FE01218F4802F0E9FE802380258949E4
:105B90005B044B60322002F08BFC736F5946B36F8D
:105BA000F36F73590223874A0B61136133615346C4
:105BB000F760CF60D7601A6B0223FF33134352465E
:105BC0001363136B4A46FA20134052468000136356
:105BD00002F06EFC8023B26F5B031A427DD0B36F7C
:105BE00080218022754E52037058104200D1A7E0E8
:105BF0007558002B00D1D9E00F221804000C1B0CA3
:105C000001301340022B00D9A9E0002D06D02E044C
:105C1000290C360C1140022970D8801904F0B2FD0D
:105C20006C4904F095F903F09FFD061E76D004F050
:105C3000A9FD694903F0BEFF011CFE20800503F0A9
:105C4000B9FF664903F0B6FFA664051C6449281C29
:105C500003F062FD00281DD16249281C03F070FD8D
:105C6000002817D10027E66B391C301C03F04EFDCD
:105C7000002800D186E0216C281C03F08DFD442310
:105C80002064A562E35C0A2B00D142E10133DBB260
:105C90004422A3548025012325202621454A6D0056
:105CA000235463545560444A474D1361454A136178
:105CB000424A1361424A136B2B40136359234546F2
:105CC000E25C236DEB1A484DAB4200D8BBE643467D
:105CD0002365002323546354B5E6726F1000184007
:105CE0001A424BD172591A425CD07559002D15D009
:105CF0002E042903360C090F02290BD902390A0098
:105D000000233A4D5B00AC46013A6344002AF8D1C7
:105D10008E40C0183018002800D07FE7A06C002803
:105D2000B8D004F02FFD2C4903F044FF011CFE20E5
:105D3000800503F03FFF294903F03CFF051C85E780
:105D4000F16F0D00154011421AD1002BE6D0180456
:105D5000000C1B0301301B0F022B00D85EE7991EBD
:105D60000A000023214E5B00B446013A6344002A36
:105D7000F8D18840C018002DBAD1CCE7736F2FE757
:105D8000F56F36E71A49281C04F0E2F81949051C9A
:105D9000301C04F0DDF8011C281C03F0FDFCA0629F
:105DA000E06377E7F26F1A42B8D0F56F002DB5D0F7
:105DB00000209DE700000440000104480002044860
:105DC0000000014000020050FEFEFFFF7F0C0000BB
:105DD0000000044800007A42286B6E4E00007A44AE
:105DE000000048420000164387130000FFFF000038
:105DF0008C2E3A3E5D74513FA3696D49181C98463C
:105E000003F08AFC002800D0A0E06A49404603F075
:105E100097FC4146002800D06649674803F0CAFE57
:105E2000FE21890504F0E6F903F09EFC03041B0C37
:105E300081B2624A286053636148914602F098FD3E
:105E40000122604B1A61A0230F32DB051A612B6817
:105E500001339BB25B0898464B4642464046DA63A4
:105E600004F090FC002104F073F804F01BFC021C09
:105E700080B2404500D9424643469A1A92B2013B4D
:105E8000D3189BB2984600214D4802F073FD42465C
:105E900001214B4802F06EFD012398464246494BD2
:105EA0001A61A0230F32DB051A61E08B04F06AFC53
:105EB0000023011C3360706003F06EFC4346002138
:105EC0003373B0603D4802F0A3FC00213C4802F06F
:105ED00045FD80223C4B52045A600223374A13612D
:105EE000374A13610222394BFF32196B0A431A6396
:105EF0001A6B37490A401A6327234246E254053B8E
:105F0000E35C002B00D000E50023236633E5002688
:105F100070E5304903F04EFE0223E0632764B7E6E4
:105F20002D4863E52D492E4F11E50021404603F031
:105F3000F3FB002800D141E57368381C191C984612
:105F400003F0F4FB002800D138E533E525490B00C8
:105F500008006EE7B868244903F0FAFF5C23071CC9
:105F6000E05A04F00FFC011C381C04F043F91F49EF
:105F7000071C03F0EDFF8046D5E47968386803F02C
:105F8000E7FF194903F0E4FF5E23071CE8E7A76178
:105F9000381C03F0E9FB04F0F5FB011C2800FFF7B7
:105FA000C5FAE8E41249381C03F0D2FF011CCEE424
:105FB00000409C46007C12480024744C00010448B8
:105FC00000020050000004480000044000000140AE
:105FD000FEFEFFFF000020410000484200007A431F
:105FE00000409C457F0C000000007A4400002040E7
:105FF000CDCC4C3DC046FDE7024A13680133136027
:106000007047C046280A0020014B18687047C046F8
:10601000280A0020F8B590248A25E4056D0063590C
:106020001B070AD48E26054F7600A1593800C9B245
:1060300000F0D6FC63591B07F7D5F8BD58070020C0
:10604000F0B5DE4657464E464546E0B5A3B00021C2
:106050000C2212A804F0B8FC80235B0213930123E6
:1060600010AA12A8537202F0D1FAFBF727F8FA210E
:10607000FB4B8900186803F0C7F9802301385B04E3
:1060800098420DD2C021F74A09065060F648036ACB
:106090001B021B0A0B430362002393600733136048
:1060A00062B6042002F028FA022002F025FA082045
:1060B00002F022FA012002F01FFAFFF7F5F8EB4B8D
:1060C00018000493FFF764F9012002F015FA02F0BA
:1060D000A1FE182200211CA804F076FC0323E4484A
:1060E0001CA91D9302F0A0FE0321E24802F00AFF62
:1060F0000321E14802F006FFDD4802F0B7FE8021EF
:10610000DE4ADB484358002B00DA92E310220021DC
:1061100018A804F059FCDA4B072618932D2310AA6F
:10612000D2181670012118AAD24802F04BFFA723FB
:106130000025D04A9B00D5509023189AD1491B03C3
:106140000A40134318932D23FF27884610A9C91826
:106150000F7018A90A00C748002102F033FFA923D5
:106160004146C44A9B00D550189AC74B0A40134376
:1061700018932D2310AAD2181770002118AABE4810
:1061800002F020FFAB234146BB4A9B00D550189A32
:10619000BE4B0A40134318932D2310A9C9180F7042
:1061A00018A90A00B448012102F00CFFAA234146B5
:1061B000B14A9B00D550189AB54B0A401343189327
:1061C0002D2310A9CB181F7018AB1A000421AA4860
:1061D00002F0F8FEA423A84A9B00D5501024052302
:1061E00015A9A348994615931794169502F092FEA7
:1061F000C02302209E495B00CA58FE3F3A43CA5062
:10620000CA5882460243CA500433CA583A43CA5055
:10621000CA580243CA50CA58FF302243CA5081228A
:1062200092008B58FF3003438B501223994A8346C8
:1062300099481C93835A99490B4003318352FF318B
:106240001CAA02F0F9FEB622934912018B58944819
:106250003B438B501CAA01211C951D9602F0FAFEAF
:10626000002201218E4802F015FF8E4B18AA002152
:106270008B48189302F002FF0822002118A804F0AE
:10628000A3FB60232022984610AB9B18424618A916
:106290001A70854802F0FAFA834B0822DF60002169
:1062A0001CA804F091FB302210AB9B1842461CA99D
:1062B0001A707E4802F0EAFA7C4B15AADF600421CE
:1062C0007B481595169702F0C5F9902318AA052169
:1062D00077481893199702F0BDF9FA231E94902479
:1062E0009B02E4051C93734B20001CA901221D9303
:1062F000FAF748FF0622E3692000B34313434A46F6
:10630000E361A36A0021B3431343A362236B013A01
:10631000B3431343236390460023013202F030FC61
:10632000012320000522202102F014FC200000227D
:10633000102102F03DFC20000022132102F038FC65
:106340008622C023C2205200A158DB050B43A35074
:10635000594B80001958594A1140C02212020A4371
:106360001A505A461A60236CF23AFF3A9346934306
:10637000524613432364524C404B2000013A15A966
:106380001695159302F050FC4A46E3692021B34369
:1063900013434246E361236A4A48B34313432362EB
:1063A000A36A3C32B343A362E36AB343E362236B61
:1063B000B3432363E3690B43E361E3691343E3619D
:1063C000236A0B432362236A163913435A46236216
:1063D000236C9343424613432364F82318AA18936B
:1063E000199702F037F9F0231CAA0B2135481C93AA
:1063F0001D9702F02FF9A0200021C00502F012FA2B
:106400008023A0225B00D205D360002108221CA8B3
:1064100004F0DAFA0C212C481CAA02F01BF90D2119
:1064200029481CAA02F016F9002200211E48FEF796
:10643000F1FE012203211D48FEF7ECFE234B994695
:106440001800FFF7B1F84B4604989969FFF76EF80A
:106450001F4B402118000F9301F0B6F84A4639E06F
:10646000F83F002010E000E000ED00E0FC05002017
:10647000000003480004034800080348A086010008
:1064800002002700FCFFF0FF02000B0002000A00E0
:10649000020004005C0B000000050140FFFEFFFF4E
:1064A00000060140102000000001005000040050D0
:1064B000000104400008080100E100E0FF00FFFFC8
:1064C000000200480002044000000440B80600201A
:1064D0009806002022231570D554D84A4E4693467C
:1064E0001568136803931368079313680993136877
:1064F0000893D34B0A93D34B9A46D34B9846D34B2E
:106500001093D34B0E93D34B11935B461C685346A9
:1065100021000093049A33000A9800F06FFA562382
:10652000F35C002B00D036E1A54200D1CDE0C722BC
:10653000C94B92009A580D92C92292009B5808327A
:106540001B051B0D0693C54B9F58043A9D58183ADE
:106550009B582D051B051B0D0593C14B2D0D5B6A2B
:1065600028009B07DB0F0B9304F00CF93F053F0D50
:106570000C90002D00D112E1011CBA4803F01AFB67
:10658000051C43461B680021181C994603F0BEF801
:1065900000280BD181214846C90503F0D9FC291CEC
:1065A00003F0FAF8B04903F005FB051C4346380038
:1065B0001D6004F0E7F8291C03F0CAFCAB4903F0A6
:1065C000F9FA0021071C03F0A1F8002801D0FE27EA
:1065D000BF0543465B680021181C994603F096F8F6
:1065E00000280BD181214846C90503F0B1FC391CB4
:1065F00003F0D2F89C4903F0DDFA071C43465F60C4
:106600000B9B002B00D1DBE0994B9946059804F0D9
:10661000B9F8291C03F09CFC924903F0EBFD4946B4
:1066200003F0C8FA0590069804F0ACF8291C03F0B2
:106630008FFC8C4903F0DEFD8E4903F0BBFA434624
:1066400006901B7A092B00D9ABE042460133D06893
:1066500013725346524651461F60059B0C9D536072
:10666000069A08618A60CD607C216423755C9C4633
:10667000A9466D004D446D007519AC4463467E49D2
:10668000381C0B9303F064FC04F00CF80B9F7A4960
:106690003880059803F05CFC2F0004F003F866379F
:1066A00075493880069803F053FC03F0FBFF4B4616
:1066B00003227C21013313406835735428805346EC
:1066C0003000109A0499FEF7D7FF039BE31A092BB9
:1066D00011D90122582062494B6A5B081340335498
:1066E0004B6A1A405723F2543378022B6BD00E9822
:1066F00001F0D0FC0394FA22099B9200E31A934222
:1067000003D33378012B25D00994079BE31A182B68
:1067100037D8FA22089B5200E31A934218D3574BFA
:10672000574A5A603378002B11D1FA23DB009C4280
:106730000DD32423F25C223B002A04D1B28B002A21
:1067400001D07263013B0F98337000F0A7FE0894EC
:106750002500DAE62423F35C002BD5D1736B002BE4
:1067600061D101232422B354023AB354013333706C
:106770000023738033710A230F98736300F08EFE39
:10678000C2E703237278119801321340737000F04E
:1067900039FF0794BDE70F9800F0C0FEC4E6394DFD
:1067A000EFE60D9B424618050023000D1372431EB1
:1067B000354A9BB293421AD934484346D86048E7D9
:1067C0002C4B994622E72321715C002A09D1B3782A
:1067D000022B05D0002907D1012B88D1B17086E7A3
:1067E0000023B370002982D00123B3707FE703F048
:1067F000C9FF051C011C264803F0FCFC011C281CD9
:1068000003F0D8F902F05EFC224903F0A1FB224913
:1068100002F0C2FF011CFE20800503F0CBF91F49E6
:1068200003F0E8FCC9E7013B7363002B00D06BE782
:1068300097E7013A002A00D064E467E4280A0020C0
:1068400058070020A4060020EC050020DC050020ED
:106850004C0700207C060020000403480008034881
:1068600000000440000020400000A040D044583BFD
:10687000CDCC4C3D0AD7233D0000C8420001044066
:1068800008000800BF49533AFD0F00000000C8414E
:1068900000F07F457CD483390FCF5B3B3393884333
:1068A00070B5314D280000F07DF8304C30492200A1
:1068B000280002F0FFFB2F4D280001F097F922007D
:1068C00028002D4902F0F6FB2C482D492D4AC160C5
:1068D000C162802182602C4A542502612B4A002328
:1068E000426182612A4A4900C26100220163F6398D
:1068F000416309394155013541550135435501354C
:106900004355253543550435425104354251826281
:10691000C2630264026688220360436003624362CA
:10692000836341648364C36403658365C365835083
:10693000043283509033C154743A0021643004F01F
:1069400043F8144D280000F0DDFC22001249280015
:1069500002F0B0FB114D280000F050FE280022008C
:106960000F4902F0A7FB70BD58070020D805002092
:10697000DD6900104C070020F97B0010B8060020EC
:10698000000070420000A041000034450050C347A1
:106990000A00881398060020257300107C0600204A
:1069A00001760010B1220023920010B503608350DD
:1069B0000432835004328350C0220400002152006C
:1069C000043004F001F82000A0228530002152009C
:1069D000FF3003F0F9FF200010BDC0467047C046ED
:1069E000B223C0229B0010B5C4585200944204D276
:1069F000C258541CC4508018017110BDF0B54546F2
:106A0000DE464E465746E0B51E0090238B46702169
:106A1000DB0590469A6C0500C3B0114200D0DA64E1
:106A2000B2242B1D9946A4006F1D72B62A5962B676
:106A30002B78002B08D0012B1FD043B0F0BCBB46F5
:106A4000B246A946A046F0BD032AF6D929796B794A
:106A5000A879EA794B4043409A425AD072B62A59F3
:106A600039004846013A03F09DFF2B59013B2B5159
:106A700062B62B59032BD8D8DFE7B3275946BF009E
:106A8000EB59CB1A322B32D8C44BE85A873BFF3B29
:106A90009C46411E8BB2634529D29042CDD82B1D16
:106AA0009946002954D02A79012907D001234F465D
:106AB000FC5C013362409942FAD8B94669180B79F7
:106AC00093424AD072B690228C238021D2055B007B
:106AD0000902D1508021C901D150B2220023594668
:106AE0009200AB500432A9502B7062B6A5E772B683
:106AF00090228C238021D2055B000902D150802195
:106B0000C901D15000235A462B51EA512B7062B66D
:106B100093E7AB7968791B020343B12080002954C5
:106B20009E495BBA6B529E4BEA5472B629002A59B1
:106B30004846043A083103F035FF2B59043B2B51EA
:106B400062B6B3235A469B00EA5001232B706CE7D0
:106B5000002269180B799342B4D12B799A46524698
:106B60008F4BEA54013BEB5C022B49D02C0085345F
:106B7000FF34032B00D18BE000239A469846009304
:106B800072B6B227854BBF00EB5AEA594846D21A73
:106B90000433E91803F006FF804AEB59AA5A9B1AFE
:106BA000EB5162B64346002B00D000E25346002B67
:106BB00000D0E2E1009B002B00D111E1E423FF3380
:106BC000A1469A4690278A268024A846AA44FF0513
:106BD0004D467600640100E0C046BB592342FBD11C
:106BE00090202978C0050135FAF712FBAA45F4D1A7
:106BF000B32345465A469B00EA5000232B701CE7FE
:106C0000EB88684A934200D109E2674A934200D177
:106C100021E2664A934200D1B0E2654A934200D134
:106C200084E0002B01D05BBA33866B79012B00D155
:106C300066E2002B10D12222B3545E4BDE325A6042
:106C400001235D4A5D4913615D4A13615D4A136129
:106C50005D4A136B0B401363A8685C4B00BAC21803
:106C60005B4B9A4200D816E202231A002C7B22408A
:106C7000234200D109E201222133F254230700D537
:106C800003E3E40600D5F7E12C008534FF3473E715
:106C90006B799846092B00D92DE25F1DFFB2BF0129
:106CA0002C00A0228534FF3420005200002103F084
:106CB0008BFEC223474A5B00EA525F220233EA544A
:106CC00088235246FF33EA5442460133EA54493B93
:106CD000FF3B9A462B0022008A33FF33BA44DB1B6A
:106CE000A84654461D0092463900EA19A0200437F0
:106CF00001F044FBBC42F7D188234546FF3328000E
:106D0000EA5C2B0054468933E330FF33FF301978B7
:106D100001334A409842FAD1F1235B00EA54002340
:106D20009A46013300930023984629E72C00A022BD
:106D30008534FF34002152002000AF6803F044FE88
:106D400086230122FF33EA5401330232EA548823B6
:106D5000013AFF33EA5452460133EA548A2355225A
:106D60002800FF33EA541C4B3FBA8B30F918AB3282
:106D7000FF3003F067FE2B005146184A8A33FF3379
:106D8000AA181878013341409A42FAD1134BE954BA
:106D900001239A46002398460093F1E6C6020000BC
:106DA000C5020000FFF00000FFF10000FFF200004C
:106DB000FFF300000000044000010448FEFEFFFF56
:106DC000000200500002044800000140E0B1FFFF53
:106DD00020BF0200035C000000B001108A02000026
:106DE000A02200215200200003F0EEFD86235C2249
:106DF000FF33EA54013BEB5CD0495340C3225200BD
:106E0000AB54CF4BEF5C8823FF33EF54663BFF3B23
:106E1000F25C6733FF33EA54A822338EFF321B0A39
:106E2000AB54D423328E5B00EA544C9B186803F0B9
:106E30008FF803F037FCCA23020EFF33EA54021422
:106E40000133EA54CC230212FF33EA540133E854ED
:106E50004C9BBA49586803F07BF803F023FCCE231F
:106E6000020EFF33EA5402140133EA54D023021213
:106E7000FF33EA540133E8544C9BB049986803F05F
:106E800067F803F00FFCD223020EFF33EA5402141A
:106E90000133EA54D4230212FF33EA540133E85495
:106EA0004C9BA849186903F053F803F0FBFBD62369
:106EB000020EFF33EA5402140133EA54D8230212BB
:106EC000FF33EA540133E8544C9B5968186803F0C7
:106ED0003FF89A4903F03CF803F0E4FBDA23020E92
:106EE000FF33EA5402140133EA54DC230212FF3365
:106EF000EA540133E8549149B06A03F029F802F0EA
:106F000033FCDE23020EFF33EA54020C0133EA5451
:106F1000E023020AFF33EA540133E854873BFF3B86
:106F2000F25CE223FF332900EA542B00E33189337A
:106F3000FF33FF311A78013357408B42FAD1F123E6
:106F40005B00EF54E423FF33A1469A4690278A263C
:106F50008024A846AA44FF054D467600640100E05F
:106F6000C046BB592342FBD190202978C00501358A
:106F7000FAF74EF9AA45F4D13AE6734BA1469A4680
:106F800090278A268024A846AA44FF054D4676000D
:106F9000640100E0C046BB592342FBD19020297810
:106FA000C0050135FAF734F9AA45F4D120E6A0224C
:106FB00000212000520003F007FD86230522FF3345
:106FC000EA54013BEB5C55215340C3225200AB54C1
:106FD00088225B4BFF32EB5CA146AB540132A954D3
:106FE000552253408A22FF32AB54C5235B009A4698
:106FF00090278A268024A846AA44FF054D4676009D
:10700000640100E0C046BB592342FBD1902029789F
:10701000C0050135FAF7FCF85545F4D1E8E54B4BCE
:10702000AC689A4624BAA2441F009A4508D9380091
:10703000FAF78AF880235B019C466744BA45F6D884
:10704000434B1C6000232C009A4600938534013387
:107050009846FF3494E529008022AC6852000C3138
:1070600002A803F0EFFCFAF765F8384B24BAE018F1
:1070700002A9FAF77DF8E5E7242301222C00F25457
:107080008534223B3370FF3476E5630700D4F5E5A1
:107090002323F254F2E503F075FB2E49B061041C82
:1070A00002F03AFB002822D12B49201C02F048FBB9
:1070B000211C002800D02849284802F07BFDFE2131
:1070C000890503F097F802F04FFB03041B0C81B213
:1070D00042461060224A2348536301F049FC0122D2
:1070E000214B1A61A0230F32DB051A61BCE51F4951
:1070F0000B000800ECE7A02700237F009846CFE5AF
:1071000022220021B354164801F082FB00211548C9
:1071100001F024FC8022164B52045A600223104ACC
:107120001361104A13610222124BFF32196B0A439A
:107130001A631A6B10490A401A638DE500007A44FD
:10714000C5020000000020418B02000000B00110C9
:10715000FC3F002000409C46007C12480024744CF8
:107160000001044800020050000004487F0C0000A9
:107170000000044000000140FEFEFFFF8022554B4E
:1071800052005A600123544A54491361544A13610E
:10719000544A1361544A136B0B4013632223002299
:1071A000F254072808D9AB68504A1BBA9846C62340
:1071B00042445B029A420BD94D4B4C4A1B6898469D
:1071C000C62342445B029A4202D991235B0298464D
:1071D0002C00A0228534FF3400215200200003F04F
:1071E000F3FB86230522FF33EA540133EA54882255
:1071F0005521404BFF32EB5C9027AB540132A95430
:10720000552253408A22FF32AB54C5235B009C4673
:10721000AC446346019380235B019A460094FF05CA
:1072200000E0C0468A2352465B00FB581342F8D167
:107230009020009BC0051978F9F7EAFF009B019A9E
:10724000013300939342EDD18A2280239020520093
:10725000B9581B01C005194203D1C04681581942D3
:10726000FBD000230293029A234B19009A4206D8BE
:10727000C046029B01330293029B8B42F8D94246DF
:107280001E491F4804F048F876E432000421083211
:10729000A02001F00BF8320008210C32A02001F0F0
:1072A00005F832000C211032A02000F0FFFF320060
:1072B00010211432A02000F0F9FF320014211C32FA
:1072C000A02000F0F3FF320018211E32A02000F0B1
:1072D000EDFFD6E40000044000010448FEFEFFFF7D
:1072E00000020050000204480000014000FCFFFFC3
:1072F000FC3F0020C50200003F0D030000B001105C
:1073000000100010142200234270103A82700432E0
:10731000027138320370C37042718371C37103729A
:107320007047C0467047C04610B5047900220C4330
:1073300041790B4801F0B0FC04210948214301F0D8
:1073400005FD022001F0B4F82100054801F0FEFC23
:10735000034801F0E1FC052001F08AF810BDC046A9
:1073600000020048F8B5CE46474680B50D00417989
:1073700000294BD02D4B984654234246D35C002B1A
:1073800044D05623D35C002B40D188270379284C66
:107390009946E36CBF003B4300222000E36401F008
:1073A0007BFCFEF731FE060004E0FEF72DFE801B9D
:1073B000042835D8A36C3B42F7D02023A26C13429B
:1073C00028D180234946E26C9B001343E3642943A0
:1073D000174801F0BBFC8826FEF716FE144C05008A
:1073E000B60004E0FEF710FE401B042818D8A36C7A
:1073F0003342F7D02023A26C13420BD18023E26CDE
:107400009B0013430A48E36401F086FCC0BCB94604
:10741000B046F8BDE26C06481343E36401F07CFC1F
:10742000562301224146CA54F0E7C046B806002060
:1074300000020048F8B50F230E00CE4647469E4393
:10744000164380B58946310005001400FFF78AFF16
:10745000042331000427984639432800C9B2FFF7B6
:1074600081FF4346310028009943FFF77BFF4B46DD
:107470001B011C43E4B2280021002743FFF772FFE1
:107480002800F9B2FFF76EFF434621002800994318
:10749000FFF768FFC0BCB946B046F8BD10B5002282
:1074A0000121FFF7C7FF022000F0E2FF00F098F88B
:1074B00010BDC046F0B585B06D460C4B8C46C2CBB6
:1074C000C2C51B686C462B608378934201D8013B90
:1074D000DAB280219200A358494263441943002242
:1074E000C9B2FFF7A7FF05B0F0BDC04628B3001032
:1074F00070B50E00097805000024002908D10BE0C2
:10750000012228000134FFF795FF315D002903D0E7
:107510006A78E3B29A42F3D8012070BDF8B502262A
:10752000274D0400280001F069FCAE66EB6C0F22C9
:107530003343EB64EB6C012304275B42EB642B6C5D
:10754000322093433B432B6400F092FF2000302114
:10755000FFF7EAFE20003021FFF7E6FE2000302191
:10756000FFF7E2FE20002021FFF7DEFE2023A179B5
:10757000200019430022FFF75DFF2000E771002281
:107580000C21FFF757FF002201212000FFF752FFD7
:10759000022000F06DFF2000267200220621FFF776
:1075A00049FF002202212000FFF744FF022000F0E3
:1075B0005FFF00F015F856220021024B9954F8BDE8
:1075C00000020048B80600200123827810B59342DB
:1075D0009B415B42DB0041718371FFF79FFF10BD50
:1075E000542210B50021034803F0EEF9FF22024BAC
:1075F0001A7010BD2C0A0020000600207047C046FB
:107600007047C046F0B5454657464E46DE46002315
:10761000E0B5CA4F8FB003713B78C94C98462378C8
:1076200005007E7843453CD1C64B0293FB78002B86
:1076300033D1BB781A000393434664245C43B30000
:107640009B195B00E418C04BA4189B465B682C6038
:10765000181C9A4603F026F8814603F043F8011CF3
:10766000504602F0C7FDB94902F072FC03F01AF867
:10767000FF2382465B009C4200D165E21BDCE82CC4
:1076800000DD8CE0C72C00DCDCE0C83C202C00D9FD
:10769000F3E0AF4BA4001B599F4600230022039345
:1076A000CAE7A84B542218000021029303F08CF97A
:1076B00043462370BAE7E1239B009C4200D14EE28F
:1076C0002BDCA44B9C4200D1F4E000DDC9E0A24BCE
:1076D0009C4200D130E25A339C4202D0643B9C422F
:1076E00065D17F699D49381C02F064FA02F0DAFF27
:1076F000040002F0F7FF994902F02AFC011C381C33
:1077000002F078FD964902F055FA02F0CBFFC24331
:107710000300D21793491340C5E08B23DB009C4242
:107720004DDA914B9C4200DDF6E16D3B9C4200D16D
:10773000EAE18E4B9C466444012C38D82B1D132261
:1077400018008B499B4603F07DF92B7908AC002B80
:107750002FD05D4614222021200003F035F90023AC
:107760002800237503F077F90200142800D91422A9
:107770002900200003F066F973009B19DA00D31A80
:10778000029A2100D518280003F052F9002828D1C8
:107790000FB0F0BCBB46B246A946A046F0BDC82318
:1077A0005B009C4200D1BFE164339C4269D000235E
:1077B0002B714346032B34D908AC6E4DCAE76E4B90
:1077C0009C466444012CF2D82B1D9B465823FB5C3D
:1077D000002B00D1D0E1694A1821584603F08CF8FB
:1077E000B3E721001522280003F02CF9644D320084
:1077F00028000021FFF75EFE21002800FFF778FE39
:10780000C6E7FEF701FC5F4901F0FEFD2B1D0200FB
:107810005D4918009B4603F0A3F82B79002B00D09C
:1078200022E108AC032EC8D8039B002BC5D14346E8
:107830009B00564A9B199B009D58002D00D089E75C
:107840004C4D87E76E2C18D12B1D18007A6B5049D0
:107850009B4603F085F82B7908AC002B00D078E725
:10786000E0E7C8239B009C42A1D12B1D1800BA8BD6
:1078700048499B4603F074F867E7002308AC2B7176
:10788000D0E7FF68381C02F00DFF040002F02AFF69
:10789000011C381C02F0AEFC2C4902F059FB02F02E
:1078A00001FF03003C492A1D93462200584603F07D
:1078B00057F84AE72B1D0C22180038499B4603F065
:1078C000C1F842E7BC692549201C02F073F902F0B7
:1078D000E9FE05AB9946824602F004FF1F4902F01B
:1078E00037FB011C201C02F085FC1D4902F062F9E7
:1078F00002F0D8FEC343DB17184053460B21284A39
:10790000019000934846274B02F0F6FF2221795C54
:1079100008AC254B254A009120000B2102F0ECFF1A
:107920002B1D9B464A4623005846214903F018F870
:107930002B79002B00D00CE774E7C046B806002076
:10794000000600202C0A0020A40600200000C842E7
:1079500018B50010C60200006202000000007A4460
:107960000000204118B4001055040000B4FBFFFFD4
:107970006CB3001014B50010A0FBFFFF64B300103F
:107980009806002080EE360000B400109CB5001070
:1079900080B3001040B4001008B4001034B40010DC
:1079A00088B3001084B3001098B300109CB300108B
:1079B000A4B30010398C724B724A009105A80B21B8
:1079C00002F09AFF5146C8170918414001914946F3
:1079D0006D4B6E4A08AC00910B21200002F08CFF29
:1079E0002B1D9B466A492300584605AA02F0B8FFA2
:1079F0002B79002B00D0ACE614E75B461F68381CDF
:107A000002F050FE5B461B690400994602F06AFED4
:107A1000011C381C02F0EEFB5E4902F099FA02F0FC
:107A200041FEC317C01858400B215B4B574A0190C9
:107A3000009405A802F060FF484602F033FE574F5D
:107A400008AC00903B000B212000554A02F054FF87
:107A5000C6E72B1D18000E2252499B4602F0F2FF8A
:107A60002B79002B00D1DCE608AC72E65B469B6804
:107A700008AC181C994602F015FE8246398E4A4B16
:107A80004A4A009105A80B2102F036FF504602F049
:107A900029FE011C484602F0ADFB3E4902F058FAAF
:107AA00002F000FEC317C01858405346404F0093E1
:107AB000364A3B0001908FE7B86A05AB994602F061
:107AC000F1FD3C4C009023000B2148462D4A02F06A
:107AD00013FF2523FB5C002B50D0374908AC374BF4
:107AE000374A009120000B2102F006FF2B1D9B4618
:107AF0004A4623005846264902F032FF2B79002BD4
:107B000000D026E62F4D25E62B1D1800FA8B2E49B6
:107B10009B4602F025FF18E62B1D072218002B4973
:107B20009B4602F08FFF10E62B1D9B462323FB5C38
:107B3000002B1FD0264A4FE62B1D0B22180025498B
:107B40009B4602F07FFF00E6C217831853402A1DB0
:107B5000934621494A46584602F002FFF5E5B868C7
:107B600002F056FE02000B00281D1C49834602F05D
:107B7000F7FEEAE51A4A2FE61A4A2DE61A49ADE75A
:107B8000B0B300109CB30010B4B3001088B3001061
:107B9000A4B300100000C842B8B30010BCB300107A
:107BA000C0B30010CCB30010DCB30010E0B3001081
:107BB000ECB30010F0B3001038B30010F4B30010B1
:107BC000F8B3001014B500105CB400106CB40010D1
:107BD0003CB3001028B4001008B4001050B40010DA
:107BE00050B3001068B3001060B3001001230360AD
:107BF00000234360836070477047C046002370B520
:107C00005E4C0500A370E378002B0AD10123E370DA
:107C100002332370002323710A3363630A336B70CA
:107C200070BD4378502B00D18FE00CD96E2B00D162
:107C300086E028D85A2B15D0642BF1D10A23237063
:107C400064334370ECE73C2B00D183E014D8282B3D
:107C50000DD0E5D8142B00D085E004232370243305
:107C60004370DDE7092323705B334370D8E70523B6
:107C7000237037334370D3E7462BD1D107232370CA
:107C800049334370CCE7782BCAD122000421083253
:107C9000A02000F00BFB220008210C32A02000F0F5
:107CA00005FB22000C211032A02000F0FFFA220078
:107CB00010211432A02000F0F9FA220014211C3205
:107CC000A02000F0F3FA220018211E32A02000F0BC
:107CD000EDFAA06901F048FD02F054FD2849061CA8
:107CE00001F01AFD00283AD12649301C01F028FD88
:107CF000311C002800D02349234801F05BFFFE21FE
:107D0000890502F077FA01F02FFD03041B0C81B204
:107D10001E4A10601E4A1F48536300F029FE0122CC
:107D20001D4B1A61A0230F32DB051A6102230022CA
:107D30002370002362800A32237162636B706FE7E5
:107D40000B2323706D3343706AE70823237052338B
:107D5000437065E7062323704033437060E70F49A3
:107D60000B000800D4E7142B00D959E7002B00D1F1
:107D70004CE70A2B00D053E748E7C046B80600207E
:107D800000409C46007C12480024744CFC050020F6
:107D90000001044800020050000004487F0C00006D
:107DA00070B5474C22780A2A09D846499300CB5827
:107DB0009F462223E25C002A01D10122E25470BDD9
:107DC000E378002BFBD0062A60D03F493F4E65691F
:107DD000281C01F0ABFC00285BD0311C281C01F0F2
:107DE000DBFC3B496061A061051C01F095FC0028AB
:107DF00050D038490B000800374A1060374A3848DD
:107E0000536300F0B5FD0122364B1A61A0230F32F7
:107E1000DB051A61D3E7E378002BD0D09622A38B41
:107E200052009342CBD20133A383C8E7E378002BFF
:107E3000C5D0A5682C49281C01F06EFC0028BED0D6
:107E40002A49281C01F0A8FCA060B8E7E378002BC1
:107E5000B5D0E38B264A9342B1D86433E383AEE7CF
:107E6000E378002BABD02323A7E7E378002BA6D041
:107E7000E5682049281C01F059FC00289FD01B49C7
:107E8000281C01F089FCE060E06298E71A491B4E6B
:107E90009DE7A5611A49281C01F052FC291C002805
:107EA00000D01749174801F085FEFE21890502F030
:107EB000A1F901F059FC03041B0C81B29CE7C046F8
:107EC000B8060020DCB5001000D3D64700002041E2
:107ED00000409C467F0C0000FC0500200001044887
:107EE00000020050000004480000A041CDCCCC3D71
:107EF000871300009A99774200A6D6470000C8422F
:107F0000007C12480024744C70B54F4C22780A2A29
:107F10000ED84E499300CB589F4624230122E254A9
:107F20000022023BE2544A48203B2370FFF7B6FA96
:107F300070BDE378002BFBD0062A76D04549464E2B
:107F40006569281C01F006FC002871D0281C311C32
:107F500002F050F9051C6061A0614049281C01F045
:107F6000EFFB291C002800D03C493D4801F022FECF
:107F7000FE21890502F03EF901F0F6FB03041B0C1B
:107F800081B2384A1060384A3848536300F0F0FC38
:107F90000122374B1A61A0230F32DB051A61C7E7B4
:107FA000E378002BC4D0A38B012BC1D9013BA38361
:107FB000BEE7E378002BBBD0A5682E49281C01F052
:107FC000BFFB0028B4D02C49281C02F013F9A06094
:107FD000AEE7E378002BABD0E38B284A9342A7D9D6
:107FE000643BE383A4E72223E25C002AA0D00022C2
:107FF000E25422879CE7E378002B99D023230022C8
:10800000E25495E7E378002B00D191E7E5681C493D
:10801000281C01F09FFB002800D189E71649281C85
:1080200002F0E8F8E060E06282E71649164E87E762
:108030001649A561281C01F06FFB00288DD014495A
:108040000B0008009DE7C046B806002008B60010E7
:10805000980600200009A64700002041007C124835
:108060000024744CFC05002000010448000200506C
:10807000000004480000A0C1CDCCCC3DDC050000D0
:108080003333A3400036A6470000C84200409C4658
:108090007F0C000070B50378040082B0002B01D182
:1080A00002B070BDFDF7B0FF7A4906004A6AA378B6
:1080B000920602D54A6AD2060FD4774DEA78012A91
:1080C00001D10A216963012B6CD0032B62D0002BF4
:1080D000E6D101336660A370E2E74A6A1207ECD585
:1080E000012B00D18CE06B494A6AD2067DD46A4DDF
:1080F000EB78012BD4D16368F61A684B9E42CFD936
:108100006748FFF7CBF9674B01AA009300230021D2
:10811000A020019300F032F9019A009B9A4200D10D
:1081200092E06A460021A02000F0C0F82A00042155
:108130000832A02000F0BAF82A0008210C32A02052
:1081400000F0B4F82A000C211032A02000F0AEF8A4
:108150002A0010211432A02000F0A8F82A001421CF
:108160001C32A02000F0A2F82A001821A0201E3204
:1081700000F09CF86B690022AB61EB686A80EB62EF
:10818000EB8B0A322B8402232B7000236A632B7142
:10819000637085E76368F31A322B00D880E7002309
:1081A000A3707DE76368F31A642B00D878E7394839
:1081B000416AC90610D53748416A890627D4002A82
:1081C00036D1394A934200D86AE72000FFF716FDFE
:1081D00003236660A37063E7416A0907EBD4617803
:1081E0001429E8D10223A3705AE74A6A120700D47F
:1081F0007DE7022B00D07AE72000FFF7FFFCCEE7F7
:10820000FA2162684900821A8A42C8D86BE7436A39
:10821000DB0612D5436A1B0700D541E72000FFF7B4
:1082200073FE03230122A37021336660EA5437E70B
:108230006378142B00D133E7C7E72000FFF7B0FDC8
:1082400003236660A3702BE72A0004210832A020D4
:1082500000F094F82A0008210C32A02000F08EF8DB
:108260002A000C211032A02000F088F82A001021EA
:108270001432A02000F082F82A0014211C32A02021
:1082800000F07CF82A0018211E32A02000F076F8B9
:1082900070E7C04600000440B80600201027000028
:1082A000980600205833121788130000F0B5C64610
:1082B00000B582B06F460B0AC9B210780902DBB272
:1082C0000B4351780004090603430B430093937852
:1082D0003B71D37800227B71254B9846542341464D
:1082E000CA5424498B6B1B0609D58020224B02E01F
:1082F000013B002B03D0C0468A6B1042F8D100220C
:10830000A0211C4800F0C8FC6B468025194C9E1D1E
:10831000A36B1D4208D0184B02E0013B002B03D099
:10832000C046A26B1542F8D139781248013700F0E7
:108330000DFDBE42ECD1A36B1B060AD580210E4B6E
:108340000C4802E0013B002B03D0C046826B114277
:10835000F8D1084800F0E0FC0A2000F089F8542326
:10836000012241460120CA5402B080BCB846F0BD8B
:10837000B806002000020048E7030000CBB2F0B5C9
:10838000C6461400984600225423364E0F0A36493A
:1083900000B5F2548B6BFFB21B0609D58020334B1E
:1083A00002E0013B002B03D0C0468A6B1042F8D19B
:1083B0002D4D0022A021280000F06EFCAB6B1B06A7
:1083C00009D58022294B02E0013B002B03D0C04697
:1083D000A86B0242F8D1244D3900280000F0B6FC09
:1083E000AB6B1B0609D58022204B02E0013B002B22
:1083F00003D0C046A96B0A42F8D141461A4800F0A2
:10840000A5FC012000F034F80122A021164800F05C
:1084100063FC012000F02CF8E51C271D1248AC423B
:1084200015D000F0A9FC012000F022F80E4800F061
:10843000D7FC20700134BC42F0D10B4800F06CFC3A
:10844000542301220120F25480BCB846F0BD00F054
:10845000ADFC012000F00CF8034800F0C1FC2070D6
:10846000EBE7C046B806002000020048E703000022
:10847000FA210E4B70B589000400186800F0C4FFA3
:10848000010006000320404200F0BEFF0500A042AC
:1084900006D20320404200F01FF8641BA542F8D327
:1084A0002000704300F018F870BDC046F83F00206F
:1084B000064B10B5040018680549013800F0A4FF08
:1084C0000130604300F008F810BDC046F83F0020BE
:1084D00040420F00000000000230800803D0013845
:1084E000FDD1C046C046C0467047EFF3108072B65B
:1084F000704780F310887047C0230421084A5362F4
:10850000536A1942FCD18021064AC90513691843F0
:10851000106113680B42FCD1C322014B5A627047B1
:108520000000014000030140034B9B6803405A1EBA
:108530009341D8B27047C04600030140F8B5C0234C
:108540000D0004242C4A5362536A1C42FCD12B4A6E
:108550002B4B14681168240419402A4B29430B4300
:108560008021240E1360C90513680B42FCD184429C
:1085700029D98600B44212D9234B80219C461F4A38
:10858000204FC90565461368A4082B4025022B43DC
:108590003B43136013680B42FCD1B442F2D8174A34
:1085A0001949136800020B40164903430B4380210D
:1085B0001360C90513680B42FCD1C3220E4B5A62EB
:1085C000F8F77CFDF8BDA3009842E8D980210B4A5A
:1085D0000D4F0C4EC905251E00D101351368AC00A6
:1085E0003B40AD022B433343136013680B42FCD175
:1085F000A3009842EFD8D2E70000014000030140F9
:1086000000FF0FC00000F03FFF000FC0C023042197
:108610000A4A70B55362536A1942FCD145688368AF
:10862000074C2B432168074D29400B432360C3238C
:10863000536201784078FFF781FF70BD0000014070
:1086400000030140FFFFF0FF014B18687047C04670
:10865000F83F0020F0B54746CE46032480B52700FA
:10866000F8260F40FF00BE408B089B00C3181D6911
:10867000B5434E00B4401D61456F0426A543CC08A8
:10868000A40045670419256CA84607250D40AD00D8
:10869000AE40A9464546B54325644D46266CB446D2
:1086A0005678AE4035006646354325640C4CA042F2
:1086B00010D0002555571478002D02DA52688A40F0
:1086C00042602200BA4019690A431A61C0BCB94627
:1086D000B046F0BD01258D40046EAC430466E8E76A
:1086E00000020440094B70B505000C00984209D007
:1086F00080235B00EB602B68054AA40313401C43F6
:108700002C6070BD0420FFF7F7FEF1E7000004487D
:10871000FF3FFFFF0B6843614B799B06DB0F1B0597
:1087200043600B791B071B0F43624B791B071B0F21
:1087300003624B79DB06DB0F83610B791B09C36294
:108740007047C0460B6843614B79DB07DB0A436027
:108750000B791B071B0F43620B791B09C362704720
:1087600010B503244368A343194341604369012AB8
:1087700003D0044A1340436110BD8022D20013434A
:10878000F9E7C046FFFBFFFF30224368090193432E
:10879000194341607047C046C02243688901934332
:1087A000194341607047C046F0B54C1EE4B2650005
:1087B000EDB22F0003231037FFB2C6469846BB40E8
:1087C0009C46066800B533006646B3439C46537822
:1087D0001531BB40CFB201216646B94033438B43CC
:1087E00091784646B9401935EDB21943D378AE4079
:1087F000AB40B1430B43A1000F241278C9B28C40A7
:108800008A40A3431343036080BCB846F0BDC04612
:1088100002224369002902D1934343617047134305
:108820004361FBE7A02370B5DB0505000C0098420F
:1088300009D080235B00EB602B68054AA40313403A
:108840001C432C6070BD0220FFF756FEF1E7C046C6
:10885000FF3FFFFF012303610B688A6843614B7B85
:10886000DB06DB0F1B0543600B7B1B071B0F436203
:108870000B7B1B09C3624B7B1B071B0F03624B68FF
:1088800083611423534083647047C046012303610E
:108890000B6843614B79DB07DB0A43600B791B09EB
:1088A000C3620B791B071B0F4362704710B503248B
:1088B0004368A343194341604369012A03D0044A32
:1088C0001340436110BD8022D2001343F9E7C04634
:1088D000FFFBFFFF302243680901934319434160C6
:1088E0007047C046C02243688901934319434160E1
:1088F0007047C046F0B54C1EE4B26500EDB22F00E3
:1089000003231037FFB2C6469846BB409C46066814
:1089100000B533006646B3439C4653781531BB40DF
:10892000CFB201216646B94033438B439178464626
:10893000B9401935EDB21943D378AE40AB40B143DD
:108940000B43A1000F241278C9B28C408A40A34384
:108950001343036080BCB846F0BDC04602224369A1
:10896000002902D19343436170471343FBE7C0469C
:1089700041637047002901D1C26370474264FCE73C
:108980007047C046902310B5DB05040098420DD017
:108990000B4B98420AD003230122E360E3681A429A
:1089A000FCD00F22236C9343236410BD0820FFF7F3
:1089B000A3FD0820FFF7B8FD0028FAD1EBE7C04679
:1089C00000020048F0B5DE4657464E464546E0B543
:1089D00083B001900C0001200092632901D9002A84
:1089E00006D103B0F0BCBB46B246A946A046F0BDD6
:1089F000FFF72AFE642100F007FD64210600200035
:108A000000F002FD194B009F994601239A468023EE
:108A1000DB009B461C0098464743B50239002800FE
:108A200000F0F2FC830A434506D88005800D81459D
:108A300002D981469A46A346013CAD1B002CEDD1DC
:108A40005B46802201981202013B13430361009BA5
:108A500042690749013B9B020A401A435346013BC6
:108A60001B04134343610020BBE7C046FF03000023
:108A7000EF8000FCF0B557464546DE464E461400F2
:108A8000E0B583B00D00824601910092FFF7DCFD56
:108A900023006B430700984601209F4249DD1900DF
:108AA000380000F03BFD294B0600984248D9424669
:108AB0000125994656003100380000F02FFDAB46E5
:108AC0000400013546444845F5D85B4606001B04C2
:108AD0009B466E430099631C69433800594398468E
:108AE00000F092FC019B00991D1AEB17ED1838005D
:108AF00071435D4000F088FC019B181AC317C01831
:108B00005840854200DBA04680224346D200D21A5C
:108B10008023DB01134352461361009B52690C49C9
:108B2000013B0A409B0213435A461343524600201E
:108B3000536103B0F0BCBB46B246A946A046F0BDA7
:108B4000002304009B460125C4E7C046FE03000045
:108B5000EF8000FC70B5842464000559064E1206AF
:108B6000354005510A431B0205591A43034B1D406A
:108B70002A43025170BDC046FFFFFFF8C0C0FFF896
:108B800070B586256D004459074E12063440445195
:108B90004459064E1B0234400C4314431C438023AB
:108BA0005B052343435170BDFFFFFFF8C0C0FFEFDB
:108BB00030B5072486258C408A406D004359A34375
:108BC0001343435130BDC0460300144810B58142E1
:108BD0000AD8D86B124C2040D863002A14D00A223D
:108BE0001800FFF747FF10BD0E4C0120A142FAD834
:108BF0008020DC6B80022043D863002A09D0192230
:108C00001800FFF737FFEEE70A221800FFF7DAFE39
:108C1000E9E719221800FFF7D5FEE4E7A086010076
:108C2000FFFFFDFF801A060070B504000D0016005E
:108C3000FFF7A8FEF822F021164BD2016363EB8800
:108C4000C9011A408A4210D0E06B1B02000C0004DC
:108C50000343E363002E16D1A023DB00A3630123AB
:108C60005B42E3640023236470BDFF21E26B194083
:108C7000120C12040A43FE215B0009020B4013434D
:108C8000E363002EE8D020002A792968FFF79CFFD3
:108C9000E2E7C04603033F07012A18D08023DB0028
:108CA000194384235B00C258E023DB041A4203D03B
:108CB000C0235B00C1507047836B1B06FCD480232C
:108CC000C26C9B011343C3648023C150F3E7014B83
:108CD0001943E6E701040000012A18D0A023DB00B5
:108CE000194384235B00C258E023DB041A4203D0FB
:108CF000C0235B00C1507047836B1B06FCD48023EC
:108D0000C26C9B011343C3648023C150F3E7014B42
:108D10001943E6E70105000084235B00C258E02305
:108D2000DB041A4205D0C023C0225B00D200C2502F
:108D30007047836B1B06FCD48023C26C9B011343DA
:108D4000C022C3648023D200C250F1E784235B00B9
:108D5000C258E023DB041A4203D0C0235B00C15099
:108D60007047836B1B06FCD48023C26C9B011343AA
:108D7000C3648023C150F3E784235B00C258E0231F
:108D8000DB041A4205D0C02380225B009200C2504F
:108D90007047836B1B06FCD48023C26C9B0113437A
:108DA0008022C36480239200C250F1E784235B00D9
:108DB000C258E023DB041A4205D0C023C0225B0066
:108DC0009200C2507047836B1B06FCD48023C26C98
:108DD0009B011343C022C36480239200C250F1E779
:108DE00086235B00C258E023DB041A4202D1406DA7
:108DF000C0B270478E235B00C058F9E7836B1B0637
:108E000005D40F22036C93430364002070470220B3
:108E1000FCE7C046FF2210B5024B01201A60FFF7A5
:108E20006BFB10BD00050140FF2270B50D00040072
:108E30000D4B01201A60FFF75FFB6B696A682360C6
:108E400080231B0213438022A350A023AA68E25070
:108E5000EA680433E2502A69DD33FF33E2502A68BE
:108E6000C93BFF3BE25070BD0005014080228023DA
:108E700081581B060B43C0218350204B8902985810
:108E8000084207D18022C0211D4B89029858084210
:108E90001DD1704780219A58890580200A4203D14C
:108EA000C0461A580A42FBD080238021134A490544
:108EB000D3580B42E6D08020C04613580B42FBD15A
:108EC0008022C0210E4B890298580842E1D08021AF
:108ED0009A58890580200A4203D1C0461A580A428E
:108EE000FBD080238021064A4905D3580B42D0D0BD
:108EF0008020C04613580B42FBD1CAE70004034848
:108F000000080348802210B503248358A343194363
:108F1000815010BDF0B54646D6464F468422C0B5B6
:108F2000234E244CB358244D2340B350AB58234018
:108F30000324AB500B781C4027009A46A446B35834
:108F40007C1EA7411D4CFF022340A0461C00534637
:108F50001B079B0F1B021C433C43B4504646AC58B6
:108F6000344023431F43AF504A68154B13438022BC
:108F70009200835001238A68134381229200835018
:108F80006346022B04D1802381585B020B4383503C
:108F9000842380220648D204C1581143C150064997
:108FA000C8580243CA50E0BCBA46B146A846F0BD14
:108FB00000040348FFFFFFFB00080348FFFCFFFF1E
:108FC00000808000012370B588258B4044599C4364
:108FD000137B8B40234343510D23D356002B0EDBD1
:108FE00001291BD0002904D1B0251F264459B443C0
:108FF00044510026B024B34005592B430351C824E3
:109000000359556880312B4303510834956803593F
:1090100089002B43035113680B5070BD2835445908
:10902000044E344008264451B024B34005592B4324
:109030000351E4E7FFE0FFFF10B5802489004018EA
:10904000034912684358640023401343435010BD42
:109050005C0B000070B50C0005001600FFF790FCDB
:109060000F22A1008A402B68043493433268A40085
:109070008A4013432B607368635170BD70B516004E
:109080000C0005000834FFF77BFC3368A400635133
:1090900070BDC04610B50724043189000B5822402A
:1090A00069341201A343134301220B500B5813439D
:1090B0000B5010BD030010B50800190001F00EFCA4
:1090C00010BD000070B5041C00F058F8211C051CF0
:1090D000201C01F0D1FA002810D10021201C00F042
:1090E0002FFB00280AD10021201C00F00FFB0028D4
:1090F00006D001F071FC2223064D0360281C70BDD0
:1091000001F06AFC21230360034800F007F8051C06
:10911000F4E7C046000080FF14B500100048704717
:109120000000C07F4200031C120EC043110010B5A6
:109130000224C01720407F3901381E290CDC002989
:1091400016DB80245B025B0A24042343162907DD17
:10915000963A9340584310BD181C01F0A3FAFAE761
:109160008022D2030A41D3181722521AD340F1E7C2
:109170007E3A53425A4152421040ECE7F8B5DE467F
:1091800057464E4645464200E0B5002A46D0021EEC
:109190004FDBFF21C905884200DBC6E080230021A8
:1091A0001B04984206DA9821C90500F0D1FE192166
:1091B00002004942D3157F3B5B1880215202540ABA
:1091C000834AFE200904A2180A40FE21800550406F
:1091D000D61520438905F61801F00CF822007D4BC6
:1091E0000F32051C1A422BD1002100F08FFA002803
:1091F00000D19EE00020002E15D0300001F072FA60
:109200007549041C00F0A4FE7449051C201C00F0E4
:109210009FFE011C281C00F0BFFA04E0CC200021B6
:10922000000600F0C7FCF0BCBB46B246A946A0460B
:10923000F8BD011C00F0DEFF002100F0BBFCF2E7EE
:109240008021C90500F0A8FA011C281C00F0B2FC1E
:109250008046300001F046FA41468146404600F023
:1092600077FE5F4B011C9A46834600F071FE5D4914
:10927000071C00F06DFE5C4900F08EFA391C00F00E
:1092800067FE5A4900F088FA391C00F061FE58491F
:1092900000F082FA594600F05BFE56498346381CBE
:1092A00000F056FE544900F077FA391C00F050FEE9
:1092B000524900F071FA391C00F04AFEA244011C28
:1092C000584600F069FA52464D4B071C1B1B1343CE
:1092D000002B48DDFC21281C890500F039FE291CE3
:1092E00000F036FE011C041C381C00F055FA414603
:1092F00000F02EFE071C002E49D03749484600F0EA
:1093000027FE3649061C484600F022FE391C00F0B4
:1093100043FA011C201C00F06DFF291C00F06AFFBD
:10932000011C301C00F066FF7DE7011C00F034FAE0
:1093300079E73449281C00F00BFE011CFC20800555
:1093400000F058FF291C041C281C00F001FE011C21
:10935000201C00F0FDFD041C002E21D1211C281C26
:1093600000F048FF5FE7011C281C00F043FF414666
:1093700000F0EEFD041C002EF0D04846164900F027
:10938000E7FD1649061C484600F0E2FDC1E7011C56
:10939000201C00F02FFF011C281C00F02BFF42E7CF
:1093A000300001F09FF90C49061C00F0D1FD0B497B
:1093B000071C301C00F0CCFD011C201C00F01AFF23
:1093C000291C00F017FF011C381C00F013FF2AE7CE
:1093D00020FB4A00F0FF7F008071313FD1F7173743
:1093E000305CCFFF9788173E25333A3E2549923EA1
:1093F000ABAA2A3F4FD01C3E298E633ECDCCCC3E3B
:1094000088C23500ABAAAA3E002243088B4274D31F
:1094100003098B425FD3030A8B4244D3030B8B4275
:1094200028D3030C8B420DD3FF22090212BA030C7E
:109430008B4202D31212090265D0030B8B4219D35F
:1094400000E0090AC30B8B4201D3CB03C01A52417F
:10945000830B8B4201D38B03C01A5241430B8B42C7
:1094600001D34B03C01A5241030B8B4201D30B03B0
:10947000C01A5241C30A8B4201D3CB02C01A5241D7
:10948000830A8B4201D38B02C01A5241430A8B429A
:1094900001D34B02C01A5241030A8B4201D30B0283
:1094A000C01A5241CDD2C3098B4201D3CB01C01A9D
:1094B000524183098B4201D38B01C01A52414309A7
:1094C0008B4201D34B01C01A524103098B4201D395
:1094D0000B01C01A5241C3088B4201D3CB00C01A02
:1094E000524183088B4201D38B00C01A524143087A
:1094F0008B4201D34B00C01A5241411A00D201469F
:10950000524110467047FFE701B5002000F0F0F827
:1095100002BDC0460029F7D076E7704703460B43EB
:109520007FD4002243088B4274D303098B425FD35C
:10953000030A8B4244D3030B8B4228D3030C8B4288
:109540000DD3FF22090212BA030C8B4202D312126E
:10955000090265D0030B8B4219D300E0090AC30B43
:109560008B4201D3CB03C01A5241830B8B4201D3F0
:109570008B03C01A5241430B8B4201D34B03C01AD9
:109580005241030B8B4201D30B03C01A5241C30A51
:109590008B4201D3CB02C01A5241830A8B4201D3C2
:1095A0008B02C01A5241430A8B4201D34B02C01AAC
:1095B0005241030A8B4201D30B02C01A5241CDD251
:1095C000C3098B4201D3CB01C01A524183098B429C
:1095D00001D38B01C01A524143098B4201D34B0185
:1095E000C01A524103098B4201D30B01C01A5241E8
:1095F000C3088B4201D3CB00C01A524183088B426F
:1096000001D38B00C01A524143088B4201D34B0057
:10961000C01A5241411A00D20146524110467047C9
:109620005DE0CA0F00D04942031000D340425340CE
:1096300000229C4603098B422DD3030A8B4212D38E
:10964000FC22890112BA030A8B420CD389019211C0
:109650008B4208D3890192118B4204D389013AD0FD
:10966000921100E08909C3098B4201D3CB01C01AD2
:10967000524183098B4201D38B01C01A52414309E5
:109680008B4201D34B01C01A524103098B4201D3D3
:109690000B01C01A5241C3088B4201D3CB00C01A40
:1096A000524183088B4201D38B00C01A5241D9D258
:1096B00043088B4201D34B00C01A5241411A00D2D9
:1096C0000146634652415B10104601D34042002BD5
:1096D00000D54942704763465B1000D3404201B554
:1096E000002000F005F802BD0029F8D016E7704709
:1096F0007047C046844608006146FFE71FB500F08A
:10970000DFFB002801D40021C8421FBD10B500F0C6
:1097100067FB4042013010BD10B500F0D1FB0028BE
:1097200001DB002010BD012010BDC04610B500F0C7
:10973000C7FB002801DD002010BD012010BDC04680
:1097400010B500F075FB002801DC002010BD0120E1
:1097500010BDC04610B500F06BFB002801DA0020F8
:1097600010BD012010BDC0469E2110B5C905041CC6
:10977000FFF7F0FF002803D1201C00F093FF10BD7D
:109780009E21201CC90500F035FD00F08BFF8023D1
:109790001B069C466044F2E74A02F8B5530ACE46DF
:1097A00099464B00C90F4746884646004502360E8B
:1097B0001B0E80B5C40F6F0A9209AD09F11A44451A
:1097C0004BD0002938DD002B00D174E0FF2E00D1F2
:1097D000BEE08023DB041A431B2900DCFDE0013DD1
:1097E0006B0100D4AFE001256D42AD01AF09380037
:1097F00001F056F83B0005388340864200DCD3E098
:10980000B94D311A1D405A0700D19EE00F22134076
:10981000042B00D199E004356B0100D495E0481C7D
:10982000FE2951D1FF200023C0051843E40720433F
:10983000C0BCB946B046F8BD002949D0991B002EDE
:1098400072D1002D00D133E14C1E012900D159E124
:10985000FF2900D14CE121006CE0002900DC81E00F
:10986000002B55D1002A70D04B1E012900D12BE1CD
:10987000FF296DD01B2B50DC190020235B1A100030
:109880009A40C840531E9A410243AD188023DB041E
:109890001D4200D1ADE0711CFE2EC3D001206A082C
:1098A0002840924D154005436A0700D08BE01D42C9
:1098B000B5D1EF0834E0002A47D04B1E012966D00D
:1098C000FF2945D0190087E7C0B2AB015B0AABE7BF
:1098D000FE239C46701C03006046184200D092E0B4
:1098E000002E00D0E7E0002D00D119E1002A17D0AA
:1098F0008023AF1ADB041F4200D142E14446551BCE
:1099000000D187E001201D42DFD10021EF0807E0F0
:10991000FF2E1DD01B2900DC94E031000535EF0837
:109920007B025B0AC8B27FE7FF2B00D1E0E080201A
:10993000C00405431B2900DC88E0551E44461E0078
:10994000690100D54FE731000435EF08FF29E7D161
:10995000002F00D166E78023DB033B435B02FF203F
:109960005B0A61E7002958D0991B002E00D089E0DE
:10997000002D00D19DE04E1E012900D1A4E0FF2959
:1099800000D1B6E01B2E00DDB8E0310081E0AA1A5C
:10999000530100D4AFE09701BF09380000F080FF09
:1099A0003B000538834001261D00811B202001312A
:1099B000CD40411A8B40591E8B411D432AD00021B6
:1099C0006B0700D1F0E00F232B40042B00D022E7DF
:1099D0006B0100D523E7EF08A2E720235B1A1000F4
:1099E0009A40C840531E9A410243AD1A6B0100D5FC
:1099F000FBE66B0700D1D5E00F2331002B40042B91
:109A000000D008E7A1E7AF1A7B014ED4002F00D0A9
:109A1000EDE600240020002306E7FE23711C0B4224
:109A200021D1002E00D081E0002D00D19FE0002A3E
:109A300000D1B2E0AB185A0100D4B0E09B01012084
:109A40005B0AF1E68023DB041A4316E72024280092
:109A5000C840611A8D4029004C1EA1410143444673
:109A60001E00551AC2E7FF2900D1DBE6AF187F08B8
:109A70007B0705D00F233D1D3B40042B00D064E73E
:109A8000FF084DE7FF2B34D01B2937DC8020C004B2
:109A9000054328002026C840711A8D4029004D1E1C
:109AA000A94101431E008D18F0E64446571B9EE66F
:109AB0004446150049E7002D46D1002A66D180238F
:109AC0000024FF20DB03AFE6AA18530113D5074F8C
:109AD00052081740530744D00F231340042B40D0A3
:109AE00002213D1D31E7C046FFFFFFFBFFFFFF7D69
:109AF00044464F462CE70121D70811E705321900EB
:109B0000D7080DE7571B7B0137D5BF01BF093800C8
:109B100000F0C6FE3B00053883404446013643E76B
:109B2000002A00D175E744464F46F9E6002DE0D003
:109B30008023DB03002A17D09F4200D20BE7994510
:109B400000D308E74F4606E78023DB03002A0BD04B
:109B50009F4200D2FFE6994500D3FCE644464F46BB
:109B6000F9E60221FF08DBE6FF203B435CE6002A22
:109B700000D14FE70021D708D2E644460121FF0873
:109B8000CEE6002F00D07BE7002443E780234A463F
:109B9000DB034446FF20134346E60021C0E60021D4
:109BA000DF08BDE63100D0E601206A0100D58BE672
:109BB0002A00DFE7F0B546464F46D6464502C0B517
:109BC000C30F470098460E1C6D0A3F0E5BD0FF2F57
:109BD00021D08023ED00DB041D43002399469A46E3
:109BE0007F3F74027300640A1B0EF60F002B20D017
:109BF000FF2B43D080220020E400D20414437F3B9B
:109C00004246FF1A4B4672400F2B00D99DE0714926
:109C10009B00CB589F46002D5AD108239946063BFE
:109C200074029A467300FF27640A1B0EF60F002B7E
:109C3000DED1002C3BD101234246494672401943F4
:109C40000E2918D86448890041588F465346022B84
:109C500000D1B8E0032B6ED042462C00012B40D13E
:109C600000200024C0052043D2071043E0BCBA46C0
:109C7000B146A846F0BDFF200024F3E7002C20D118
:109C80000223FF3FD8E7002D05D104239946033B6B
:109C900000279A46A5E7280000F002FE7627431F1A
:109CA0009D4000237F4299469A463F1A99E720003B
:109CB00000F0F6FD431F9C4076235B421B1A0020F8
:109CC0009EE703234A461A4391460320FC3397E755
:109CD0000C239946093BFF279A4682E703282CD09C
:109CE000320038007F30002847DD630704D00F239F
:109CF0002340042B00D00434230103D53800374B14
:109D000080301C40FE28B6DCA401640AC0B2A9E77A
:109D100080240022FF20E403A4E78023DB031D420C
:109D200001D01C420BD08024E4032C436402424641
:109D3000FF20640A96E746462C008023DB031C4381
:109D400064023200FF20640A8CE76D0160018542E5
:109D50002DD21B230024013F0126290064006D0041
:109D6000002901DB854201D32D1A3443013B002B2E
:109D7000F3D16B1E9D412C43B3E701231B1A1B2B10
:109D800000DD6DE721009E37D940BC400B00611E0D
:109D90008C412343590704D00F211940042900D0D6
:109DA0000433590113D49B0100205C0A5AE71A239B
:109DB00001242D1AD0E7981E4342584140423200F8
:109DC0000024C0B24EE74246FF2000244AE70120AB
:109DD000002447E734B6001074B60010FFFFFFF709
:109DE00070B542004E024C0045026D0A120EC30FC0
:109DF000760A240EC90FFF2A10D0FF2C0CD00120A8
:109E0000A2420AD1B54208D18B420FD0002A04D118
:109E10002800431E984100E0012070BD0120FF2C66
:109E2000FBD13543F9D14B401800F6E70020F4E7A9
:109E300030B5420044024D02C30F4800640A120EBE
:109E40006D0A000EC90FFF2A18D0FF280AD0002A79
:109E50001ED100280AD1002D29D0002C2DD1480078
:109E6000013830BD002D25D1002A01D1002CF6D0BB
:109E70008B4219D001205B421843F2E7002C19D124
:109E8000FF28F7D1002D15D100208B42F2D1E8E751
:109E90000028EFD08B42EDD18242EBDC04DBAC42F8
:109EA000E8D80020AC42DCD258000138D9E7002CB9
:109EB000D7D0DFE702204042D3E78B42DAD1EEE78A
:109EC00030B5420044024D02C30F4800640A120E2E
:109ED0006D0A000EC90FFF2A17D0FF280AD0002AEA
:109EE0001BD100280AD1002D1DD0002C2DD14800F7
:109EF000013811E0002D0ED1002A01D1002CF6D03E
:109F00008B420CD15800013806E0002C03D1FF2809
:109F100005D1002D15D0022030BD002806D101202A
:109F20005B421843F8E7002CF6D0F8E78B42F6D1F5
:109F30008242F4DCE6DBAC42F1D80020AC42EBD24A
:109F4000E0E700208B42EAD1E6E78B42E7D1F2E777
:109F5000F0B54F464646D6464502C0B546000F1CF2
:109F60006D0A360EC40F002E00D1CDE0FF2E72D048
:109F70008023ED00DB041D43002399469A467F3E73
:109F80007B025B0A98467B001B0EFF0F002B72D0F2
:109F9000FF2B00D1A9E07F3BF6184B460A2B00DDD2
:109FA00085E043468022DB00D2041A434B469046AC
:109FB0007C400022022B0FDD494601238B40A62165
:109FC000C9000B4200D072E0902189000B4200D002
:109FD000DAE08821194267D1280C42462D042D0C65
:109FE0004346290012041B0C120C51435D434243AB
:109FF0005843AD180B0C5B199A4203D980225202C8
:10A000009446604409041A04090C52189501691E0B
:10A010008D411B0C920E1B1815439B011D431B0108
:10A0200000D5CFE030007F30002800DCB1E06B07C6
:10A030000BD00F2332002B40042B06D004352B010C
:10A0400003D5803210006A4B1D40FE2864DCAB0152
:10A050005B0AC0B21FE0002D00D08FE008239946B4
:10A06000063B9A467B025B0A98467B00FF261B0E46
:10A07000FF0F002B8CD14346002B5CD14A460133A5
:10A080001A43914613000A2A11DC01227C40022B5C
:10A0900092DC00200023C0051843E4072043E0BC05
:10A0A000BA46B146A846F0BD3C00454692465346E6
:10A0B000022B31D0032B11D0012BEAD0300080309D
:10A0C000721C002866DD6B07B9D00F232B40042BD0
:10A0D000B4D1B4E70F2A7AD03C0045468023DB0395
:10A0E0002B435B02FF205B0AD5E74346FF36002B7C
:10A0F00034D14A46023313430A2BD8DC7C40002A71
:10A100000AD09946022257E7002D08D10423994628
:10A11000033B00269A4633E7FF200023BBE72800D5
:10A1200000F0BEFB7626431F9D40002376429946F1
:10A130009A46361A24E7404600F0B2FB4B46361AE0
:10A14000763E0A2BB3DC43460538834098464B469F
:10A1500000227C40022B00DD2EE73DE703234A4628
:10A160001A4313000A2AB5DC01229A408821130001
:10A170007C400322194200D12EE795E70C23994633
:10A18000093BFF269A46FBE680230024FF20DB03E1
:10A1900081E7320001231B1A1B2B00DD79E79E3279
:10A1A00029009540D9406A1E95410D436B0704D0A4
:10A1B0000F232B40042B00D004356B0113D5012055
:10A1C000002368E701236A081D40154376E78023D2
:10A1D000DB031D4282D042461A4200D07EE73C009B
:10A1E000FF20134357E7AB0100205B0A53E7C0464B
:10A1F000FFFFFFF7F8B54746CE464B02460080B555
:10A20000C40F4702580A844648007A0A360EBF092E
:10A21000000ECD0F9B09FF286DD001214D40311A52
:10A22000AC423AD0002900DC9CE1002800D19EE03D
:10A23000FF2E00D188E08022D20413431B2900DCCA
:10A24000F6E0013F7A0100D479E001277F42BF01A7
:10A25000BB099846404600F023FB4346053883403F
:10A26000864200DCCCE0B44F311A1F405A0768D058
:10A270000F221340042B64D004377B0161D5481CA6
:10A28000FE2900D081E0FF200023C0051843E40729
:10A290002043C0BCB946B046F8BD002900DC79E1D6
:10A2A000002876D1002B4CD0481E012900D147E16F
:10A2B000FF2949D01B2871DC01001A002020CA4068
:10A2C000411A8B40591E8B411343FF188023DB0436
:10A2D0001F4200D1B8E0711CFE2ED4D00122974855
:10A2E0003A407F08074017437A0700D096E01F42A4
:10A2F000C5D1FA0855E03100FF398946002B2CD131
:10A3000001214D40AC4200D1B4E0494600294CD077
:10A31000002E00D0F9E0FF21002F00D108E14A1EF5
:10A32000012900D156E1FF2900D142E11B2A00DCBE
:10A3300024E15F1E2C0006007A0100D585E731007C
:10A340000437FA08FF292CD1002A9CD08023DB0394
:10A3500013435B02FF205B0A97E7AC4200D1A7E002
:10A36000002922D0002ED6D062462C00EEE7002B2A
:10A37000E7D0481E012936D0FF29E5D001005DE76E
:10A3800001203B007A0100D457E1C0B2BB015B0A57
:10A390007BE7FF2ED8D01B2900DC9FE0310005377A
:10A3A000FA0853025B0AC8B26FE7FE20711C08422C
:10A3B00054D1002E00D0B1E0002F00D102E1002BDB
:10A3C00000D1F9E08021FA1AC9040A4200D13BE128
:10A3D0000124DF1B2C40002F49D001200F42D5D192
:10A3E0000021FA08DDE7FF1A7B0100D4DEE0BD01A1
:10A3F000AD09280000F054FA2B00053883400126EF
:10A400002022811B0131521A1F009340CF405A1E57
:10A4100093411F432BD000217B07B1D00F233B403A
:10A42000042B00D028E77B0100D528E7FA08B8E71D
:10A430001A002020CA40411A8B40591E8B411343F9
:10A44000FF1A7B0100D502E77B0700D10DE10F2346
:10A4500031003B40042B00D00EE772E7FA1A904619
:10A46000520156D44346002B00D0F3E600240020CE
:10A4700000230AE7494600291CD0002E00D002E73D
:10A48000FF21002F55D04A1E012959D0FF2900D1A4
:10A4900090E01B2A00DD91E011003A002025CA401F
:10A4A000691A8F40791E8F4117430600FF180DE788
:10A4B000002926D1FE20711C084213D1002E00D0A5
:10A4C00096E0002F00D1B4E0002B75D0FB185A01A4
:10A4D00000D4B2E09B015B0AFD38D6E68022D204AC
:10A4E0001343EAE6FF2900D1CDE6FA1852085307D4
:10A4F00005D00F23171D1340042B00D021E7D208ED
:10A500004FE7002EBCD0624620E72C00FF2000233E
:10A51000BBE60124DB1B98462C409BE6002F75D13F
:10A52000002B00D096E080230024FF20DB03ACE664
:10A530002C001F0005E7C046FFFFFFFBFFFFFF7D6C
:10A54000FB185A0100D48DE04A4A5B081A405907AB
:10A5500000D18CE00F210B400D39042BCFD002210C
:10A56000171DEEE6002900D11FE7821B1100002E07
:10A5700000D1D1E68021C9040F43D7E63900202459
:10A58000D140A21A97407A1E97410F432C00060033
:10A59000DF1B56E700298DD0811B002E00D170E70C
:10A5A0001B290BDC8022D204174376E70121FA082D
:10A5B000F7E62C006246C7E60021F2E6053301000B
:10A5C000DA08EEE6002B00D150E7012400216246B4
:10A5D0002C40E6E6DA1B530132D5920194092000A3
:10A5E00000F05EF92300053883402C00012607E7C0
:10A5F000002FDFD0002B17D08023DB039A4200D23C
:10A60000A4E69C4500D3A1E662469FE6002B0BD052
:10A610008023DB039A4200D298E69C4500D395E65E
:10A62000012462462C4091E68023DB03FF20134384
:10A630002BE60020002B00D127E60021DA08B0E647
:10A640002C000121D208ACE6002A00D10EE700213F
:10A65000D208A6E6802362460124DB03FF201343D1
:10A660002C4012E60121DA089BE6310069E602215E
:10A67000D20896E6FFFFFF7D43024A0240004900F0
:10A680005B0A520A090E000EFF2806D00020FF299F
:10A6900002D1531E9A4110007047FE38002BFBD1A7
:10A6A000F4E7C04641024200C30F490A0020120EDF
:10A6B0007E2A03DD9D2A02DD094A98187047802012
:10A6C00000040143952A07DC9620821AD1404842B3
:10A6D000002BF3D10800F1E7963A9140F7E7C04626
:10A6E000FFFFFF7F70B5002812D0C317C5185D406B
:10A6F000C40F280000F0D4F89E231B1A962B0FDC01
:10A70000082838D0083885406D026D0AD8B202E0BA
:10A71000002400200025C0052843E407204370BD25
:10A72000992B14DC421F95402A001549114055070A
:10A730001CD00F252A40042A18D00431CA08490128
:10A7400015D59F235202181A550AC0B2E3E702003A
:10A7500029001B3291404A1E91410522121AD54010
:10A760002A000A43064911405507E2D1CA0852029D
:10A77000550AD8B2CFE76D026D0A8E30CBE7C046DE
:10A78000FFFFFFFB10B5041E0DD000F089F89E23DB
:10A790001B1A962B0CDC082834D00838844064023D
:10A7A000640AD8B201E000200024C005204310BD97
:10A7B000992B13DC421F9440144A224061071CD09D
:10A7C0000F212140042918D00432D408520115D594
:10A7D0009F236402181A640AC0B2E6E7020021004F
:10A7E0001B3291400A00511E8A410521091ACC40B2
:10A7F0001443064A22406107E2D1D4086402640A85
:10A80000D8B2D2E76402640A8E30CEE7FFFFFFFBC6
:10A8100070B542024300C40FFE201B0E591C550A9E
:10A8200008420CD0E02189008C466D07120B63446E
:10A830001B051343E40723432800190070BD002BB8
:10A8400014D1002D1BD0280000F02AF80A281CDCA7
:10A850000B232A001B1ADA40030015339D400E4BD0
:10A8600012031B1A5B05120B5B0DE1E7002D09D0EB
:10A87000130B802212031A436D07084BD8E70023FD
